{
	"contracts/Magic Animal Crousal.sol": {
		"MagicAnimalCarousel": {
			"abi": [
				{
					"inputs": [],
					"stateMutability": "nonpayable",
					"type": "constructor"
				},
				{
					"inputs": [],
					"name": "AnimalNameTooLong",
					"type": "error"
				},
				{
					"inputs": [],
					"name": "InvalidCarouselId",
					"type": "error"
				},
				{
					"inputs": [],
					"name": "MAX_CAPACITY",
					"outputs": [
						{
							"internalType": "uint16",
							"name": "",
							"type": "uint16"
						}
					],
					"stateMutability": "view",
					"type": "function"
				},
				{
					"inputs": [
						{
							"internalType": "uint256",
							"name": "crateId",
							"type": "uint256"
						}
					],
					"name": "carousel",
					"outputs": [
						{
							"internalType": "uint256",
							"name": "animalInside",
							"type": "uint256"
						}
					],
					"stateMutability": "view",
					"type": "function"
				},
				{
					"inputs": [
						{
							"internalType": "string",
							"name": "animal",
							"type": "string"
						},
						{
							"internalType": "uint256",
							"name": "crateId",
							"type": "uint256"
						}
					],
					"name": "changeAnimal",
					"outputs": [],
					"stateMutability": "nonpayable",
					"type": "function"
				},
				{
					"inputs": [],
					"name": "currentCrateId",
					"outputs": [
						{
							"internalType": "uint256",
							"name": "",
							"type": "uint256"
						}
					],
					"stateMutability": "view",
					"type": "function"
				},
				{
					"inputs": [
						{
							"internalType": "string",
							"name": "animalName",
							"type": "string"
						}
					],
					"name": "encodeAnimalName",
					"outputs": [
						{
							"internalType": "uint256",
							"name": "",
							"type": "uint256"
						}
					],
					"stateMutability": "pure",
					"type": "function"
				},
				{
					"inputs": [
						{
							"internalType": "string",
							"name": "animal",
							"type": "string"
						}
					],
					"name": "setAnimalAndSpin",
					"outputs": [],
					"stateMutability": "nonpayable",
					"type": "function"
				}
			],
			"devdoc": {
				"kind": "dev",
				"methods": {},
				"version": 1
			},
			"evm": {
				"assembly": "    /* \"contracts/Magic Animal Crousal.sol\":58:2027  contract MagicAnimalCarousel {... */\n  mstore(0x40, 0x80)\n    /* \"contracts/Magic Animal Crousal.sol\":529:583  constructor() {... */\n  callvalue\n  dup1\n  iszero\n  tag_1\n  jumpi\n  revert(0x00, 0x00)\ntag_1:\n  pop\n    /* \"contracts/Magic Animal Crousal.sol\":568:576  1 << 160 */\n  0x010000000000000000000000000000000000000000\n    /* \"contracts/Magic Animal Crousal.sol\":553:561  carousel */\n  0x01\n    /* \"contracts/Magic Animal Crousal.sol\":553:564  carousel[0] */\n  0x00\n    /* \"contracts/Magic Animal Crousal.sol\":562:563  0 */\n  0x00\n    /* \"contracts/Magic Animal Crousal.sol\":553:564  carousel[0] */\n  dup2\n  mstore\n  0x20\n  add\n  swap1\n  dup2\n  mstore\n  0x20\n  add\n  0x00\n  keccak256\n  0x00\n    /* \"contracts/Magic Animal Crousal.sol\":553:576  carousel[0] ^= 1 << 160 */\n  dup3\n  dup3\n  sload\n  xor\n  swap3\n  pop\n  pop\n  dup2\n  swap1\n  sstore\n  pop\n    /* \"contracts/Magic Animal Crousal.sol\":58:2027  contract MagicAnimalCarousel {... */\n  dataSize(sub_0)\n  dup1\n  dataOffset(sub_0)\n  0x00\n  codecopy\n  0x00\n  return\nstop\n\nsub_0: assembly {\n        /* \"contracts/Magic Animal Crousal.sol\":58:2027  contract MagicAnimalCarousel {... */\n      mstore(0x40, 0x80)\n      callvalue\n      dup1\n      iszero\n      tag_1\n      jumpi\n      revert(0x00, 0x00)\n    tag_1:\n      pop\n      jumpi(tag_2, lt(calldatasize, 0x04))\n      shr(0xe0, calldataload(0x00))\n      dup1\n      0x26bad99e\n      eq\n      tag_3\n      jumpi\n      dup1\n      0x3a5ddf30\n      eq\n      tag_4\n      jumpi\n      dup1\n      0x76997b75\n      eq\n      tag_5\n      jumpi\n      dup1\n      0x932289cc\n      eq\n      tag_6\n      jumpi\n      dup1\n      0x93684bd4\n      eq\n      tag_7\n      jumpi\n      dup1\n      0xab3b9224\n      eq\n      tag_8\n      jumpi\n    tag_2:\n      revert(0x00, 0x00)\n        /* \"contracts/Magic Animal Crousal.sol\":360:389  uint256 public currentCrateId */\n    tag_3:\n      tag_9\n      tag_10\n      jump\t// in\n    tag_9:\n      mload(0x40)\n      tag_11\n      swap2\n      swap1\n      tag_12\n      jump\t// in\n    tag_11:\n      mload(0x40)\n      dup1\n      swap2\n      sub\n      swap1\n      return\n        /* \"contracts/Magic Animal Crousal.sol\":93:147  uint16 constant public MAX_CAPACITY = type(uint16).max */\n    tag_4:\n      tag_13\n      tag_14\n      jump\t// in\n    tag_13:\n      mload(0x40)\n      tag_15\n      swap2\n      swap1\n      tag_16\n      jump\t// in\n    tag_15:\n      mload(0x40)\n      dup1\n      swap2\n      sub\n      swap1\n      return\n        /* \"contracts/Magic Animal Crousal.sol\":1794:2025  function encodeAnimalName(string calldata animalName) public pure returns (uint256) {... */\n    tag_5:\n      tag_17\n      0x04\n      dup1\n      calldatasize\n      sub\n      dup2\n      add\n      swap1\n      tag_18\n      swap2\n      swap1\n      tag_19\n      jump\t// in\n    tag_18:\n      tag_20\n      jump\t// in\n    tag_17:\n      mload(0x40)\n      tag_21\n      swap2\n      swap1\n      tag_12\n      jump\t// in\n    tag_21:\n      mload(0x40)\n      dup1\n      swap2\n      sub\n      swap1\n      return\n        /* \"contracts/Magic Animal Crousal.sol\":1108:1788  function changeAnimal(string calldata animal, uint256 crateId) external {... */\n    tag_6:\n      tag_22\n      0x04\n      dup1\n      calldatasize\n      sub\n      dup2\n      add\n      swap1\n      tag_23\n      swap2\n      swap1\n      tag_24\n      jump\t// in\n    tag_23:\n      tag_25\n      jump\t// in\n    tag_22:\n      stop\n        /* \"contracts/Magic Animal Crousal.sol\":395:459  mapping(uint256 crateId => uint256 animalInside) public carousel */\n    tag_7:\n      tag_26\n      0x04\n      dup1\n      calldatasize\n      sub\n      dup2\n      add\n      swap1\n      tag_27\n      swap2\n      swap1\n      tag_28\n      jump\t// in\n    tag_27:\n      tag_29\n      jump\t// in\n    tag_26:\n      mload(0x40)\n      tag_30\n      swap2\n      swap1\n      tag_12\n      jump\t// in\n    tag_30:\n      mload(0x40)\n      dup1\n      swap2\n      sub\n      swap1\n      return\n        /* \"contracts/Magic Animal Crousal.sol\":589:1102  function setAnimalAndSpin(string calldata animal) external {... */\n    tag_8:\n      tag_31\n      0x04\n      dup1\n      calldatasize\n      sub\n      dup2\n      add\n      swap1\n      tag_32\n      swap2\n      swap1\n      tag_19\n      jump\t// in\n    tag_32:\n      tag_33\n      jump\t// in\n    tag_31:\n      stop\n        /* \"contracts/Magic Animal Crousal.sol\":360:389  uint256 public currentCrateId */\n    tag_10:\n      sload(0x00)\n      dup2\n      jump\t// out\n        /* \"contracts/Magic Animal Crousal.sol\":93:147  uint16 constant public MAX_CAPACITY = type(uint16).max */\n    tag_14:\n        /* \"contracts/Magic Animal Crousal.sol\":131:147  type(uint16).max */\n      0xffff\n        /* \"contracts/Magic Animal Crousal.sol\":93:147  uint16 constant public MAX_CAPACITY = type(uint16).max */\n      dup2\n      jump\t// out\n        /* \"contracts/Magic Animal Crousal.sol\":1794:2025  function encodeAnimalName(string calldata animalName) public pure returns (uint256) {... */\n    tag_20:\n        /* \"contracts/Magic Animal Crousal.sol\":1869:1876  uint256 */\n      0x00\n        /* \"contracts/Magic Animal Crousal.sol\":1924:1926  12 */\n      0x0c\n        /* \"contracts/Magic Animal Crousal.sol\":1902:1912  animalName */\n      dup4\n      dup4\n        /* \"contracts/Magic Animal Crousal.sol\":1896:1920  bytes(animalName).length */\n      swap1\n      pop\n        /* \"contracts/Magic Animal Crousal.sol\":1896:1926  bytes(animalName).length <= 12 */\n      gt\n      iszero\n        /* \"contracts/Magic Animal Crousal.sol\":1888:1948  require(bytes(animalName).length <= 12, AnimalNameTooLong()) */\n      tag_35\n      jumpi\n      mload(0x40)\n      0x0b3d107300000000000000000000000000000000000000000000000000000000\n      dup2\n      mstore\n      0x04\n      add\n      mload(0x40)\n      dup1\n      swap2\n      sub\n      swap1\n      revert\n    tag_35:\n        /* \"contracts/Magic Animal Crousal.sol\":2014:2017  160 */\n      0xa0\n        /* \"contracts/Magic Animal Crousal.sol\":1998:2008  animalName */\n      dup4\n      dup4\n        /* \"contracts/Magic Animal Crousal.sol\":1981:2009  abi.encodePacked(animalName) */\n      add(0x20, mload(0x40))\n      tag_36\n      swap3\n      swap2\n      swap1\n      tag_37\n      jump\t// in\n    tag_36:\n      mload(0x40)\n      0x20\n      dup2\n      dup4\n      sub\n      sub\n      dup2\n      mstore\n      swap1\n      0x40\n      mstore\n        /* \"contracts/Magic Animal Crousal.sol\":1973:2010  bytes32(abi.encodePacked(animalName)) */\n      tag_38\n      swap1\n      tag_39\n      jump\t// in\n    tag_38:\n        /* \"contracts/Magic Animal Crousal.sol\":1973:2017  bytes32(abi.encodePacked(animalName)) >> 160 */\n      swap1\n      shr\n        /* \"contracts/Magic Animal Crousal.sol\":1965:2018  uint256(bytes32(abi.encodePacked(animalName)) >> 160) */\n      0x00\n      shr\n        /* \"contracts/Magic Animal Crousal.sol\":1958:2018  return uint256(bytes32(abi.encodePacked(animalName)) >> 160) */\n      swap1\n      pop\n        /* \"contracts/Magic Animal Crousal.sol\":1794:2025  function encodeAnimalName(string calldata animalName) public pure returns (uint256) {... */\n      swap3\n      swap2\n      pop\n      pop\n      jump\t// out\n        /* \"contracts/Magic Animal Crousal.sol\":1108:1788  function changeAnimal(string calldata animal, uint256 crateId) external {... */\n    tag_25:\n        /* \"contracts/Magic Animal Crousal.sol\":1190:1203  address owner */\n      0x00\n        /* \"contracts/Magic Animal Crousal.sol\":335:352  type(uint160).max */\n      0xffffffffffffffffffffffffffffffffffffffff\n        /* \"contracts/Magic Animal Crousal.sol\":327:353  uint256(type(uint160).max) */\n      dup1\n      and\n        /* \"contracts/Magic Animal Crousal.sol\":1222:1230  carousel */\n      0x01\n        /* \"contracts/Magic Animal Crousal.sol\":1222:1239  carousel[crateId] */\n      0x00\n        /* \"contracts/Magic Animal Crousal.sol\":1231:1238  crateId */\n      dup5\n        /* \"contracts/Magic Animal Crousal.sol\":1222:1239  carousel[crateId] */\n      dup2\n      mstore\n      0x20\n      add\n      swap1\n      dup2\n      mstore\n      0x20\n      add\n      0x00\n      keccak256\n      sload\n        /* \"contracts/Magic Animal Crousal.sol\":1222:1252  carousel[crateId] & OWNER_MASK */\n      and\n        /* \"contracts/Magic Animal Crousal.sol\":1190:1254  address owner = address(uint160(carousel[crateId] & OWNER_MASK)) */\n      swap1\n      pop\n        /* \"contracts/Magic Animal Crousal.sol\":1285:1286  0 */\n      0x00\n        /* \"contracts/Magic Animal Crousal.sol\":1268:1287  owner != address(0) */\n      0xffffffffffffffffffffffffffffffffffffffff\n      and\n        /* \"contracts/Magic Animal Crousal.sol\":1268:1273  owner */\n      dup2\n        /* \"contracts/Magic Animal Crousal.sol\":1268:1287  owner != address(0) */\n      0xffffffffffffffffffffffffffffffffffffffff\n      and\n      eq\n        /* \"contracts/Magic Animal Crousal.sol\":1264:1342  if (owner != address(0)) {... */\n      tag_41\n      jumpi\n        /* \"contracts/Magic Animal Crousal.sol\":1325:1330  owner */\n      dup1\n        /* \"contracts/Magic Animal Crousal.sol\":1311:1330  msg.sender == owner */\n      0xffffffffffffffffffffffffffffffffffffffff\n      and\n        /* \"contracts/Magic Animal Crousal.sol\":1311:1321  msg.sender */\n      caller\n        /* \"contracts/Magic Animal Crousal.sol\":1311:1330  msg.sender == owner */\n      0xffffffffffffffffffffffffffffffffffffffff\n      and\n      eq\n        /* \"contracts/Magic Animal Crousal.sol\":1303:1331  require(msg.sender == owner) */\n      tag_42\n      jumpi\n      revert(0x00, 0x00)\n    tag_42:\n        /* \"contracts/Magic Animal Crousal.sol\":1264:1342  if (owner != address(0)) {... */\n    tag_41:\n        /* \"contracts/Magic Animal Crousal.sol\":1351:1372  uint256 encodedAnimal */\n      0x00\n        /* \"contracts/Magic Animal Crousal.sol\":1375:1399  encodeAnimalName(animal) */\n      tag_43\n        /* \"contracts/Magic Animal Crousal.sol\":1392:1398  animal */\n      dup6\n      dup6\n        /* \"contracts/Magic Animal Crousal.sol\":1375:1391  encodeAnimalName */\n      tag_20\n        /* \"contracts/Magic Animal Crousal.sol\":1375:1399  encodeAnimalName(animal) */\n      jump\t// in\n    tag_43:\n        /* \"contracts/Magic Animal Crousal.sol\":1351:1399  uint256 encodedAnimal = encodeAnimalName(animal) */\n      swap1\n      pop\n        /* \"contracts/Magic Animal Crousal.sol\":1430:1431  0 */\n      0x00\n        /* \"contracts/Magic Animal Crousal.sol\":1413:1426  encodedAnimal */\n      dup2\n        /* \"contracts/Magic Animal Crousal.sol\":1413:1431  encodedAnimal != 0 */\n      eq\n        /* \"contracts/Magic Animal Crousal.sol\":1409:1782  if (encodedAnimal != 0) {... */\n      tag_44\n      jumpi\n        /* \"contracts/Magic Animal Crousal.sol\":1583:1593  msg.sender */\n      caller\n        /* \"contracts/Magic Animal Crousal.sol\":1513:1594  (encodedAnimal << 160) | (carousel[crateId] & NEXT_ID_MASK) | uint160(msg.sender) */\n      0xffffffffffffffffffffffffffffffffffffffff\n      and\n        /* \"contracts/Magic Animal Crousal.sol\":288:291  160 */\n      0xa0\n        /* \"contracts/Magic Animal Crousal.sol\":267:283  type(uint16).max */\n      0xffff\n        /* \"contracts/Magic Animal Crousal.sol\":259:284  uint256(type(uint16).max) */\n      dup1\n      and\n        /* \"contracts/Magic Animal Crousal.sol\":259:291  uint256(type(uint16).max) << 160 */\n      swap1\n      shl\n        /* \"contracts/Magic Animal Crousal.sol\":1539:1547  carousel */\n      0x01\n        /* \"contracts/Magic Animal Crousal.sol\":1539:1556  carousel[crateId] */\n      0x00\n        /* \"contracts/Magic Animal Crousal.sol\":1548:1555  crateId */\n      dup7\n        /* \"contracts/Magic Animal Crousal.sol\":1539:1556  carousel[crateId] */\n      dup2\n      mstore\n      0x20\n      add\n      swap1\n      dup2\n      mstore\n      0x20\n      add\n      0x00\n      keccak256\n      sload\n        /* \"contracts/Magic Animal Crousal.sol\":1539:1571  carousel[crateId] & NEXT_ID_MASK */\n      and\n        /* \"contracts/Magic Animal Crousal.sol\":1531:1534  160 */\n      0xa0\n        /* \"contracts/Magic Animal Crousal.sol\":1514:1527  encodedAnimal */\n      dup4\n        /* \"contracts/Magic Animal Crousal.sol\":1514:1534  encodedAnimal << 160 */\n      swap1\n      shl\n        /* \"contracts/Magic Animal Crousal.sol\":1513:1572  (encodedAnimal << 160) | (carousel[crateId] & NEXT_ID_MASK) */\n      or\n        /* \"contracts/Magic Animal Crousal.sol\":1513:1594  (encodedAnimal << 160) | (carousel[crateId] & NEXT_ID_MASK) | uint160(msg.sender) */\n      or\n        /* \"contracts/Magic Animal Crousal.sol\":1477:1485  carousel */\n      0x01\n        /* \"contracts/Magic Animal Crousal.sol\":1477:1494  carousel[crateId] */\n      0x00\n        /* \"contracts/Magic Animal Crousal.sol\":1486:1493  crateId */\n      dup6\n        /* \"contracts/Magic Animal Crousal.sol\":1477:1494  carousel[crateId] */\n      dup2\n      mstore\n      0x20\n      add\n      swap1\n      dup2\n      mstore\n      0x20\n      add\n      0x00\n      keccak256\n        /* \"contracts/Magic Animal Crousal.sol\":1477:1594  carousel[crateId] =... */\n      dup2\n      swap1\n      sstore\n      pop\n        /* \"contracts/Magic Animal Crousal.sol\":1409:1782  if (encodedAnimal != 0) {... */\n      jump(tag_45)\n    tag_44:\n        /* \"contracts/Magic Animal Crousal.sol\":288:291  160 */\n      0xa0\n        /* \"contracts/Magic Animal Crousal.sol\":267:283  type(uint16).max */\n      0xffff\n        /* \"contracts/Magic Animal Crousal.sol\":259:284  uint256(type(uint16).max) */\n      dup1\n      and\n        /* \"contracts/Magic Animal Crousal.sol\":259:291  uint256(type(uint16).max) << 160 */\n      swap1\n      shl\n        /* \"contracts/Magic Animal Crousal.sol\":213:221  160 + 16 */\n      0xb0\n        /* \"contracts/Magic Animal Crousal.sol\":192:208  type(uint80).max */\n      0xffffffffffffffffffff\n        /* \"contracts/Magic Animal Crousal.sol\":184:209  uint256(type(uint80).max) */\n      dup1\n      and\n        /* \"contracts/Magic Animal Crousal.sol\":184:221  uint256(type(uint80).max) << 160 + 16 */\n      swap1\n      shl\n        /* \"contracts/Magic Animal Crousal.sol\":1743:1769  ANIMAL_MASK | NEXT_ID_MASK */\n      or\n        /* \"contracts/Magic Animal Crousal.sol\":1722:1730  carousel */\n      0x01\n        /* \"contracts/Magic Animal Crousal.sol\":1722:1739  carousel[crateId] */\n      0x00\n        /* \"contracts/Magic Animal Crousal.sol\":1731:1738  crateId */\n      dup6\n        /* \"contracts/Magic Animal Crousal.sol\":1722:1739  carousel[crateId] */\n      dup2\n      mstore\n      0x20\n      add\n      swap1\n      dup2\n      mstore\n      0x20\n      add\n      0x00\n      keccak256\n      sload\n        /* \"contracts/Magic Animal Crousal.sol\":1722:1770  carousel[crateId] & (ANIMAL_MASK | NEXT_ID_MASK) */\n      and\n        /* \"contracts/Magic Animal Crousal.sol\":1702:1710  carousel */\n      0x01\n        /* \"contracts/Magic Animal Crousal.sol\":1702:1719  carousel[crateId] */\n      0x00\n        /* \"contracts/Magic Animal Crousal.sol\":1711:1718  crateId */\n      dup6\n        /* \"contracts/Magic Animal Crousal.sol\":1702:1719  carousel[crateId] */\n      dup2\n      mstore\n      0x20\n      add\n      swap1\n      dup2\n      mstore\n      0x20\n      add\n      0x00\n      keccak256\n        /* \"contracts/Magic Animal Crousal.sol\":1702:1771  carousel[crateId]= (carousel[crateId] & (ANIMAL_MASK | NEXT_ID_MASK)) */\n      dup2\n      swap1\n      sstore\n      pop\n        /* \"contracts/Magic Animal Crousal.sol\":1409:1782  if (encodedAnimal != 0) {... */\n    tag_45:\n        /* \"contracts/Magic Animal Crousal.sol\":1180:1788  {... */\n      pop\n      pop\n        /* \"contracts/Magic Animal Crousal.sol\":1108:1788  function changeAnimal(string calldata animal, uint256 crateId) external {... */\n      pop\n      pop\n      pop\n      jump\t// out\n        /* \"contracts/Magic Animal Crousal.sol\":395:459  mapping(uint256 crateId => uint256 animalInside) public carousel */\n    tag_29:\n      mstore(0x20, 0x01)\n      dup1\n      0x00\n      mstore\n      keccak256(0x00, 0x40)\n      0x00\n      swap2\n      pop\n      swap1\n      pop\n      sload\n      dup2\n      jump\t// out\n        /* \"contracts/Magic Animal Crousal.sol\":589:1102  function setAnimalAndSpin(string calldata animal) external {... */\n    tag_33:\n        /* \"contracts/Magic Animal Crousal.sol\":658:679  uint256 encodedAnimal */\n      0x00\n        /* \"contracts/Magic Animal Crousal.sol\":710:712  16 */\n      0x10\n        /* \"contracts/Magic Animal Crousal.sol\":682:706  encodeAnimalName(animal) */\n      tag_47\n        /* \"contracts/Magic Animal Crousal.sol\":699:705  animal */\n      dup5\n      dup5\n        /* \"contracts/Magic Animal Crousal.sol\":682:698  encodeAnimalName */\n      tag_20\n        /* \"contracts/Magic Animal Crousal.sol\":682:706  encodeAnimalName(animal) */\n      jump\t// in\n    tag_47:\n        /* \"contracts/Magic Animal Crousal.sol\":682:712  encodeAnimalName(animal) >> 16 */\n      swap1\n      shr\n        /* \"contracts/Magic Animal Crousal.sol\":658:712  uint256 encodedAnimal = encodeAnimalName(animal) >> 16 */\n      swap1\n      pop\n        /* \"contracts/Magic Animal Crousal.sol\":722:741  uint256 nextCrateId */\n      0x00\n        /* \"contracts/Magic Animal Crousal.sol\":789:792  160 */\n      0xa0\n        /* \"contracts/Magic Animal Crousal.sol\":288:291  160 */\n      dup1\n        /* \"contracts/Magic Animal Crousal.sol\":267:283  type(uint16).max */\n      0xffff\n        /* \"contracts/Magic Animal Crousal.sol\":259:284  uint256(type(uint16).max) */\n      dup1\n      and\n        /* \"contracts/Magic Animal Crousal.sol\":259:291  uint256(type(uint16).max) << 160 */\n      swap1\n      shl\n        /* \"contracts/Magic Animal Crousal.sol\":745:753  carousel */\n      0x01\n        /* \"contracts/Magic Animal Crousal.sol\":745:769  carousel[currentCrateId] */\n      0x00\n        /* \"contracts/Magic Animal Crousal.sol\":754:768  currentCrateId */\n      sload(0x00)\n        /* \"contracts/Magic Animal Crousal.sol\":745:769  carousel[currentCrateId] */\n      dup2\n      mstore\n      0x20\n      add\n      swap1\n      dup2\n      mstore\n      0x20\n      add\n      0x00\n      keccak256\n      sload\n        /* \"contracts/Magic Animal Crousal.sol\":745:784  carousel[currentCrateId] & NEXT_ID_MASK */\n      and\n        /* \"contracts/Magic Animal Crousal.sol\":744:792  (carousel[currentCrateId] & NEXT_ID_MASK) >> 160 */\n      swap1\n      shr\n        /* \"contracts/Magic Animal Crousal.sol\":722:792  uint256 nextCrateId = (carousel[currentCrateId] & NEXT_ID_MASK) >> 160 */\n      swap1\n      pop\n        /* \"contracts/Magic Animal Crousal.sol\":836:852  type(uint80).max */\n      0xffffffffffffffffffff\n        /* \"contracts/Magic Animal Crousal.sol\":828:853  uint256(type(uint80).max) */\n      dup1\n      and\n        /* \"contracts/Magic Animal Crousal.sol\":811:824  encodedAnimal */\n      dup3\n        /* \"contracts/Magic Animal Crousal.sol\":811:853  encodedAnimal <= uint256(type(uint80).max) */\n      gt\n      iszero\n        /* \"contracts/Magic Animal Crousal.sol\":803:875  require(encodedAnimal <= uint256(type(uint80).max), AnimalNameTooLong()) */\n      tag_48\n      jumpi\n      mload(0x40)\n      0x0b3d107300000000000000000000000000000000000000000000000000000000\n      dup2\n      mstore\n      0x04\n      add\n      mload(0x40)\n      dup1\n      swap2\n      sub\n      swap1\n      revert\n    tag_48:\n        /* \"contracts/Magic Animal Crousal.sol\":1045:1055  msg.sender */\n      caller\n        /* \"contracts/Magic Animal Crousal.sol\":909:1056  (carousel[nextCrateId] & ~NEXT_ID_MASK) ^ (encodedAnimal << 160 + 16)... */\n      0xffffffffffffffffffffffffffffffffffffffff\n      and\n        /* \"contracts/Magic Animal Crousal.sol\":1031:1034  160 */\n      0xa0\n        /* \"contracts/Magic Animal Crousal.sol\":131:147  type(uint16).max */\n      0xffff\n        /* \"contracts/Magic Animal Crousal.sol\":994:1026  (nextCrateId + 1) % MAX_CAPACITY */\n      dup1\n      and\n        /* \"contracts/Magic Animal Crousal.sol\":1009:1010  1 */\n      0x01\n        /* \"contracts/Magic Animal Crousal.sol\":995:1006  nextCrateId */\n      dup5\n        /* \"contracts/Magic Animal Crousal.sol\":995:1010  nextCrateId + 1 */\n      tag_49\n      swap2\n      swap1\n      tag_50\n      jump\t// in\n    tag_49:\n        /* \"contracts/Magic Animal Crousal.sol\":994:1026  (nextCrateId + 1) % MAX_CAPACITY */\n      tag_51\n      swap2\n      swap1\n      tag_52\n      jump\t// in\n    tag_51:\n        /* \"contracts/Magic Animal Crousal.sol\":993:1034  ((nextCrateId + 1) % MAX_CAPACITY) << 160 */\n      swap1\n      shl\n        /* \"contracts/Magic Animal Crousal.sol\":969:977  160 + 16 */\n      0xb0\n        /* \"contracts/Magic Animal Crousal.sol\":952:965  encodedAnimal */\n      dup5\n        /* \"contracts/Magic Animal Crousal.sol\":952:977  encodedAnimal << 160 + 16 */\n      swap1\n      shl\n        /* \"contracts/Magic Animal Crousal.sol\":288:291  160 */\n      0xa0\n        /* \"contracts/Magic Animal Crousal.sol\":267:283  type(uint16).max */\n      0xffff\n        /* \"contracts/Magic Animal Crousal.sol\":259:284  uint256(type(uint16).max) */\n      dup1\n      and\n        /* \"contracts/Magic Animal Crousal.sol\":259:291  uint256(type(uint16).max) << 160 */\n      swap1\n      shl\n        /* \"contracts/Magic Animal Crousal.sol\":934:947  ~NEXT_ID_MASK */\n      not\n        /* \"contracts/Magic Animal Crousal.sol\":910:918  carousel */\n      0x01\n        /* \"contracts/Magic Animal Crousal.sol\":910:931  carousel[nextCrateId] */\n      0x00\n        /* \"contracts/Magic Animal Crousal.sol\":919:930  nextCrateId */\n      dup7\n        /* \"contracts/Magic Animal Crousal.sol\":910:931  carousel[nextCrateId] */\n      dup2\n      mstore\n      0x20\n      add\n      swap1\n      dup2\n      mstore\n      0x20\n      add\n      0x00\n      keccak256\n      sload\n        /* \"contracts/Magic Animal Crousal.sol\":910:947  carousel[nextCrateId] & ~NEXT_ID_MASK */\n      and\n        /* \"contracts/Magic Animal Crousal.sol\":909:978  (carousel[nextCrateId] & ~NEXT_ID_MASK) ^ (encodedAnimal << 160 + 16) */\n      xor\n        /* \"contracts/Magic Animal Crousal.sol\":909:1034  (carousel[nextCrateId] & ~NEXT_ID_MASK) ^ (encodedAnimal << 160 + 16)... */\n      or\n        /* \"contracts/Magic Animal Crousal.sol\":909:1056  (carousel[nextCrateId] & ~NEXT_ID_MASK) ^ (encodedAnimal << 160 + 16)... */\n      or\n        /* \"contracts/Magic Animal Crousal.sol\":885:893  carousel */\n      0x01\n        /* \"contracts/Magic Animal Crousal.sol\":885:906  carousel[nextCrateId] */\n      0x00\n        /* \"contracts/Magic Animal Crousal.sol\":894:905  nextCrateId */\n      dup4\n        /* \"contracts/Magic Animal Crousal.sol\":885:906  carousel[nextCrateId] */\n      dup2\n      mstore\n      0x20\n      add\n      swap1\n      dup2\n      mstore\n      0x20\n      add\n      0x00\n      keccak256\n        /* \"contracts/Magic Animal Crousal.sol\":885:1056  carousel[nextCrateId] = (carousel[nextCrateId] & ~NEXT_ID_MASK) ^ (encodedAnimal << 160 + 16)... */\n      dup2\n      swap1\n      sstore\n      pop\n        /* \"contracts/Magic Animal Crousal.sol\":1084:1095  nextCrateId */\n      dup1\n        /* \"contracts/Magic Animal Crousal.sol\":1067:1081  currentCrateId */\n      0x00\n        /* \"contracts/Magic Animal Crousal.sol\":1067:1095  currentCrateId = nextCrateId */\n      dup2\n      swap1\n      sstore\n      pop\n        /* \"contracts/Magic Animal Crousal.sol\":648:1102  {... */\n      pop\n      pop\n        /* \"contracts/Magic Animal Crousal.sol\":589:1102  function setAnimalAndSpin(string calldata animal) external {... */\n      pop\n      pop\n      jump\t// out\n        /* \"#utility.yul\":7:84   */\n    tag_53:\n        /* \"#utility.yul\":44:51   */\n      0x00\n        /* \"#utility.yul\":73:78   */\n      dup2\n        /* \"#utility.yul\":62:78   */\n      swap1\n      pop\n        /* \"#utility.yul\":7:84   */\n      swap2\n      swap1\n      pop\n      jump\t// out\n        /* \"#utility.yul\":90:208   */\n    tag_54:\n        /* \"#utility.yul\":177:201   */\n      tag_79\n        /* \"#utility.yul\":195:200   */\n      dup2\n        /* \"#utility.yul\":177:201   */\n      tag_53\n      jump\t// in\n    tag_79:\n        /* \"#utility.yul\":172:175   */\n      dup3\n        /* \"#utility.yul\":165:202   */\n      mstore\n        /* \"#utility.yul\":90:208   */\n      pop\n      pop\n      jump\t// out\n        /* \"#utility.yul\":214:436   */\n    tag_12:\n        /* \"#utility.yul\":307:311   */\n      0x00\n        /* \"#utility.yul\":345:347   */\n      0x20\n        /* \"#utility.yul\":334:343   */\n      dup3\n        /* \"#utility.yul\":330:348   */\n      add\n        /* \"#utility.yul\":322:348   */\n      swap1\n      pop\n        /* \"#utility.yul\":358:429   */\n      tag_81\n        /* \"#utility.yul\":426:427   */\n      0x00\n        /* \"#utility.yul\":415:424   */\n      dup4\n        /* \"#utility.yul\":411:428   */\n      add\n        /* \"#utility.yul\":402:408   */\n      dup5\n        /* \"#utility.yul\":358:429   */\n      tag_54\n      jump\t// in\n    tag_81:\n        /* \"#utility.yul\":214:436   */\n      swap3\n      swap2\n      pop\n      pop\n      jump\t// out\n        /* \"#utility.yul\":442:531   */\n    tag_55:\n        /* \"#utility.yul\":478:485   */\n      0x00\n        /* \"#utility.yul\":518:524   */\n      0xffff\n        /* \"#utility.yul\":511:516   */\n      dup3\n        /* \"#utility.yul\":507:525   */\n      and\n        /* \"#utility.yul\":496:525   */\n      swap1\n      pop\n        /* \"#utility.yul\":442:531   */\n      swap2\n      swap1\n      pop\n      jump\t// out\n        /* \"#utility.yul\":537:652   */\n    tag_56:\n        /* \"#utility.yul\":622:645   */\n      tag_84\n        /* \"#utility.yul\":639:644   */\n      dup2\n        /* \"#utility.yul\":622:645   */\n      tag_55\n      jump\t// in\n    tag_84:\n        /* \"#utility.yul\":617:620   */\n      dup3\n        /* \"#utility.yul\":610:646   */\n      mstore\n        /* \"#utility.yul\":537:652   */\n      pop\n      pop\n      jump\t// out\n        /* \"#utility.yul\":658:876   */\n    tag_16:\n        /* \"#utility.yul\":749:753   */\n      0x00\n        /* \"#utility.yul\":787:789   */\n      0x20\n        /* \"#utility.yul\":776:785   */\n      dup3\n        /* \"#utility.yul\":772:790   */\n      add\n        /* \"#utility.yul\":764:790   */\n      swap1\n      pop\n        /* \"#utility.yul\":800:869   */\n      tag_86\n        /* \"#utility.yul\":866:867   */\n      0x00\n        /* \"#utility.yul\":855:864   */\n      dup4\n        /* \"#utility.yul\":851:868   */\n      add\n        /* \"#utility.yul\":842:848   */\n      dup5\n        /* \"#utility.yul\":800:869   */\n      tag_56\n      jump\t// in\n    tag_86:\n        /* \"#utility.yul\":658:876   */\n      swap3\n      swap2\n      pop\n      pop\n      jump\t// out\n        /* \"#utility.yul\":963:1080   */\n    tag_58:\n        /* \"#utility.yul\":1072:1073   */\n      0x00\n        /* \"#utility.yul\":1069:1070   */\n      0x00\n        /* \"#utility.yul\":1062:1074   */\n      revert\n        /* \"#utility.yul\":1086:1203   */\n    tag_59:\n        /* \"#utility.yul\":1195:1196   */\n      0x00\n        /* \"#utility.yul\":1192:1193   */\n      0x00\n        /* \"#utility.yul\":1185:1197   */\n      revert\n        /* \"#utility.yul\":1209:1326   */\n    tag_60:\n        /* \"#utility.yul\":1318:1319   */\n      0x00\n        /* \"#utility.yul\":1315:1316   */\n      0x00\n        /* \"#utility.yul\":1308:1320   */\n      revert\n        /* \"#utility.yul\":1332:1449   */\n    tag_61:\n        /* \"#utility.yul\":1441:1442   */\n      0x00\n        /* \"#utility.yul\":1438:1439   */\n      0x00\n        /* \"#utility.yul\":1431:1443   */\n      revert\n        /* \"#utility.yul\":1455:1572   */\n    tag_62:\n        /* \"#utility.yul\":1564:1565   */\n      0x00\n        /* \"#utility.yul\":1561:1562   */\n      0x00\n        /* \"#utility.yul\":1554:1566   */\n      revert\n        /* \"#utility.yul\":1592:2145   */\n    tag_63:\n        /* \"#utility.yul\":1650:1658   */\n      0x00\n        /* \"#utility.yul\":1660:1666   */\n      0x00\n        /* \"#utility.yul\":1710:1713   */\n      dup4\n        /* \"#utility.yul\":1703:1707   */\n      0x1f\n        /* \"#utility.yul\":1695:1701   */\n      dup5\n        /* \"#utility.yul\":1691:1708   */\n      add\n        /* \"#utility.yul\":1687:1714   */\n      slt\n        /* \"#utility.yul\":1677:1799   */\n      tag_94\n      jumpi\n        /* \"#utility.yul\":1718:1797   */\n      tag_95\n      tag_60\n      jump\t// in\n    tag_95:\n        /* \"#utility.yul\":1677:1799   */\n    tag_94:\n        /* \"#utility.yul\":1831:1837   */\n      dup3\n        /* \"#utility.yul\":1818:1838   */\n      calldataload\n        /* \"#utility.yul\":1808:1838   */\n      swap1\n      pop\n        /* \"#utility.yul\":1861:1879   */\n      0xffffffffffffffff\n        /* \"#utility.yul\":1853:1859   */\n      dup2\n        /* \"#utility.yul\":1850:1880   */\n      gt\n        /* \"#utility.yul\":1847:1964   */\n      iszero\n      tag_96\n      jumpi\n        /* \"#utility.yul\":1883:1962   */\n      tag_97\n      tag_61\n      jump\t// in\n    tag_97:\n        /* \"#utility.yul\":1847:1964   */\n    tag_96:\n        /* \"#utility.yul\":1997:2001   */\n      0x20\n        /* \"#utility.yul\":1989:1995   */\n      dup4\n        /* \"#utility.yul\":1985:2002   */\n      add\n        /* \"#utility.yul\":1973:2002   */\n      swap2\n      pop\n        /* \"#utility.yul\":2051:2054   */\n      dup4\n        /* \"#utility.yul\":2043:2047   */\n      0x01\n        /* \"#utility.yul\":2035:2041   */\n      dup3\n        /* \"#utility.yul\":2031:2048   */\n      mul\n        /* \"#utility.yul\":2021:2029   */\n      dup4\n        /* \"#utility.yul\":2017:2049   */\n      add\n        /* \"#utility.yul\":2014:2055   */\n      gt\n        /* \"#utility.yul\":2011:2139   */\n      iszero\n      tag_98\n      jumpi\n        /* \"#utility.yul\":2058:2137   */\n      tag_99\n      tag_62\n      jump\t// in\n    tag_99:\n        /* \"#utility.yul\":2011:2139   */\n    tag_98:\n        /* \"#utility.yul\":1592:2145   */\n      swap3\n      pop\n      swap3\n      swap1\n      pop\n      jump\t// out\n        /* \"#utility.yul\":2151:2680   */\n    tag_19:\n        /* \"#utility.yul\":2222:2228   */\n      0x00\n        /* \"#utility.yul\":2230:2236   */\n      0x00\n        /* \"#utility.yul\":2279:2281   */\n      0x20\n        /* \"#utility.yul\":2267:2276   */\n      dup4\n        /* \"#utility.yul\":2258:2265   */\n      dup6\n        /* \"#utility.yul\":2254:2277   */\n      sub\n        /* \"#utility.yul\":2250:2282   */\n      slt\n        /* \"#utility.yul\":2247:2366   */\n      iszero\n      tag_101\n      jumpi\n        /* \"#utility.yul\":2285:2364   */\n      tag_102\n      tag_58\n      jump\t// in\n    tag_102:\n        /* \"#utility.yul\":2247:2366   */\n    tag_101:\n        /* \"#utility.yul\":2433:2434   */\n      0x00\n        /* \"#utility.yul\":2422:2431   */\n      dup4\n        /* \"#utility.yul\":2418:2435   */\n      add\n        /* \"#utility.yul\":2405:2436   */\n      calldataload\n        /* \"#utility.yul\":2463:2481   */\n      0xffffffffffffffff\n        /* \"#utility.yul\":2455:2461   */\n      dup2\n        /* \"#utility.yul\":2452:2482   */\n      gt\n        /* \"#utility.yul\":2449:2566   */\n      iszero\n      tag_103\n      jumpi\n        /* \"#utility.yul\":2485:2564   */\n      tag_104\n      tag_59\n      jump\t// in\n    tag_104:\n        /* \"#utility.yul\":2449:2566   */\n    tag_103:\n        /* \"#utility.yul\":2598:2663   */\n      tag_105\n        /* \"#utility.yul\":2655:2662   */\n      dup6\n        /* \"#utility.yul\":2646:2652   */\n      dup3\n        /* \"#utility.yul\":2635:2644   */\n      dup7\n        /* \"#utility.yul\":2631:2653   */\n      add\n        /* \"#utility.yul\":2598:2663   */\n      tag_63\n      jump\t// in\n    tag_105:\n        /* \"#utility.yul\":2580:2663   */\n      swap3\n      pop\n      swap3\n      pop\n        /* \"#utility.yul\":2376:2673   */\n      pop\n        /* \"#utility.yul\":2151:2680   */\n      swap3\n      pop\n      swap3\n      swap1\n      pop\n      jump\t// out\n        /* \"#utility.yul\":2686:2808   */\n    tag_64:\n        /* \"#utility.yul\":2759:2783   */\n      tag_107\n        /* \"#utility.yul\":2777:2782   */\n      dup2\n        /* \"#utility.yul\":2759:2783   */\n      tag_53\n      jump\t// in\n    tag_107:\n        /* \"#utility.yul\":2752:2757   */\n      dup2\n        /* \"#utility.yul\":2749:2784   */\n      eq\n        /* \"#utility.yul\":2739:2802   */\n      tag_108\n      jumpi\n        /* \"#utility.yul\":2798:2799   */\n      0x00\n        /* \"#utility.yul\":2795:2796   */\n      0x00\n        /* \"#utility.yul\":2788:2800   */\n      revert\n        /* \"#utility.yul\":2739:2802   */\n    tag_108:\n        /* \"#utility.yul\":2686:2808   */\n      pop\n      jump\t// out\n        /* \"#utility.yul\":2814:2953   */\n    tag_65:\n        /* \"#utility.yul\":2860:2865   */\n      0x00\n        /* \"#utility.yul\":2898:2904   */\n      dup2\n        /* \"#utility.yul\":2885:2905   */\n      calldataload\n        /* \"#utility.yul\":2876:2905   */\n      swap1\n      pop\n        /* \"#utility.yul\":2914:2947   */\n      tag_110\n        /* \"#utility.yul\":2941:2946   */\n      dup2\n        /* \"#utility.yul\":2914:2947   */\n      tag_64\n      jump\t// in\n    tag_110:\n        /* \"#utility.yul\":2814:2953   */\n      swap3\n      swap2\n      pop\n      pop\n      jump\t// out\n        /* \"#utility.yul\":2959:3633   */\n    tag_24:\n        /* \"#utility.yul\":3039:3045   */\n      0x00\n        /* \"#utility.yul\":3047:3053   */\n      0x00\n        /* \"#utility.yul\":3055:3061   */\n      0x00\n        /* \"#utility.yul\":3104:3106   */\n      0x40\n        /* \"#utility.yul\":3092:3101   */\n      dup5\n        /* \"#utility.yul\":3083:3090   */\n      dup7\n        /* \"#utility.yul\":3079:3102   */\n      sub\n        /* \"#utility.yul\":3075:3107   */\n      slt\n        /* \"#utility.yul\":3072:3191   */\n      iszero\n      tag_112\n      jumpi\n        /* \"#utility.yul\":3110:3189   */\n      tag_113\n      tag_58\n      jump\t// in\n    tag_113:\n        /* \"#utility.yul\":3072:3191   */\n    tag_112:\n        /* \"#utility.yul\":3258:3259   */\n      0x00\n        /* \"#utility.yul\":3247:3256   */\n      dup5\n        /* \"#utility.yul\":3243:3260   */\n      add\n        /* \"#utility.yul\":3230:3261   */\n      calldataload\n        /* \"#utility.yul\":3288:3306   */\n      0xffffffffffffffff\n        /* \"#utility.yul\":3280:3286   */\n      dup2\n        /* \"#utility.yul\":3277:3307   */\n      gt\n        /* \"#utility.yul\":3274:3391   */\n      iszero\n      tag_114\n      jumpi\n        /* \"#utility.yul\":3310:3389   */\n      tag_115\n      tag_59\n      jump\t// in\n    tag_115:\n        /* \"#utility.yul\":3274:3391   */\n    tag_114:\n        /* \"#utility.yul\":3423:3488   */\n      tag_116\n        /* \"#utility.yul\":3480:3487   */\n      dup7\n        /* \"#utility.yul\":3471:3477   */\n      dup3\n        /* \"#utility.yul\":3460:3469   */\n      dup8\n        /* \"#utility.yul\":3456:3478   */\n      add\n        /* \"#utility.yul\":3423:3488   */\n      tag_63\n      jump\t// in\n    tag_116:\n        /* \"#utility.yul\":3405:3488   */\n      swap4\n      pop\n      swap4\n      pop\n        /* \"#utility.yul\":3201:3498   */\n      pop\n        /* \"#utility.yul\":3537:3539   */\n      0x20\n        /* \"#utility.yul\":3563:3616   */\n      tag_117\n        /* \"#utility.yul\":3608:3615   */\n      dup7\n        /* \"#utility.yul\":3599:3605   */\n      dup3\n        /* \"#utility.yul\":3588:3597   */\n      dup8\n        /* \"#utility.yul\":3584:3606   */\n      add\n        /* \"#utility.yul\":3563:3616   */\n      tag_65\n      jump\t// in\n    tag_117:\n        /* \"#utility.yul\":3553:3616   */\n      swap2\n      pop\n        /* \"#utility.yul\":3508:3626   */\n      pop\n        /* \"#utility.yul\":2959:3633   */\n      swap3\n      pop\n      swap3\n      pop\n      swap3\n      jump\t// out\n        /* \"#utility.yul\":3639:3968   */\n    tag_28:\n        /* \"#utility.yul\":3698:3704   */\n      0x00\n        /* \"#utility.yul\":3747:3749   */\n      0x20\n        /* \"#utility.yul\":3735:3744   */\n      dup3\n        /* \"#utility.yul\":3726:3733   */\n      dup5\n        /* \"#utility.yul\":3722:3745   */\n      sub\n        /* \"#utility.yul\":3718:3750   */\n      slt\n        /* \"#utility.yul\":3715:3834   */\n      iszero\n      tag_119\n      jumpi\n        /* \"#utility.yul\":3753:3832   */\n      tag_120\n      tag_58\n      jump\t// in\n    tag_120:\n        /* \"#utility.yul\":3715:3834   */\n    tag_119:\n        /* \"#utility.yul\":3873:3874   */\n      0x00\n        /* \"#utility.yul\":3898:3951   */\n      tag_121\n        /* \"#utility.yul\":3943:3950   */\n      dup5\n        /* \"#utility.yul\":3934:3940   */\n      dup3\n        /* \"#utility.yul\":3923:3932   */\n      dup6\n        /* \"#utility.yul\":3919:3941   */\n      add\n        /* \"#utility.yul\":3898:3951   */\n      tag_65\n      jump\t// in\n    tag_121:\n        /* \"#utility.yul\":3888:3951   */\n      swap2\n      pop\n        /* \"#utility.yul\":3844:3961   */\n      pop\n        /* \"#utility.yul\":3639:3968   */\n      swap3\n      swap2\n      pop\n      pop\n      jump\t// out\n        /* \"#utility.yul\":3974:4122   */\n    tag_66:\n        /* \"#utility.yul\":4076:4087   */\n      0x00\n        /* \"#utility.yul\":4113:4116   */\n      dup2\n        /* \"#utility.yul\":4098:4116   */\n      swap1\n      pop\n        /* \"#utility.yul\":3974:4122   */\n      swap3\n      swap2\n      pop\n      pop\n      jump\t// out\n        /* \"#utility.yul\":4128:4276   */\n    tag_67:\n        /* \"#utility.yul\":4226:4232   */\n      dup3\n        /* \"#utility.yul\":4221:4224   */\n      dup2\n        /* \"#utility.yul\":4216:4219   */\n      dup4\n        /* \"#utility.yul\":4203:4233   */\n      calldatacopy\n        /* \"#utility.yul\":4267:4268   */\n      0x00\n        /* \"#utility.yul\":4258:4264   */\n      dup4\n        /* \"#utility.yul\":4253:4256   */\n      dup4\n        /* \"#utility.yul\":4249:4265   */\n      add\n        /* \"#utility.yul\":4242:4269   */\n      mstore\n        /* \"#utility.yul\":4128:4276   */\n      pop\n      pop\n      pop\n      jump\t// out\n        /* \"#utility.yul\":4306:4636   */\n    tag_68:\n        /* \"#utility.yul\":4422:4425   */\n      0x00\n        /* \"#utility.yul\":4443:4532   */\n      tag_125\n        /* \"#utility.yul\":4525:4531   */\n      dup4\n        /* \"#utility.yul\":4520:4523   */\n      dup6\n        /* \"#utility.yul\":4443:4532   */\n      tag_66\n      jump\t// in\n    tag_125:\n        /* \"#utility.yul\":4436:4532   */\n      swap4\n      pop\n        /* \"#utility.yul\":4542:4598   */\n      tag_126\n        /* \"#utility.yul\":4591:4597   */\n      dup4\n        /* \"#utility.yul\":4586:4589   */\n      dup6\n        /* \"#utility.yul\":4579:4584   */\n      dup5\n        /* \"#utility.yul\":4542:4598   */\n      tag_67\n      jump\t// in\n    tag_126:\n        /* \"#utility.yul\":4623:4629   */\n      dup3\n        /* \"#utility.yul\":4618:4621   */\n      dup5\n        /* \"#utility.yul\":4614:4630   */\n      add\n        /* \"#utility.yul\":4607:4630   */\n      swap1\n      pop\n        /* \"#utility.yul\":4306:4636   */\n      swap4\n      swap3\n      pop\n      pop\n      pop\n      jump\t// out\n        /* \"#utility.yul\":4642:4937   */\n    tag_37:\n        /* \"#utility.yul\":4784:4787   */\n      0x00\n        /* \"#utility.yul\":4806:4911   */\n      tag_128\n        /* \"#utility.yul\":4907:4910   */\n      dup3\n        /* \"#utility.yul\":4898:4904   */\n      dup5\n        /* \"#utility.yul\":4890:4896   */\n      dup7\n        /* \"#utility.yul\":4806:4911   */\n      tag_68\n      jump\t// in\n    tag_128:\n        /* \"#utility.yul\":4799:4911   */\n      swap2\n      pop\n        /* \"#utility.yul\":4928:4931   */\n      dup2\n        /* \"#utility.yul\":4921:4931   */\n      swap1\n      pop\n        /* \"#utility.yul\":4642:4937   */\n      swap4\n      swap3\n      pop\n      pop\n      pop\n      jump\t// out\n        /* \"#utility.yul\":4943:5041   */\n    tag_69:\n        /* \"#utility.yul\":4994:5000   */\n      0x00\n        /* \"#utility.yul\":5028:5033   */\n      dup2\n        /* \"#utility.yul\":5022:5034   */\n      mload\n        /* \"#utility.yul\":5012:5034   */\n      swap1\n      pop\n        /* \"#utility.yul\":4943:5041   */\n      swap2\n      swap1\n      pop\n      jump\t// out\n        /* \"#utility.yul\":5047:5163   */\n    tag_70:\n        /* \"#utility.yul\":5098:5102   */\n      0x00\n        /* \"#utility.yul\":5121:5124   */\n      dup2\n        /* \"#utility.yul\":5113:5124   */\n      swap1\n      pop\n        /* \"#utility.yul\":5151:5155   */\n      0x20\n        /* \"#utility.yul\":5146:5149   */\n      dup3\n        /* \"#utility.yul\":5142:5156   */\n      add\n        /* \"#utility.yul\":5134:5156   */\n      swap1\n      pop\n        /* \"#utility.yul\":5047:5163   */\n      swap2\n      swap1\n      pop\n      jump\t// out\n        /* \"#utility.yul\":5169:5246   */\n    tag_71:\n        /* \"#utility.yul\":5206:5213   */\n      0x00\n        /* \"#utility.yul\":5235:5240   */\n      dup2\n        /* \"#utility.yul\":5224:5240   */\n      swap1\n      pop\n        /* \"#utility.yul\":5169:5246   */\n      swap2\n      swap1\n      pop\n      jump\t// out\n        /* \"#utility.yul\":5252:5406   */\n    tag_72:\n        /* \"#utility.yul\":5295:5306   */\n      0x00\n        /* \"#utility.yul\":5331:5360   */\n      tag_133\n        /* \"#utility.yul\":5355:5358   */\n      dup3\n        /* \"#utility.yul\":5349:5359   */\n      mload\n        /* \"#utility.yul\":5331:5360   */\n      tag_71\n      jump\t// in\n    tag_133:\n        /* \"#utility.yul\":5394:5399   */\n      dup1\n        /* \"#utility.yul\":5370:5399   */\n      swap2\n      pop\n        /* \"#utility.yul\":5307:5406   */\n      pop\n        /* \"#utility.yul\":5252:5406   */\n      swap2\n      swap1\n      pop\n      jump\t// out\n        /* \"#utility.yul\":5412:5519   */\n    tag_73:\n        /* \"#utility.yul\":5456:5464   */\n      0x00\n        /* \"#utility.yul\":5506:5511   */\n      dup3\n        /* \"#utility.yul\":5500:5504   */\n      dup3\n        /* \"#utility.yul\":5496:5512   */\n      shl\n        /* \"#utility.yul\":5475:5512   */\n      swap1\n      pop\n        /* \"#utility.yul\":5412:5519   */\n      swap3\n      swap2\n      pop\n      pop\n      jump\t// out\n        /* \"#utility.yul\":5525:6119   */\n    tag_39:\n        /* \"#utility.yul\":5609:5614   */\n      0x00\n        /* \"#utility.yul\":5640:5678   */\n      tag_136\n        /* \"#utility.yul\":5672:5677   */\n      dup3\n        /* \"#utility.yul\":5640:5678   */\n      tag_69\n      jump\t// in\n    tag_136:\n        /* \"#utility.yul\":5703:5708   */\n      dup3\n        /* \"#utility.yul\":5730:5770   */\n      tag_137\n        /* \"#utility.yul\":5764:5769   */\n      dup5\n        /* \"#utility.yul\":5730:5770   */\n      tag_70\n      jump\t// in\n    tag_137:\n        /* \"#utility.yul\":5718:5770   */\n      swap1\n      pop\n        /* \"#utility.yul\":5789:5824   */\n      tag_138\n        /* \"#utility.yul\":5815:5823   */\n      dup2\n        /* \"#utility.yul\":5789:5824   */\n      tag_72\n      jump\t// in\n    tag_138:\n        /* \"#utility.yul\":5780:5824   */\n      swap3\n      pop\n        /* \"#utility.yul\":5848:5850   */\n      0x20\n        /* \"#utility.yul\":5840:5846   */\n      dup3\n        /* \"#utility.yul\":5837:5851   */\n      lt\n        /* \"#utility.yul\":5834:6112   */\n      iszero\n      tag_139\n      jumpi\n        /* \"#utility.yul\":5919:6088   */\n      tag_140\n        /* \"#utility.yul\":6004:6070   */\n      0xffffffffffffffffffffffffffffffffffffffffffffffffffffffffffffffff\n        /* \"#utility.yul\":5974:5980   */\n      dup4\n        /* \"#utility.yul\":5970:5972   */\n      0x20\n        /* \"#utility.yul\":5966:5981   */\n      sub\n        /* \"#utility.yul\":5963:5964   */\n      0x08\n        /* \"#utility.yul\":5959:5982   */\n      mul\n        /* \"#utility.yul\":5919:6088   */\n      tag_73\n      jump\t// in\n    tag_140:\n        /* \"#utility.yul\":5896:5901   */\n      dup4\n        /* \"#utility.yul\":5875:6102   */\n      and\n        /* \"#utility.yul\":5866:6102   */\n      swap3\n      pop\n        /* \"#utility.yul\":5834:6112   */\n    tag_139:\n        /* \"#utility.yul\":5615:6119   */\n      pop\n      pop\n        /* \"#utility.yul\":5525:6119   */\n      swap2\n      swap1\n      pop\n      jump\t// out\n        /* \"#utility.yul\":6125:6305   */\n    tag_74:\n        /* \"#utility.yul\":6173:6250   */\n      0x4e487b7100000000000000000000000000000000000000000000000000000000\n        /* \"#utility.yul\":6170:6171   */\n      0x00\n        /* \"#utility.yul\":6163:6251   */\n      mstore\n        /* \"#utility.yul\":6270:6274   */\n      0x11\n        /* \"#utility.yul\":6267:6268   */\n      0x04\n        /* \"#utility.yul\":6260:6275   */\n      mstore\n        /* \"#utility.yul\":6294:6298   */\n      0x24\n        /* \"#utility.yul\":6291:6292   */\n      0x00\n        /* \"#utility.yul\":6284:6299   */\n      revert\n        /* \"#utility.yul\":6311:6502   */\n    tag_50:\n        /* \"#utility.yul\":6351:6354   */\n      0x00\n        /* \"#utility.yul\":6370:6390   */\n      tag_143\n        /* \"#utility.yul\":6388:6389   */\n      dup3\n        /* \"#utility.yul\":6370:6390   */\n      tag_53\n      jump\t// in\n    tag_143:\n        /* \"#utility.yul\":6365:6390   */\n      swap2\n      pop\n        /* \"#utility.yul\":6404:6424   */\n      tag_144\n        /* \"#utility.yul\":6422:6423   */\n      dup4\n        /* \"#utility.yul\":6404:6424   */\n      tag_53\n      jump\t// in\n    tag_144:\n        /* \"#utility.yul\":6399:6424   */\n      swap3\n      pop\n        /* \"#utility.yul\":6447:6448   */\n      dup3\n        /* \"#utility.yul\":6444:6445   */\n      dup3\n        /* \"#utility.yul\":6440:6449   */\n      add\n        /* \"#utility.yul\":6433:6449   */\n      swap1\n      pop\n        /* \"#utility.yul\":6468:6471   */\n      dup1\n        /* \"#utility.yul\":6465:6466   */\n      dup3\n        /* \"#utility.yul\":6462:6472   */\n      gt\n        /* \"#utility.yul\":6459:6495   */\n      iszero\n      tag_145\n      jumpi\n        /* \"#utility.yul\":6475:6493   */\n      tag_146\n      tag_74\n      jump\t// in\n    tag_146:\n        /* \"#utility.yul\":6459:6495   */\n    tag_145:\n        /* \"#utility.yul\":6311:6502   */\n      swap3\n      swap2\n      pop\n      pop\n      jump\t// out\n        /* \"#utility.yul\":6508:6688   */\n    tag_75:\n        /* \"#utility.yul\":6556:6633   */\n      0x4e487b7100000000000000000000000000000000000000000000000000000000\n        /* \"#utility.yul\":6553:6554   */\n      0x00\n        /* \"#utility.yul\":6546:6634   */\n      mstore\n        /* \"#utility.yul\":6653:6657   */\n      0x12\n        /* \"#utility.yul\":6650:6651   */\n      0x04\n        /* \"#utility.yul\":6643:6658   */\n      mstore\n        /* \"#utility.yul\":6677:6681   */\n      0x24\n        /* \"#utility.yul\":6674:6675   */\n      0x00\n        /* \"#utility.yul\":6667:6682   */\n      revert\n        /* \"#utility.yul\":6694:6870   */\n    tag_52:\n        /* \"#utility.yul\":6726:6727   */\n      0x00\n        /* \"#utility.yul\":6743:6763   */\n      tag_149\n        /* \"#utility.yul\":6761:6762   */\n      dup3\n        /* \"#utility.yul\":6743:6763   */\n      tag_53\n      jump\t// in\n    tag_149:\n        /* \"#utility.yul\":6738:6763   */\n      swap2\n      pop\n        /* \"#utility.yul\":6777:6797   */\n      tag_150\n        /* \"#utility.yul\":6795:6796   */\n      dup4\n        /* \"#utility.yul\":6777:6797   */\n      tag_53\n      jump\t// in\n    tag_150:\n        /* \"#utility.yul\":6772:6797   */\n      swap3\n      pop\n        /* \"#utility.yul\":6816:6817   */\n      dup3\n        /* \"#utility.yul\":6806:6841   */\n      tag_151\n      jumpi\n        /* \"#utility.yul\":6821:6839   */\n      tag_152\n      tag_75\n      jump\t// in\n    tag_152:\n        /* \"#utility.yul\":6806:6841   */\n    tag_151:\n        /* \"#utility.yul\":6862:6863   */\n      dup3\n        /* \"#utility.yul\":6859:6860   */\n      dup3\n        /* \"#utility.yul\":6855:6864   */\n      mod\n        /* \"#utility.yul\":6850:6864   */\n      swap1\n      pop\n        /* \"#utility.yul\":6694:6870   */\n      swap3\n      swap2\n      pop\n      pop\n      jump\t// out\n\n    auxdata: 0xa264697066735822122040d27e1786f9c4ce0eaa5aa818856efcdb586c3beb61f861a4038e8ff8b50c9764736f6c634300081c0033\n}\n",
				"bytecode": {
					"linkReferences": {},
					"object": "6080604052348015600e575f5ffd5b507401000000000000000000000000000000000000000060015f5f81526020019081526020015f205f82825418925050819055506107cd8061004f5f395ff3fe608060405234801561000f575f5ffd5b5060043610610060575f3560e01c806326bad99e146100645780633a5ddf301461008257806376997b75146100a0578063932289cc146100d057806393684bd4146100ec578063ab3b92241461011c575b5f5ffd5b61006c610138565b604051610079919061042a565b60405180910390f35b61008a61013d565b604051610097919061045f565b60405180910390f35b6100ba60048036038101906100b591906104e1565b610143565b6040516100c7919061042a565b60405180910390f35b6100ea60048036038101906100e59190610556565b6101bb565b005b610106600480360381019061010191906105b3565b610306565b604051610113919061042a565b60405180910390f35b610136600480360381019061013191906104e1565b61031b565b005b5f5481565b61ffff81565b5f600c838390501115610182576040517f0b3d107300000000000000000000000000000000000000000000000000000000815260040160405180910390fd5b60a0838360405160200161019792919061061a565b6040516020818303038152906040526101af90610674565b901c5f1c905092915050565b5f73ffffffffffffffffffffffffffffffffffffffff801660015f8481526020019081526020015f20541690505f73ffffffffffffffffffffffffffffffffffffffff168173ffffffffffffffffffffffffffffffffffffffff1614610253578073ffffffffffffffffffffffffffffffffffffffff163373ffffffffffffffffffffffffffffffffffffffff1614610252575f5ffd5b5b5f61025e8585610143565b90505f81146102bb573373ffffffffffffffffffffffffffffffffffffffff1660a061ffff8016901b60015f8681526020019081526020015f20541660a083901b171760015f8581526020019081526020015f20819055506102ff565b60a061ffff8016901b60b069ffffffffffffffffffff8016901b1760015f8581526020019081526020015f20541660015f8581526020019081526020015f20819055505b5050505050565b6001602052805f5260405f205f915090505481565b5f60106103288484610143565b901c90505f60a08061ffff8016901b60015f5f5481526020019081526020015f205416901c905069ffffffffffffffffffff8016821115610395576040517f0b3d107300000000000000000000000000000000000000000000000000000000815260040160405180910390fd5b3373ffffffffffffffffffffffffffffffffffffffff1660a061ffff80166001846103c09190610707565b6103ca9190610767565b901b60b084901b60a061ffff8016901b1960015f8681526020019081526020015f20541618171760015f8381526020019081526020015f2081905550805f8190555050505050565b5f819050919050565b61042481610412565b82525050565b5f60208201905061043d5f83018461041b565b92915050565b5f61ffff82169050919050565b61045981610443565b82525050565b5f6020820190506104725f830184610450565b92915050565b5f5ffd5b5f5ffd5b5f5ffd5b5f5ffd5b5f5ffd5b5f5f83601f8401126104a1576104a0610480565b5b8235905067ffffffffffffffff8111156104be576104bd610484565b5b6020830191508360018202830111156104da576104d9610488565b5b9250929050565b5f5f602083850312156104f7576104f6610478565b5b5f83013567ffffffffffffffff8111156105145761051361047c565b5b6105208582860161048c565b92509250509250929050565b61053581610412565b811461053f575f5ffd5b50565b5f813590506105508161052c565b92915050565b5f5f5f6040848603121561056d5761056c610478565b5b5f84013567ffffffffffffffff81111561058a5761058961047c565b5b6105968682870161048c565b935093505060206105a986828701610542565b9150509250925092565b5f602082840312156105c8576105c7610478565b5b5f6105d584828501610542565b91505092915050565b5f81905092915050565b828183375f83830152505050565b5f61060183856105de565b935061060e8385846105e8565b82840190509392505050565b5f6106268284866105f6565b91508190509392505050565b5f81519050919050565b5f819050602082019050919050565b5f819050919050565b5f61065f825161064b565b80915050919050565b5f82821b905092915050565b5f61067e82610632565b826106888461063c565b905061069381610654565b925060208210156106d3576106ce7fffffffffffffffffffffffffffffffffffffffffffffffffffffffffffffffff83602003600802610668565b831692505b5050919050565b7f4e487b71000000000000000000000000000000000000000000000000000000005f52601160045260245ffd5b5f61071182610412565b915061071c83610412565b9250828201905080821115610734576107336106da565b5b92915050565b7f4e487b71000000000000000000000000000000000000000000000000000000005f52601260045260245ffd5b5f61077182610412565b915061077c83610412565b92508261078c5761078b61073a565b5b82820690509291505056fea264697066735822122040d27e1786f9c4ce0eaa5aa818856efcdb586c3beb61f861a4038e8ff8b50c9764736f6c634300081c0033",
					"opcodes": "PUSH1 0x80 PUSH1 0x40 MSTORE CALLVALUE DUP1 ISZERO PUSH1 0xE JUMPI PUSH0 PUSH0 REVERT JUMPDEST POP PUSH21 0x10000000000000000000000000000000000000000 PUSH1 0x1 PUSH0 PUSH0 DUP2 MSTORE PUSH1 0x20 ADD SWAP1 DUP2 MSTORE PUSH1 0x20 ADD PUSH0 KECCAK256 PUSH0 DUP3 DUP3 SLOAD XOR SWAP3 POP POP DUP2 SWAP1 SSTORE POP PUSH2 0x7CD DUP1 PUSH2 0x4F PUSH0 CODECOPY PUSH0 RETURN INVALID PUSH1 0x80 PUSH1 0x40 MSTORE CALLVALUE DUP1 ISZERO PUSH2 0xF JUMPI PUSH0 PUSH0 REVERT JUMPDEST POP PUSH1 0x4 CALLDATASIZE LT PUSH2 0x60 JUMPI PUSH0 CALLDATALOAD PUSH1 0xE0 SHR DUP1 PUSH4 0x26BAD99E EQ PUSH2 0x64 JUMPI DUP1 PUSH4 0x3A5DDF30 EQ PUSH2 0x82 JUMPI DUP1 PUSH4 0x76997B75 EQ PUSH2 0xA0 JUMPI DUP1 PUSH4 0x932289CC EQ PUSH2 0xD0 JUMPI DUP1 PUSH4 0x93684BD4 EQ PUSH2 0xEC JUMPI DUP1 PUSH4 0xAB3B9224 EQ PUSH2 0x11C JUMPI JUMPDEST PUSH0 PUSH0 REVERT JUMPDEST PUSH2 0x6C PUSH2 0x138 JUMP JUMPDEST PUSH1 0x40 MLOAD PUSH2 0x79 SWAP2 SWAP1 PUSH2 0x42A JUMP JUMPDEST PUSH1 0x40 MLOAD DUP1 SWAP2 SUB SWAP1 RETURN JUMPDEST PUSH2 0x8A PUSH2 0x13D JUMP JUMPDEST PUSH1 0x40 MLOAD PUSH2 0x97 SWAP2 SWAP1 PUSH2 0x45F JUMP JUMPDEST PUSH1 0x40 MLOAD DUP1 SWAP2 SUB SWAP1 RETURN JUMPDEST PUSH2 0xBA PUSH1 0x4 DUP1 CALLDATASIZE SUB DUP2 ADD SWAP1 PUSH2 0xB5 SWAP2 SWAP1 PUSH2 0x4E1 JUMP JUMPDEST PUSH2 0x143 JUMP JUMPDEST PUSH1 0x40 MLOAD PUSH2 0xC7 SWAP2 SWAP1 PUSH2 0x42A JUMP JUMPDEST PUSH1 0x40 MLOAD DUP1 SWAP2 SUB SWAP1 RETURN JUMPDEST PUSH2 0xEA PUSH1 0x4 DUP1 CALLDATASIZE SUB DUP2 ADD SWAP1 PUSH2 0xE5 SWAP2 SWAP1 PUSH2 0x556 JUMP JUMPDEST PUSH2 0x1BB JUMP JUMPDEST STOP JUMPDEST PUSH2 0x106 PUSH1 0x4 DUP1 CALLDATASIZE SUB DUP2 ADD SWAP1 PUSH2 0x101 SWAP2 SWAP1 PUSH2 0x5B3 JUMP JUMPDEST PUSH2 0x306 JUMP JUMPDEST PUSH1 0x40 MLOAD PUSH2 0x113 SWAP2 SWAP1 PUSH2 0x42A JUMP JUMPDEST PUSH1 0x40 MLOAD DUP1 SWAP2 SUB SWAP1 RETURN JUMPDEST PUSH2 0x136 PUSH1 0x4 DUP1 CALLDATASIZE SUB DUP2 ADD SWAP1 PUSH2 0x131 SWAP2 SWAP1 PUSH2 0x4E1 JUMP JUMPDEST PUSH2 0x31B JUMP JUMPDEST STOP JUMPDEST PUSH0 SLOAD DUP2 JUMP JUMPDEST PUSH2 0xFFFF DUP2 JUMP JUMPDEST PUSH0 PUSH1 0xC DUP4 DUP4 SWAP1 POP GT ISZERO PUSH2 0x182 JUMPI PUSH1 0x40 MLOAD PUSH32 0xB3D107300000000000000000000000000000000000000000000000000000000 DUP2 MSTORE PUSH1 0x4 ADD PUSH1 0x40 MLOAD DUP1 SWAP2 SUB SWAP1 REVERT JUMPDEST PUSH1 0xA0 DUP4 DUP4 PUSH1 0x40 MLOAD PUSH1 0x20 ADD PUSH2 0x197 SWAP3 SWAP2 SWAP1 PUSH2 0x61A JUMP JUMPDEST PUSH1 0x40 MLOAD PUSH1 0x20 DUP2 DUP4 SUB SUB DUP2 MSTORE SWAP1 PUSH1 0x40 MSTORE PUSH2 0x1AF SWAP1 PUSH2 0x674 JUMP JUMPDEST SWAP1 SHR PUSH0 SHR SWAP1 POP SWAP3 SWAP2 POP POP JUMP JUMPDEST PUSH0 PUSH20 0xFFFFFFFFFFFFFFFFFFFFFFFFFFFFFFFFFFFFFFFF DUP1 AND PUSH1 0x1 PUSH0 DUP5 DUP2 MSTORE PUSH1 0x20 ADD SWAP1 DUP2 MSTORE PUSH1 0x20 ADD PUSH0 KECCAK256 SLOAD AND SWAP1 POP PUSH0 PUSH20 0xFFFFFFFFFFFFFFFFFFFFFFFFFFFFFFFFFFFFFFFF AND DUP2 PUSH20 0xFFFFFFFFFFFFFFFFFFFFFFFFFFFFFFFFFFFFFFFF AND EQ PUSH2 0x253 JUMPI DUP1 PUSH20 0xFFFFFFFFFFFFFFFFFFFFFFFFFFFFFFFFFFFFFFFF AND CALLER PUSH20 0xFFFFFFFFFFFFFFFFFFFFFFFFFFFFFFFFFFFFFFFF AND EQ PUSH2 0x252 JUMPI PUSH0 PUSH0 REVERT JUMPDEST JUMPDEST PUSH0 PUSH2 0x25E DUP6 DUP6 PUSH2 0x143 JUMP JUMPDEST SWAP1 POP PUSH0 DUP2 EQ PUSH2 0x2BB JUMPI CALLER PUSH20 0xFFFFFFFFFFFFFFFFFFFFFFFFFFFFFFFFFFFFFFFF AND PUSH1 0xA0 PUSH2 0xFFFF DUP1 AND SWAP1 SHL PUSH1 0x1 PUSH0 DUP7 DUP2 MSTORE PUSH1 0x20 ADD SWAP1 DUP2 MSTORE PUSH1 0x20 ADD PUSH0 KECCAK256 SLOAD AND PUSH1 0xA0 DUP4 SWAP1 SHL OR OR PUSH1 0x1 PUSH0 DUP6 DUP2 MSTORE PUSH1 0x20 ADD SWAP1 DUP2 MSTORE PUSH1 0x20 ADD PUSH0 KECCAK256 DUP2 SWAP1 SSTORE POP PUSH2 0x2FF JUMP JUMPDEST PUSH1 0xA0 PUSH2 0xFFFF DUP1 AND SWAP1 SHL PUSH1 0xB0 PUSH10 0xFFFFFFFFFFFFFFFFFFFF DUP1 AND SWAP1 SHL OR PUSH1 0x1 PUSH0 DUP6 DUP2 MSTORE PUSH1 0x20 ADD SWAP1 DUP2 MSTORE PUSH1 0x20 ADD PUSH0 KECCAK256 SLOAD AND PUSH1 0x1 PUSH0 DUP6 DUP2 MSTORE PUSH1 0x20 ADD SWAP1 DUP2 MSTORE PUSH1 0x20 ADD PUSH0 KECCAK256 DUP2 SWAP1 SSTORE POP JUMPDEST POP POP POP POP POP JUMP JUMPDEST PUSH1 0x1 PUSH1 0x20 MSTORE DUP1 PUSH0 MSTORE PUSH1 0x40 PUSH0 KECCAK256 PUSH0 SWAP2 POP SWAP1 POP SLOAD DUP2 JUMP JUMPDEST PUSH0 PUSH1 0x10 PUSH2 0x328 DUP5 DUP5 PUSH2 0x143 JUMP JUMPDEST SWAP1 SHR SWAP1 POP PUSH0 PUSH1 0xA0 DUP1 PUSH2 0xFFFF DUP1 AND SWAP1 SHL PUSH1 0x1 PUSH0 PUSH0 SLOAD DUP2 MSTORE PUSH1 0x20 ADD SWAP1 DUP2 MSTORE PUSH1 0x20 ADD PUSH0 KECCAK256 SLOAD AND SWAP1 SHR SWAP1 POP PUSH10 0xFFFFFFFFFFFFFFFFFFFF DUP1 AND DUP3 GT ISZERO PUSH2 0x395 JUMPI PUSH1 0x40 MLOAD PUSH32 0xB3D107300000000000000000000000000000000000000000000000000000000 DUP2 MSTORE PUSH1 0x4 ADD PUSH1 0x40 MLOAD DUP1 SWAP2 SUB SWAP1 REVERT JUMPDEST CALLER PUSH20 0xFFFFFFFFFFFFFFFFFFFFFFFFFFFFFFFFFFFFFFFF AND PUSH1 0xA0 PUSH2 0xFFFF DUP1 AND PUSH1 0x1 DUP5 PUSH2 0x3C0 SWAP2 SWAP1 PUSH2 0x707 JUMP JUMPDEST PUSH2 0x3CA SWAP2 SWAP1 PUSH2 0x767 JUMP JUMPDEST SWAP1 SHL PUSH1 0xB0 DUP5 SWAP1 SHL PUSH1 0xA0 PUSH2 0xFFFF DUP1 AND SWAP1 SHL NOT PUSH1 0x1 PUSH0 DUP7 DUP2 MSTORE PUSH1 0x20 ADD SWAP1 DUP2 MSTORE PUSH1 0x20 ADD PUSH0 KECCAK256 SLOAD AND XOR OR OR PUSH1 0x1 PUSH0 DUP4 DUP2 MSTORE PUSH1 0x20 ADD SWAP1 DUP2 MSTORE PUSH1 0x20 ADD PUSH0 KECCAK256 DUP2 SWAP1 SSTORE POP DUP1 PUSH0 DUP2 SWAP1 SSTORE POP POP POP POP POP JUMP JUMPDEST PUSH0 DUP2 SWAP1 POP SWAP2 SWAP1 POP JUMP JUMPDEST PUSH2 0x424 DUP2 PUSH2 0x412 JUMP JUMPDEST DUP3 MSTORE POP POP JUMP JUMPDEST PUSH0 PUSH1 0x20 DUP3 ADD SWAP1 POP PUSH2 0x43D PUSH0 DUP4 ADD DUP5 PUSH2 0x41B JUMP JUMPDEST SWAP3 SWAP2 POP POP JUMP JUMPDEST PUSH0 PUSH2 0xFFFF DUP3 AND SWAP1 POP SWAP2 SWAP1 POP JUMP JUMPDEST PUSH2 0x459 DUP2 PUSH2 0x443 JUMP JUMPDEST DUP3 MSTORE POP POP JUMP JUMPDEST PUSH0 PUSH1 0x20 DUP3 ADD SWAP1 POP PUSH2 0x472 PUSH0 DUP4 ADD DUP5 PUSH2 0x450 JUMP JUMPDEST SWAP3 SWAP2 POP POP JUMP JUMPDEST PUSH0 PUSH0 REVERT JUMPDEST PUSH0 PUSH0 REVERT JUMPDEST PUSH0 PUSH0 REVERT JUMPDEST PUSH0 PUSH0 REVERT JUMPDEST PUSH0 PUSH0 REVERT JUMPDEST PUSH0 PUSH0 DUP4 PUSH1 0x1F DUP5 ADD SLT PUSH2 0x4A1 JUMPI PUSH2 0x4A0 PUSH2 0x480 JUMP JUMPDEST JUMPDEST DUP3 CALLDATALOAD SWAP1 POP PUSH8 0xFFFFFFFFFFFFFFFF DUP2 GT ISZERO PUSH2 0x4BE JUMPI PUSH2 0x4BD PUSH2 0x484 JUMP JUMPDEST JUMPDEST PUSH1 0x20 DUP4 ADD SWAP2 POP DUP4 PUSH1 0x1 DUP3 MUL DUP4 ADD GT ISZERO PUSH2 0x4DA JUMPI PUSH2 0x4D9 PUSH2 0x488 JUMP JUMPDEST JUMPDEST SWAP3 POP SWAP3 SWAP1 POP JUMP JUMPDEST PUSH0 PUSH0 PUSH1 0x20 DUP4 DUP6 SUB SLT ISZERO PUSH2 0x4F7 JUMPI PUSH2 0x4F6 PUSH2 0x478 JUMP JUMPDEST JUMPDEST PUSH0 DUP4 ADD CALLDATALOAD PUSH8 0xFFFFFFFFFFFFFFFF DUP2 GT ISZERO PUSH2 0x514 JUMPI PUSH2 0x513 PUSH2 0x47C JUMP JUMPDEST JUMPDEST PUSH2 0x520 DUP6 DUP3 DUP7 ADD PUSH2 0x48C JUMP JUMPDEST SWAP3 POP SWAP3 POP POP SWAP3 POP SWAP3 SWAP1 POP JUMP JUMPDEST PUSH2 0x535 DUP2 PUSH2 0x412 JUMP JUMPDEST DUP2 EQ PUSH2 0x53F JUMPI PUSH0 PUSH0 REVERT JUMPDEST POP JUMP JUMPDEST PUSH0 DUP2 CALLDATALOAD SWAP1 POP PUSH2 0x550 DUP2 PUSH2 0x52C JUMP JUMPDEST SWAP3 SWAP2 POP POP JUMP JUMPDEST PUSH0 PUSH0 PUSH0 PUSH1 0x40 DUP5 DUP7 SUB SLT ISZERO PUSH2 0x56D JUMPI PUSH2 0x56C PUSH2 0x478 JUMP JUMPDEST JUMPDEST PUSH0 DUP5 ADD CALLDATALOAD PUSH8 0xFFFFFFFFFFFFFFFF DUP2 GT ISZERO PUSH2 0x58A JUMPI PUSH2 0x589 PUSH2 0x47C JUMP JUMPDEST JUMPDEST PUSH2 0x596 DUP7 DUP3 DUP8 ADD PUSH2 0x48C JUMP JUMPDEST SWAP4 POP SWAP4 POP POP PUSH1 0x20 PUSH2 0x5A9 DUP7 DUP3 DUP8 ADD PUSH2 0x542 JUMP JUMPDEST SWAP2 POP POP SWAP3 POP SWAP3 POP SWAP3 JUMP JUMPDEST PUSH0 PUSH1 0x20 DUP3 DUP5 SUB SLT ISZERO PUSH2 0x5C8 JUMPI PUSH2 0x5C7 PUSH2 0x478 JUMP JUMPDEST JUMPDEST PUSH0 PUSH2 0x5D5 DUP5 DUP3 DUP6 ADD PUSH2 0x542 JUMP JUMPDEST SWAP2 POP POP SWAP3 SWAP2 POP POP JUMP JUMPDEST PUSH0 DUP2 SWAP1 POP SWAP3 SWAP2 POP POP JUMP JUMPDEST DUP3 DUP2 DUP4 CALLDATACOPY PUSH0 DUP4 DUP4 ADD MSTORE POP POP POP JUMP JUMPDEST PUSH0 PUSH2 0x601 DUP4 DUP6 PUSH2 0x5DE JUMP JUMPDEST SWAP4 POP PUSH2 0x60E DUP4 DUP6 DUP5 PUSH2 0x5E8 JUMP JUMPDEST DUP3 DUP5 ADD SWAP1 POP SWAP4 SWAP3 POP POP POP JUMP JUMPDEST PUSH0 PUSH2 0x626 DUP3 DUP5 DUP7 PUSH2 0x5F6 JUMP JUMPDEST SWAP2 POP DUP2 SWAP1 POP SWAP4 SWAP3 POP POP POP JUMP JUMPDEST PUSH0 DUP2 MLOAD SWAP1 POP SWAP2 SWAP1 POP JUMP JUMPDEST PUSH0 DUP2 SWAP1 POP PUSH1 0x20 DUP3 ADD SWAP1 POP SWAP2 SWAP1 POP JUMP JUMPDEST PUSH0 DUP2 SWAP1 POP SWAP2 SWAP1 POP JUMP JUMPDEST PUSH0 PUSH2 0x65F DUP3 MLOAD PUSH2 0x64B JUMP JUMPDEST DUP1 SWAP2 POP POP SWAP2 SWAP1 POP JUMP JUMPDEST PUSH0 DUP3 DUP3 SHL SWAP1 POP SWAP3 SWAP2 POP POP JUMP JUMPDEST PUSH0 PUSH2 0x67E DUP3 PUSH2 0x632 JUMP JUMPDEST DUP3 PUSH2 0x688 DUP5 PUSH2 0x63C JUMP JUMPDEST SWAP1 POP PUSH2 0x693 DUP2 PUSH2 0x654 JUMP JUMPDEST SWAP3 POP PUSH1 0x20 DUP3 LT ISZERO PUSH2 0x6D3 JUMPI PUSH2 0x6CE PUSH32 0xFFFFFFFFFFFFFFFFFFFFFFFFFFFFFFFFFFFFFFFFFFFFFFFFFFFFFFFFFFFFFFFF DUP4 PUSH1 0x20 SUB PUSH1 0x8 MUL PUSH2 0x668 JUMP JUMPDEST DUP4 AND SWAP3 POP JUMPDEST POP POP SWAP2 SWAP1 POP JUMP JUMPDEST PUSH32 0x4E487B7100000000000000000000000000000000000000000000000000000000 PUSH0 MSTORE PUSH1 0x11 PUSH1 0x4 MSTORE PUSH1 0x24 PUSH0 REVERT JUMPDEST PUSH0 PUSH2 0x711 DUP3 PUSH2 0x412 JUMP JUMPDEST SWAP2 POP PUSH2 0x71C DUP4 PUSH2 0x412 JUMP JUMPDEST SWAP3 POP DUP3 DUP3 ADD SWAP1 POP DUP1 DUP3 GT ISZERO PUSH2 0x734 JUMPI PUSH2 0x733 PUSH2 0x6DA JUMP JUMPDEST JUMPDEST SWAP3 SWAP2 POP POP JUMP JUMPDEST PUSH32 0x4E487B7100000000000000000000000000000000000000000000000000000000 PUSH0 MSTORE PUSH1 0x12 PUSH1 0x4 MSTORE PUSH1 0x24 PUSH0 REVERT JUMPDEST PUSH0 PUSH2 0x771 DUP3 PUSH2 0x412 JUMP JUMPDEST SWAP2 POP PUSH2 0x77C DUP4 PUSH2 0x412 JUMP JUMPDEST SWAP3 POP DUP3 PUSH2 0x78C JUMPI PUSH2 0x78B PUSH2 0x73A JUMP JUMPDEST JUMPDEST DUP3 DUP3 MOD SWAP1 POP SWAP3 SWAP2 POP POP JUMP INVALID LOG2 PUSH5 0x6970667358 0x22 SLT KECCAK256 BLOCKHASH 0xD2 PUSH31 0x1786F9C4CE0EAA5AA818856EFCDB586C3BEB61F861A4038E8FF8B50C976473 PUSH16 0x6C634300081C00330000000000000000 "
				},
				"gasEstimates": {
					"creation": {
						"codeDepositCost": "399400",
						"executionCost": "24741",
						"totalCost": "424141"
					},
					"external": {
						"MAX_CAPACITY()": "331",
						"carousel(uint256)": "infinite",
						"changeAnimal(string,uint256)": "infinite",
						"currentCrateId()": "2402",
						"encodeAnimalName(string)": "infinite",
						"setAnimalAndSpin(string)": "infinite"
					}
				},
				"methodIdentifiers": {
					"MAX_CAPACITY()": "3a5ddf30",
					"carousel(uint256)": "93684bd4",
					"changeAnimal(string,uint256)": "932289cc",
					"currentCrateId()": "26bad99e",
					"encodeAnimalName(string)": "76997b75",
					"setAnimalAndSpin(string)": "ab3b9224"
				}
			},
			"storageLayout": {
				"storage": [
					{
						"astId": 46,
						"contract": "contracts/Magic Animal Crousal.sol:MagicAnimalCarousel",
						"label": "currentCrateId",
						"offset": 0,
						"slot": "0",
						"type": "t_uint256"
					},
					{
						"astId": 50,
						"contract": "contracts/Magic Animal Crousal.sol:MagicAnimalCarousel",
						"label": "carousel",
						"offset": 0,
						"slot": "1",
						"type": "t_mapping(t_uint256,t_uint256)"
					}
				],
				"types": {
					"t_mapping(t_uint256,t_uint256)": {
						"encoding": "mapping",
						"key": "t_uint256",
						"label": "mapping(uint256 => uint256)",
						"numberOfBytes": "32",
						"value": "t_uint256"
					},
					"t_uint256": {
						"encoding": "inplace",
						"label": "uint256",
						"numberOfBytes": "32"
					}
				}
			},
			"userdoc": {
				"kind": "user",
				"methods": {},
				"version": 1
			}
		}
	}
}