{
	"contracts/2. MyContract.sol": {
		"MyContract": {
			"abi": [
				{
					"inputs": [],
					"stateMutability": "nonpayable",
					"type": "constructor"
				},
				{
					"inputs": [
						{
							"internalType": "uint256",
							"name": "id",
							"type": "uint256"
						},
						{
							"internalType": "string",
							"name": "title",
							"type": "string"
						},
						{
							"internalType": "string",
							"name": "author",
							"type": "string"
						}
					],
					"name": "addBook",
					"outputs": [],
					"stateMutability": "nonpayable",
					"type": "function"
				},
				{
					"inputs": [
						{
							"internalType": "uint256",
							"name": "id",
							"type": "uint256"
						},
						{
							"internalType": "string",
							"name": "title",
							"type": "string"
						},
						{
							"internalType": "string",
							"name": "author",
							"type": "string"
						}
					],
					"name": "addMyBook",
					"outputs": [],
					"stateMutability": "nonpayable",
					"type": "function"
				},
				{
					"inputs": [
						{
							"internalType": "uint256",
							"name": "value1",
							"type": "uint256"
						}
					],
					"name": "append",
					"outputs": [],
					"stateMutability": "nonpayable",
					"type": "function"
				},
				{
					"inputs": [
						{
							"internalType": "uint256",
							"name": "",
							"type": "uint256"
						}
					],
					"name": "arr",
					"outputs": [
						{
							"internalType": "uint256",
							"name": "",
							"type": "uint256"
						}
					],
					"stateMutability": "view",
					"type": "function"
				},
				{
					"inputs": [
						{
							"internalType": "uint256",
							"name": "",
							"type": "uint256"
						}
					],
					"name": "books",
					"outputs": [
						{
							"internalType": "string",
							"name": "title",
							"type": "string"
						},
						{
							"internalType": "string",
							"name": "author",
							"type": "string"
						}
					],
					"stateMutability": "view",
					"type": "function"
				},
				{
					"inputs": [
						{
							"internalType": "uint256[]",
							"name": "numbers",
							"type": "uint256[]"
						}
					],
					"name": "countEvens",
					"outputs": [
						{
							"internalType": "uint256",
							"name": "",
							"type": "uint256"
						}
					],
					"stateMutability": "pure",
					"type": "function"
				},
				{
					"inputs": [],
					"name": "getValue",
					"outputs": [
						{
							"internalType": "uint256",
							"name": "",
							"type": "uint256"
						}
					],
					"stateMutability": "pure",
					"type": "function"
				},
				{
					"inputs": [
						{
							"internalType": "uint256",
							"name": "num",
							"type": "uint256"
						}
					],
					"name": "isEven",
					"outputs": [
						{
							"internalType": "bool",
							"name": "",
							"type": "bool"
						}
					],
					"stateMutability": "pure",
					"type": "function"
				},
				{
					"inputs": [
						{
							"internalType": "address",
							"name": "",
							"type": "address"
						},
						{
							"internalType": "uint256",
							"name": "",
							"type": "uint256"
						}
					],
					"name": "myBooks",
					"outputs": [
						{
							"internalType": "string",
							"name": "title",
							"type": "string"
						},
						{
							"internalType": "string",
							"name": "author",
							"type": "string"
						}
					],
					"stateMutability": "view",
					"type": "function"
				},
				{
					"inputs": [],
					"name": "myStruct",
					"outputs": [
						{
							"internalType": "uint256",
							"name": "val1",
							"type": "uint256"
						},
						{
							"internalType": "string",
							"name": "val2",
							"type": "string"
						}
					],
					"stateMutability": "view",
					"type": "function"
				},
				{
					"inputs": [
						{
							"internalType": "uint256",
							"name": "",
							"type": "uint256"
						}
					],
					"name": "names",
					"outputs": [
						{
							"internalType": "string",
							"name": "",
							"type": "string"
						}
					],
					"stateMutability": "view",
					"type": "function"
				},
				{
					"inputs": [
						{
							"internalType": "uint256",
							"name": "",
							"type": "uint256"
						}
					],
					"name": "nums",
					"outputs": [
						{
							"internalType": "uint256",
							"name": "",
							"type": "uint256"
						}
					],
					"stateMutability": "view",
					"type": "function"
				}
			],
			"devdoc": {
				"kind": "dev",
				"methods": {},
				"version": 1
			},
			"evm": {
				"assembly": "    /* \"contracts/2. MyContract.sol\":57:1757  contract MyContract{... */\n  mstore(0x40, 0x80)\n    /* \"contracts/2. MyContract.sol\":172:199  string str = \"Hello World!\" */\n  mload(0x40)\n  dup1\n  0x40\n  add\n  0x40\n  mstore\n  dup1\n  0x0c\n  dup2\n  mstore\n  0x20\n  add\n  0x48656c6c6f20576f726c64210000000000000000000000000000000000000000\n  dup2\n  mstore\n  pop\n  0x01\n  swap1\n  dup2\n  tag_1\n  swap2\n  swap1\n  tag_2\n  jump\t// in\ntag_1:\n  pop\n    /* \"contracts/2. MyContract.sol\":205:234  bytes32 str2 = \"Hello World!\" */\n  sstore(0x02, 0x48656c6c6f20576f726c64210000000000000000000000000000000000000000)\n    /* \"contracts/2. MyContract.sol\":358:379  MyStruct(1, \"Aditya\") */\n  mload(0x40)\n  dup1\n  0x40\n  add\n  0x40\n  mstore\n  dup1\n    /* \"contracts/2. MyContract.sol\":367:368  1 */\n  0x01\n    /* \"contracts/2. MyContract.sol\":358:379  MyStruct(1, \"Aditya\") */\n  dup2\n  mstore\n  0x20\n  add\n  mload(0x40)\n  dup1\n  0x40\n  add\n  0x40\n  mstore\n  dup1\n  0x06\n  dup2\n  mstore\n  0x20\n  add\n  0x4164697479610000000000000000000000000000000000000000000000000000\n  dup2\n  mstore\n  pop\n  dup2\n  mstore\n  pop\n    /* \"contracts/2. MyContract.sol\":331:379  MyStruct public myStruct = MyStruct(1, \"Aditya\") */\n  0x04\n  0x00\n  dup3\n  add\n  mload\n  dup2\n  0x00\n  add\n  sstore\n  0x20\n  dup3\n  add\n  mload\n  dup2\n  0x01\n  add\n  swap1\n  dup2\n  tag_3\n  swap2\n  swap1\n  tag_2\n  jump\t// in\ntag_3:\n  pop\n  pop\n  pop\n    /* \"contracts/2. MyContract.sol\":526:555  uint[] public arr = [1, 2, 3] */\n  mload(0x40)\n  dup1\n  0x60\n  add\n  0x40\n  mstore\n  dup1\n    /* \"contracts/2. MyContract.sol\":547:548  1 */\n  0x01\n    /* \"contracts/2. MyContract.sol\":526:555  uint[] public arr = [1, 2, 3] */\n  0xff\n  and\n  dup2\n  mstore\n  0x20\n  add\n    /* \"contracts/2. MyContract.sol\":550:551  2 */\n  0x02\n    /* \"contracts/2. MyContract.sol\":526:555  uint[] public arr = [1, 2, 3] */\n  0xff\n  and\n  dup2\n  mstore\n  0x20\n  add\n    /* \"contracts/2. MyContract.sol\":553:554  3 */\n  0x03\n    /* \"contracts/2. MyContract.sol\":526:555  uint[] public arr = [1, 2, 3] */\n  0xff\n  and\n  dup2\n  mstore\n  pop\n  0x06\n  swap1\n  0x03\n  tag_4\n  swap3\n  swap2\n  swap1\n  tag_5\n  jump\t// in\ntag_4:\n  pop\n    /* \"contracts/2. MyContract.sol\":1263:1311  uint[] public nums = [1, 2, 3, 4, 5, 6, 7, 8, 9] */\n  mload(0x40)\n  dup1\n  0x0120\n  add\n  0x40\n  mstore\n  dup1\n    /* \"contracts/2. MyContract.sol\":1285:1286  1 */\n  0x01\n    /* \"contracts/2. MyContract.sol\":1263:1311  uint[] public nums = [1, 2, 3, 4, 5, 6, 7, 8, 9] */\n  0xff\n  and\n  dup2\n  mstore\n  0x20\n  add\n    /* \"contracts/2. MyContract.sol\":1288:1289  2 */\n  0x02\n    /* \"contracts/2. MyContract.sol\":1263:1311  uint[] public nums = [1, 2, 3, 4, 5, 6, 7, 8, 9] */\n  0xff\n  and\n  dup2\n  mstore\n  0x20\n  add\n    /* \"contracts/2. MyContract.sol\":1291:1292  3 */\n  0x03\n    /* \"contracts/2. MyContract.sol\":1263:1311  uint[] public nums = [1, 2, 3, 4, 5, 6, 7, 8, 9] */\n  0xff\n  and\n  dup2\n  mstore\n  0x20\n  add\n    /* \"contracts/2. MyContract.sol\":1294:1295  4 */\n  0x04\n    /* \"contracts/2. MyContract.sol\":1263:1311  uint[] public nums = [1, 2, 3, 4, 5, 6, 7, 8, 9] */\n  0xff\n  and\n  dup2\n  mstore\n  0x20\n  add\n    /* \"contracts/2. MyContract.sol\":1297:1298  5 */\n  0x05\n    /* \"contracts/2. MyContract.sol\":1263:1311  uint[] public nums = [1, 2, 3, 4, 5, 6, 7, 8, 9] */\n  0xff\n  and\n  dup2\n  mstore\n  0x20\n  add\n    /* \"contracts/2. MyContract.sol\":1300:1301  6 */\n  0x06\n    /* \"contracts/2. MyContract.sol\":1263:1311  uint[] public nums = [1, 2, 3, 4, 5, 6, 7, 8, 9] */\n  0xff\n  and\n  dup2\n  mstore\n  0x20\n  add\n    /* \"contracts/2. MyContract.sol\":1303:1304  7 */\n  0x07\n    /* \"contracts/2. MyContract.sol\":1263:1311  uint[] public nums = [1, 2, 3, 4, 5, 6, 7, 8, 9] */\n  0xff\n  and\n  dup2\n  mstore\n  0x20\n  add\n    /* \"contracts/2. MyContract.sol\":1306:1307  8 */\n  0x08\n    /* \"contracts/2. MyContract.sol\":1263:1311  uint[] public nums = [1, 2, 3, 4, 5, 6, 7, 8, 9] */\n  0xff\n  and\n  dup2\n  mstore\n  0x20\n  add\n    /* \"contracts/2. MyContract.sol\":1309:1310  9 */\n  0x09\n    /* \"contracts/2. MyContract.sol\":1263:1311  uint[] public nums = [1, 2, 3, 4, 5, 6, 7, 8, 9] */\n  0xff\n  and\n  dup2\n  mstore\n  pop\n  0x0a\n  swap1\n  0x09\n  tag_6\n  swap3\n  swap2\n  swap1\n  tag_7\n  jump\t// in\ntag_6:\n  pop\n    /* \"contracts/2. MyContract.sol\":872:951  constructor() {... */\n  callvalue\n  dup1\n  iszero\n  tag_8\n  jumpi\n  revert(0x00, 0x00)\ntag_8:\n  pop\n    /* \"contracts/2. MyContract.sol\":896:915  names[1] = \"Aditya\" */\n  mload(0x40)\n  dup1\n  0x40\n  add\n  0x40\n  mstore\n  dup1\n  0x06\n  dup2\n  mstore\n  0x20\n  add\n  0x4164697479610000000000000000000000000000000000000000000000000000\n  dup2\n  mstore\n  pop\n    /* \"contracts/2. MyContract.sol\":896:901  names */\n  0x07\n    /* \"contracts/2. MyContract.sol\":896:904  names[1] */\n  0x00\n    /* \"contracts/2. MyContract.sol\":902:903  1 */\n  0x01\n    /* \"contracts/2. MyContract.sol\":896:904  names[1] */\n  dup2\n  mstore\n  0x20\n  add\n  swap1\n  dup2\n  mstore\n  0x20\n  add\n  0x00\n  keccak256\n    /* \"contracts/2. MyContract.sol\":896:915  names[1] = \"Aditya\" */\n  swap1\n  dup2\n  tag_11\n  swap2\n  swap1\n  tag_2\n  jump\t// in\ntag_11:\n  pop\n    /* \"contracts/2. MyContract.sol\":925:944  names[2] = \"Tushar\" */\n  mload(0x40)\n  dup1\n  0x40\n  add\n  0x40\n  mstore\n  dup1\n  0x06\n  dup2\n  mstore\n  0x20\n  add\n  0x5475736861720000000000000000000000000000000000000000000000000000\n  dup2\n  mstore\n  pop\n    /* \"contracts/2. MyContract.sol\":925:930  names */\n  0x07\n    /* \"contracts/2. MyContract.sol\":925:933  names[2] */\n  0x00\n    /* \"contracts/2. MyContract.sol\":931:932  2 */\n  0x02\n    /* \"contracts/2. MyContract.sol\":925:933  names[2] */\n  dup2\n  mstore\n  0x20\n  add\n  swap1\n  dup2\n  mstore\n  0x20\n  add\n  0x00\n  keccak256\n    /* \"contracts/2. MyContract.sol\":925:944  names[2] = \"Tushar\" */\n  swap1\n  dup2\n  tag_12\n  swap2\n  swap1\n  tag_2\n  jump\t// in\ntag_12:\n  pop\n    /* \"contracts/2. MyContract.sol\":57:1757  contract MyContract{... */\n  jump(tag_13)\ntag_5:\n  dup3\n  dup1\n  sload\n  dup3\n  dup3\n  sstore\n  swap1\n  0x00\n  mstore\n  keccak256(0x00, 0x20)\n  swap1\n  dup2\n  add\n  swap3\n  dup3\n  iszero\n  tag_14\n  jumpi\n  swap2\n  0x20\n  mul\n  dup3\n  add\ntag_15:\n  dup3\n  dup2\n  gt\n  iszero\n  tag_16\n  jumpi\n  dup3\n  mload\n  dup3\n  swap1\n  0xff\n  and\n  swap1\n  sstore\n  swap2\n  0x20\n  add\n  swap2\n  swap1\n  0x01\n  add\n  swap1\n  jump(tag_15)\ntag_16:\ntag_14:\n  pop\n  swap1\n  pop\n  tag_17\n  swap2\n  swap1\n  tag_18\n  jump\t// in\ntag_17:\n  pop\n  swap1\n  jump\t// out\ntag_7:\n  dup3\n  dup1\n  sload\n  dup3\n  dup3\n  sstore\n  swap1\n  0x00\n  mstore\n  keccak256(0x00, 0x20)\n  swap1\n  dup2\n  add\n  swap3\n  dup3\n  iszero\n  tag_19\n  jumpi\n  swap2\n  0x20\n  mul\n  dup3\n  add\ntag_20:\n  dup3\n  dup2\n  gt\n  iszero\n  tag_21\n  jumpi\n  dup3\n  mload\n  dup3\n  swap1\n  0xff\n  and\n  swap1\n  sstore\n  swap2\n  0x20\n  add\n  swap2\n  swap1\n  0x01\n  add\n  swap1\n  jump(tag_20)\ntag_21:\ntag_19:\n  pop\n  swap1\n  pop\n  tag_22\n  swap2\n  swap1\n  tag_18\n  jump\t// in\ntag_22:\n  pop\n  swap1\n  jump\t// out\ntag_18:\ntag_23:\n  dup1\n  dup3\n  gt\n  iszero\n  tag_24\n  jumpi\n  0x00\n  dup2\n  0x00\n  swap1\n  sstore\n  pop\n  0x01\n  add\n  jump(tag_23)\ntag_24:\n  pop\n  swap1\n  jump\t// out\n    /* \"#utility.yul\":7:106   */\ntag_25:\n    /* \"#utility.yul\":59:65   */\n  0x00\n    /* \"#utility.yul\":93:98   */\n  dup2\n    /* \"#utility.yul\":87:99   */\n  mload\n    /* \"#utility.yul\":77:99   */\n  swap1\n  pop\n    /* \"#utility.yul\":7:106   */\n  swap2\n  swap1\n  pop\n  jump\t// out\n    /* \"#utility.yul\":112:292   */\ntag_26:\n    /* \"#utility.yul\":160:237   */\n  0x4e487b7100000000000000000000000000000000000000000000000000000000\n    /* \"#utility.yul\":157:158   */\n  0x00\n    /* \"#utility.yul\":150:238   */\n  mstore\n    /* \"#utility.yul\":257:261   */\n  0x41\n    /* \"#utility.yul\":254:255   */\n  0x04\n    /* \"#utility.yul\":247:262   */\n  mstore\n    /* \"#utility.yul\":281:285   */\n  0x24\n    /* \"#utility.yul\":278:279   */\n  0x00\n    /* \"#utility.yul\":271:286   */\n  revert\n    /* \"#utility.yul\":298:478   */\ntag_27:\n    /* \"#utility.yul\":346:423   */\n  0x4e487b7100000000000000000000000000000000000000000000000000000000\n    /* \"#utility.yul\":343:344   */\n  0x00\n    /* \"#utility.yul\":336:424   */\n  mstore\n    /* \"#utility.yul\":443:447   */\n  0x22\n    /* \"#utility.yul\":440:441   */\n  0x04\n    /* \"#utility.yul\":433:448   */\n  mstore\n    /* \"#utility.yul\":467:471   */\n  0x24\n    /* \"#utility.yul\":464:465   */\n  0x00\n    /* \"#utility.yul\":457:472   */\n  revert\n    /* \"#utility.yul\":484:804   */\ntag_28:\n    /* \"#utility.yul\":528:534   */\n  0x00\n    /* \"#utility.yul\":565:566   */\n  0x02\n    /* \"#utility.yul\":559:563   */\n  dup3\n    /* \"#utility.yul\":555:567   */\n  div\n    /* \"#utility.yul\":545:567   */\n  swap1\n  pop\n    /* \"#utility.yul\":612:613   */\n  0x01\n    /* \"#utility.yul\":606:610   */\n  dup3\n    /* \"#utility.yul\":602:614   */\n  and\n    /* \"#utility.yul\":633:651   */\n  dup1\n    /* \"#utility.yul\":623:704   */\n  tag_50\n  jumpi\n    /* \"#utility.yul\":689:693   */\n  0x7f\n    /* \"#utility.yul\":681:687   */\n  dup3\n    /* \"#utility.yul\":677:694   */\n  and\n    /* \"#utility.yul\":667:694   */\n  swap2\n  pop\n    /* \"#utility.yul\":623:704   */\ntag_50:\n    /* \"#utility.yul\":751:753   */\n  0x20\n    /* \"#utility.yul\":743:749   */\n  dup3\n    /* \"#utility.yul\":740:754   */\n  lt\n    /* \"#utility.yul\":720:738   */\n  dup2\n    /* \"#utility.yul\":717:755   */\n  sub\n    /* \"#utility.yul\":714:798   */\n  tag_51\n  jumpi\n    /* \"#utility.yul\":770:788   */\n  tag_52\n  tag_27\n  jump\t// in\ntag_52:\n    /* \"#utility.yul\":714:798   */\ntag_51:\n    /* \"#utility.yul\":535:804   */\n  pop\n    /* \"#utility.yul\":484:804   */\n  swap2\n  swap1\n  pop\n  jump\t// out\n    /* \"#utility.yul\":810:951   */\ntag_29:\n    /* \"#utility.yul\":859:863   */\n  0x00\n    /* \"#utility.yul\":882:885   */\n  dup2\n    /* \"#utility.yul\":874:885   */\n  swap1\n  pop\n    /* \"#utility.yul\":905:908   */\n  dup2\n    /* \"#utility.yul\":902:903   */\n  0x00\n    /* \"#utility.yul\":895:909   */\n  mstore\n    /* \"#utility.yul\":939:943   */\n  0x20\n    /* \"#utility.yul\":936:937   */\n  0x00\n    /* \"#utility.yul\":926:944   */\n  keccak256\n    /* \"#utility.yul\":918:944   */\n  swap1\n  pop\n    /* \"#utility.yul\":810:951   */\n  swap2\n  swap1\n  pop\n  jump\t// out\n    /* \"#utility.yul\":957:1050   */\ntag_30:\n    /* \"#utility.yul\":994:1000   */\n  0x00\n    /* \"#utility.yul\":1041:1043   */\n  0x20\n    /* \"#utility.yul\":1036:1038   */\n  0x1f\n    /* \"#utility.yul\":1029:1034   */\n  dup4\n    /* \"#utility.yul\":1025:1039   */\n  add\n    /* \"#utility.yul\":1021:1044   */\n  div\n    /* \"#utility.yul\":1011:1044   */\n  swap1\n  pop\n    /* \"#utility.yul\":957:1050   */\n  swap2\n  swap1\n  pop\n  jump\t// out\n    /* \"#utility.yul\":1056:1163   */\ntag_31:\n    /* \"#utility.yul\":1100:1108   */\n  0x00\n    /* \"#utility.yul\":1150:1155   */\n  dup3\n    /* \"#utility.yul\":1144:1148   */\n  dup3\n    /* \"#utility.yul\":1140:1156   */\n  shl\n    /* \"#utility.yul\":1119:1156   */\n  swap1\n  pop\n    /* \"#utility.yul\":1056:1163   */\n  swap3\n  swap2\n  pop\n  pop\n  jump\t// out\n    /* \"#utility.yul\":1169:1562   */\ntag_32:\n    /* \"#utility.yul\":1238:1244   */\n  0x00\n    /* \"#utility.yul\":1288:1289   */\n  0x08\n    /* \"#utility.yul\":1276:1286   */\n  dup4\n    /* \"#utility.yul\":1272:1290   */\n  mul\n    /* \"#utility.yul\":1311:1408   */\n  tag_57\n    /* \"#utility.yul\":1341:1407   */\n  0xffffffffffffffffffffffffffffffffffffffffffffffffffffffffffffffff\n    /* \"#utility.yul\":1330:1339   */\n  dup3\n    /* \"#utility.yul\":1311:1408   */\n  tag_31\n  jump\t// in\ntag_57:\n    /* \"#utility.yul\":1429:1468   */\n  tag_58\n    /* \"#utility.yul\":1459:1467   */\n  dup7\n    /* \"#utility.yul\":1448:1457   */\n  dup4\n    /* \"#utility.yul\":1429:1468   */\n  tag_31\n  jump\t// in\ntag_58:\n    /* \"#utility.yul\":1417:1468   */\n  swap6\n  pop\n    /* \"#utility.yul\":1501:1505   */\n  dup1\n    /* \"#utility.yul\":1497:1506   */\n  not\n    /* \"#utility.yul\":1490:1495   */\n  dup5\n    /* \"#utility.yul\":1486:1507   */\n  and\n    /* \"#utility.yul\":1477:1507   */\n  swap4\n  pop\n    /* \"#utility.yul\":1550:1554   */\n  dup1\n    /* \"#utility.yul\":1540:1548   */\n  dup7\n    /* \"#utility.yul\":1536:1555   */\n  and\n    /* \"#utility.yul\":1529:1534   */\n  dup5\n    /* \"#utility.yul\":1526:1556   */\n  or\n    /* \"#utility.yul\":1516:1556   */\n  swap3\n  pop\n    /* \"#utility.yul\":1245:1562   */\n  pop\n  pop\n    /* \"#utility.yul\":1169:1562   */\n  swap4\n  swap3\n  pop\n  pop\n  pop\n  jump\t// out\n    /* \"#utility.yul\":1568:1645   */\ntag_33:\n    /* \"#utility.yul\":1605:1612   */\n  0x00\n    /* \"#utility.yul\":1634:1639   */\n  dup2\n    /* \"#utility.yul\":1623:1639   */\n  swap1\n  pop\n    /* \"#utility.yul\":1568:1645   */\n  swap2\n  swap1\n  pop\n  jump\t// out\n    /* \"#utility.yul\":1651:1711   */\ntag_34:\n    /* \"#utility.yul\":1679:1682   */\n  0x00\n    /* \"#utility.yul\":1700:1705   */\n  dup2\n    /* \"#utility.yul\":1693:1705   */\n  swap1\n  pop\n    /* \"#utility.yul\":1651:1711   */\n  swap2\n  swap1\n  pop\n  jump\t// out\n    /* \"#utility.yul\":1717:1859   */\ntag_35:\n    /* \"#utility.yul\":1767:1776   */\n  0x00\n    /* \"#utility.yul\":1800:1853   */\n  tag_62\n    /* \"#utility.yul\":1818:1852   */\n  tag_63\n    /* \"#utility.yul\":1827:1851   */\n  tag_64\n    /* \"#utility.yul\":1845:1850   */\n  dup5\n    /* \"#utility.yul\":1827:1851   */\n  tag_33\n  jump\t// in\ntag_64:\n    /* \"#utility.yul\":1818:1852   */\n  tag_34\n  jump\t// in\ntag_63:\n    /* \"#utility.yul\":1800:1853   */\n  tag_33\n  jump\t// in\ntag_62:\n    /* \"#utility.yul\":1787:1853   */\n  swap1\n  pop\n    /* \"#utility.yul\":1717:1859   */\n  swap2\n  swap1\n  pop\n  jump\t// out\n    /* \"#utility.yul\":1865:1940   */\ntag_36:\n    /* \"#utility.yul\":1908:1911   */\n  0x00\n    /* \"#utility.yul\":1929:1934   */\n  dup2\n    /* \"#utility.yul\":1922:1934   */\n  swap1\n  pop\n    /* \"#utility.yul\":1865:1940   */\n  swap2\n  swap1\n  pop\n  jump\t// out\n    /* \"#utility.yul\":1946:2215   */\ntag_37:\n    /* \"#utility.yul\":2056:2095   */\n  tag_67\n    /* \"#utility.yul\":2087:2094   */\n  dup4\n    /* \"#utility.yul\":2056:2095   */\n  tag_35\n  jump\t// in\ntag_67:\n    /* \"#utility.yul\":2117:2208   */\n  tag_68\n    /* \"#utility.yul\":2166:2207   */\n  tag_69\n    /* \"#utility.yul\":2190:2206   */\n  dup3\n    /* \"#utility.yul\":2166:2207   */\n  tag_36\n  jump\t// in\ntag_69:\n    /* \"#utility.yul\":2158:2164   */\n  dup5\n    /* \"#utility.yul\":2151:2155   */\n  dup5\n    /* \"#utility.yul\":2145:2156   */\n  sload\n    /* \"#utility.yul\":2117:2208   */\n  tag_32\n  jump\t// in\ntag_68:\n    /* \"#utility.yul\":2111:2115   */\n  dup3\n    /* \"#utility.yul\":2104:2209   */\n  sstore\n    /* \"#utility.yul\":2022:2215   */\n  pop\n    /* \"#utility.yul\":1946:2215   */\n  pop\n  pop\n  pop\n  jump\t// out\n    /* \"#utility.yul\":2221:2294   */\ntag_38:\n    /* \"#utility.yul\":2266:2269   */\n  0x00\n    /* \"#utility.yul\":2287:2288   */\n  0x00\n    /* \"#utility.yul\":2280:2288   */\n  swap1\n  pop\n    /* \"#utility.yul\":2221:2294   */\n  swap1\n  jump\t// out\n    /* \"#utility.yul\":2300:2489   */\ntag_39:\n    /* \"#utility.yul\":2377:2409   */\n  tag_72\n  tag_38\n  jump\t// in\ntag_72:\n    /* \"#utility.yul\":2418:2483   */\n  tag_73\n    /* \"#utility.yul\":2476:2482   */\n  dup2\n    /* \"#utility.yul\":2468:2474   */\n  dup5\n    /* \"#utility.yul\":2462:2466   */\n  dup5\n    /* \"#utility.yul\":2418:2483   */\n  tag_37\n  jump\t// in\ntag_73:\n    /* \"#utility.yul\":2353:2489   */\n  pop\n    /* \"#utility.yul\":2300:2489   */\n  pop\n  pop\n  jump\t// out\n    /* \"#utility.yul\":2495:2681   */\ntag_40:\n    /* \"#utility.yul\":2555:2675   */\ntag_75:\n    /* \"#utility.yul\":2572:2575   */\n  dup2\n    /* \"#utility.yul\":2565:2570   */\n  dup2\n    /* \"#utility.yul\":2562:2576   */\n  lt\n    /* \"#utility.yul\":2555:2675   */\n  iszero\n  tag_77\n  jumpi\n    /* \"#utility.yul\":2626:2665   */\n  tag_78\n    /* \"#utility.yul\":2663:2664   */\n  0x00\n    /* \"#utility.yul\":2656:2661   */\n  dup3\n    /* \"#utility.yul\":2626:2665   */\n  tag_39\n  jump\t// in\ntag_78:\n    /* \"#utility.yul\":2599:2600   */\n  0x01\n    /* \"#utility.yul\":2592:2597   */\n  dup2\n    /* \"#utility.yul\":2588:2601   */\n  add\n    /* \"#utility.yul\":2579:2601   */\n  swap1\n  pop\n    /* \"#utility.yul\":2555:2675   */\n  jump(tag_75)\ntag_77:\n    /* \"#utility.yul\":2495:2681   */\n  pop\n  pop\n  jump\t// out\n    /* \"#utility.yul\":2687:3230   */\ntag_41:\n    /* \"#utility.yul\":2788:2790   */\n  0x1f\n    /* \"#utility.yul\":2783:2786   */\n  dup3\n    /* \"#utility.yul\":2780:2791   */\n  gt\n    /* \"#utility.yul\":2777:3223   */\n  iszero\n  tag_80\n  jumpi\n    /* \"#utility.yul\":2822:2860   */\n  tag_81\n    /* \"#utility.yul\":2854:2859   */\n  dup2\n    /* \"#utility.yul\":2822:2860   */\n  tag_29\n  jump\t// in\ntag_81:\n    /* \"#utility.yul\":2906:2935   */\n  tag_82\n    /* \"#utility.yul\":2924:2934   */\n  dup5\n    /* \"#utility.yul\":2906:2935   */\n  tag_30\n  jump\t// in\ntag_82:\n    /* \"#utility.yul\":2896:2904   */\n  dup2\n    /* \"#utility.yul\":2892:2936   */\n  add\n    /* \"#utility.yul\":3089:3091   */\n  0x20\n    /* \"#utility.yul\":3077:3087   */\n  dup6\n    /* \"#utility.yul\":3074:3092   */\n  lt\n    /* \"#utility.yul\":3071:3120   */\n  iszero\n  tag_83\n  jumpi\n    /* \"#utility.yul\":3110:3118   */\n  dup2\n    /* \"#utility.yul\":3095:3118   */\n  swap1\n  pop\n    /* \"#utility.yul\":3071:3120   */\ntag_83:\n    /* \"#utility.yul\":3133:3213   */\n  tag_84\n    /* \"#utility.yul\":3189:3211   */\n  tag_85\n    /* \"#utility.yul\":3207:3210   */\n  dup6\n    /* \"#utility.yul\":3189:3211   */\n  tag_30\n  jump\t// in\ntag_85:\n    /* \"#utility.yul\":3179:3187   */\n  dup4\n    /* \"#utility.yul\":3175:3212   */\n  add\n    /* \"#utility.yul\":3162:3173   */\n  dup3\n    /* \"#utility.yul\":3133:3213   */\n  tag_40\n  jump\t// in\ntag_84:\n    /* \"#utility.yul\":2792:3223   */\n  pop\n  pop\n    /* \"#utility.yul\":2777:3223   */\ntag_80:\n    /* \"#utility.yul\":2687:3230   */\n  pop\n  pop\n  pop\n  jump\t// out\n    /* \"#utility.yul\":3236:3353   */\ntag_42:\n    /* \"#utility.yul\":3290:3298   */\n  0x00\n    /* \"#utility.yul\":3340:3345   */\n  dup3\n    /* \"#utility.yul\":3334:3338   */\n  dup3\n    /* \"#utility.yul\":3330:3346   */\n  shr\n    /* \"#utility.yul\":3309:3346   */\n  swap1\n  pop\n    /* \"#utility.yul\":3236:3353   */\n  swap3\n  swap2\n  pop\n  pop\n  jump\t// out\n    /* \"#utility.yul\":3359:3528   */\ntag_43:\n    /* \"#utility.yul\":3403:3409   */\n  0x00\n    /* \"#utility.yul\":3436:3487   */\n  tag_88\n    /* \"#utility.yul\":3484:3485   */\n  0x00\n    /* \"#utility.yul\":3480:3486   */\n  not\n    /* \"#utility.yul\":3472:3477   */\n  dup5\n    /* \"#utility.yul\":3469:3470   */\n  0x08\n    /* \"#utility.yul\":3465:3478   */\n  mul\n    /* \"#utility.yul\":3436:3487   */\n  tag_42\n  jump\t// in\ntag_88:\n    /* \"#utility.yul\":3432:3488   */\n  not\n    /* \"#utility.yul\":3517:3521   */\n  dup1\n    /* \"#utility.yul\":3511:3515   */\n  dup4\n    /* \"#utility.yul\":3507:3522   */\n  and\n    /* \"#utility.yul\":3497:3522   */\n  swap2\n  pop\n    /* \"#utility.yul\":3410:3528   */\n  pop\n    /* \"#utility.yul\":3359:3528   */\n  swap3\n  swap2\n  pop\n  pop\n  jump\t// out\n    /* \"#utility.yul\":3533:3828   */\ntag_44:\n    /* \"#utility.yul\":3609:3613   */\n  0x00\n    /* \"#utility.yul\":3755:3784   */\n  tag_90\n    /* \"#utility.yul\":3780:3783   */\n  dup4\n    /* \"#utility.yul\":3774:3778   */\n  dup4\n    /* \"#utility.yul\":3755:3784   */\n  tag_43\n  jump\t// in\ntag_90:\n    /* \"#utility.yul\":3747:3784   */\n  swap2\n  pop\n    /* \"#utility.yul\":3817:3820   */\n  dup3\n    /* \"#utility.yul\":3814:3815   */\n  0x02\n    /* \"#utility.yul\":3810:3821   */\n  mul\n    /* \"#utility.yul\":3804:3808   */\n  dup3\n    /* \"#utility.yul\":3801:3822   */\n  or\n    /* \"#utility.yul\":3793:3822   */\n  swap1\n  pop\n    /* \"#utility.yul\":3533:3828   */\n  swap3\n  swap2\n  pop\n  pop\n  jump\t// out\n    /* \"#utility.yul\":3833:5228   */\ntag_2:\n    /* \"#utility.yul\":3950:3987   */\n  tag_92\n    /* \"#utility.yul\":3983:3986   */\n  dup3\n    /* \"#utility.yul\":3950:3987   */\n  tag_25\n  jump\t// in\ntag_92:\n    /* \"#utility.yul\":4052:4070   */\n  0xffffffffffffffff\n    /* \"#utility.yul\":4044:4050   */\n  dup2\n    /* \"#utility.yul\":4041:4071   */\n  gt\n    /* \"#utility.yul\":4038:4094   */\n  iszero\n  tag_93\n  jumpi\n    /* \"#utility.yul\":4074:4092   */\n  tag_94\n  tag_26\n  jump\t// in\ntag_94:\n    /* \"#utility.yul\":4038:4094   */\ntag_93:\n    /* \"#utility.yul\":4118:4156   */\n  tag_95\n    /* \"#utility.yul\":4150:4154   */\n  dup3\n    /* \"#utility.yul\":4144:4155   */\n  sload\n    /* \"#utility.yul\":4118:4156   */\n  tag_28\n  jump\t// in\ntag_95:\n    /* \"#utility.yul\":4203:4270   */\n  tag_96\n    /* \"#utility.yul\":4263:4269   */\n  dup3\n    /* \"#utility.yul\":4255:4261   */\n  dup3\n    /* \"#utility.yul\":4249:4253   */\n  dup6\n    /* \"#utility.yul\":4203:4270   */\n  tag_41\n  jump\t// in\ntag_96:\n    /* \"#utility.yul\":4297:4298   */\n  0x00\n    /* \"#utility.yul\":4321:4325   */\n  0x20\n    /* \"#utility.yul\":4308:4325   */\n  swap1\n  pop\n    /* \"#utility.yul\":4353:4355   */\n  0x1f\n    /* \"#utility.yul\":4345:4351   */\n  dup4\n    /* \"#utility.yul\":4342:4356   */\n  gt\n    /* \"#utility.yul\":4370:4371   */\n  0x01\n    /* \"#utility.yul\":4365:4983   */\n  dup2\n  eq\n  tag_98\n  jumpi\n    /* \"#utility.yul\":5027:5028   */\n  0x00\n    /* \"#utility.yul\":5044:5050   */\n  dup5\n    /* \"#utility.yul\":5041:5118   */\n  iszero\n  tag_99\n  jumpi\n    /* \"#utility.yul\":5093:5102   */\n  dup3\n    /* \"#utility.yul\":5088:5091   */\n  dup8\n    /* \"#utility.yul\":5084:5103   */\n  add\n    /* \"#utility.yul\":5078:5104   */\n  mload\n    /* \"#utility.yul\":5069:5104   */\n  swap1\n  pop\n    /* \"#utility.yul\":5041:5118   */\ntag_99:\n    /* \"#utility.yul\":5144:5211   */\n  tag_100\n    /* \"#utility.yul\":5204:5210   */\n  dup6\n    /* \"#utility.yul\":5197:5202   */\n  dup3\n    /* \"#utility.yul\":5144:5211   */\n  tag_44\n  jump\t// in\ntag_100:\n    /* \"#utility.yul\":5138:5142   */\n  dup7\n    /* \"#utility.yul\":5131:5212   */\n  sstore\n    /* \"#utility.yul\":5000:5222   */\n  pop\n    /* \"#utility.yul\":4335:5222   */\n  jump(tag_97)\n    /* \"#utility.yul\":4365:4983   */\ntag_98:\n    /* \"#utility.yul\":4417:4421   */\n  0x1f\n    /* \"#utility.yul\":4413:4422   */\n  not\n    /* \"#utility.yul\":4405:4411   */\n  dup5\n    /* \"#utility.yul\":4401:4423   */\n  and\n    /* \"#utility.yul\":4451:4488   */\n  tag_101\n    /* \"#utility.yul\":4483:4487   */\n  dup7\n    /* \"#utility.yul\":4451:4488   */\n  tag_29\n  jump\t// in\ntag_101:\n    /* \"#utility.yul\":4510:4511   */\n  0x00\n    /* \"#utility.yul\":4524:4732   */\ntag_102:\n    /* \"#utility.yul\":4538:4545   */\n  dup3\n    /* \"#utility.yul\":4535:4536   */\n  dup2\n    /* \"#utility.yul\":4532:4546   */\n  lt\n    /* \"#utility.yul\":4524:4732   */\n  iszero\n  tag_104\n  jumpi\n    /* \"#utility.yul\":4617:4626   */\n  dup5\n    /* \"#utility.yul\":4612:4615   */\n  dup10\n    /* \"#utility.yul\":4608:4627   */\n  add\n    /* \"#utility.yul\":4602:4628   */\n  mload\n    /* \"#utility.yul\":4594:4600   */\n  dup3\n    /* \"#utility.yul\":4587:4629   */\n  sstore\n    /* \"#utility.yul\":4668:4669   */\n  0x01\n    /* \"#utility.yul\":4660:4666   */\n  dup3\n    /* \"#utility.yul\":4656:4670   */\n  add\n    /* \"#utility.yul\":4646:4670   */\n  swap2\n  pop\n    /* \"#utility.yul\":4715:4717   */\n  0x20\n    /* \"#utility.yul\":4704:4713   */\n  dup6\n    /* \"#utility.yul\":4700:4718   */\n  add\n    /* \"#utility.yul\":4687:4718   */\n  swap5\n  pop\n    /* \"#utility.yul\":4561:4565   */\n  0x20\n    /* \"#utility.yul\":4558:4559   */\n  dup2\n    /* \"#utility.yul\":4554:4566   */\n  add\n    /* \"#utility.yul\":4549:4566   */\n  swap1\n  pop\n    /* \"#utility.yul\":4524:4732   */\n  jump(tag_102)\ntag_104:\n    /* \"#utility.yul\":4760:4766   */\n  dup7\n    /* \"#utility.yul\":4751:4758   */\n  dup4\n    /* \"#utility.yul\":4748:4767   */\n  lt\n    /* \"#utility.yul\":4745:4924   */\n  iszero\n  tag_105\n  jumpi\n    /* \"#utility.yul\":4818:4827   */\n  dup5\n    /* \"#utility.yul\":4813:4816   */\n  dup10\n    /* \"#utility.yul\":4809:4828   */\n  add\n    /* \"#utility.yul\":4803:4829   */\n  mload\n    /* \"#utility.yul\":4861:4909   */\n  tag_106\n    /* \"#utility.yul\":4903:4907   */\n  0x1f\n    /* \"#utility.yul\":4895:4901   */\n  dup10\n    /* \"#utility.yul\":4891:4908   */\n  and\n    /* \"#utility.yul\":4880:4889   */\n  dup3\n    /* \"#utility.yul\":4861:4909   */\n  tag_43\n  jump\t// in\ntag_106:\n    /* \"#utility.yul\":4853:4859   */\n  dup4\n    /* \"#utility.yul\":4846:4910   */\n  sstore\n    /* \"#utility.yul\":4768:4924   */\n  pop\n    /* \"#utility.yul\":4745:4924   */\ntag_105:\n    /* \"#utility.yul\":4970:4971   */\n  0x01\n    /* \"#utility.yul\":4966:4967   */\n  0x02\n    /* \"#utility.yul\":4958:4964   */\n  dup9\n    /* \"#utility.yul\":4954:4968   */\n  mul\n    /* \"#utility.yul\":4950:4972   */\n  add\n    /* \"#utility.yul\":4944:4948   */\n  dup9\n    /* \"#utility.yul\":4937:4973   */\n  sstore\n    /* \"#utility.yul\":4372:4983   */\n  pop\n  pop\n  pop\n    /* \"#utility.yul\":4335:5222   */\ntag_97:\n  pop\n    /* \"#utility.yul\":3925:5228   */\n  pop\n  pop\n  pop\n    /* \"#utility.yul\":3833:5228   */\n  pop\n  pop\n  jump\t// out\n    /* \"contracts/2. MyContract.sol\":57:1757  contract MyContract{... */\ntag_13:\n  dataSize(sub_0)\n  dup1\n  dataOffset(sub_0)\n  0x00\n  codecopy\n  0x00\n  return\nstop\n\nsub_0: assembly {\n        /* \"contracts/2. MyContract.sol\":57:1757  contract MyContract{... */\n      mstore(0x40, 0x80)\n      callvalue\n      dup1\n      iszero\n      tag_1\n      jumpi\n      revert(0x00, 0x00)\n    tag_1:\n      pop\n      jumpi(tag_2, lt(calldatasize, 0x04))\n      shr(0xe0, calldataload(0x00))\n      dup1\n      0x68744046\n      gt\n      tag_15\n      jumpi\n      dup1\n      0x68744046\n      eq\n      tag_9\n      jumpi\n      dup1\n      0x71e5ee5f\n      eq\n      tag_10\n      jumpi\n      dup1\n      0x8bc9fe6c\n      eq\n      tag_11\n      jumpi\n      dup1\n      0xe33b8707\n      eq\n      tag_12\n      jumpi\n      dup1\n      0xfcee5cbd\n      eq\n      tag_13\n      jumpi\n      dup1\n      0xfd1ee54c\n      eq\n      tag_14\n      jumpi\n      jump(tag_2)\n    tag_15:\n      dup1\n      0x028414f2\n      eq\n      tag_3\n      jumpi\n      dup1\n      0x20965255\n      eq\n      tag_4\n      jumpi\n      dup1\n      0x27d3553f\n      eq\n      tag_5\n      jumpi\n      dup1\n      0x2a2e1320\n      eq\n      tag_6\n      jumpi\n      dup1\n      0x4622ab03\n      eq\n      tag_7\n      jumpi\n      dup1\n      0x493ec707\n      eq\n      tag_8\n      jumpi\n    tag_2:\n      revert(0x00, 0x00)\n        /* \"contracts/2. MyContract.sol\":957:1081  function addBook(uint id, string memory title, string memory author) public {... */\n    tag_3:\n      tag_16\n      0x04\n      dup1\n      calldatasize\n      sub\n      dup2\n      add\n      swap1\n      tag_17\n      swap2\n      swap1\n      tag_18\n      jump\t// in\n    tag_17:\n      tag_19\n      jump\t// in\n    tag_16:\n      stop\n        /* \"contracts/2. MyContract.sol\":386:507  function getValue() public pure returns(uint) {... */\n    tag_4:\n      tag_20\n      tag_21\n      jump\t// in\n    tag_20:\n      mload(0x40)\n      tag_22\n      swap2\n      swap1\n      tag_23\n      jump\t// in\n    tag_22:\n      mload(0x40)\n      dup1\n      swap2\n      sub\n      swap1\n      return\n        /* \"contracts/2. MyContract.sol\":738:796  mapping (address => mapping (uint => Book)) public myBooks */\n    tag_5:\n      tag_24\n      0x04\n      dup1\n      calldatasize\n      sub\n      dup2\n      add\n      swap1\n      tag_25\n      swap2\n      swap1\n      tag_26\n      jump\t// in\n    tag_25:\n      tag_27\n      jump\t// in\n    tag_24:\n      mload(0x40)\n      tag_28\n      swap3\n      swap2\n      swap1\n      tag_29\n      jump\t// in\n    tag_28:\n      mload(0x40)\n      dup1\n      swap2\n      sub\n      swap1\n      return\n        /* \"contracts/2. MyContract.sol\":1318:1484  function isEven(uint num) public pure returns(bool){... */\n    tag_6:\n      tag_30\n      0x04\n      dup1\n      calldatasize\n      sub\n      dup2\n      add\n      swap1\n      tag_31\n      swap2\n      swap1\n      tag_32\n      jump\t// in\n    tag_31:\n      tag_33\n      jump\t// in\n    tag_30:\n      mload(0x40)\n      tag_34\n      swap2\n      swap1\n      tag_35\n      jump\t// in\n    tag_34:\n      mload(0x40)\n      dup1\n      swap2\n      sub\n      swap1\n      return\n        /* \"contracts/2. MyContract.sol\":652:689  mapping (uint => string) public names */\n    tag_7:\n      tag_36\n      0x04\n      dup1\n      calldatasize\n      sub\n      dup2\n      add\n      swap1\n      tag_37\n      swap2\n      swap1\n      tag_32\n      jump\t// in\n    tag_37:\n      tag_38\n      jump\t// in\n    tag_36:\n      mload(0x40)\n      tag_39\n      swap2\n      swap1\n      tag_40\n      jump\t// in\n    tag_39:\n      mload(0x40)\n      dup1\n      swap2\n      sub\n      swap1\n      return\n        /* \"contracts/2. MyContract.sol\":1087:1227  function addMyBook(uint id, string memory title, string memory author) public {... */\n    tag_8:\n      tag_41\n      0x04\n      dup1\n      calldatasize\n      sub\n      dup2\n      add\n      swap1\n      tag_42\n      swap2\n      swap1\n      tag_18\n      jump\t// in\n    tag_42:\n      tag_43\n      jump\t// in\n    tag_41:\n      stop\n        /* \"contracts/2. MyContract.sol\":696:731  mapping (uint => Book) public books */\n    tag_9:\n      tag_44\n      0x04\n      dup1\n      calldatasize\n      sub\n      dup2\n      add\n      swap1\n      tag_45\n      swap2\n      swap1\n      tag_32\n      jump\t// in\n    tag_45:\n      tag_46\n      jump\t// in\n    tag_44:\n      mload(0x40)\n      tag_47\n      swap3\n      swap2\n      swap1\n      tag_29\n      jump\t// in\n    tag_47:\n      mload(0x40)\n      dup1\n      swap2\n      sub\n      swap1\n      return\n        /* \"contracts/2. MyContract.sol\":526:555  uint[] public arr = [1, 2, 3] */\n    tag_10:\n      tag_48\n      0x04\n      dup1\n      calldatasize\n      sub\n      dup2\n      add\n      swap1\n      tag_49\n      swap2\n      swap1\n      tag_32\n      jump\t// in\n    tag_49:\n      tag_50\n      jump\t// in\n    tag_48:\n      mload(0x40)\n      tag_51\n      swap2\n      swap1\n      tag_23\n      jump\t// in\n    tag_51:\n      mload(0x40)\n      dup1\n      swap2\n      sub\n      swap1\n      return\n        /* \"contracts/2. MyContract.sol\":331:379  MyStruct public myStruct = MyStruct(1, \"Aditya\") */\n    tag_11:\n      tag_52\n      tag_53\n      jump\t// in\n    tag_52:\n      mload(0x40)\n      tag_54\n      swap3\n      swap2\n      swap1\n      tag_55\n      jump\t// in\n    tag_54:\n      mload(0x40)\n      dup1\n      swap2\n      sub\n      swap1\n      return\n        /* \"contracts/2. MyContract.sol\":562:631  function append(uint value1) public {... */\n    tag_12:\n      tag_56\n      0x04\n      dup1\n      calldatasize\n      sub\n      dup2\n      add\n      swap1\n      tag_57\n      swap2\n      swap1\n      tag_32\n      jump\t// in\n    tag_57:\n      tag_58\n      jump\t// in\n    tag_56:\n      stop\n        /* \"contracts/2. MyContract.sol\":1490:1755  function countEvens(uint[] memory numbers) public pure returns(uint){... */\n    tag_13:\n      tag_59\n      0x04\n      dup1\n      calldatasize\n      sub\n      dup2\n      add\n      swap1\n      tag_60\n      swap2\n      swap1\n      tag_61\n      jump\t// in\n    tag_60:\n      tag_62\n      jump\t// in\n    tag_59:\n      mload(0x40)\n      tag_63\n      swap2\n      swap1\n      tag_23\n      jump\t// in\n    tag_63:\n      mload(0x40)\n      dup1\n      swap2\n      sub\n      swap1\n      return\n        /* \"contracts/2. MyContract.sol\":1263:1311  uint[] public nums = [1, 2, 3, 4, 5, 6, 7, 8, 9] */\n    tag_14:\n      tag_64\n      0x04\n      dup1\n      calldatasize\n      sub\n      dup2\n      add\n      swap1\n      tag_65\n      swap2\n      swap1\n      tag_32\n      jump\t// in\n    tag_65:\n      tag_66\n      jump\t// in\n    tag_64:\n      mload(0x40)\n      tag_67\n      swap2\n      swap1\n      tag_23\n      jump\t// in\n    tag_67:\n      mload(0x40)\n      dup1\n      swap2\n      sub\n      swap1\n      return\n        /* \"contracts/2. MyContract.sol\":957:1081  function addBook(uint id, string memory title, string memory author) public {... */\n    tag_19:\n        /* \"contracts/2. MyContract.sol\":1055:1074  Book(title, author) */\n      mload(0x40)\n      dup1\n      0x40\n      add\n      0x40\n      mstore\n      dup1\n        /* \"contracts/2. MyContract.sol\":1060:1065  title */\n      dup4\n        /* \"contracts/2. MyContract.sol\":1055:1074  Book(title, author) */\n      dup2\n      mstore\n      0x20\n      add\n        /* \"contracts/2. MyContract.sol\":1067:1073  author */\n      dup3\n        /* \"contracts/2. MyContract.sol\":1055:1074  Book(title, author) */\n      dup2\n      mstore\n      pop\n        /* \"contracts/2. MyContract.sol\":1043:1048  books */\n      0x08\n        /* \"contracts/2. MyContract.sol\":1043:1052  books[id] */\n      0x00\n        /* \"contracts/2. MyContract.sol\":1049:1051  id */\n      dup6\n        /* \"contracts/2. MyContract.sol\":1043:1052  books[id] */\n      dup2\n      mstore\n      0x20\n      add\n      swap1\n      dup2\n      mstore\n      0x20\n      add\n      0x00\n      keccak256\n        /* \"contracts/2. MyContract.sol\":1043:1074  books[id] = Book(title, author) */\n      0x00\n      dup3\n      add\n      mload\n      dup2\n      0x00\n      add\n      swap1\n      dup2\n      tag_69\n      swap2\n      swap1\n      tag_70\n      jump\t// in\n    tag_69:\n      pop\n      0x20\n      dup3\n      add\n      mload\n      dup2\n      0x01\n      add\n      swap1\n      dup2\n      tag_71\n      swap2\n      swap1\n      tag_70\n      jump\t// in\n    tag_71:\n      pop\n      swap1\n      pop\n      pop\n        /* \"contracts/2. MyContract.sol\":957:1081  function addBook(uint id, string memory title, string memory author) public {... */\n      pop\n      pop\n      pop\n      jump\t// out\n        /* \"contracts/2. MyContract.sol\":386:507  function getValue() public pure returns(uint) {... */\n    tag_21:\n        /* \"contracts/2. MyContract.sol\":426:430  uint */\n      0x00\n        /* \"contracts/2. MyContract.sol\":468:476  uint val */\n      0x00\n        /* \"contracts/2. MyContract.sol\":479:480  1 */\n      0x01\n        /* \"contracts/2. MyContract.sol\":468:480  uint val = 1 */\n      swap1\n      pop\n        /* \"contracts/2. MyContract.sol\":497:500  val */\n      dup1\n        /* \"contracts/2. MyContract.sol\":490:500  return val */\n      swap2\n      pop\n      pop\n        /* \"contracts/2. MyContract.sol\":386:507  function getValue() public pure returns(uint) {... */\n      swap1\n      jump\t// out\n        /* \"contracts/2. MyContract.sol\":738:796  mapping (address => mapping (uint => Book)) public myBooks */\n    tag_27:\n      mstore(0x20, 0x09)\n      dup2\n      0x00\n      mstore\n      mstore(0x20, keccak256(0x00, 0x40))\n      dup1\n      0x00\n      mstore\n      keccak256(0x00, 0x40)\n      0x00\n      swap2\n      pop\n      swap2\n      pop\n      pop\n      dup1\n      0x00\n      add\n      dup1\n      sload\n      tag_73\n      swap1\n      tag_74\n      jump\t// in\n    tag_73:\n      dup1\n      0x1f\n      add\n      0x20\n      dup1\n      swap2\n      div\n      mul\n      0x20\n      add\n      mload(0x40)\n      swap1\n      dup2\n      add\n      0x40\n      mstore\n      dup1\n      swap3\n      swap2\n      swap1\n      dup2\n      dup2\n      mstore\n      0x20\n      add\n      dup3\n      dup1\n      sload\n      tag_75\n      swap1\n      tag_74\n      jump\t// in\n    tag_75:\n      dup1\n      iszero\n      tag_76\n      jumpi\n      dup1\n      0x1f\n      lt\n      tag_77\n      jumpi\n      0x0100\n      dup1\n      dup4\n      sload\n      div\n      mul\n      dup4\n      mstore\n      swap2\n      0x20\n      add\n      swap2\n      jump(tag_76)\n    tag_77:\n      dup3\n      add\n      swap2\n      swap1\n      0x00\n      mstore\n      keccak256(0x00, 0x20)\n      swap1\n    tag_78:\n      dup2\n      sload\n      dup2\n      mstore\n      swap1\n      0x01\n      add\n      swap1\n      0x20\n      add\n      dup1\n      dup4\n      gt\n      tag_78\n      jumpi\n      dup3\n      swap1\n      sub\n      0x1f\n      and\n      dup3\n      add\n      swap2\n    tag_76:\n      pop\n      pop\n      pop\n      pop\n      pop\n      swap1\n      dup1\n      0x01\n      add\n      dup1\n      sload\n      tag_79\n      swap1\n      tag_74\n      jump\t// in\n    tag_79:\n      dup1\n      0x1f\n      add\n      0x20\n      dup1\n      swap2\n      div\n      mul\n      0x20\n      add\n      mload(0x40)\n      swap1\n      dup2\n      add\n      0x40\n      mstore\n      dup1\n      swap3\n      swap2\n      swap1\n      dup2\n      dup2\n      mstore\n      0x20\n      add\n      dup3\n      dup1\n      sload\n      tag_80\n      swap1\n      tag_74\n      jump\t// in\n    tag_80:\n      dup1\n      iszero\n      tag_81\n      jumpi\n      dup1\n      0x1f\n      lt\n      tag_82\n      jumpi\n      0x0100\n      dup1\n      dup4\n      sload\n      div\n      mul\n      dup4\n      mstore\n      swap2\n      0x20\n      add\n      swap2\n      jump(tag_81)\n    tag_82:\n      dup3\n      add\n      swap2\n      swap1\n      0x00\n      mstore\n      keccak256(0x00, 0x20)\n      swap1\n    tag_83:\n      dup2\n      sload\n      dup2\n      mstore\n      swap1\n      0x01\n      add\n      swap1\n      0x20\n      add\n      dup1\n      dup4\n      gt\n      tag_83\n      jumpi\n      dup3\n      swap1\n      sub\n      0x1f\n      and\n      dup3\n      add\n      swap2\n    tag_81:\n      pop\n      pop\n      pop\n      pop\n      pop\n      swap1\n      pop\n      dup3\n      jump\t// out\n        /* \"contracts/2. MyContract.sol\":1318:1484  function isEven(uint num) public pure returns(bool){... */\n    tag_33:\n        /* \"contracts/2. MyContract.sol\":1364:1368  bool */\n      0x00\n        /* \"contracts/2. MyContract.sol\":1394:1395  1 */\n      0x01\n        /* \"contracts/2. MyContract.sol\":1389:1390  2 */\n      0x02\n        /* \"contracts/2. MyContract.sol\":1383:1386  num */\n      dup4\n        /* \"contracts/2. MyContract.sol\":1383:1390  num % 2 */\n      tag_85\n      swap2\n      swap1\n      tag_86\n      jump\t// in\n    tag_85:\n        /* \"contracts/2. MyContract.sol\":1383:1395  num % 2 == 1 */\n      sub\n        /* \"contracts/2. MyContract.sol\":1379:1478  if (num % 2 == 1) {... */\n      tag_87\n      jumpi\n        /* \"contracts/2. MyContract.sol\":1418:1423  false */\n      0x00\n        /* \"contracts/2. MyContract.sol\":1411:1423  return false */\n      swap1\n      pop\n      jump(tag_84)\n        /* \"contracts/2. MyContract.sol\":1379:1478  if (num % 2 == 1) {... */\n    tag_87:\n        /* \"contracts/2. MyContract.sol\":1463:1467  true */\n      0x01\n        /* \"contracts/2. MyContract.sol\":1456:1467  return true */\n      swap1\n      pop\n        /* \"contracts/2. MyContract.sol\":1318:1484  function isEven(uint num) public pure returns(bool){... */\n    tag_84:\n      swap2\n      swap1\n      pop\n      jump\t// out\n        /* \"contracts/2. MyContract.sol\":652:689  mapping (uint => string) public names */\n    tag_38:\n      mstore(0x20, 0x07)\n      dup1\n      0x00\n      mstore\n      keccak256(0x00, 0x40)\n      0x00\n      swap2\n      pop\n      swap1\n      pop\n      dup1\n      sload\n      tag_89\n      swap1\n      tag_74\n      jump\t// in\n    tag_89:\n      dup1\n      0x1f\n      add\n      0x20\n      dup1\n      swap2\n      div\n      mul\n      0x20\n      add\n      mload(0x40)\n      swap1\n      dup2\n      add\n      0x40\n      mstore\n      dup1\n      swap3\n      swap2\n      swap1\n      dup2\n      dup2\n      mstore\n      0x20\n      add\n      dup3\n      dup1\n      sload\n      tag_90\n      swap1\n      tag_74\n      jump\t// in\n    tag_90:\n      dup1\n      iszero\n      tag_91\n      jumpi\n      dup1\n      0x1f\n      lt\n      tag_92\n      jumpi\n      0x0100\n      dup1\n      dup4\n      sload\n      div\n      mul\n      dup4\n      mstore\n      swap2\n      0x20\n      add\n      swap2\n      jump(tag_91)\n    tag_92:\n      dup3\n      add\n      swap2\n      swap1\n      0x00\n      mstore\n      keccak256(0x00, 0x20)\n      swap1\n    tag_93:\n      dup2\n      sload\n      dup2\n      mstore\n      swap1\n      0x01\n      add\n      swap1\n      0x20\n      add\n      dup1\n      dup4\n      gt\n      tag_93\n      jumpi\n      dup3\n      swap1\n      sub\n      0x1f\n      and\n      dup3\n      add\n      swap2\n    tag_91:\n      pop\n      pop\n      pop\n      pop\n      pop\n      dup2\n      jump\t// out\n        /* \"contracts/2. MyContract.sol\":1087:1227  function addMyBook(uint id, string memory title, string memory author) public {... */\n    tag_43:\n        /* \"contracts/2. MyContract.sol\":1201:1220  Book(title, author) */\n      mload(0x40)\n      dup1\n      0x40\n      add\n      0x40\n      mstore\n      dup1\n        /* \"contracts/2. MyContract.sol\":1206:1211  title */\n      dup4\n        /* \"contracts/2. MyContract.sol\":1201:1220  Book(title, author) */\n      dup2\n      mstore\n      0x20\n      add\n        /* \"contracts/2. MyContract.sol\":1213:1219  author */\n      dup3\n        /* \"contracts/2. MyContract.sol\":1201:1220  Book(title, author) */\n      dup2\n      mstore\n      pop\n        /* \"contracts/2. MyContract.sol\":1175:1182  myBooks */\n      0x09\n        /* \"contracts/2. MyContract.sol\":1175:1194  myBooks[msg.sender] */\n      0x00\n        /* \"contracts/2. MyContract.sol\":1183:1193  msg.sender */\n      caller\n        /* \"contracts/2. MyContract.sol\":1175:1194  myBooks[msg.sender] */\n      0xffffffffffffffffffffffffffffffffffffffff\n      and\n      0xffffffffffffffffffffffffffffffffffffffff\n      and\n      dup2\n      mstore\n      0x20\n      add\n      swap1\n      dup2\n      mstore\n      0x20\n      add\n      0x00\n      keccak256\n        /* \"contracts/2. MyContract.sol\":1175:1198  myBooks[msg.sender][id] */\n      0x00\n        /* \"contracts/2. MyContract.sol\":1195:1197  id */\n      dup6\n        /* \"contracts/2. MyContract.sol\":1175:1198  myBooks[msg.sender][id] */\n      dup2\n      mstore\n      0x20\n      add\n      swap1\n      dup2\n      mstore\n      0x20\n      add\n      0x00\n      keccak256\n        /* \"contracts/2. MyContract.sol\":1175:1220  myBooks[msg.sender][id] = Book(title, author) */\n      0x00\n      dup3\n      add\n      mload\n      dup2\n      0x00\n      add\n      swap1\n      dup2\n      tag_95\n      swap2\n      swap1\n      tag_70\n      jump\t// in\n    tag_95:\n      pop\n      0x20\n      dup3\n      add\n      mload\n      dup2\n      0x01\n      add\n      swap1\n      dup2\n      tag_96\n      swap2\n      swap1\n      tag_70\n      jump\t// in\n    tag_96:\n      pop\n      swap1\n      pop\n      pop\n        /* \"contracts/2. MyContract.sol\":1087:1227  function addMyBook(uint id, string memory title, string memory author) public {... */\n      pop\n      pop\n      pop\n      jump\t// out\n        /* \"contracts/2. MyContract.sol\":696:731  mapping (uint => Book) public books */\n    tag_46:\n      mstore(0x20, 0x08)\n      dup1\n      0x00\n      mstore\n      keccak256(0x00, 0x40)\n      0x00\n      swap2\n      pop\n      swap1\n      pop\n      dup1\n      0x00\n      add\n      dup1\n      sload\n      tag_97\n      swap1\n      tag_74\n      jump\t// in\n    tag_97:\n      dup1\n      0x1f\n      add\n      0x20\n      dup1\n      swap2\n      div\n      mul\n      0x20\n      add\n      mload(0x40)\n      swap1\n      dup2\n      add\n      0x40\n      mstore\n      dup1\n      swap3\n      swap2\n      swap1\n      dup2\n      dup2\n      mstore\n      0x20\n      add\n      dup3\n      dup1\n      sload\n      tag_98\n      swap1\n      tag_74\n      jump\t// in\n    tag_98:\n      dup1\n      iszero\n      tag_99\n      jumpi\n      dup1\n      0x1f\n      lt\n      tag_100\n      jumpi\n      0x0100\n      dup1\n      dup4\n      sload\n      div\n      mul\n      dup4\n      mstore\n      swap2\n      0x20\n      add\n      swap2\n      jump(tag_99)\n    tag_100:\n      dup3\n      add\n      swap2\n      swap1\n      0x00\n      mstore\n      keccak256(0x00, 0x20)\n      swap1\n    tag_101:\n      dup2\n      sload\n      dup2\n      mstore\n      swap1\n      0x01\n      add\n      swap1\n      0x20\n      add\n      dup1\n      dup4\n      gt\n      tag_101\n      jumpi\n      dup3\n      swap1\n      sub\n      0x1f\n      and\n      dup3\n      add\n      swap2\n    tag_99:\n      pop\n      pop\n      pop\n      pop\n      pop\n      swap1\n      dup1\n      0x01\n      add\n      dup1\n      sload\n      tag_102\n      swap1\n      tag_74\n      jump\t// in\n    tag_102:\n      dup1\n      0x1f\n      add\n      0x20\n      dup1\n      swap2\n      div\n      mul\n      0x20\n      add\n      mload(0x40)\n      swap1\n      dup2\n      add\n      0x40\n      mstore\n      dup1\n      swap3\n      swap2\n      swap1\n      dup2\n      dup2\n      mstore\n      0x20\n      add\n      dup3\n      dup1\n      sload\n      tag_103\n      swap1\n      tag_74\n      jump\t// in\n    tag_103:\n      dup1\n      iszero\n      tag_104\n      jumpi\n      dup1\n      0x1f\n      lt\n      tag_105\n      jumpi\n      0x0100\n      dup1\n      dup4\n      sload\n      div\n      mul\n      dup4\n      mstore\n      swap2\n      0x20\n      add\n      swap2\n      jump(tag_104)\n    tag_105:\n      dup3\n      add\n      swap2\n      swap1\n      0x00\n      mstore\n      keccak256(0x00, 0x20)\n      swap1\n    tag_106:\n      dup2\n      sload\n      dup2\n      mstore\n      swap1\n      0x01\n      add\n      swap1\n      0x20\n      add\n      dup1\n      dup4\n      gt\n      tag_106\n      jumpi\n      dup3\n      swap1\n      sub\n      0x1f\n      and\n      dup3\n      add\n      swap2\n    tag_104:\n      pop\n      pop\n      pop\n      pop\n      pop\n      swap1\n      pop\n      dup3\n      jump\t// out\n        /* \"contracts/2. MyContract.sol\":526:555  uint[] public arr = [1, 2, 3] */\n    tag_50:\n      0x06\n      dup2\n      dup2\n      sload\n      dup2\n      lt\n      tag_107\n      jumpi\n      0x00\n      dup1\n      revert\n    tag_107:\n      swap1\n      0x00\n      mstore\n      keccak256(0x00, 0x20)\n      add\n      0x00\n      swap2\n      pop\n      swap1\n      pop\n      sload\n      dup2\n      jump\t// out\n        /* \"contracts/2. MyContract.sol\":331:379  MyStruct public myStruct = MyStruct(1, \"Aditya\") */\n    tag_53:\n      0x04\n      dup1\n      0x00\n      add\n      sload\n      swap1\n      dup1\n      0x01\n      add\n      dup1\n      sload\n      tag_109\n      swap1\n      tag_74\n      jump\t// in\n    tag_109:\n      dup1\n      0x1f\n      add\n      0x20\n      dup1\n      swap2\n      div\n      mul\n      0x20\n      add\n      mload(0x40)\n      swap1\n      dup2\n      add\n      0x40\n      mstore\n      dup1\n      swap3\n      swap2\n      swap1\n      dup2\n      dup2\n      mstore\n      0x20\n      add\n      dup3\n      dup1\n      sload\n      tag_110\n      swap1\n      tag_74\n      jump\t// in\n    tag_110:\n      dup1\n      iszero\n      tag_111\n      jumpi\n      dup1\n      0x1f\n      lt\n      tag_112\n      jumpi\n      0x0100\n      dup1\n      dup4\n      sload\n      div\n      mul\n      dup4\n      mstore\n      swap2\n      0x20\n      add\n      swap2\n      jump(tag_111)\n    tag_112:\n      dup3\n      add\n      swap2\n      swap1\n      0x00\n      mstore\n      keccak256(0x00, 0x20)\n      swap1\n    tag_113:\n      dup2\n      sload\n      dup2\n      mstore\n      swap1\n      0x01\n      add\n      swap1\n      0x20\n      add\n      dup1\n      dup4\n      gt\n      tag_113\n      jumpi\n      dup3\n      swap1\n      sub\n      0x1f\n      and\n      dup3\n      add\n      swap2\n    tag_111:\n      pop\n      pop\n      pop\n      pop\n      pop\n      swap1\n      pop\n      dup3\n      jump\t// out\n        /* \"contracts/2. MyContract.sol\":562:631  function append(uint value1) public {... */\n    tag_58:\n        /* \"contracts/2. MyContract.sol\":608:611  arr */\n      0x06\n        /* \"contracts/2. MyContract.sol\":617:623  value1 */\n      dup2\n        /* \"contracts/2. MyContract.sol\":608:624  arr.push(value1) */\n      swap1\n      dup1\n      0x01\n      dup2\n      sload\n      add\n      dup1\n      dup3\n      sstore\n      dup1\n      swap2\n      pop\n      pop\n      0x01\n      swap1\n      sub\n      swap1\n      0x00\n      mstore\n      keccak256(0x00, 0x20)\n      add\n      0x00\n      swap1\n      swap2\n      swap1\n      swap2\n      swap1\n      swap2\n      pop\n      sstore\n        /* \"contracts/2. MyContract.sol\":562:631  function append(uint value1) public {... */\n      pop\n      jump\t// out\n        /* \"contracts/2. MyContract.sol\":1490:1755  function countEvens(uint[] memory numbers) public pure returns(uint){... */\n    tag_62:\n        /* \"contracts/2. MyContract.sol\":1553:1557  uint */\n      0x00\n        /* \"contracts/2. MyContract.sol\":1568:1578  uint count */\n      0x00\n        /* \"contracts/2. MyContract.sol\":1581:1582  0 */\n      0x00\n        /* \"contracts/2. MyContract.sol\":1568:1582  uint count = 0 */\n      swap1\n      pop\n        /* \"contracts/2. MyContract.sol\":1606:1612  uint i */\n      0x00\n        /* \"contracts/2. MyContract.sol\":1613:1614  0 */\n      0x00\n        /* \"contracts/2. MyContract.sol\":1606:1614  uint i=0 */\n      swap1\n      pop\n        /* \"contracts/2. MyContract.sol\":1601:1726  for (uint i=0; i<numbers.length; i++){... */\n    tag_117:\n        /* \"contracts/2. MyContract.sol\":1618:1625  numbers */\n      dup4\n        /* \"contracts/2. MyContract.sol\":1618:1632  numbers.length */\n      mload\n        /* \"contracts/2. MyContract.sol\":1616:1617  i */\n      dup2\n        /* \"contracts/2. MyContract.sol\":1616:1632  i<numbers.length */\n      lt\n        /* \"contracts/2. MyContract.sol\":1601:1726  for (uint i=0; i<numbers.length; i++){... */\n      iszero\n      tag_118\n      jumpi\n        /* \"contracts/2. MyContract.sol\":1655:1673  isEven(numbers[i]) */\n      tag_120\n        /* \"contracts/2. MyContract.sol\":1662:1669  numbers */\n      dup5\n        /* \"contracts/2. MyContract.sol\":1670:1671  i */\n      dup3\n        /* \"contracts/2. MyContract.sol\":1662:1672  numbers[i] */\n      dup2\n      mload\n      dup2\n      lt\n      tag_121\n      jumpi\n      tag_122\n      tag_123\n      jump\t// in\n    tag_122:\n    tag_121:\n      0x20\n      mul\n      0x20\n      add\n      add\n      mload\n        /* \"contracts/2. MyContract.sol\":1655:1661  isEven */\n      tag_33\n        /* \"contracts/2. MyContract.sol\":1655:1673  isEven(numbers[i]) */\n      jump\t// in\n    tag_120:\n        /* \"contracts/2. MyContract.sol\":1652:1716  if(isEven(numbers[i])){... */\n      iszero\n      tag_124\n      jumpi\n        /* \"contracts/2. MyContract.sol\":1692:1700  count ++ */\n      dup2\n      dup1\n      tag_125\n      swap1\n      tag_126\n      jump\t// in\n    tag_125:\n      swap3\n      pop\n      pop\n        /* \"contracts/2. MyContract.sol\":1652:1716  if(isEven(numbers[i])){... */\n    tag_124:\n        /* \"contracts/2. MyContract.sol\":1634:1637  i++ */\n      dup1\n      dup1\n      0x01\n      add\n      swap2\n      pop\n      pop\n        /* \"contracts/2. MyContract.sol\":1601:1726  for (uint i=0; i<numbers.length; i++){... */\n      jump(tag_117)\n    tag_118:\n      pop\n        /* \"contracts/2. MyContract.sol\":1743:1748  count */\n      dup1\n        /* \"contracts/2. MyContract.sol\":1736:1748  return count */\n      swap2\n      pop\n      pop\n        /* \"contracts/2. MyContract.sol\":1490:1755  function countEvens(uint[] memory numbers) public pure returns(uint){... */\n      swap2\n      swap1\n      pop\n      jump\t// out\n        /* \"contracts/2. MyContract.sol\":1263:1311  uint[] public nums = [1, 2, 3, 4, 5, 6, 7, 8, 9] */\n    tag_66:\n      0x0a\n      dup2\n      dup2\n      sload\n      dup2\n      lt\n      tag_127\n      jumpi\n      0x00\n      dup1\n      revert\n    tag_127:\n      swap1\n      0x00\n      mstore\n      keccak256(0x00, 0x20)\n      add\n      0x00\n      swap2\n      pop\n      swap1\n      pop\n      sload\n      dup2\n      jump\t// out\n        /* \"#utility.yul\":7:82   */\n    tag_129:\n        /* \"#utility.yul\":40:46   */\n      0x00\n        /* \"#utility.yul\":73:75   */\n      0x40\n        /* \"#utility.yul\":67:76   */\n      mload\n        /* \"#utility.yul\":57:76   */\n      swap1\n      pop\n        /* \"#utility.yul\":7:82   */\n      swap1\n      jump\t// out\n        /* \"#utility.yul\":88:205   */\n    tag_130:\n        /* \"#utility.yul\":197:198   */\n      0x00\n        /* \"#utility.yul\":194:195   */\n      0x00\n        /* \"#utility.yul\":187:199   */\n      revert\n        /* \"#utility.yul\":211:328   */\n    tag_131:\n        /* \"#utility.yul\":320:321   */\n      0x00\n        /* \"#utility.yul\":317:318   */\n      0x00\n        /* \"#utility.yul\":310:322   */\n      revert\n        /* \"#utility.yul\":334:411   */\n    tag_132:\n        /* \"#utility.yul\":371:378   */\n      0x00\n        /* \"#utility.yul\":400:405   */\n      dup2\n        /* \"#utility.yul\":389:405   */\n      swap1\n      pop\n        /* \"#utility.yul\":334:411   */\n      swap2\n      swap1\n      pop\n      jump\t// out\n        /* \"#utility.yul\":417:539   */\n    tag_133:\n        /* \"#utility.yul\":490:514   */\n      tag_184\n        /* \"#utility.yul\":508:513   */\n      dup2\n        /* \"#utility.yul\":490:514   */\n      tag_132\n      jump\t// in\n    tag_184:\n        /* \"#utility.yul\":483:488   */\n      dup2\n        /* \"#utility.yul\":480:515   */\n      eq\n        /* \"#utility.yul\":470:533   */\n      tag_185\n      jumpi\n        /* \"#utility.yul\":529:530   */\n      0x00\n        /* \"#utility.yul\":526:527   */\n      0x00\n        /* \"#utility.yul\":519:531   */\n      revert\n        /* \"#utility.yul\":470:533   */\n    tag_185:\n        /* \"#utility.yul\":417:539   */\n      pop\n      jump\t// out\n        /* \"#utility.yul\":545:684   */\n    tag_134:\n        /* \"#utility.yul\":591:596   */\n      0x00\n        /* \"#utility.yul\":629:635   */\n      dup2\n        /* \"#utility.yul\":616:636   */\n      calldataload\n        /* \"#utility.yul\":607:636   */\n      swap1\n      pop\n        /* \"#utility.yul\":645:678   */\n      tag_187\n        /* \"#utility.yul\":672:677   */\n      dup2\n        /* \"#utility.yul\":645:678   */\n      tag_133\n      jump\t// in\n    tag_187:\n        /* \"#utility.yul\":545:684   */\n      swap3\n      swap2\n      pop\n      pop\n      jump\t// out\n        /* \"#utility.yul\":690:807   */\n    tag_135:\n        /* \"#utility.yul\":799:800   */\n      0x00\n        /* \"#utility.yul\":796:797   */\n      0x00\n        /* \"#utility.yul\":789:801   */\n      revert\n        /* \"#utility.yul\":813:930   */\n    tag_136:\n        /* \"#utility.yul\":922:923   */\n      0x00\n        /* \"#utility.yul\":919:920   */\n      0x00\n        /* \"#utility.yul\":912:924   */\n      revert\n        /* \"#utility.yul\":936:1038   */\n    tag_137:\n        /* \"#utility.yul\":977:983   */\n      0x00\n        /* \"#utility.yul\":1028:1030   */\n      0x1f\n        /* \"#utility.yul\":1024:1031   */\n      not\n        /* \"#utility.yul\":1019:1021   */\n      0x1f\n        /* \"#utility.yul\":1012:1017   */\n      dup4\n        /* \"#utility.yul\":1008:1022   */\n      add\n        /* \"#utility.yul\":1004:1032   */\n      and\n        /* \"#utility.yul\":994:1032   */\n      swap1\n      pop\n        /* \"#utility.yul\":936:1038   */\n      swap2\n      swap1\n      pop\n      jump\t// out\n        /* \"#utility.yul\":1044:1224   */\n    tag_138:\n        /* \"#utility.yul\":1092:1169   */\n      0x4e487b7100000000000000000000000000000000000000000000000000000000\n        /* \"#utility.yul\":1089:1090   */\n      0x00\n        /* \"#utility.yul\":1082:1170   */\n      mstore\n        /* \"#utility.yul\":1189:1193   */\n      0x41\n        /* \"#utility.yul\":1186:1187   */\n      0x04\n        /* \"#utility.yul\":1179:1194   */\n      mstore\n        /* \"#utility.yul\":1213:1217   */\n      0x24\n        /* \"#utility.yul\":1210:1211   */\n      0x00\n        /* \"#utility.yul\":1203:1218   */\n      revert\n        /* \"#utility.yul\":1230:1511   */\n    tag_139:\n        /* \"#utility.yul\":1313:1340   */\n      tag_193\n        /* \"#utility.yul\":1335:1339   */\n      dup3\n        /* \"#utility.yul\":1313:1340   */\n      tag_137\n      jump\t// in\n    tag_193:\n        /* \"#utility.yul\":1305:1311   */\n      dup2\n        /* \"#utility.yul\":1301:1341   */\n      add\n        /* \"#utility.yul\":1443:1449   */\n      dup2\n        /* \"#utility.yul\":1431:1441   */\n      dup2\n        /* \"#utility.yul\":1428:1450   */\n      lt\n        /* \"#utility.yul\":1407:1425   */\n      0xffffffffffffffff\n        /* \"#utility.yul\":1395:1405   */\n      dup3\n        /* \"#utility.yul\":1392:1426   */\n      gt\n        /* \"#utility.yul\":1389:1451   */\n      or\n        /* \"#utility.yul\":1386:1474   */\n      iszero\n      tag_194\n      jumpi\n        /* \"#utility.yul\":1454:1472   */\n      tag_195\n      tag_138\n      jump\t// in\n    tag_195:\n        /* \"#utility.yul\":1386:1474   */\n    tag_194:\n        /* \"#utility.yul\":1494:1504   */\n      dup1\n        /* \"#utility.yul\":1490:1492   */\n      0x40\n        /* \"#utility.yul\":1483:1505   */\n      mstore\n        /* \"#utility.yul\":1273:1511   */\n      pop\n        /* \"#utility.yul\":1230:1511   */\n      pop\n      pop\n      jump\t// out\n        /* \"#utility.yul\":1517:1646   */\n    tag_140:\n        /* \"#utility.yul\":1551:1557   */\n      0x00\n        /* \"#utility.yul\":1578:1598   */\n      tag_197\n      tag_129\n      jump\t// in\n    tag_197:\n        /* \"#utility.yul\":1568:1598   */\n      swap1\n      pop\n        /* \"#utility.yul\":1607:1640   */\n      tag_198\n        /* \"#utility.yul\":1635:1639   */\n      dup3\n        /* \"#utility.yul\":1627:1633   */\n      dup3\n        /* \"#utility.yul\":1607:1640   */\n      tag_139\n      jump\t// in\n    tag_198:\n        /* \"#utility.yul\":1517:1646   */\n      swap2\n      swap1\n      pop\n      jump\t// out\n        /* \"#utility.yul\":1652:1960   */\n    tag_141:\n        /* \"#utility.yul\":1714:1718   */\n      0x00\n        /* \"#utility.yul\":1804:1822   */\n      0xffffffffffffffff\n        /* \"#utility.yul\":1796:1802   */\n      dup3\n        /* \"#utility.yul\":1793:1823   */\n      gt\n        /* \"#utility.yul\":1790:1846   */\n      iszero\n      tag_200\n      jumpi\n        /* \"#utility.yul\":1826:1844   */\n      tag_201\n      tag_138\n      jump\t// in\n    tag_201:\n        /* \"#utility.yul\":1790:1846   */\n    tag_200:\n        /* \"#utility.yul\":1864:1893   */\n      tag_202\n        /* \"#utility.yul\":1886:1892   */\n      dup3\n        /* \"#utility.yul\":1864:1893   */\n      tag_137\n      jump\t// in\n    tag_202:\n        /* \"#utility.yul\":1856:1893   */\n      swap1\n      pop\n        /* \"#utility.yul\":1948:1952   */\n      0x20\n        /* \"#utility.yul\":1942:1946   */\n      dup2\n        /* \"#utility.yul\":1938:1953   */\n      add\n        /* \"#utility.yul\":1930:1953   */\n      swap1\n      pop\n        /* \"#utility.yul\":1652:1960   */\n      swap2\n      swap1\n      pop\n      jump\t// out\n        /* \"#utility.yul\":1966:2114   */\n    tag_142:\n        /* \"#utility.yul\":2064:2070   */\n      dup3\n        /* \"#utility.yul\":2059:2062   */\n      dup2\n        /* \"#utility.yul\":2054:2057   */\n      dup4\n        /* \"#utility.yul\":2041:2071   */\n      calldatacopy\n        /* \"#utility.yul\":2105:2106   */\n      0x00\n        /* \"#utility.yul\":2096:2102   */\n      dup4\n        /* \"#utility.yul\":2091:2094   */\n      dup4\n        /* \"#utility.yul\":2087:2103   */\n      add\n        /* \"#utility.yul\":2080:2107   */\n      mstore\n        /* \"#utility.yul\":1966:2114   */\n      pop\n      pop\n      pop\n      jump\t// out\n        /* \"#utility.yul\":2120:2545   */\n    tag_143:\n        /* \"#utility.yul\":2198:2203   */\n      0x00\n        /* \"#utility.yul\":2223:2289   */\n      tag_205\n        /* \"#utility.yul\":2239:2288   */\n      tag_206\n        /* \"#utility.yul\":2281:2287   */\n      dup5\n        /* \"#utility.yul\":2239:2288   */\n      tag_141\n      jump\t// in\n    tag_206:\n        /* \"#utility.yul\":2223:2289   */\n      tag_140\n      jump\t// in\n    tag_205:\n        /* \"#utility.yul\":2214:2289   */\n      swap1\n      pop\n        /* \"#utility.yul\":2312:2318   */\n      dup3\n        /* \"#utility.yul\":2305:2310   */\n      dup2\n        /* \"#utility.yul\":2298:2319   */\n      mstore\n        /* \"#utility.yul\":2350:2354   */\n      0x20\n        /* \"#utility.yul\":2343:2348   */\n      dup2\n        /* \"#utility.yul\":2339:2355   */\n      add\n        /* \"#utility.yul\":2388:2391   */\n      dup5\n        /* \"#utility.yul\":2379:2385   */\n      dup5\n        /* \"#utility.yul\":2374:2377   */\n      dup5\n        /* \"#utility.yul\":2370:2386   */\n      add\n        /* \"#utility.yul\":2367:2392   */\n      gt\n        /* \"#utility.yul\":2364:2476   */\n      iszero\n      tag_207\n      jumpi\n        /* \"#utility.yul\":2395:2474   */\n      tag_208\n      tag_136\n      jump\t// in\n    tag_208:\n        /* \"#utility.yul\":2364:2476   */\n    tag_207:\n        /* \"#utility.yul\":2485:2539   */\n      tag_209\n        /* \"#utility.yul\":2532:2538   */\n      dup5\n        /* \"#utility.yul\":2527:2530   */\n      dup3\n        /* \"#utility.yul\":2522:2525   */\n      dup6\n        /* \"#utility.yul\":2485:2539   */\n      tag_142\n      jump\t// in\n    tag_209:\n        /* \"#utility.yul\":2204:2545   */\n      pop\n        /* \"#utility.yul\":2120:2545   */\n      swap4\n      swap3\n      pop\n      pop\n      pop\n      jump\t// out\n        /* \"#utility.yul\":2565:2905   */\n    tag_144:\n        /* \"#utility.yul\":2621:2626   */\n      0x00\n        /* \"#utility.yul\":2670:2673   */\n      dup3\n        /* \"#utility.yul\":2663:2667   */\n      0x1f\n        /* \"#utility.yul\":2655:2661   */\n      dup4\n        /* \"#utility.yul\":2651:2668   */\n      add\n        /* \"#utility.yul\":2647:2674   */\n      slt\n        /* \"#utility.yul\":2637:2759   */\n      tag_211\n      jumpi\n        /* \"#utility.yul\":2678:2757   */\n      tag_212\n      tag_135\n      jump\t// in\n    tag_212:\n        /* \"#utility.yul\":2637:2759   */\n    tag_211:\n        /* \"#utility.yul\":2795:2801   */\n      dup2\n        /* \"#utility.yul\":2782:2802   */\n      calldataload\n        /* \"#utility.yul\":2820:2899   */\n      tag_213\n        /* \"#utility.yul\":2895:2898   */\n      dup5\n        /* \"#utility.yul\":2887:2893   */\n      dup3\n        /* \"#utility.yul\":2880:2884   */\n      0x20\n        /* \"#utility.yul\":2872:2878   */\n      dup7\n        /* \"#utility.yul\":2868:2885   */\n      add\n        /* \"#utility.yul\":2820:2899   */\n      tag_143\n      jump\t// in\n    tag_213:\n        /* \"#utility.yul\":2811:2899   */\n      swap2\n      pop\n        /* \"#utility.yul\":2627:2905   */\n      pop\n        /* \"#utility.yul\":2565:2905   */\n      swap3\n      swap2\n      pop\n      pop\n      jump\t// out\n        /* \"#utility.yul\":2911:3890   */\n    tag_18:\n        /* \"#utility.yul\":3008:3014   */\n      0x00\n        /* \"#utility.yul\":3016:3022   */\n      0x00\n        /* \"#utility.yul\":3024:3030   */\n      0x00\n        /* \"#utility.yul\":3073:3075   */\n      0x60\n        /* \"#utility.yul\":3061:3070   */\n      dup5\n        /* \"#utility.yul\":3052:3059   */\n      dup7\n        /* \"#utility.yul\":3048:3071   */\n      sub\n        /* \"#utility.yul\":3044:3076   */\n      slt\n        /* \"#utility.yul\":3041:3160   */\n      iszero\n      tag_215\n      jumpi\n        /* \"#utility.yul\":3079:3158   */\n      tag_216\n      tag_130\n      jump\t// in\n    tag_216:\n        /* \"#utility.yul\":3041:3160   */\n    tag_215:\n        /* \"#utility.yul\":3199:3200   */\n      0x00\n        /* \"#utility.yul\":3224:3277   */\n      tag_217\n        /* \"#utility.yul\":3269:3276   */\n      dup7\n        /* \"#utility.yul\":3260:3266   */\n      dup3\n        /* \"#utility.yul\":3249:3258   */\n      dup8\n        /* \"#utility.yul\":3245:3267   */\n      add\n        /* \"#utility.yul\":3224:3277   */\n      tag_134\n      jump\t// in\n    tag_217:\n        /* \"#utility.yul\":3214:3277   */\n      swap4\n      pop\n        /* \"#utility.yul\":3170:3287   */\n      pop\n        /* \"#utility.yul\":3354:3356   */\n      0x20\n        /* \"#utility.yul\":3343:3352   */\n      dup5\n        /* \"#utility.yul\":3339:3357   */\n      add\n        /* \"#utility.yul\":3326:3358   */\n      calldataload\n        /* \"#utility.yul\":3385:3403   */\n      0xffffffffffffffff\n        /* \"#utility.yul\":3377:3383   */\n      dup2\n        /* \"#utility.yul\":3374:3404   */\n      gt\n        /* \"#utility.yul\":3371:3488   */\n      iszero\n      tag_218\n      jumpi\n        /* \"#utility.yul\":3407:3486   */\n      tag_219\n      tag_131\n      jump\t// in\n    tag_219:\n        /* \"#utility.yul\":3371:3488   */\n    tag_218:\n        /* \"#utility.yul\":3512:3575   */\n      tag_220\n        /* \"#utility.yul\":3567:3574   */\n      dup7\n        /* \"#utility.yul\":3558:3564   */\n      dup3\n        /* \"#utility.yul\":3547:3556   */\n      dup8\n        /* \"#utility.yul\":3543:3565   */\n      add\n        /* \"#utility.yul\":3512:3575   */\n      tag_144\n      jump\t// in\n    tag_220:\n        /* \"#utility.yul\":3502:3575   */\n      swap3\n      pop\n        /* \"#utility.yul\":3297:3585   */\n      pop\n        /* \"#utility.yul\":3652:3654   */\n      0x40\n        /* \"#utility.yul\":3641:3650   */\n      dup5\n        /* \"#utility.yul\":3637:3655   */\n      add\n        /* \"#utility.yul\":3624:3656   */\n      calldataload\n        /* \"#utility.yul\":3683:3701   */\n      0xffffffffffffffff\n        /* \"#utility.yul\":3675:3681   */\n      dup2\n        /* \"#utility.yul\":3672:3702   */\n      gt\n        /* \"#utility.yul\":3669:3786   */\n      iszero\n      tag_221\n      jumpi\n        /* \"#utility.yul\":3705:3784   */\n      tag_222\n      tag_131\n      jump\t// in\n    tag_222:\n        /* \"#utility.yul\":3669:3786   */\n    tag_221:\n        /* \"#utility.yul\":3810:3873   */\n      tag_223\n        /* \"#utility.yul\":3865:3872   */\n      dup7\n        /* \"#utility.yul\":3856:3862   */\n      dup3\n        /* \"#utility.yul\":3845:3854   */\n      dup8\n        /* \"#utility.yul\":3841:3863   */\n      add\n        /* \"#utility.yul\":3810:3873   */\n      tag_144\n      jump\t// in\n    tag_223:\n        /* \"#utility.yul\":3800:3873   */\n      swap2\n      pop\n        /* \"#utility.yul\":3595:3883   */\n      pop\n        /* \"#utility.yul\":2911:3890   */\n      swap3\n      pop\n      swap3\n      pop\n      swap3\n      jump\t// out\n        /* \"#utility.yul\":3896:4014   */\n    tag_145:\n        /* \"#utility.yul\":3983:4007   */\n      tag_225\n        /* \"#utility.yul\":4001:4006   */\n      dup2\n        /* \"#utility.yul\":3983:4007   */\n      tag_132\n      jump\t// in\n    tag_225:\n        /* \"#utility.yul\":3978:3981   */\n      dup3\n        /* \"#utility.yul\":3971:4008   */\n      mstore\n        /* \"#utility.yul\":3896:4014   */\n      pop\n      pop\n      jump\t// out\n        /* \"#utility.yul\":4020:4242   */\n    tag_23:\n        /* \"#utility.yul\":4113:4117   */\n      0x00\n        /* \"#utility.yul\":4151:4153   */\n      0x20\n        /* \"#utility.yul\":4140:4149   */\n      dup3\n        /* \"#utility.yul\":4136:4154   */\n      add\n        /* \"#utility.yul\":4128:4154   */\n      swap1\n      pop\n        /* \"#utility.yul\":4164:4235   */\n      tag_227\n        /* \"#utility.yul\":4232:4233   */\n      0x00\n        /* \"#utility.yul\":4221:4230   */\n      dup4\n        /* \"#utility.yul\":4217:4234   */\n      add\n        /* \"#utility.yul\":4208:4214   */\n      dup5\n        /* \"#utility.yul\":4164:4235   */\n      tag_145\n      jump\t// in\n    tag_227:\n        /* \"#utility.yul\":4020:4242   */\n      swap3\n      swap2\n      pop\n      pop\n      jump\t// out\n        /* \"#utility.yul\":4248:4374   */\n    tag_146:\n        /* \"#utility.yul\":4285:4292   */\n      0x00\n        /* \"#utility.yul\":4325:4367   */\n      0xffffffffffffffffffffffffffffffffffffffff\n        /* \"#utility.yul\":4318:4323   */\n      dup3\n        /* \"#utility.yul\":4314:4368   */\n      and\n        /* \"#utility.yul\":4303:4368   */\n      swap1\n      pop\n        /* \"#utility.yul\":4248:4374   */\n      swap2\n      swap1\n      pop\n      jump\t// out\n        /* \"#utility.yul\":4380:4476   */\n    tag_147:\n        /* \"#utility.yul\":4417:4424   */\n      0x00\n        /* \"#utility.yul\":4446:4470   */\n      tag_230\n        /* \"#utility.yul\":4464:4469   */\n      dup3\n        /* \"#utility.yul\":4446:4470   */\n      tag_146\n      jump\t// in\n    tag_230:\n        /* \"#utility.yul\":4435:4470   */\n      swap1\n      pop\n        /* \"#utility.yul\":4380:4476   */\n      swap2\n      swap1\n      pop\n      jump\t// out\n        /* \"#utility.yul\":4482:4604   */\n    tag_148:\n        /* \"#utility.yul\":4555:4579   */\n      tag_232\n        /* \"#utility.yul\":4573:4578   */\n      dup2\n        /* \"#utility.yul\":4555:4579   */\n      tag_147\n      jump\t// in\n    tag_232:\n        /* \"#utility.yul\":4548:4553   */\n      dup2\n        /* \"#utility.yul\":4545:4580   */\n      eq\n        /* \"#utility.yul\":4535:4598   */\n      tag_233\n      jumpi\n        /* \"#utility.yul\":4594:4595   */\n      0x00\n        /* \"#utility.yul\":4591:4592   */\n      0x00\n        /* \"#utility.yul\":4584:4596   */\n      revert\n        /* \"#utility.yul\":4535:4598   */\n    tag_233:\n        /* \"#utility.yul\":4482:4604   */\n      pop\n      jump\t// out\n        /* \"#utility.yul\":4610:4749   */\n    tag_149:\n        /* \"#utility.yul\":4656:4661   */\n      0x00\n        /* \"#utility.yul\":4694:4700   */\n      dup2\n        /* \"#utility.yul\":4681:4701   */\n      calldataload\n        /* \"#utility.yul\":4672:4701   */\n      swap1\n      pop\n        /* \"#utility.yul\":4710:4743   */\n      tag_235\n        /* \"#utility.yul\":4737:4742   */\n      dup2\n        /* \"#utility.yul\":4710:4743   */\n      tag_148\n      jump\t// in\n    tag_235:\n        /* \"#utility.yul\":4610:4749   */\n      swap3\n      swap2\n      pop\n      pop\n      jump\t// out\n        /* \"#utility.yul\":4755:5229   */\n    tag_26:\n        /* \"#utility.yul\":4823:4829   */\n      0x00\n        /* \"#utility.yul\":4831:4837   */\n      0x00\n        /* \"#utility.yul\":4880:4882   */\n      0x40\n        /* \"#utility.yul\":4868:4877   */\n      dup4\n        /* \"#utility.yul\":4859:4866   */\n      dup6\n        /* \"#utility.yul\":4855:4878   */\n      sub\n        /* \"#utility.yul\":4851:4883   */\n      slt\n        /* \"#utility.yul\":4848:4967   */\n      iszero\n      tag_237\n      jumpi\n        /* \"#utility.yul\":4886:4965   */\n      tag_238\n      tag_130\n      jump\t// in\n    tag_238:\n        /* \"#utility.yul\":4848:4967   */\n    tag_237:\n        /* \"#utility.yul\":5006:5007   */\n      0x00\n        /* \"#utility.yul\":5031:5084   */\n      tag_239\n        /* \"#utility.yul\":5076:5083   */\n      dup6\n        /* \"#utility.yul\":5067:5073   */\n      dup3\n        /* \"#utility.yul\":5056:5065   */\n      dup7\n        /* \"#utility.yul\":5052:5074   */\n      add\n        /* \"#utility.yul\":5031:5084   */\n      tag_149\n      jump\t// in\n    tag_239:\n        /* \"#utility.yul\":5021:5084   */\n      swap3\n      pop\n        /* \"#utility.yul\":4977:5094   */\n      pop\n        /* \"#utility.yul\":5133:5135   */\n      0x20\n        /* \"#utility.yul\":5159:5212   */\n      tag_240\n        /* \"#utility.yul\":5204:5211   */\n      dup6\n        /* \"#utility.yul\":5195:5201   */\n      dup3\n        /* \"#utility.yul\":5184:5193   */\n      dup7\n        /* \"#utility.yul\":5180:5202   */\n      add\n        /* \"#utility.yul\":5159:5212   */\n      tag_134\n      jump\t// in\n    tag_240:\n        /* \"#utility.yul\":5149:5212   */\n      swap2\n      pop\n        /* \"#utility.yul\":5104:5222   */\n      pop\n        /* \"#utility.yul\":4755:5229   */\n      swap3\n      pop\n      swap3\n      swap1\n      pop\n      jump\t// out\n        /* \"#utility.yul\":5235:5334   */\n    tag_150:\n        /* \"#utility.yul\":5287:5293   */\n      0x00\n        /* \"#utility.yul\":5321:5326   */\n      dup2\n        /* \"#utility.yul\":5315:5327   */\n      mload\n        /* \"#utility.yul\":5305:5327   */\n      swap1\n      pop\n        /* \"#utility.yul\":5235:5334   */\n      swap2\n      swap1\n      pop\n      jump\t// out\n        /* \"#utility.yul\":5340:5509   */\n    tag_151:\n        /* \"#utility.yul\":5424:5435   */\n      0x00\n        /* \"#utility.yul\":5458:5464   */\n      dup3\n        /* \"#utility.yul\":5453:5456   */\n      dup3\n        /* \"#utility.yul\":5446:5465   */\n      mstore\n        /* \"#utility.yul\":5498:5502   */\n      0x20\n        /* \"#utility.yul\":5493:5496   */\n      dup3\n        /* \"#utility.yul\":5489:5503   */\n      add\n        /* \"#utility.yul\":5474:5503   */\n      swap1\n      pop\n        /* \"#utility.yul\":5340:5509   */\n      swap3\n      swap2\n      pop\n      pop\n      jump\t// out\n        /* \"#utility.yul\":5515:5654   */\n    tag_152:\n        /* \"#utility.yul\":5604:5610   */\n      dup3\n        /* \"#utility.yul\":5599:5602   */\n      dup2\n        /* \"#utility.yul\":5594:5597   */\n      dup4\n        /* \"#utility.yul\":5588:5611   */\n      mcopy\n        /* \"#utility.yul\":5645:5646   */\n      0x00\n        /* \"#utility.yul\":5636:5642   */\n      dup4\n        /* \"#utility.yul\":5631:5634   */\n      dup4\n        /* \"#utility.yul\":5627:5643   */\n      add\n        /* \"#utility.yul\":5620:5647   */\n      mstore\n        /* \"#utility.yul\":5515:5654   */\n      pop\n      pop\n      pop\n      jump\t// out\n        /* \"#utility.yul\":5660:6037   */\n    tag_153:\n        /* \"#utility.yul\":5748:5751   */\n      0x00\n        /* \"#utility.yul\":5776:5815   */\n      tag_245\n        /* \"#utility.yul\":5809:5814   */\n      dup3\n        /* \"#utility.yul\":5776:5815   */\n      tag_150\n      jump\t// in\n    tag_245:\n        /* \"#utility.yul\":5831:5902   */\n      tag_246\n        /* \"#utility.yul\":5895:5901   */\n      dup2\n        /* \"#utility.yul\":5890:5893   */\n      dup6\n        /* \"#utility.yul\":5831:5902   */\n      tag_151\n      jump\t// in\n    tag_246:\n        /* \"#utility.yul\":5824:5902   */\n      swap4\n      pop\n        /* \"#utility.yul\":5911:5976   */\n      tag_247\n        /* \"#utility.yul\":5969:5975   */\n      dup2\n        /* \"#utility.yul\":5964:5967   */\n      dup6\n        /* \"#utility.yul\":5957:5961   */\n      0x20\n        /* \"#utility.yul\":5950:5955   */\n      dup7\n        /* \"#utility.yul\":5946:5962   */\n      add\n        /* \"#utility.yul\":5911:5976   */\n      tag_152\n      jump\t// in\n    tag_247:\n        /* \"#utility.yul\":6001:6030   */\n      tag_248\n        /* \"#utility.yul\":6023:6029   */\n      dup2\n        /* \"#utility.yul\":6001:6030   */\n      tag_137\n      jump\t// in\n    tag_248:\n        /* \"#utility.yul\":5996:5999   */\n      dup5\n        /* \"#utility.yul\":5992:6031   */\n      add\n        /* \"#utility.yul\":5985:6031   */\n      swap2\n      pop\n        /* \"#utility.yul\":5752:6037   */\n      pop\n        /* \"#utility.yul\":5660:6037   */\n      swap3\n      swap2\n      pop\n      pop\n      jump\t// out\n        /* \"#utility.yul\":6043:6557   */\n    tag_29:\n        /* \"#utility.yul\":6204:6208   */\n      0x00\n        /* \"#utility.yul\":6242:6244   */\n      0x40\n        /* \"#utility.yul\":6231:6240   */\n      dup3\n        /* \"#utility.yul\":6227:6245   */\n      add\n        /* \"#utility.yul\":6219:6245   */\n      swap1\n      pop\n        /* \"#utility.yul\":6291:6300   */\n      dup2\n        /* \"#utility.yul\":6285:6289   */\n      dup2\n        /* \"#utility.yul\":6281:6301   */\n      sub\n        /* \"#utility.yul\":6277:6278   */\n      0x00\n        /* \"#utility.yul\":6266:6275   */\n      dup4\n        /* \"#utility.yul\":6262:6279   */\n      add\n        /* \"#utility.yul\":6255:6302   */\n      mstore\n        /* \"#utility.yul\":6319:6397   */\n      tag_250\n        /* \"#utility.yul\":6392:6396   */\n      dup2\n        /* \"#utility.yul\":6383:6389   */\n      dup6\n        /* \"#utility.yul\":6319:6397   */\n      tag_153\n      jump\t// in\n    tag_250:\n        /* \"#utility.yul\":6311:6397   */\n      swap1\n      pop\n        /* \"#utility.yul\":6444:6453   */\n      dup2\n        /* \"#utility.yul\":6438:6442   */\n      dup2\n        /* \"#utility.yul\":6434:6454   */\n      sub\n        /* \"#utility.yul\":6429:6431   */\n      0x20\n        /* \"#utility.yul\":6418:6427   */\n      dup4\n        /* \"#utility.yul\":6414:6432   */\n      add\n        /* \"#utility.yul\":6407:6455   */\n      mstore\n        /* \"#utility.yul\":6472:6550   */\n      tag_251\n        /* \"#utility.yul\":6545:6549   */\n      dup2\n        /* \"#utility.yul\":6536:6542   */\n      dup5\n        /* \"#utility.yul\":6472:6550   */\n      tag_153\n      jump\t// in\n    tag_251:\n        /* \"#utility.yul\":6464:6550   */\n      swap1\n      pop\n        /* \"#utility.yul\":6043:6557   */\n      swap4\n      swap3\n      pop\n      pop\n      pop\n      jump\t// out\n        /* \"#utility.yul\":6563:6892   */\n    tag_32:\n        /* \"#utility.yul\":6622:6628   */\n      0x00\n        /* \"#utility.yul\":6671:6673   */\n      0x20\n        /* \"#utility.yul\":6659:6668   */\n      dup3\n        /* \"#utility.yul\":6650:6657   */\n      dup5\n        /* \"#utility.yul\":6646:6669   */\n      sub\n        /* \"#utility.yul\":6642:6674   */\n      slt\n        /* \"#utility.yul\":6639:6758   */\n      iszero\n      tag_253\n      jumpi\n        /* \"#utility.yul\":6677:6756   */\n      tag_254\n      tag_130\n      jump\t// in\n    tag_254:\n        /* \"#utility.yul\":6639:6758   */\n    tag_253:\n        /* \"#utility.yul\":6797:6798   */\n      0x00\n        /* \"#utility.yul\":6822:6875   */\n      tag_255\n        /* \"#utility.yul\":6867:6874   */\n      dup5\n        /* \"#utility.yul\":6858:6864   */\n      dup3\n        /* \"#utility.yul\":6847:6856   */\n      dup6\n        /* \"#utility.yul\":6843:6865   */\n      add\n        /* \"#utility.yul\":6822:6875   */\n      tag_134\n      jump\t// in\n    tag_255:\n        /* \"#utility.yul\":6812:6875   */\n      swap2\n      pop\n        /* \"#utility.yul\":6768:6885   */\n      pop\n        /* \"#utility.yul\":6563:6892   */\n      swap3\n      swap2\n      pop\n      pop\n      jump\t// out\n        /* \"#utility.yul\":6898:6988   */\n    tag_154:\n        /* \"#utility.yul\":6932:6939   */\n      0x00\n        /* \"#utility.yul\":6975:6980   */\n      dup2\n        /* \"#utility.yul\":6968:6981   */\n      iszero\n        /* \"#utility.yul\":6961:6982   */\n      iszero\n        /* \"#utility.yul\":6950:6982   */\n      swap1\n      pop\n        /* \"#utility.yul\":6898:6988   */\n      swap2\n      swap1\n      pop\n      jump\t// out\n        /* \"#utility.yul\":6994:7103   */\n    tag_155:\n        /* \"#utility.yul\":7075:7096   */\n      tag_258\n        /* \"#utility.yul\":7090:7095   */\n      dup2\n        /* \"#utility.yul\":7075:7096   */\n      tag_154\n      jump\t// in\n    tag_258:\n        /* \"#utility.yul\":7070:7073   */\n      dup3\n        /* \"#utility.yul\":7063:7097   */\n      mstore\n        /* \"#utility.yul\":6994:7103   */\n      pop\n      pop\n      jump\t// out\n        /* \"#utility.yul\":7109:7319   */\n    tag_35:\n        /* \"#utility.yul\":7196:7200   */\n      0x00\n        /* \"#utility.yul\":7234:7236   */\n      0x20\n        /* \"#utility.yul\":7223:7232   */\n      dup3\n        /* \"#utility.yul\":7219:7237   */\n      add\n        /* \"#utility.yul\":7211:7237   */\n      swap1\n      pop\n        /* \"#utility.yul\":7247:7312   */\n      tag_260\n        /* \"#utility.yul\":7309:7310   */\n      0x00\n        /* \"#utility.yul\":7298:7307   */\n      dup4\n        /* \"#utility.yul\":7294:7311   */\n      add\n        /* \"#utility.yul\":7285:7291   */\n      dup5\n        /* \"#utility.yul\":7247:7312   */\n      tag_155\n      jump\t// in\n    tag_260:\n        /* \"#utility.yul\":7109:7319   */\n      swap3\n      swap2\n      pop\n      pop\n      jump\t// out\n        /* \"#utility.yul\":7325:7638   */\n    tag_40:\n        /* \"#utility.yul\":7438:7442   */\n      0x00\n        /* \"#utility.yul\":7476:7478   */\n      0x20\n        /* \"#utility.yul\":7465:7474   */\n      dup3\n        /* \"#utility.yul\":7461:7479   */\n      add\n        /* \"#utility.yul\":7453:7479   */\n      swap1\n      pop\n        /* \"#utility.yul\":7525:7534   */\n      dup2\n        /* \"#utility.yul\":7519:7523   */\n      dup2\n        /* \"#utility.yul\":7515:7535   */\n      sub\n        /* \"#utility.yul\":7511:7512   */\n      0x00\n        /* \"#utility.yul\":7500:7509   */\n      dup4\n        /* \"#utility.yul\":7496:7513   */\n      add\n        /* \"#utility.yul\":7489:7536   */\n      mstore\n        /* \"#utility.yul\":7553:7631   */\n      tag_262\n        /* \"#utility.yul\":7626:7630   */\n      dup2\n        /* \"#utility.yul\":7617:7623   */\n      dup5\n        /* \"#utility.yul\":7553:7631   */\n      tag_153\n      jump\t// in\n    tag_262:\n        /* \"#utility.yul\":7545:7631   */\n      swap1\n      pop\n        /* \"#utility.yul\":7325:7638   */\n      swap3\n      swap2\n      pop\n      pop\n      jump\t// out\n        /* \"#utility.yul\":7644:8067   */\n    tag_55:\n        /* \"#utility.yul\":7785:7789   */\n      0x00\n        /* \"#utility.yul\":7823:7825   */\n      0x40\n        /* \"#utility.yul\":7812:7821   */\n      dup3\n        /* \"#utility.yul\":7808:7826   */\n      add\n        /* \"#utility.yul\":7800:7826   */\n      swap1\n      pop\n        /* \"#utility.yul\":7836:7907   */\n      tag_264\n        /* \"#utility.yul\":7904:7905   */\n      0x00\n        /* \"#utility.yul\":7893:7902   */\n      dup4\n        /* \"#utility.yul\":7889:7906   */\n      add\n        /* \"#utility.yul\":7880:7886   */\n      dup6\n        /* \"#utility.yul\":7836:7907   */\n      tag_145\n      jump\t// in\n    tag_264:\n        /* \"#utility.yul\":7954:7963   */\n      dup2\n        /* \"#utility.yul\":7948:7952   */\n      dup2\n        /* \"#utility.yul\":7944:7964   */\n      sub\n        /* \"#utility.yul\":7939:7941   */\n      0x20\n        /* \"#utility.yul\":7928:7937   */\n      dup4\n        /* \"#utility.yul\":7924:7942   */\n      add\n        /* \"#utility.yul\":7917:7965   */\n      mstore\n        /* \"#utility.yul\":7982:8060   */\n      tag_265\n        /* \"#utility.yul\":8055:8059   */\n      dup2\n        /* \"#utility.yul\":8046:8052   */\n      dup5\n        /* \"#utility.yul\":7982:8060   */\n      tag_153\n      jump\t// in\n    tag_265:\n        /* \"#utility.yul\":7974:8060   */\n      swap1\n      pop\n        /* \"#utility.yul\":7644:8067   */\n      swap4\n      swap3\n      pop\n      pop\n      pop\n      jump\t// out\n        /* \"#utility.yul\":8073:8384   */\n    tag_156:\n        /* \"#utility.yul\":8150:8154   */\n      0x00\n        /* \"#utility.yul\":8240:8258   */\n      0xffffffffffffffff\n        /* \"#utility.yul\":8232:8238   */\n      dup3\n        /* \"#utility.yul\":8229:8259   */\n      gt\n        /* \"#utility.yul\":8226:8282   */\n      iszero\n      tag_267\n      jumpi\n        /* \"#utility.yul\":8262:8280   */\n      tag_268\n      tag_138\n      jump\t// in\n    tag_268:\n        /* \"#utility.yul\":8226:8282   */\n    tag_267:\n        /* \"#utility.yul\":8312:8316   */\n      0x20\n        /* \"#utility.yul\":8304:8310   */\n      dup3\n        /* \"#utility.yul\":8300:8317   */\n      mul\n        /* \"#utility.yul\":8292:8317   */\n      swap1\n      pop\n        /* \"#utility.yul\":8372:8376   */\n      0x20\n        /* \"#utility.yul\":8366:8370   */\n      dup2\n        /* \"#utility.yul\":8362:8377   */\n      add\n        /* \"#utility.yul\":8354:8377   */\n      swap1\n      pop\n        /* \"#utility.yul\":8073:8384   */\n      swap2\n      swap1\n      pop\n      jump\t// out\n        /* \"#utility.yul\":8390:8507   */\n    tag_157:\n        /* \"#utility.yul\":8499:8500   */\n      0x00\n        /* \"#utility.yul\":8496:8497   */\n      0x00\n        /* \"#utility.yul\":8489:8501   */\n      revert\n        /* \"#utility.yul\":8530:9240   */\n    tag_158:\n        /* \"#utility.yul\":8626:8631   */\n      0x00\n        /* \"#utility.yul\":8651:8732   */\n      tag_271\n        /* \"#utility.yul\":8667:8731   */\n      tag_272\n        /* \"#utility.yul\":8724:8730   */\n      dup5\n        /* \"#utility.yul\":8667:8731   */\n      tag_156\n      jump\t// in\n    tag_272:\n        /* \"#utility.yul\":8651:8732   */\n      tag_140\n      jump\t// in\n    tag_271:\n        /* \"#utility.yul\":8642:8732   */\n      swap1\n      pop\n        /* \"#utility.yul\":8752:8757   */\n      dup1\n        /* \"#utility.yul\":8781:8787   */\n      dup4\n        /* \"#utility.yul\":8774:8779   */\n      dup3\n        /* \"#utility.yul\":8767:8788   */\n      mstore\n        /* \"#utility.yul\":8815:8819   */\n      0x20\n        /* \"#utility.yul\":8808:8813   */\n      dup3\n        /* \"#utility.yul\":8804:8820   */\n      add\n        /* \"#utility.yul\":8797:8820   */\n      swap1\n      pop\n        /* \"#utility.yul\":8868:8872   */\n      0x20\n        /* \"#utility.yul\":8860:8866   */\n      dup5\n        /* \"#utility.yul\":8856:8873   */\n      mul\n        /* \"#utility.yul\":8848:8854   */\n      dup4\n        /* \"#utility.yul\":8844:8874   */\n      add\n        /* \"#utility.yul\":8897:8900   */\n      dup6\n        /* \"#utility.yul\":8889:8895   */\n      dup2\n        /* \"#utility.yul\":8886:8901   */\n      gt\n        /* \"#utility.yul\":8883:9005   */\n      iszero\n      tag_273\n      jumpi\n        /* \"#utility.yul\":8916:8995   */\n      tag_274\n      tag_157\n      jump\t// in\n    tag_274:\n        /* \"#utility.yul\":8883:9005   */\n    tag_273:\n        /* \"#utility.yul\":9031:9037   */\n      dup4\n        /* \"#utility.yul\":9014:9234   */\n    tag_275:\n        /* \"#utility.yul\":9048:9054   */\n      dup2\n        /* \"#utility.yul\":9043:9046   */\n      dup2\n        /* \"#utility.yul\":9040:9055   */\n      lt\n        /* \"#utility.yul\":9014:9234   */\n      iszero\n      tag_277\n      jumpi\n        /* \"#utility.yul\":9123:9126   */\n      dup1\n        /* \"#utility.yul\":9152:9189   */\n      tag_278\n        /* \"#utility.yul\":9185:9188   */\n      dup9\n        /* \"#utility.yul\":9173:9183   */\n      dup3\n        /* \"#utility.yul\":9152:9189   */\n      tag_134\n      jump\t// in\n    tag_278:\n        /* \"#utility.yul\":9147:9150   */\n      dup5\n        /* \"#utility.yul\":9140:9190   */\n      mstore\n        /* \"#utility.yul\":9219:9223   */\n      0x20\n        /* \"#utility.yul\":9214:9217   */\n      dup5\n        /* \"#utility.yul\":9210:9224   */\n      add\n        /* \"#utility.yul\":9203:9224   */\n      swap4\n      pop\n        /* \"#utility.yul\":9090:9234   */\n      pop\n        /* \"#utility.yul\":9074:9078   */\n      0x20\n        /* \"#utility.yul\":9069:9072   */\n      dup2\n        /* \"#utility.yul\":9065:9079   */\n      add\n        /* \"#utility.yul\":9058:9079   */\n      swap1\n      pop\n        /* \"#utility.yul\":9014:9234   */\n      jump(tag_275)\n    tag_277:\n        /* \"#utility.yul\":9018:9039   */\n      pop\n        /* \"#utility.yul\":8632:9240   */\n      pop\n      pop\n        /* \"#utility.yul\":8530:9240   */\n      swap4\n      swap3\n      pop\n      pop\n      pop\n      jump\t// out\n        /* \"#utility.yul\":9263:9633   */\n    tag_159:\n        /* \"#utility.yul\":9334:9339   */\n      0x00\n        /* \"#utility.yul\":9383:9386   */\n      dup3\n        /* \"#utility.yul\":9376:9380   */\n      0x1f\n        /* \"#utility.yul\":9368:9374   */\n      dup4\n        /* \"#utility.yul\":9364:9381   */\n      add\n        /* \"#utility.yul\":9360:9387   */\n      slt\n        /* \"#utility.yul\":9350:9472   */\n      tag_280\n      jumpi\n        /* \"#utility.yul\":9391:9470   */\n      tag_281\n      tag_135\n      jump\t// in\n    tag_281:\n        /* \"#utility.yul\":9350:9472   */\n    tag_280:\n        /* \"#utility.yul\":9508:9514   */\n      dup2\n        /* \"#utility.yul\":9495:9515   */\n      calldataload\n        /* \"#utility.yul\":9533:9627   */\n      tag_282\n        /* \"#utility.yul\":9623:9626   */\n      dup5\n        /* \"#utility.yul\":9615:9621   */\n      dup3\n        /* \"#utility.yul\":9608:9612   */\n      0x20\n        /* \"#utility.yul\":9600:9606   */\n      dup7\n        /* \"#utility.yul\":9596:9613   */\n      add\n        /* \"#utility.yul\":9533:9627   */\n      tag_158\n      jump\t// in\n    tag_282:\n        /* \"#utility.yul\":9524:9627   */\n      swap2\n      pop\n        /* \"#utility.yul\":9340:9633   */\n      pop\n        /* \"#utility.yul\":9263:9633   */\n      swap3\n      swap2\n      pop\n      pop\n      jump\t// out\n        /* \"#utility.yul\":9639:10178   */\n    tag_61:\n        /* \"#utility.yul\":9723:9729   */\n      0x00\n        /* \"#utility.yul\":9772:9774   */\n      0x20\n        /* \"#utility.yul\":9760:9769   */\n      dup3\n        /* \"#utility.yul\":9751:9758   */\n      dup5\n        /* \"#utility.yul\":9747:9770   */\n      sub\n        /* \"#utility.yul\":9743:9775   */\n      slt\n        /* \"#utility.yul\":9740:9859   */\n      iszero\n      tag_284\n      jumpi\n        /* \"#utility.yul\":9778:9857   */\n      tag_285\n      tag_130\n      jump\t// in\n    tag_285:\n        /* \"#utility.yul\":9740:9859   */\n    tag_284:\n        /* \"#utility.yul\":9926:9927   */\n      0x00\n        /* \"#utility.yul\":9915:9924   */\n      dup3\n        /* \"#utility.yul\":9911:9928   */\n      add\n        /* \"#utility.yul\":9898:9929   */\n      calldataload\n        /* \"#utility.yul\":9956:9974   */\n      0xffffffffffffffff\n        /* \"#utility.yul\":9948:9954   */\n      dup2\n        /* \"#utility.yul\":9945:9975   */\n      gt\n        /* \"#utility.yul\":9942:10059   */\n      iszero\n      tag_286\n      jumpi\n        /* \"#utility.yul\":9978:10057   */\n      tag_287\n      tag_131\n      jump\t// in\n    tag_287:\n        /* \"#utility.yul\":9942:10059   */\n    tag_286:\n        /* \"#utility.yul\":10083:10161   */\n      tag_288\n        /* \"#utility.yul\":10153:10160   */\n      dup5\n        /* \"#utility.yul\":10144:10150   */\n      dup3\n        /* \"#utility.yul\":10133:10142   */\n      dup6\n        /* \"#utility.yul\":10129:10151   */\n      add\n        /* \"#utility.yul\":10083:10161   */\n      tag_159\n      jump\t// in\n    tag_288:\n        /* \"#utility.yul\":10073:10161   */\n      swap2\n      pop\n        /* \"#utility.yul\":9869:10171   */\n      pop\n        /* \"#utility.yul\":9639:10178   */\n      swap3\n      swap2\n      pop\n      pop\n      jump\t// out\n        /* \"#utility.yul\":10184:10364   */\n    tag_160:\n        /* \"#utility.yul\":10232:10309   */\n      0x4e487b7100000000000000000000000000000000000000000000000000000000\n        /* \"#utility.yul\":10229:10230   */\n      0x00\n        /* \"#utility.yul\":10222:10310   */\n      mstore\n        /* \"#utility.yul\":10329:10333   */\n      0x22\n        /* \"#utility.yul\":10326:10327   */\n      0x04\n        /* \"#utility.yul\":10319:10334   */\n      mstore\n        /* \"#utility.yul\":10353:10357   */\n      0x24\n        /* \"#utility.yul\":10350:10351   */\n      0x00\n        /* \"#utility.yul\":10343:10358   */\n      revert\n        /* \"#utility.yul\":10370:10690   */\n    tag_74:\n        /* \"#utility.yul\":10414:10420   */\n      0x00\n        /* \"#utility.yul\":10451:10452   */\n      0x02\n        /* \"#utility.yul\":10445:10449   */\n      dup3\n        /* \"#utility.yul\":10441:10453   */\n      div\n        /* \"#utility.yul\":10431:10453   */\n      swap1\n      pop\n        /* \"#utility.yul\":10498:10499   */\n      0x01\n        /* \"#utility.yul\":10492:10496   */\n      dup3\n        /* \"#utility.yul\":10488:10500   */\n      and\n        /* \"#utility.yul\":10519:10537   */\n      dup1\n        /* \"#utility.yul\":10509:10590   */\n      tag_291\n      jumpi\n        /* \"#utility.yul\":10575:10579   */\n      0x7f\n        /* \"#utility.yul\":10567:10573   */\n      dup3\n        /* \"#utility.yul\":10563:10580   */\n      and\n        /* \"#utility.yul\":10553:10580   */\n      swap2\n      pop\n        /* \"#utility.yul\":10509:10590   */\n    tag_291:\n        /* \"#utility.yul\":10637:10639   */\n      0x20\n        /* \"#utility.yul\":10629:10635   */\n      dup3\n        /* \"#utility.yul\":10626:10640   */\n      lt\n        /* \"#utility.yul\":10606:10624   */\n      dup2\n        /* \"#utility.yul\":10603:10641   */\n      sub\n        /* \"#utility.yul\":10600:10684   */\n      tag_292\n      jumpi\n        /* \"#utility.yul\":10656:10674   */\n      tag_293\n      tag_160\n      jump\t// in\n    tag_293:\n        /* \"#utility.yul\":10600:10684   */\n    tag_292:\n        /* \"#utility.yul\":10421:10690   */\n      pop\n        /* \"#utility.yul\":10370:10690   */\n      swap2\n      swap1\n      pop\n      jump\t// out\n        /* \"#utility.yul\":10696:10837   */\n    tag_161:\n        /* \"#utility.yul\":10745:10749   */\n      0x00\n        /* \"#utility.yul\":10768:10771   */\n      dup2\n        /* \"#utility.yul\":10760:10771   */\n      swap1\n      pop\n        /* \"#utility.yul\":10791:10794   */\n      dup2\n        /* \"#utility.yul\":10788:10789   */\n      0x00\n        /* \"#utility.yul\":10781:10795   */\n      mstore\n        /* \"#utility.yul\":10825:10829   */\n      0x20\n        /* \"#utility.yul\":10822:10823   */\n      0x00\n        /* \"#utility.yul\":10812:10830   */\n      keccak256\n        /* \"#utility.yul\":10804:10830   */\n      swap1\n      pop\n        /* \"#utility.yul\":10696:10837   */\n      swap2\n      swap1\n      pop\n      jump\t// out\n        /* \"#utility.yul\":10843:10936   */\n    tag_162:\n        /* \"#utility.yul\":10880:10886   */\n      0x00\n        /* \"#utility.yul\":10927:10929   */\n      0x20\n        /* \"#utility.yul\":10922:10924   */\n      0x1f\n        /* \"#utility.yul\":10915:10920   */\n      dup4\n        /* \"#utility.yul\":10911:10925   */\n      add\n        /* \"#utility.yul\":10907:10930   */\n      div\n        /* \"#utility.yul\":10897:10930   */\n      swap1\n      pop\n        /* \"#utility.yul\":10843:10936   */\n      swap2\n      swap1\n      pop\n      jump\t// out\n        /* \"#utility.yul\":10942:11049   */\n    tag_163:\n        /* \"#utility.yul\":10986:10994   */\n      0x00\n        /* \"#utility.yul\":11036:11041   */\n      dup3\n        /* \"#utility.yul\":11030:11034   */\n      dup3\n        /* \"#utility.yul\":11026:11042   */\n      shl\n        /* \"#utility.yul\":11005:11042   */\n      swap1\n      pop\n        /* \"#utility.yul\":10942:11049   */\n      swap3\n      swap2\n      pop\n      pop\n      jump\t// out\n        /* \"#utility.yul\":11055:11448   */\n    tag_164:\n        /* \"#utility.yul\":11124:11130   */\n      0x00\n        /* \"#utility.yul\":11174:11175   */\n      0x08\n        /* \"#utility.yul\":11162:11172   */\n      dup4\n        /* \"#utility.yul\":11158:11176   */\n      mul\n        /* \"#utility.yul\":11197:11294   */\n      tag_298\n        /* \"#utility.yul\":11227:11293   */\n      0xffffffffffffffffffffffffffffffffffffffffffffffffffffffffffffffff\n        /* \"#utility.yul\":11216:11225   */\n      dup3\n        /* \"#utility.yul\":11197:11294   */\n      tag_163\n      jump\t// in\n    tag_298:\n        /* \"#utility.yul\":11315:11354   */\n      tag_299\n        /* \"#utility.yul\":11345:11353   */\n      dup7\n        /* \"#utility.yul\":11334:11343   */\n      dup4\n        /* \"#utility.yul\":11315:11354   */\n      tag_163\n      jump\t// in\n    tag_299:\n        /* \"#utility.yul\":11303:11354   */\n      swap6\n      pop\n        /* \"#utility.yul\":11387:11391   */\n      dup1\n        /* \"#utility.yul\":11383:11392   */\n      not\n        /* \"#utility.yul\":11376:11381   */\n      dup5\n        /* \"#utility.yul\":11372:11393   */\n      and\n        /* \"#utility.yul\":11363:11393   */\n      swap4\n      pop\n        /* \"#utility.yul\":11436:11440   */\n      dup1\n        /* \"#utility.yul\":11426:11434   */\n      dup7\n        /* \"#utility.yul\":11422:11441   */\n      and\n        /* \"#utility.yul\":11415:11420   */\n      dup5\n        /* \"#utility.yul\":11412:11442   */\n      or\n        /* \"#utility.yul\":11402:11442   */\n      swap3\n      pop\n        /* \"#utility.yul\":11131:11448   */\n      pop\n      pop\n        /* \"#utility.yul\":11055:11448   */\n      swap4\n      swap3\n      pop\n      pop\n      pop\n      jump\t// out\n        /* \"#utility.yul\":11454:11514   */\n    tag_165:\n        /* \"#utility.yul\":11482:11485   */\n      0x00\n        /* \"#utility.yul\":11503:11508   */\n      dup2\n        /* \"#utility.yul\":11496:11508   */\n      swap1\n      pop\n        /* \"#utility.yul\":11454:11514   */\n      swap2\n      swap1\n      pop\n      jump\t// out\n        /* \"#utility.yul\":11520:11662   */\n    tag_166:\n        /* \"#utility.yul\":11570:11579   */\n      0x00\n        /* \"#utility.yul\":11603:11656   */\n      tag_302\n        /* \"#utility.yul\":11621:11655   */\n      tag_303\n        /* \"#utility.yul\":11630:11654   */\n      tag_304\n        /* \"#utility.yul\":11648:11653   */\n      dup5\n        /* \"#utility.yul\":11630:11654   */\n      tag_132\n      jump\t// in\n    tag_304:\n        /* \"#utility.yul\":11621:11655   */\n      tag_165\n      jump\t// in\n    tag_303:\n        /* \"#utility.yul\":11603:11656   */\n      tag_132\n      jump\t// in\n    tag_302:\n        /* \"#utility.yul\":11590:11656   */\n      swap1\n      pop\n        /* \"#utility.yul\":11520:11662   */\n      swap2\n      swap1\n      pop\n      jump\t// out\n        /* \"#utility.yul\":11668:11743   */\n    tag_167:\n        /* \"#utility.yul\":11711:11714   */\n      0x00\n        /* \"#utility.yul\":11732:11737   */\n      dup2\n        /* \"#utility.yul\":11725:11737   */\n      swap1\n      pop\n        /* \"#utility.yul\":11668:11743   */\n      swap2\n      swap1\n      pop\n      jump\t// out\n        /* \"#utility.yul\":11749:12018   */\n    tag_168:\n        /* \"#utility.yul\":11859:11898   */\n      tag_307\n        /* \"#utility.yul\":11890:11897   */\n      dup4\n        /* \"#utility.yul\":11859:11898   */\n      tag_166\n      jump\t// in\n    tag_307:\n        /* \"#utility.yul\":11920:12011   */\n      tag_308\n        /* \"#utility.yul\":11969:12010   */\n      tag_309\n        /* \"#utility.yul\":11993:12009   */\n      dup3\n        /* \"#utility.yul\":11969:12010   */\n      tag_167\n      jump\t// in\n    tag_309:\n        /* \"#utility.yul\":11961:11967   */\n      dup5\n        /* \"#utility.yul\":11954:11958   */\n      dup5\n        /* \"#utility.yul\":11948:11959   */\n      sload\n        /* \"#utility.yul\":11920:12011   */\n      tag_164\n      jump\t// in\n    tag_308:\n        /* \"#utility.yul\":11914:11918   */\n      dup3\n        /* \"#utility.yul\":11907:12012   */\n      sstore\n        /* \"#utility.yul\":11825:12018   */\n      pop\n        /* \"#utility.yul\":11749:12018   */\n      pop\n      pop\n      pop\n      jump\t// out\n        /* \"#utility.yul\":12024:12097   */\n    tag_169:\n        /* \"#utility.yul\":12069:12072   */\n      0x00\n        /* \"#utility.yul\":12090:12091   */\n      0x00\n        /* \"#utility.yul\":12083:12091   */\n      swap1\n      pop\n        /* \"#utility.yul\":12024:12097   */\n      swap1\n      jump\t// out\n        /* \"#utility.yul\":12103:12292   */\n    tag_170:\n        /* \"#utility.yul\":12180:12212   */\n      tag_312\n      tag_169\n      jump\t// in\n    tag_312:\n        /* \"#utility.yul\":12221:12286   */\n      tag_313\n        /* \"#utility.yul\":12279:12285   */\n      dup2\n        /* \"#utility.yul\":12271:12277   */\n      dup5\n        /* \"#utility.yul\":12265:12269   */\n      dup5\n        /* \"#utility.yul\":12221:12286   */\n      tag_168\n      jump\t// in\n    tag_313:\n        /* \"#utility.yul\":12156:12292   */\n      pop\n        /* \"#utility.yul\":12103:12292   */\n      pop\n      pop\n      jump\t// out\n        /* \"#utility.yul\":12298:12484   */\n    tag_171:\n        /* \"#utility.yul\":12358:12478   */\n    tag_315:\n        /* \"#utility.yul\":12375:12378   */\n      dup2\n        /* \"#utility.yul\":12368:12373   */\n      dup2\n        /* \"#utility.yul\":12365:12379   */\n      lt\n        /* \"#utility.yul\":12358:12478   */\n      iszero\n      tag_317\n      jumpi\n        /* \"#utility.yul\":12429:12468   */\n      tag_318\n        /* \"#utility.yul\":12466:12467   */\n      0x00\n        /* \"#utility.yul\":12459:12464   */\n      dup3\n        /* \"#utility.yul\":12429:12468   */\n      tag_170\n      jump\t// in\n    tag_318:\n        /* \"#utility.yul\":12402:12403   */\n      0x01\n        /* \"#utility.yul\":12395:12400   */\n      dup2\n        /* \"#utility.yul\":12391:12404   */\n      add\n        /* \"#utility.yul\":12382:12404   */\n      swap1\n      pop\n        /* \"#utility.yul\":12358:12478   */\n      jump(tag_315)\n    tag_317:\n        /* \"#utility.yul\":12298:12484   */\n      pop\n      pop\n      jump\t// out\n        /* \"#utility.yul\":12490:13033   */\n    tag_172:\n        /* \"#utility.yul\":12591:12593   */\n      0x1f\n        /* \"#utility.yul\":12586:12589   */\n      dup3\n        /* \"#utility.yul\":12583:12594   */\n      gt\n        /* \"#utility.yul\":12580:13026   */\n      iszero\n      tag_320\n      jumpi\n        /* \"#utility.yul\":12625:12663   */\n      tag_321\n        /* \"#utility.yul\":12657:12662   */\n      dup2\n        /* \"#utility.yul\":12625:12663   */\n      tag_161\n      jump\t// in\n    tag_321:\n        /* \"#utility.yul\":12709:12738   */\n      tag_322\n        /* \"#utility.yul\":12727:12737   */\n      dup5\n        /* \"#utility.yul\":12709:12738   */\n      tag_162\n      jump\t// in\n    tag_322:\n        /* \"#utility.yul\":12699:12707   */\n      dup2\n        /* \"#utility.yul\":12695:12739   */\n      add\n        /* \"#utility.yul\":12892:12894   */\n      0x20\n        /* \"#utility.yul\":12880:12890   */\n      dup6\n        /* \"#utility.yul\":12877:12895   */\n      lt\n        /* \"#utility.yul\":12874:12923   */\n      iszero\n      tag_323\n      jumpi\n        /* \"#utility.yul\":12913:12921   */\n      dup2\n        /* \"#utility.yul\":12898:12921   */\n      swap1\n      pop\n        /* \"#utility.yul\":12874:12923   */\n    tag_323:\n        /* \"#utility.yul\":12936:13016   */\n      tag_324\n        /* \"#utility.yul\":12992:13014   */\n      tag_325\n        /* \"#utility.yul\":13010:13013   */\n      dup6\n        /* \"#utility.yul\":12992:13014   */\n      tag_162\n      jump\t// in\n    tag_325:\n        /* \"#utility.yul\":12982:12990   */\n      dup4\n        /* \"#utility.yul\":12978:13015   */\n      add\n        /* \"#utility.yul\":12965:12976   */\n      dup3\n        /* \"#utility.yul\":12936:13016   */\n      tag_171\n      jump\t// in\n    tag_324:\n        /* \"#utility.yul\":12595:13026   */\n      pop\n      pop\n        /* \"#utility.yul\":12580:13026   */\n    tag_320:\n        /* \"#utility.yul\":12490:13033   */\n      pop\n      pop\n      pop\n      jump\t// out\n        /* \"#utility.yul\":13039:13156   */\n    tag_173:\n        /* \"#utility.yul\":13093:13101   */\n      0x00\n        /* \"#utility.yul\":13143:13148   */\n      dup3\n        /* \"#utility.yul\":13137:13141   */\n      dup3\n        /* \"#utility.yul\":13133:13149   */\n      shr\n        /* \"#utility.yul\":13112:13149   */\n      swap1\n      pop\n        /* \"#utility.yul\":13039:13156   */\n      swap3\n      swap2\n      pop\n      pop\n      jump\t// out\n        /* \"#utility.yul\":13162:13331   */\n    tag_174:\n        /* \"#utility.yul\":13206:13212   */\n      0x00\n        /* \"#utility.yul\":13239:13290   */\n      tag_328\n        /* \"#utility.yul\":13287:13288   */\n      0x00\n        /* \"#utility.yul\":13283:13289   */\n      not\n        /* \"#utility.yul\":13275:13280   */\n      dup5\n        /* \"#utility.yul\":13272:13273   */\n      0x08\n        /* \"#utility.yul\":13268:13281   */\n      mul\n        /* \"#utility.yul\":13239:13290   */\n      tag_173\n      jump\t// in\n    tag_328:\n        /* \"#utility.yul\":13235:13291   */\n      not\n        /* \"#utility.yul\":13320:13324   */\n      dup1\n        /* \"#utility.yul\":13314:13318   */\n      dup4\n        /* \"#utility.yul\":13310:13325   */\n      and\n        /* \"#utility.yul\":13300:13325   */\n      swap2\n      pop\n        /* \"#utility.yul\":13213:13331   */\n      pop\n        /* \"#utility.yul\":13162:13331   */\n      swap3\n      swap2\n      pop\n      pop\n      jump\t// out\n        /* \"#utility.yul\":13336:13631   */\n    tag_175:\n        /* \"#utility.yul\":13412:13416   */\n      0x00\n        /* \"#utility.yul\":13558:13587   */\n      tag_330\n        /* \"#utility.yul\":13583:13586   */\n      dup4\n        /* \"#utility.yul\":13577:13581   */\n      dup4\n        /* \"#utility.yul\":13558:13587   */\n      tag_174\n      jump\t// in\n    tag_330:\n        /* \"#utility.yul\":13550:13587   */\n      swap2\n      pop\n        /* \"#utility.yul\":13620:13623   */\n      dup3\n        /* \"#utility.yul\":13617:13618   */\n      0x02\n        /* \"#utility.yul\":13613:13624   */\n      mul\n        /* \"#utility.yul\":13607:13611   */\n      dup3\n        /* \"#utility.yul\":13604:13625   */\n      or\n        /* \"#utility.yul\":13596:13625   */\n      swap1\n      pop\n        /* \"#utility.yul\":13336:13631   */\n      swap3\n      swap2\n      pop\n      pop\n      jump\t// out\n        /* \"#utility.yul\":13636:15031   */\n    tag_70:\n        /* \"#utility.yul\":13753:13790   */\n      tag_332\n        /* \"#utility.yul\":13786:13789   */\n      dup3\n        /* \"#utility.yul\":13753:13790   */\n      tag_150\n      jump\t// in\n    tag_332:\n        /* \"#utility.yul\":13855:13873   */\n      0xffffffffffffffff\n        /* \"#utility.yul\":13847:13853   */\n      dup2\n        /* \"#utility.yul\":13844:13874   */\n      gt\n        /* \"#utility.yul\":13841:13897   */\n      iszero\n      tag_333\n      jumpi\n        /* \"#utility.yul\":13877:13895   */\n      tag_334\n      tag_138\n      jump\t// in\n    tag_334:\n        /* \"#utility.yul\":13841:13897   */\n    tag_333:\n        /* \"#utility.yul\":13921:13959   */\n      tag_335\n        /* \"#utility.yul\":13953:13957   */\n      dup3\n        /* \"#utility.yul\":13947:13958   */\n      sload\n        /* \"#utility.yul\":13921:13959   */\n      tag_74\n      jump\t// in\n    tag_335:\n        /* \"#utility.yul\":14006:14073   */\n      tag_336\n        /* \"#utility.yul\":14066:14072   */\n      dup3\n        /* \"#utility.yul\":14058:14064   */\n      dup3\n        /* \"#utility.yul\":14052:14056   */\n      dup6\n        /* \"#utility.yul\":14006:14073   */\n      tag_172\n      jump\t// in\n    tag_336:\n        /* \"#utility.yul\":14100:14101   */\n      0x00\n        /* \"#utility.yul\":14124:14128   */\n      0x20\n        /* \"#utility.yul\":14111:14128   */\n      swap1\n      pop\n        /* \"#utility.yul\":14156:14158   */\n      0x1f\n        /* \"#utility.yul\":14148:14154   */\n      dup4\n        /* \"#utility.yul\":14145:14159   */\n      gt\n        /* \"#utility.yul\":14173:14174   */\n      0x01\n        /* \"#utility.yul\":14168:14786   */\n      dup2\n      eq\n      tag_338\n      jumpi\n        /* \"#utility.yul\":14830:14831   */\n      0x00\n        /* \"#utility.yul\":14847:14853   */\n      dup5\n        /* \"#utility.yul\":14844:14921   */\n      iszero\n      tag_339\n      jumpi\n        /* \"#utility.yul\":14896:14905   */\n      dup3\n        /* \"#utility.yul\":14891:14894   */\n      dup8\n        /* \"#utility.yul\":14887:14906   */\n      add\n        /* \"#utility.yul\":14881:14907   */\n      mload\n        /* \"#utility.yul\":14872:14907   */\n      swap1\n      pop\n        /* \"#utility.yul\":14844:14921   */\n    tag_339:\n        /* \"#utility.yul\":14947:15014   */\n      tag_340\n        /* \"#utility.yul\":15007:15013   */\n      dup6\n        /* \"#utility.yul\":15000:15005   */\n      dup3\n        /* \"#utility.yul\":14947:15014   */\n      tag_175\n      jump\t// in\n    tag_340:\n        /* \"#utility.yul\":14941:14945   */\n      dup7\n        /* \"#utility.yul\":14934:15015   */\n      sstore\n        /* \"#utility.yul\":14803:15025   */\n      pop\n        /* \"#utility.yul\":14138:15025   */\n      jump(tag_337)\n        /* \"#utility.yul\":14168:14786   */\n    tag_338:\n        /* \"#utility.yul\":14220:14224   */\n      0x1f\n        /* \"#utility.yul\":14216:14225   */\n      not\n        /* \"#utility.yul\":14208:14214   */\n      dup5\n        /* \"#utility.yul\":14204:14226   */\n      and\n        /* \"#utility.yul\":14254:14291   */\n      tag_341\n        /* \"#utility.yul\":14286:14290   */\n      dup7\n        /* \"#utility.yul\":14254:14291   */\n      tag_161\n      jump\t// in\n    tag_341:\n        /* \"#utility.yul\":14313:14314   */\n      0x00\n        /* \"#utility.yul\":14327:14535   */\n    tag_342:\n        /* \"#utility.yul\":14341:14348   */\n      dup3\n        /* \"#utility.yul\":14338:14339   */\n      dup2\n        /* \"#utility.yul\":14335:14349   */\n      lt\n        /* \"#utility.yul\":14327:14535   */\n      iszero\n      tag_344\n      jumpi\n        /* \"#utility.yul\":14420:14429   */\n      dup5\n        /* \"#utility.yul\":14415:14418   */\n      dup10\n        /* \"#utility.yul\":14411:14430   */\n      add\n        /* \"#utility.yul\":14405:14431   */\n      mload\n        /* \"#utility.yul\":14397:14403   */\n      dup3\n        /* \"#utility.yul\":14390:14432   */\n      sstore\n        /* \"#utility.yul\":14471:14472   */\n      0x01\n        /* \"#utility.yul\":14463:14469   */\n      dup3\n        /* \"#utility.yul\":14459:14473   */\n      add\n        /* \"#utility.yul\":14449:14473   */\n      swap2\n      pop\n        /* \"#utility.yul\":14518:14520   */\n      0x20\n        /* \"#utility.yul\":14507:14516   */\n      dup6\n        /* \"#utility.yul\":14503:14521   */\n      add\n        /* \"#utility.yul\":14490:14521   */\n      swap5\n      pop\n        /* \"#utility.yul\":14364:14368   */\n      0x20\n        /* \"#utility.yul\":14361:14362   */\n      dup2\n        /* \"#utility.yul\":14357:14369   */\n      add\n        /* \"#utility.yul\":14352:14369   */\n      swap1\n      pop\n        /* \"#utility.yul\":14327:14535   */\n      jump(tag_342)\n    tag_344:\n        /* \"#utility.yul\":14563:14569   */\n      dup7\n        /* \"#utility.yul\":14554:14561   */\n      dup4\n        /* \"#utility.yul\":14551:14570   */\n      lt\n        /* \"#utility.yul\":14548:14727   */\n      iszero\n      tag_345\n      jumpi\n        /* \"#utility.yul\":14621:14630   */\n      dup5\n        /* \"#utility.yul\":14616:14619   */\n      dup10\n        /* \"#utility.yul\":14612:14631   */\n      add\n        /* \"#utility.yul\":14606:14632   */\n      mload\n        /* \"#utility.yul\":14664:14712   */\n      tag_346\n        /* \"#utility.yul\":14706:14710   */\n      0x1f\n        /* \"#utility.yul\":14698:14704   */\n      dup10\n        /* \"#utility.yul\":14694:14711   */\n      and\n        /* \"#utility.yul\":14683:14692   */\n      dup3\n        /* \"#utility.yul\":14664:14712   */\n      tag_174\n      jump\t// in\n    tag_346:\n        /* \"#utility.yul\":14656:14662   */\n      dup4\n        /* \"#utility.yul\":14649:14713   */\n      sstore\n        /* \"#utility.yul\":14571:14727   */\n      pop\n        /* \"#utility.yul\":14548:14727   */\n    tag_345:\n        /* \"#utility.yul\":14773:14774   */\n      0x01\n        /* \"#utility.yul\":14769:14770   */\n      0x02\n        /* \"#utility.yul\":14761:14767   */\n      dup9\n        /* \"#utility.yul\":14757:14771   */\n      mul\n        /* \"#utility.yul\":14753:14775   */\n      add\n        /* \"#utility.yul\":14747:14751   */\n      dup9\n        /* \"#utility.yul\":14740:14776   */\n      sstore\n        /* \"#utility.yul\":14175:14786   */\n      pop\n      pop\n      pop\n        /* \"#utility.yul\":14138:15025   */\n    tag_337:\n      pop\n        /* \"#utility.yul\":13728:15031   */\n      pop\n      pop\n      pop\n        /* \"#utility.yul\":13636:15031   */\n      pop\n      pop\n      jump\t// out\n        /* \"#utility.yul\":15037:15217   */\n    tag_176:\n        /* \"#utility.yul\":15085:15162   */\n      0x4e487b7100000000000000000000000000000000000000000000000000000000\n        /* \"#utility.yul\":15082:15083   */\n      0x00\n        /* \"#utility.yul\":15075:15163   */\n      mstore\n        /* \"#utility.yul\":15182:15186   */\n      0x12\n        /* \"#utility.yul\":15179:15180   */\n      0x04\n        /* \"#utility.yul\":15172:15187   */\n      mstore\n        /* \"#utility.yul\":15206:15210   */\n      0x24\n        /* \"#utility.yul\":15203:15204   */\n      0x00\n        /* \"#utility.yul\":15196:15211   */\n      revert\n        /* \"#utility.yul\":15223:15399   */\n    tag_86:\n        /* \"#utility.yul\":15255:15256   */\n      0x00\n        /* \"#utility.yul\":15272:15292   */\n      tag_349\n        /* \"#utility.yul\":15290:15291   */\n      dup3\n        /* \"#utility.yul\":15272:15292   */\n      tag_132\n      jump\t// in\n    tag_349:\n        /* \"#utility.yul\":15267:15292   */\n      swap2\n      pop\n        /* \"#utility.yul\":15306:15326   */\n      tag_350\n        /* \"#utility.yul\":15324:15325   */\n      dup4\n        /* \"#utility.yul\":15306:15326   */\n      tag_132\n      jump\t// in\n    tag_350:\n        /* \"#utility.yul\":15301:15326   */\n      swap3\n      pop\n        /* \"#utility.yul\":15345:15346   */\n      dup3\n        /* \"#utility.yul\":15335:15370   */\n      tag_351\n      jumpi\n        /* \"#utility.yul\":15350:15368   */\n      tag_352\n      tag_176\n      jump\t// in\n    tag_352:\n        /* \"#utility.yul\":15335:15370   */\n    tag_351:\n        /* \"#utility.yul\":15391:15392   */\n      dup3\n        /* \"#utility.yul\":15388:15389   */\n      dup3\n        /* \"#utility.yul\":15384:15393   */\n      mod\n        /* \"#utility.yul\":15379:15393   */\n      swap1\n      pop\n        /* \"#utility.yul\":15223:15399   */\n      swap3\n      swap2\n      pop\n      pop\n      jump\t// out\n        /* \"#utility.yul\":15405:15585   */\n    tag_123:\n        /* \"#utility.yul\":15453:15530   */\n      0x4e487b7100000000000000000000000000000000000000000000000000000000\n        /* \"#utility.yul\":15450:15451   */\n      0x00\n        /* \"#utility.yul\":15443:15531   */\n      mstore\n        /* \"#utility.yul\":15550:15554   */\n      0x32\n        /* \"#utility.yul\":15547:15548   */\n      0x04\n        /* \"#utility.yul\":15540:15555   */\n      mstore\n        /* \"#utility.yul\":15574:15578   */\n      0x24\n        /* \"#utility.yul\":15571:15572   */\n      0x00\n        /* \"#utility.yul\":15564:15579   */\n      revert\n        /* \"#utility.yul\":15591:15771   */\n    tag_177:\n        /* \"#utility.yul\":15639:15716   */\n      0x4e487b7100000000000000000000000000000000000000000000000000000000\n        /* \"#utility.yul\":15636:15637   */\n      0x00\n        /* \"#utility.yul\":15629:15717   */\n      mstore\n        /* \"#utility.yul\":15736:15740   */\n      0x11\n        /* \"#utility.yul\":15733:15734   */\n      0x04\n        /* \"#utility.yul\":15726:15741   */\n      mstore\n        /* \"#utility.yul\":15760:15764   */\n      0x24\n        /* \"#utility.yul\":15757:15758   */\n      0x00\n        /* \"#utility.yul\":15750:15765   */\n      revert\n        /* \"#utility.yul\":15777:16010   */\n    tag_126:\n        /* \"#utility.yul\":15816:15819   */\n      0x00\n        /* \"#utility.yul\":15839:15863   */\n      tag_356\n        /* \"#utility.yul\":15857:15862   */\n      dup3\n        /* \"#utility.yul\":15839:15863   */\n      tag_132\n      jump\t// in\n    tag_356:\n        /* \"#utility.yul\":15830:15863   */\n      swap2\n      pop\n        /* \"#utility.yul\":15885:15951   */\n      0xffffffffffffffffffffffffffffffffffffffffffffffffffffffffffffffff\n        /* \"#utility.yul\":15878:15883   */\n      dup3\n        /* \"#utility.yul\":15875:15952   */\n      sub\n        /* \"#utility.yul\":15872:15975   */\n      tag_357\n      jumpi\n        /* \"#utility.yul\":15955:15973   */\n      tag_358\n      tag_177\n      jump\t// in\n    tag_358:\n        /* \"#utility.yul\":15872:15975   */\n    tag_357:\n        /* \"#utility.yul\":16002:16003   */\n      0x01\n        /* \"#utility.yul\":15995:16000   */\n      dup3\n        /* \"#utility.yul\":15991:16004   */\n      add\n        /* \"#utility.yul\":15984:16004   */\n      swap1\n      pop\n        /* \"#utility.yul\":15777:16010   */\n      swap2\n      swap1\n      pop\n      jump\t// out\n\n    auxdata: 0xa264697066735822122004a96daf6371f148f16c213117f30387f3ceff726dc191c88a9bcc043acdbd7864736f6c634300081c0033\n}\n",
				"bytecode": {
					"linkReferences": {},
					"object": "60806040526040518060400160405280600c81526020017f48656c6c6f20576f726c6421000000000000000000000000000000000000000081525060019081610048919061053a565b507f48656c6c6f20576f726c642100000000000000000000000000000000000000006002556040518060400160405280600181526020016040518060400160405280600681526020017f416469747961000000000000000000000000000000000000000000000000000081525081525060045f820151815f015560208201518160010190816100d7919061053a565b5050506040518060600160405280600160ff168152602001600260ff168152602001600360ff168152506006906003610111929190610242565b50604051806101200160405280600160ff168152602001600260ff168152602001600360ff168152602001600460ff168152602001600560ff168152602001600660ff168152602001600760ff168152602001600860ff168152602001600960ff16815250600a906009610186929190610292565b50348015610192575f5ffd5b506040518060400160405280600681526020017f416469747961000000000000000000000000000000000000000000000000000081525060075f600181526020019081526020015f2090816101e7919061053a565b506040518060400160405280600681526020017f547573686172000000000000000000000000000000000000000000000000000081525060075f600281526020019081526020015f20908161023c919061053a565b50610609565b828054828255905f5260205f20908101928215610281579160200282015b82811115610280578251829060ff16905591602001919060010190610260565b5b50905061028e91906102e2565b5090565b828054828255905f5260205f209081019282156102d1579160200282015b828111156102d0578251829060ff169055916020019190600101906102b0565b5b5090506102de91906102e2565b5090565b5b808211156102f9575f815f9055506001016102e3565b5090565b5f81519050919050565b7f4e487b71000000000000000000000000000000000000000000000000000000005f52604160045260245ffd5b7f4e487b71000000000000000000000000000000000000000000000000000000005f52602260045260245ffd5b5f600282049050600182168061037857607f821691505b60208210810361038b5761038a610334565b5b50919050565b5f819050815f5260205f209050919050565b5f6020601f8301049050919050565b5f82821b905092915050565b5f600883026103ed7fffffffffffffffffffffffffffffffffffffffffffffffffffffffffffffffff826103b2565b6103f786836103b2565b95508019841693508086168417925050509392505050565b5f819050919050565b5f819050919050565b5f61043b6104366104318461040f565b610418565b61040f565b9050919050565b5f819050919050565b61045483610421565b61046861046082610442565b8484546103be565b825550505050565b5f5f905090565b61047f610470565b61048a81848461044b565b505050565b5b818110156104ad576104a25f82610477565b600181019050610490565b5050565b601f8211156104f2576104c381610391565b6104cc846103a3565b810160208510156104db578190505b6104ef6104e7856103a3565b83018261048f565b50505b505050565b5f82821c905092915050565b5f6105125f19846008026104f7565b1980831691505092915050565b5f61052a8383610503565b9150826002028217905092915050565b610543826102fd565b67ffffffffffffffff81111561055c5761055b610307565b5b6105668254610361565b6105718282856104b1565b5f60209050601f8311600181146105a2575f8415610590578287015190505b61059a858261051f565b865550610601565b601f1984166105b086610391565b5f5b828110156105d7578489015182556001820191506020850194506020810190506105b2565b868310156105f457848901516105f0601f891682610503565b8355505b6001600288020188555050505b505050505050565b61112b806106165f395ff3fe608060405234801561000f575f5ffd5b50600436106100b2575f3560e01c8063687440461161006f578063687440461461019d57806371e5ee5f146101ce5780638bc9fe6c146101fe578063e33b87071461021d578063fcee5cbd14610239578063fd1ee54c14610269576100b2565b8063028414f2146100b657806320965255146100d257806327d3553f146100f05780632a2e1320146101215780634622ab0314610151578063493ec70714610181575b5f5ffd5b6100d060048036038101906100cb9190610997565b610299565b005b6100da6102f1565b6040516100e79190610a2e565b60405180910390f35b61010a60048036038101906101059190610aa1565b6102fe565b604051610118929190610b3f565b60405180910390f35b61013b60048036038101906101369190610b74565b610435565b6040516101489190610bb9565b60405180910390f35b61016b60048036038101906101669190610b74565b61045c565b6040516101789190610bd2565b60405180910390f35b61019b60048036038101906101969190610997565b6104f7565b005b6101b760048036038101906101b29190610b74565b61058a565b6040516101c5929190610b3f565b60405180910390f35b6101e860048036038101906101e39190610b74565b6106b6565b6040516101f59190610a2e565b60405180910390f35b6102066106d6565b604051610214929190610bf2565b60405180910390f35b61023760048036038101906102329190610b74565b61076d565b005b610253600480360381019061024e9190610ce4565b610796565b6040516102609190610a2e565b60405180910390f35b610283600480360381019061027e9190610b74565b6107f7565b6040516102909190610a2e565b60405180910390f35b60405180604001604052808381526020018281525060085f8581526020019081526020015f205f820151815f0190816102d29190610f28565b5060208201518160010190816102e89190610f28565b50905050505050565b5f5f600190508091505090565b6009602052815f5260405f20602052805f5260405f205f9150915050805f01805461032890610d58565b80601f016020809104026020016040519081016040528092919081815260200182805461035490610d58565b801561039f5780601f106103765761010080835404028352916020019161039f565b820191905f5260205f20905b81548152906001019060200180831161038257829003601f168201915b5050505050908060010180546103b490610d58565b80601f01602080910402602001604051908101604052809291908181526020018280546103e090610d58565b801561042b5780601f106104025761010080835404028352916020019161042b565b820191905f5260205f20905b81548152906001019060200180831161040e57829003601f168201915b5050505050905082565b5f60016002836104459190611024565b03610452575f9050610457565b600190505b919050565b6007602052805f5260405f205f91509050805461047890610d58565b80601f01602080910402602001604051908101604052809291908181526020018280546104a490610d58565b80156104ef5780601f106104c6576101008083540402835291602001916104ef565b820191905f5260205f20905b8154815290600101906020018083116104d257829003601f168201915b505050505081565b60405180604001604052808381526020018281525060095f3373ffffffffffffffffffffffffffffffffffffffff1673ffffffffffffffffffffffffffffffffffffffff1681526020019081526020015f205f8581526020019081526020015f205f820151815f01908161056b9190610f28565b5060208201518160010190816105819190610f28565b50905050505050565b6008602052805f5260405f205f91509050805f0180546105a990610d58565b80601f01602080910402602001604051908101604052809291908181526020018280546105d590610d58565b80156106205780601f106105f757610100808354040283529160200191610620565b820191905f5260205f20905b81548152906001019060200180831161060357829003601f168201915b50505050509080600101805461063590610d58565b80601f016020809104026020016040519081016040528092919081815260200182805461066190610d58565b80156106ac5780601f10610683576101008083540402835291602001916106ac565b820191905f5260205f20905b81548152906001019060200180831161068f57829003601f168201915b5050505050905082565b600681815481106106c5575f80fd5b905f5260205f20015f915090505481565b6004805f0154908060010180546106ec90610d58565b80601f016020809104026020016040519081016040528092919081815260200182805461071890610d58565b80156107635780601f1061073a57610100808354040283529160200191610763565b820191905f5260205f20905b81548152906001019060200180831161074657829003601f168201915b5050505050905082565b600681908060018154018082558091505060019003905f5260205f20015f909190919091505550565b5f5f5f90505f5f90505b83518110156107ed576107cc8482815181106107bf576107be611054565b5b6020026020010151610435565b156107e05781806107dc906110ae565b9250505b80806001019150506107a0565b5080915050919050565b600a8181548110610806575f80fd5b905f5260205f20015f915090505481565b5f604051905090565b5f5ffd5b5f5ffd5b5f819050919050565b61083a81610828565b8114610844575f5ffd5b50565b5f8135905061085581610831565b92915050565b5f5ffd5b5f5ffd5b5f601f19601f8301169050919050565b7f4e487b71000000000000000000000000000000000000000000000000000000005f52604160045260245ffd5b6108a982610863565b810181811067ffffffffffffffff821117156108c8576108c7610873565b5b80604052505050565b5f6108da610817565b90506108e682826108a0565b919050565b5f67ffffffffffffffff82111561090557610904610873565b5b61090e82610863565b9050602081019050919050565b828183375f83830152505050565b5f61093b610936846108eb565b6108d1565b9050828152602081018484840111156109575761095661085f565b5b61096284828561091b565b509392505050565b5f82601f83011261097e5761097d61085b565b5b813561098e848260208601610929565b91505092915050565b5f5f5f606084860312156109ae576109ad610820565b5b5f6109bb86828701610847565b935050602084013567ffffffffffffffff8111156109dc576109db610824565b5b6109e88682870161096a565b925050604084013567ffffffffffffffff811115610a0957610a08610824565b5b610a158682870161096a565b9150509250925092565b610a2881610828565b82525050565b5f602082019050610a415f830184610a1f565b92915050565b5f73ffffffffffffffffffffffffffffffffffffffff82169050919050565b5f610a7082610a47565b9050919050565b610a8081610a66565b8114610a8a575f5ffd5b50565b5f81359050610a9b81610a77565b92915050565b5f5f60408385031215610ab757610ab6610820565b5b5f610ac485828601610a8d565b9250506020610ad585828601610847565b9150509250929050565b5f81519050919050565b5f82825260208201905092915050565b8281835e5f83830152505050565b5f610b1182610adf565b610b1b8185610ae9565b9350610b2b818560208601610af9565b610b3481610863565b840191505092915050565b5f6040820190508181035f830152610b578185610b07565b90508181036020830152610b6b8184610b07565b90509392505050565b5f60208284031215610b8957610b88610820565b5b5f610b9684828501610847565b91505092915050565b5f8115159050919050565b610bb381610b9f565b82525050565b5f602082019050610bcc5f830184610baa565b92915050565b5f6020820190508181035f830152610bea8184610b07565b905092915050565b5f604082019050610c055f830185610a1f565b8181036020830152610c178184610b07565b90509392505050565b5f67ffffffffffffffff821115610c3a57610c39610873565b5b602082029050602081019050919050565b5f5ffd5b5f610c61610c5c84610c20565b6108d1565b90508083825260208201905060208402830185811115610c8457610c83610c4b565b5b835b81811015610cad5780610c998882610847565b845260208401935050602081019050610c86565b5050509392505050565b5f82601f830112610ccb57610cca61085b565b5b8135610cdb848260208601610c4f565b91505092915050565b5f60208284031215610cf957610cf8610820565b5b5f82013567ffffffffffffffff811115610d1657610d15610824565b5b610d2284828501610cb7565b91505092915050565b7f4e487b71000000000000000000000000000000000000000000000000000000005f52602260045260245ffd5b5f6002820490506001821680610d6f57607f821691505b602082108103610d8257610d81610d2b565b5b50919050565b5f819050815f5260205f209050919050565b5f6020601f8301049050919050565b5f82821b905092915050565b5f60088302610de47fffffffffffffffffffffffffffffffffffffffffffffffffffffffffffffffff82610da9565b610dee8683610da9565b95508019841693508086168417925050509392505050565b5f819050919050565b5f610e29610e24610e1f84610828565b610e06565b610828565b9050919050565b5f819050919050565b610e4283610e0f565b610e56610e4e82610e30565b848454610db5565b825550505050565b5f5f905090565b610e6d610e5e565b610e78818484610e39565b505050565b5b81811015610e9b57610e905f82610e65565b600181019050610e7e565b5050565b601f821115610ee057610eb181610d88565b610eba84610d9a565b81016020851015610ec9578190505b610edd610ed585610d9a565b830182610e7d565b50505b505050565b5f82821c905092915050565b5f610f005f1984600802610ee5565b1980831691505092915050565b5f610f188383610ef1565b9150826002028217905092915050565b610f3182610adf565b67ffffffffffffffff811115610f4a57610f49610873565b5b610f548254610d58565b610f5f828285610e9f565b5f60209050601f831160018114610f90575f8415610f7e578287015190505b610f888582610f0d565b865550610fef565b601f198416610f9e86610d88565b5f5b82811015610fc557848901518255600182019150602085019450602081019050610fa0565b86831015610fe25784890151610fde601f891682610ef1565b8355505b6001600288020188555050505b505050505050565b7f4e487b71000000000000000000000000000000000000000000000000000000005f52601260045260245ffd5b5f61102e82610828565b915061103983610828565b92508261104957611048610ff7565b5b828206905092915050565b7f4e487b71000000000000000000000000000000000000000000000000000000005f52603260045260245ffd5b7f4e487b71000000000000000000000000000000000000000000000000000000005f52601160045260245ffd5b5f6110b882610828565b91507fffffffffffffffffffffffffffffffffffffffffffffffffffffffffffffffff82036110ea576110e9611081565b5b60018201905091905056fea264697066735822122004a96daf6371f148f16c213117f30387f3ceff726dc191c88a9bcc043acdbd7864736f6c634300081c0033",
					"opcodes": "PUSH1 0x80 PUSH1 0x40 MSTORE PUSH1 0x40 MLOAD DUP1 PUSH1 0x40 ADD PUSH1 0x40 MSTORE DUP1 PUSH1 0xC DUP2 MSTORE PUSH1 0x20 ADD PUSH32 0x48656C6C6F20576F726C64210000000000000000000000000000000000000000 DUP2 MSTORE POP PUSH1 0x1 SWAP1 DUP2 PUSH2 0x48 SWAP2 SWAP1 PUSH2 0x53A JUMP JUMPDEST POP PUSH32 0x48656C6C6F20576F726C64210000000000000000000000000000000000000000 PUSH1 0x2 SSTORE PUSH1 0x40 MLOAD DUP1 PUSH1 0x40 ADD PUSH1 0x40 MSTORE DUP1 PUSH1 0x1 DUP2 MSTORE PUSH1 0x20 ADD PUSH1 0x40 MLOAD DUP1 PUSH1 0x40 ADD PUSH1 0x40 MSTORE DUP1 PUSH1 0x6 DUP2 MSTORE PUSH1 0x20 ADD PUSH32 0x4164697479610000000000000000000000000000000000000000000000000000 DUP2 MSTORE POP DUP2 MSTORE POP PUSH1 0x4 PUSH0 DUP3 ADD MLOAD DUP2 PUSH0 ADD SSTORE PUSH1 0x20 DUP3 ADD MLOAD DUP2 PUSH1 0x1 ADD SWAP1 DUP2 PUSH2 0xD7 SWAP2 SWAP1 PUSH2 0x53A JUMP JUMPDEST POP POP POP PUSH1 0x40 MLOAD DUP1 PUSH1 0x60 ADD PUSH1 0x40 MSTORE DUP1 PUSH1 0x1 PUSH1 0xFF AND DUP2 MSTORE PUSH1 0x20 ADD PUSH1 0x2 PUSH1 0xFF AND DUP2 MSTORE PUSH1 0x20 ADD PUSH1 0x3 PUSH1 0xFF AND DUP2 MSTORE POP PUSH1 0x6 SWAP1 PUSH1 0x3 PUSH2 0x111 SWAP3 SWAP2 SWAP1 PUSH2 0x242 JUMP JUMPDEST POP PUSH1 0x40 MLOAD DUP1 PUSH2 0x120 ADD PUSH1 0x40 MSTORE DUP1 PUSH1 0x1 PUSH1 0xFF AND DUP2 MSTORE PUSH1 0x20 ADD PUSH1 0x2 PUSH1 0xFF AND DUP2 MSTORE PUSH1 0x20 ADD PUSH1 0x3 PUSH1 0xFF AND DUP2 MSTORE PUSH1 0x20 ADD PUSH1 0x4 PUSH1 0xFF AND DUP2 MSTORE PUSH1 0x20 ADD PUSH1 0x5 PUSH1 0xFF AND DUP2 MSTORE PUSH1 0x20 ADD PUSH1 0x6 PUSH1 0xFF AND DUP2 MSTORE PUSH1 0x20 ADD PUSH1 0x7 PUSH1 0xFF AND DUP2 MSTORE PUSH1 0x20 ADD PUSH1 0x8 PUSH1 0xFF AND DUP2 MSTORE PUSH1 0x20 ADD PUSH1 0x9 PUSH1 0xFF AND DUP2 MSTORE POP PUSH1 0xA SWAP1 PUSH1 0x9 PUSH2 0x186 SWAP3 SWAP2 SWAP1 PUSH2 0x292 JUMP JUMPDEST POP CALLVALUE DUP1 ISZERO PUSH2 0x192 JUMPI PUSH0 PUSH0 REVERT JUMPDEST POP PUSH1 0x40 MLOAD DUP1 PUSH1 0x40 ADD PUSH1 0x40 MSTORE DUP1 PUSH1 0x6 DUP2 MSTORE PUSH1 0x20 ADD PUSH32 0x4164697479610000000000000000000000000000000000000000000000000000 DUP2 MSTORE POP PUSH1 0x7 PUSH0 PUSH1 0x1 DUP2 MSTORE PUSH1 0x20 ADD SWAP1 DUP2 MSTORE PUSH1 0x20 ADD PUSH0 KECCAK256 SWAP1 DUP2 PUSH2 0x1E7 SWAP2 SWAP1 PUSH2 0x53A JUMP JUMPDEST POP PUSH1 0x40 MLOAD DUP1 PUSH1 0x40 ADD PUSH1 0x40 MSTORE DUP1 PUSH1 0x6 DUP2 MSTORE PUSH1 0x20 ADD PUSH32 0x5475736861720000000000000000000000000000000000000000000000000000 DUP2 MSTORE POP PUSH1 0x7 PUSH0 PUSH1 0x2 DUP2 MSTORE PUSH1 0x20 ADD SWAP1 DUP2 MSTORE PUSH1 0x20 ADD PUSH0 KECCAK256 SWAP1 DUP2 PUSH2 0x23C SWAP2 SWAP1 PUSH2 0x53A JUMP JUMPDEST POP PUSH2 0x609 JUMP JUMPDEST DUP3 DUP1 SLOAD DUP3 DUP3 SSTORE SWAP1 PUSH0 MSTORE PUSH1 0x20 PUSH0 KECCAK256 SWAP1 DUP2 ADD SWAP3 DUP3 ISZERO PUSH2 0x281 JUMPI SWAP2 PUSH1 0x20 MUL DUP3 ADD JUMPDEST DUP3 DUP2 GT ISZERO PUSH2 0x280 JUMPI DUP3 MLOAD DUP3 SWAP1 PUSH1 0xFF AND SWAP1 SSTORE SWAP2 PUSH1 0x20 ADD SWAP2 SWAP1 PUSH1 0x1 ADD SWAP1 PUSH2 0x260 JUMP JUMPDEST JUMPDEST POP SWAP1 POP PUSH2 0x28E SWAP2 SWAP1 PUSH2 0x2E2 JUMP JUMPDEST POP SWAP1 JUMP JUMPDEST DUP3 DUP1 SLOAD DUP3 DUP3 SSTORE SWAP1 PUSH0 MSTORE PUSH1 0x20 PUSH0 KECCAK256 SWAP1 DUP2 ADD SWAP3 DUP3 ISZERO PUSH2 0x2D1 JUMPI SWAP2 PUSH1 0x20 MUL DUP3 ADD JUMPDEST DUP3 DUP2 GT ISZERO PUSH2 0x2D0 JUMPI DUP3 MLOAD DUP3 SWAP1 PUSH1 0xFF AND SWAP1 SSTORE SWAP2 PUSH1 0x20 ADD SWAP2 SWAP1 PUSH1 0x1 ADD SWAP1 PUSH2 0x2B0 JUMP JUMPDEST JUMPDEST POP SWAP1 POP PUSH2 0x2DE SWAP2 SWAP1 PUSH2 0x2E2 JUMP JUMPDEST POP SWAP1 JUMP JUMPDEST JUMPDEST DUP1 DUP3 GT ISZERO PUSH2 0x2F9 JUMPI PUSH0 DUP2 PUSH0 SWAP1 SSTORE POP PUSH1 0x1 ADD PUSH2 0x2E3 JUMP JUMPDEST POP SWAP1 JUMP JUMPDEST PUSH0 DUP2 MLOAD SWAP1 POP SWAP2 SWAP1 POP JUMP JUMPDEST PUSH32 0x4E487B7100000000000000000000000000000000000000000000000000000000 PUSH0 MSTORE PUSH1 0x41 PUSH1 0x4 MSTORE PUSH1 0x24 PUSH0 REVERT JUMPDEST PUSH32 0x4E487B7100000000000000000000000000000000000000000000000000000000 PUSH0 MSTORE PUSH1 0x22 PUSH1 0x4 MSTORE PUSH1 0x24 PUSH0 REVERT JUMPDEST PUSH0 PUSH1 0x2 DUP3 DIV SWAP1 POP PUSH1 0x1 DUP3 AND DUP1 PUSH2 0x378 JUMPI PUSH1 0x7F DUP3 AND SWAP2 POP JUMPDEST PUSH1 0x20 DUP3 LT DUP2 SUB PUSH2 0x38B JUMPI PUSH2 0x38A PUSH2 0x334 JUMP JUMPDEST JUMPDEST POP SWAP2 SWAP1 POP JUMP JUMPDEST PUSH0 DUP2 SWAP1 POP DUP2 PUSH0 MSTORE PUSH1 0x20 PUSH0 KECCAK256 SWAP1 POP SWAP2 SWAP1 POP JUMP JUMPDEST PUSH0 PUSH1 0x20 PUSH1 0x1F DUP4 ADD DIV SWAP1 POP SWAP2 SWAP1 POP JUMP JUMPDEST PUSH0 DUP3 DUP3 SHL SWAP1 POP SWAP3 SWAP2 POP POP JUMP JUMPDEST PUSH0 PUSH1 0x8 DUP4 MUL PUSH2 0x3ED PUSH32 0xFFFFFFFFFFFFFFFFFFFFFFFFFFFFFFFFFFFFFFFFFFFFFFFFFFFFFFFFFFFFFFFF DUP3 PUSH2 0x3B2 JUMP JUMPDEST PUSH2 0x3F7 DUP7 DUP4 PUSH2 0x3B2 JUMP JUMPDEST SWAP6 POP DUP1 NOT DUP5 AND SWAP4 POP DUP1 DUP7 AND DUP5 OR SWAP3 POP POP POP SWAP4 SWAP3 POP POP POP JUMP JUMPDEST PUSH0 DUP2 SWAP1 POP SWAP2 SWAP1 POP JUMP JUMPDEST PUSH0 DUP2 SWAP1 POP SWAP2 SWAP1 POP JUMP JUMPDEST PUSH0 PUSH2 0x43B PUSH2 0x436 PUSH2 0x431 DUP5 PUSH2 0x40F JUMP JUMPDEST PUSH2 0x418 JUMP JUMPDEST PUSH2 0x40F JUMP JUMPDEST SWAP1 POP SWAP2 SWAP1 POP JUMP JUMPDEST PUSH0 DUP2 SWAP1 POP SWAP2 SWAP1 POP JUMP JUMPDEST PUSH2 0x454 DUP4 PUSH2 0x421 JUMP JUMPDEST PUSH2 0x468 PUSH2 0x460 DUP3 PUSH2 0x442 JUMP JUMPDEST DUP5 DUP5 SLOAD PUSH2 0x3BE JUMP JUMPDEST DUP3 SSTORE POP POP POP POP JUMP JUMPDEST PUSH0 PUSH0 SWAP1 POP SWAP1 JUMP JUMPDEST PUSH2 0x47F PUSH2 0x470 JUMP JUMPDEST PUSH2 0x48A DUP2 DUP5 DUP5 PUSH2 0x44B JUMP JUMPDEST POP POP POP JUMP JUMPDEST JUMPDEST DUP2 DUP2 LT ISZERO PUSH2 0x4AD JUMPI PUSH2 0x4A2 PUSH0 DUP3 PUSH2 0x477 JUMP JUMPDEST PUSH1 0x1 DUP2 ADD SWAP1 POP PUSH2 0x490 JUMP JUMPDEST POP POP JUMP JUMPDEST PUSH1 0x1F DUP3 GT ISZERO PUSH2 0x4F2 JUMPI PUSH2 0x4C3 DUP2 PUSH2 0x391 JUMP JUMPDEST PUSH2 0x4CC DUP5 PUSH2 0x3A3 JUMP JUMPDEST DUP2 ADD PUSH1 0x20 DUP6 LT ISZERO PUSH2 0x4DB JUMPI DUP2 SWAP1 POP JUMPDEST PUSH2 0x4EF PUSH2 0x4E7 DUP6 PUSH2 0x3A3 JUMP JUMPDEST DUP4 ADD DUP3 PUSH2 0x48F JUMP JUMPDEST POP POP JUMPDEST POP POP POP JUMP JUMPDEST PUSH0 DUP3 DUP3 SHR SWAP1 POP SWAP3 SWAP2 POP POP JUMP JUMPDEST PUSH0 PUSH2 0x512 PUSH0 NOT DUP5 PUSH1 0x8 MUL PUSH2 0x4F7 JUMP JUMPDEST NOT DUP1 DUP4 AND SWAP2 POP POP SWAP3 SWAP2 POP POP JUMP JUMPDEST PUSH0 PUSH2 0x52A DUP4 DUP4 PUSH2 0x503 JUMP JUMPDEST SWAP2 POP DUP3 PUSH1 0x2 MUL DUP3 OR SWAP1 POP SWAP3 SWAP2 POP POP JUMP JUMPDEST PUSH2 0x543 DUP3 PUSH2 0x2FD JUMP JUMPDEST PUSH8 0xFFFFFFFFFFFFFFFF DUP2 GT ISZERO PUSH2 0x55C JUMPI PUSH2 0x55B PUSH2 0x307 JUMP JUMPDEST JUMPDEST PUSH2 0x566 DUP3 SLOAD PUSH2 0x361 JUMP JUMPDEST PUSH2 0x571 DUP3 DUP3 DUP6 PUSH2 0x4B1 JUMP JUMPDEST PUSH0 PUSH1 0x20 SWAP1 POP PUSH1 0x1F DUP4 GT PUSH1 0x1 DUP2 EQ PUSH2 0x5A2 JUMPI PUSH0 DUP5 ISZERO PUSH2 0x590 JUMPI DUP3 DUP8 ADD MLOAD SWAP1 POP JUMPDEST PUSH2 0x59A DUP6 DUP3 PUSH2 0x51F JUMP JUMPDEST DUP7 SSTORE POP PUSH2 0x601 JUMP JUMPDEST PUSH1 0x1F NOT DUP5 AND PUSH2 0x5B0 DUP7 PUSH2 0x391 JUMP JUMPDEST PUSH0 JUMPDEST DUP3 DUP2 LT ISZERO PUSH2 0x5D7 JUMPI DUP5 DUP10 ADD MLOAD DUP3 SSTORE PUSH1 0x1 DUP3 ADD SWAP2 POP PUSH1 0x20 DUP6 ADD SWAP5 POP PUSH1 0x20 DUP2 ADD SWAP1 POP PUSH2 0x5B2 JUMP JUMPDEST DUP7 DUP4 LT ISZERO PUSH2 0x5F4 JUMPI DUP5 DUP10 ADD MLOAD PUSH2 0x5F0 PUSH1 0x1F DUP10 AND DUP3 PUSH2 0x503 JUMP JUMPDEST DUP4 SSTORE POP JUMPDEST PUSH1 0x1 PUSH1 0x2 DUP9 MUL ADD DUP9 SSTORE POP POP POP JUMPDEST POP POP POP POP POP POP JUMP JUMPDEST PUSH2 0x112B DUP1 PUSH2 0x616 PUSH0 CODECOPY PUSH0 RETURN INVALID PUSH1 0x80 PUSH1 0x40 MSTORE CALLVALUE DUP1 ISZERO PUSH2 0xF JUMPI PUSH0 PUSH0 REVERT JUMPDEST POP PUSH1 0x4 CALLDATASIZE LT PUSH2 0xB2 JUMPI PUSH0 CALLDATALOAD PUSH1 0xE0 SHR DUP1 PUSH4 0x68744046 GT PUSH2 0x6F JUMPI DUP1 PUSH4 0x68744046 EQ PUSH2 0x19D JUMPI DUP1 PUSH4 0x71E5EE5F EQ PUSH2 0x1CE JUMPI DUP1 PUSH4 0x8BC9FE6C EQ PUSH2 0x1FE JUMPI DUP1 PUSH4 0xE33B8707 EQ PUSH2 0x21D JUMPI DUP1 PUSH4 0xFCEE5CBD EQ PUSH2 0x239 JUMPI DUP1 PUSH4 0xFD1EE54C EQ PUSH2 0x269 JUMPI PUSH2 0xB2 JUMP JUMPDEST DUP1 PUSH4 0x28414F2 EQ PUSH2 0xB6 JUMPI DUP1 PUSH4 0x20965255 EQ PUSH2 0xD2 JUMPI DUP1 PUSH4 0x27D3553F EQ PUSH2 0xF0 JUMPI DUP1 PUSH4 0x2A2E1320 EQ PUSH2 0x121 JUMPI DUP1 PUSH4 0x4622AB03 EQ PUSH2 0x151 JUMPI DUP1 PUSH4 0x493EC707 EQ PUSH2 0x181 JUMPI JUMPDEST PUSH0 PUSH0 REVERT JUMPDEST PUSH2 0xD0 PUSH1 0x4 DUP1 CALLDATASIZE SUB DUP2 ADD SWAP1 PUSH2 0xCB SWAP2 SWAP1 PUSH2 0x997 JUMP JUMPDEST PUSH2 0x299 JUMP JUMPDEST STOP JUMPDEST PUSH2 0xDA PUSH2 0x2F1 JUMP JUMPDEST PUSH1 0x40 MLOAD PUSH2 0xE7 SWAP2 SWAP1 PUSH2 0xA2E JUMP JUMPDEST PUSH1 0x40 MLOAD DUP1 SWAP2 SUB SWAP1 RETURN JUMPDEST PUSH2 0x10A PUSH1 0x4 DUP1 CALLDATASIZE SUB DUP2 ADD SWAP1 PUSH2 0x105 SWAP2 SWAP1 PUSH2 0xAA1 JUMP JUMPDEST PUSH2 0x2FE JUMP JUMPDEST PUSH1 0x40 MLOAD PUSH2 0x118 SWAP3 SWAP2 SWAP1 PUSH2 0xB3F JUMP JUMPDEST PUSH1 0x40 MLOAD DUP1 SWAP2 SUB SWAP1 RETURN JUMPDEST PUSH2 0x13B PUSH1 0x4 DUP1 CALLDATASIZE SUB DUP2 ADD SWAP1 PUSH2 0x136 SWAP2 SWAP1 PUSH2 0xB74 JUMP JUMPDEST PUSH2 0x435 JUMP JUMPDEST PUSH1 0x40 MLOAD PUSH2 0x148 SWAP2 SWAP1 PUSH2 0xBB9 JUMP JUMPDEST PUSH1 0x40 MLOAD DUP1 SWAP2 SUB SWAP1 RETURN JUMPDEST PUSH2 0x16B PUSH1 0x4 DUP1 CALLDATASIZE SUB DUP2 ADD SWAP1 PUSH2 0x166 SWAP2 SWAP1 PUSH2 0xB74 JUMP JUMPDEST PUSH2 0x45C JUMP JUMPDEST PUSH1 0x40 MLOAD PUSH2 0x178 SWAP2 SWAP1 PUSH2 0xBD2 JUMP JUMPDEST PUSH1 0x40 MLOAD DUP1 SWAP2 SUB SWAP1 RETURN JUMPDEST PUSH2 0x19B PUSH1 0x4 DUP1 CALLDATASIZE SUB DUP2 ADD SWAP1 PUSH2 0x196 SWAP2 SWAP1 PUSH2 0x997 JUMP JUMPDEST PUSH2 0x4F7 JUMP JUMPDEST STOP JUMPDEST PUSH2 0x1B7 PUSH1 0x4 DUP1 CALLDATASIZE SUB DUP2 ADD SWAP1 PUSH2 0x1B2 SWAP2 SWAP1 PUSH2 0xB74 JUMP JUMPDEST PUSH2 0x58A JUMP JUMPDEST PUSH1 0x40 MLOAD PUSH2 0x1C5 SWAP3 SWAP2 SWAP1 PUSH2 0xB3F JUMP JUMPDEST PUSH1 0x40 MLOAD DUP1 SWAP2 SUB SWAP1 RETURN JUMPDEST PUSH2 0x1E8 PUSH1 0x4 DUP1 CALLDATASIZE SUB DUP2 ADD SWAP1 PUSH2 0x1E3 SWAP2 SWAP1 PUSH2 0xB74 JUMP JUMPDEST PUSH2 0x6B6 JUMP JUMPDEST PUSH1 0x40 MLOAD PUSH2 0x1F5 SWAP2 SWAP1 PUSH2 0xA2E JUMP JUMPDEST PUSH1 0x40 MLOAD DUP1 SWAP2 SUB SWAP1 RETURN JUMPDEST PUSH2 0x206 PUSH2 0x6D6 JUMP JUMPDEST PUSH1 0x40 MLOAD PUSH2 0x214 SWAP3 SWAP2 SWAP1 PUSH2 0xBF2 JUMP JUMPDEST PUSH1 0x40 MLOAD DUP1 SWAP2 SUB SWAP1 RETURN JUMPDEST PUSH2 0x237 PUSH1 0x4 DUP1 CALLDATASIZE SUB DUP2 ADD SWAP1 PUSH2 0x232 SWAP2 SWAP1 PUSH2 0xB74 JUMP JUMPDEST PUSH2 0x76D JUMP JUMPDEST STOP JUMPDEST PUSH2 0x253 PUSH1 0x4 DUP1 CALLDATASIZE SUB DUP2 ADD SWAP1 PUSH2 0x24E SWAP2 SWAP1 PUSH2 0xCE4 JUMP JUMPDEST PUSH2 0x796 JUMP JUMPDEST PUSH1 0x40 MLOAD PUSH2 0x260 SWAP2 SWAP1 PUSH2 0xA2E JUMP JUMPDEST PUSH1 0x40 MLOAD DUP1 SWAP2 SUB SWAP1 RETURN JUMPDEST PUSH2 0x283 PUSH1 0x4 DUP1 CALLDATASIZE SUB DUP2 ADD SWAP1 PUSH2 0x27E SWAP2 SWAP1 PUSH2 0xB74 JUMP JUMPDEST PUSH2 0x7F7 JUMP JUMPDEST PUSH1 0x40 MLOAD PUSH2 0x290 SWAP2 SWAP1 PUSH2 0xA2E JUMP JUMPDEST PUSH1 0x40 MLOAD DUP1 SWAP2 SUB SWAP1 RETURN JUMPDEST PUSH1 0x40 MLOAD DUP1 PUSH1 0x40 ADD PUSH1 0x40 MSTORE DUP1 DUP4 DUP2 MSTORE PUSH1 0x20 ADD DUP3 DUP2 MSTORE POP PUSH1 0x8 PUSH0 DUP6 DUP2 MSTORE PUSH1 0x20 ADD SWAP1 DUP2 MSTORE PUSH1 0x20 ADD PUSH0 KECCAK256 PUSH0 DUP3 ADD MLOAD DUP2 PUSH0 ADD SWAP1 DUP2 PUSH2 0x2D2 SWAP2 SWAP1 PUSH2 0xF28 JUMP JUMPDEST POP PUSH1 0x20 DUP3 ADD MLOAD DUP2 PUSH1 0x1 ADD SWAP1 DUP2 PUSH2 0x2E8 SWAP2 SWAP1 PUSH2 0xF28 JUMP JUMPDEST POP SWAP1 POP POP POP POP POP JUMP JUMPDEST PUSH0 PUSH0 PUSH1 0x1 SWAP1 POP DUP1 SWAP2 POP POP SWAP1 JUMP JUMPDEST PUSH1 0x9 PUSH1 0x20 MSTORE DUP2 PUSH0 MSTORE PUSH1 0x40 PUSH0 KECCAK256 PUSH1 0x20 MSTORE DUP1 PUSH0 MSTORE PUSH1 0x40 PUSH0 KECCAK256 PUSH0 SWAP2 POP SWAP2 POP POP DUP1 PUSH0 ADD DUP1 SLOAD PUSH2 0x328 SWAP1 PUSH2 0xD58 JUMP JUMPDEST DUP1 PUSH1 0x1F ADD PUSH1 0x20 DUP1 SWAP2 DIV MUL PUSH1 0x20 ADD PUSH1 0x40 MLOAD SWAP1 DUP2 ADD PUSH1 0x40 MSTORE DUP1 SWAP3 SWAP2 SWAP1 DUP2 DUP2 MSTORE PUSH1 0x20 ADD DUP3 DUP1 SLOAD PUSH2 0x354 SWAP1 PUSH2 0xD58 JUMP JUMPDEST DUP1 ISZERO PUSH2 0x39F JUMPI DUP1 PUSH1 0x1F LT PUSH2 0x376 JUMPI PUSH2 0x100 DUP1 DUP4 SLOAD DIV MUL DUP4 MSTORE SWAP2 PUSH1 0x20 ADD SWAP2 PUSH2 0x39F JUMP JUMPDEST DUP3 ADD SWAP2 SWAP1 PUSH0 MSTORE PUSH1 0x20 PUSH0 KECCAK256 SWAP1 JUMPDEST DUP2 SLOAD DUP2 MSTORE SWAP1 PUSH1 0x1 ADD SWAP1 PUSH1 0x20 ADD DUP1 DUP4 GT PUSH2 0x382 JUMPI DUP3 SWAP1 SUB PUSH1 0x1F AND DUP3 ADD SWAP2 JUMPDEST POP POP POP POP POP SWAP1 DUP1 PUSH1 0x1 ADD DUP1 SLOAD PUSH2 0x3B4 SWAP1 PUSH2 0xD58 JUMP JUMPDEST DUP1 PUSH1 0x1F ADD PUSH1 0x20 DUP1 SWAP2 DIV MUL PUSH1 0x20 ADD PUSH1 0x40 MLOAD SWAP1 DUP2 ADD PUSH1 0x40 MSTORE DUP1 SWAP3 SWAP2 SWAP1 DUP2 DUP2 MSTORE PUSH1 0x20 ADD DUP3 DUP1 SLOAD PUSH2 0x3E0 SWAP1 PUSH2 0xD58 JUMP JUMPDEST DUP1 ISZERO PUSH2 0x42B JUMPI DUP1 PUSH1 0x1F LT PUSH2 0x402 JUMPI PUSH2 0x100 DUP1 DUP4 SLOAD DIV MUL DUP4 MSTORE SWAP2 PUSH1 0x20 ADD SWAP2 PUSH2 0x42B JUMP JUMPDEST DUP3 ADD SWAP2 SWAP1 PUSH0 MSTORE PUSH1 0x20 PUSH0 KECCAK256 SWAP1 JUMPDEST DUP2 SLOAD DUP2 MSTORE SWAP1 PUSH1 0x1 ADD SWAP1 PUSH1 0x20 ADD DUP1 DUP4 GT PUSH2 0x40E JUMPI DUP3 SWAP1 SUB PUSH1 0x1F AND DUP3 ADD SWAP2 JUMPDEST POP POP POP POP POP SWAP1 POP DUP3 JUMP JUMPDEST PUSH0 PUSH1 0x1 PUSH1 0x2 DUP4 PUSH2 0x445 SWAP2 SWAP1 PUSH2 0x1024 JUMP JUMPDEST SUB PUSH2 0x452 JUMPI PUSH0 SWAP1 POP PUSH2 0x457 JUMP JUMPDEST PUSH1 0x1 SWAP1 POP JUMPDEST SWAP2 SWAP1 POP JUMP JUMPDEST PUSH1 0x7 PUSH1 0x20 MSTORE DUP1 PUSH0 MSTORE PUSH1 0x40 PUSH0 KECCAK256 PUSH0 SWAP2 POP SWAP1 POP DUP1 SLOAD PUSH2 0x478 SWAP1 PUSH2 0xD58 JUMP JUMPDEST DUP1 PUSH1 0x1F ADD PUSH1 0x20 DUP1 SWAP2 DIV MUL PUSH1 0x20 ADD PUSH1 0x40 MLOAD SWAP1 DUP2 ADD PUSH1 0x40 MSTORE DUP1 SWAP3 SWAP2 SWAP1 DUP2 DUP2 MSTORE PUSH1 0x20 ADD DUP3 DUP1 SLOAD PUSH2 0x4A4 SWAP1 PUSH2 0xD58 JUMP JUMPDEST DUP1 ISZERO PUSH2 0x4EF JUMPI DUP1 PUSH1 0x1F LT PUSH2 0x4C6 JUMPI PUSH2 0x100 DUP1 DUP4 SLOAD DIV MUL DUP4 MSTORE SWAP2 PUSH1 0x20 ADD SWAP2 PUSH2 0x4EF JUMP JUMPDEST DUP3 ADD SWAP2 SWAP1 PUSH0 MSTORE PUSH1 0x20 PUSH0 KECCAK256 SWAP1 JUMPDEST DUP2 SLOAD DUP2 MSTORE SWAP1 PUSH1 0x1 ADD SWAP1 PUSH1 0x20 ADD DUP1 DUP4 GT PUSH2 0x4D2 JUMPI DUP3 SWAP1 SUB PUSH1 0x1F AND DUP3 ADD SWAP2 JUMPDEST POP POP POP POP POP DUP2 JUMP JUMPDEST PUSH1 0x40 MLOAD DUP1 PUSH1 0x40 ADD PUSH1 0x40 MSTORE DUP1 DUP4 DUP2 MSTORE PUSH1 0x20 ADD DUP3 DUP2 MSTORE POP PUSH1 0x9 PUSH0 CALLER PUSH20 0xFFFFFFFFFFFFFFFFFFFFFFFFFFFFFFFFFFFFFFFF AND PUSH20 0xFFFFFFFFFFFFFFFFFFFFFFFFFFFFFFFFFFFFFFFF AND DUP2 MSTORE PUSH1 0x20 ADD SWAP1 DUP2 MSTORE PUSH1 0x20 ADD PUSH0 KECCAK256 PUSH0 DUP6 DUP2 MSTORE PUSH1 0x20 ADD SWAP1 DUP2 MSTORE PUSH1 0x20 ADD PUSH0 KECCAK256 PUSH0 DUP3 ADD MLOAD DUP2 PUSH0 ADD SWAP1 DUP2 PUSH2 0x56B SWAP2 SWAP1 PUSH2 0xF28 JUMP JUMPDEST POP PUSH1 0x20 DUP3 ADD MLOAD DUP2 PUSH1 0x1 ADD SWAP1 DUP2 PUSH2 0x581 SWAP2 SWAP1 PUSH2 0xF28 JUMP JUMPDEST POP SWAP1 POP POP POP POP POP JUMP JUMPDEST PUSH1 0x8 PUSH1 0x20 MSTORE DUP1 PUSH0 MSTORE PUSH1 0x40 PUSH0 KECCAK256 PUSH0 SWAP2 POP SWAP1 POP DUP1 PUSH0 ADD DUP1 SLOAD PUSH2 0x5A9 SWAP1 PUSH2 0xD58 JUMP JUMPDEST DUP1 PUSH1 0x1F ADD PUSH1 0x20 DUP1 SWAP2 DIV MUL PUSH1 0x20 ADD PUSH1 0x40 MLOAD SWAP1 DUP2 ADD PUSH1 0x40 MSTORE DUP1 SWAP3 SWAP2 SWAP1 DUP2 DUP2 MSTORE PUSH1 0x20 ADD DUP3 DUP1 SLOAD PUSH2 0x5D5 SWAP1 PUSH2 0xD58 JUMP JUMPDEST DUP1 ISZERO PUSH2 0x620 JUMPI DUP1 PUSH1 0x1F LT PUSH2 0x5F7 JUMPI PUSH2 0x100 DUP1 DUP4 SLOAD DIV MUL DUP4 MSTORE SWAP2 PUSH1 0x20 ADD SWAP2 PUSH2 0x620 JUMP JUMPDEST DUP3 ADD SWAP2 SWAP1 PUSH0 MSTORE PUSH1 0x20 PUSH0 KECCAK256 SWAP1 JUMPDEST DUP2 SLOAD DUP2 MSTORE SWAP1 PUSH1 0x1 ADD SWAP1 PUSH1 0x20 ADD DUP1 DUP4 GT PUSH2 0x603 JUMPI DUP3 SWAP1 SUB PUSH1 0x1F AND DUP3 ADD SWAP2 JUMPDEST POP POP POP POP POP SWAP1 DUP1 PUSH1 0x1 ADD DUP1 SLOAD PUSH2 0x635 SWAP1 PUSH2 0xD58 JUMP JUMPDEST DUP1 PUSH1 0x1F ADD PUSH1 0x20 DUP1 SWAP2 DIV MUL PUSH1 0x20 ADD PUSH1 0x40 MLOAD SWAP1 DUP2 ADD PUSH1 0x40 MSTORE DUP1 SWAP3 SWAP2 SWAP1 DUP2 DUP2 MSTORE PUSH1 0x20 ADD DUP3 DUP1 SLOAD PUSH2 0x661 SWAP1 PUSH2 0xD58 JUMP JUMPDEST DUP1 ISZERO PUSH2 0x6AC JUMPI DUP1 PUSH1 0x1F LT PUSH2 0x683 JUMPI PUSH2 0x100 DUP1 DUP4 SLOAD DIV MUL DUP4 MSTORE SWAP2 PUSH1 0x20 ADD SWAP2 PUSH2 0x6AC JUMP JUMPDEST DUP3 ADD SWAP2 SWAP1 PUSH0 MSTORE PUSH1 0x20 PUSH0 KECCAK256 SWAP1 JUMPDEST DUP2 SLOAD DUP2 MSTORE SWAP1 PUSH1 0x1 ADD SWAP1 PUSH1 0x20 ADD DUP1 DUP4 GT PUSH2 0x68F JUMPI DUP3 SWAP1 SUB PUSH1 0x1F AND DUP3 ADD SWAP2 JUMPDEST POP POP POP POP POP SWAP1 POP DUP3 JUMP JUMPDEST PUSH1 0x6 DUP2 DUP2 SLOAD DUP2 LT PUSH2 0x6C5 JUMPI PUSH0 DUP1 REVERT JUMPDEST SWAP1 PUSH0 MSTORE PUSH1 0x20 PUSH0 KECCAK256 ADD PUSH0 SWAP2 POP SWAP1 POP SLOAD DUP2 JUMP JUMPDEST PUSH1 0x4 DUP1 PUSH0 ADD SLOAD SWAP1 DUP1 PUSH1 0x1 ADD DUP1 SLOAD PUSH2 0x6EC SWAP1 PUSH2 0xD58 JUMP JUMPDEST DUP1 PUSH1 0x1F ADD PUSH1 0x20 DUP1 SWAP2 DIV MUL PUSH1 0x20 ADD PUSH1 0x40 MLOAD SWAP1 DUP2 ADD PUSH1 0x40 MSTORE DUP1 SWAP3 SWAP2 SWAP1 DUP2 DUP2 MSTORE PUSH1 0x20 ADD DUP3 DUP1 SLOAD PUSH2 0x718 SWAP1 PUSH2 0xD58 JUMP JUMPDEST DUP1 ISZERO PUSH2 0x763 JUMPI DUP1 PUSH1 0x1F LT PUSH2 0x73A JUMPI PUSH2 0x100 DUP1 DUP4 SLOAD DIV MUL DUP4 MSTORE SWAP2 PUSH1 0x20 ADD SWAP2 PUSH2 0x763 JUMP JUMPDEST DUP3 ADD SWAP2 SWAP1 PUSH0 MSTORE PUSH1 0x20 PUSH0 KECCAK256 SWAP1 JUMPDEST DUP2 SLOAD DUP2 MSTORE SWAP1 PUSH1 0x1 ADD SWAP1 PUSH1 0x20 ADD DUP1 DUP4 GT PUSH2 0x746 JUMPI DUP3 SWAP1 SUB PUSH1 0x1F AND DUP3 ADD SWAP2 JUMPDEST POP POP POP POP POP SWAP1 POP DUP3 JUMP JUMPDEST PUSH1 0x6 DUP2 SWAP1 DUP1 PUSH1 0x1 DUP2 SLOAD ADD DUP1 DUP3 SSTORE DUP1 SWAP2 POP POP PUSH1 0x1 SWAP1 SUB SWAP1 PUSH0 MSTORE PUSH1 0x20 PUSH0 KECCAK256 ADD PUSH0 SWAP1 SWAP2 SWAP1 SWAP2 SWAP1 SWAP2 POP SSTORE POP JUMP JUMPDEST PUSH0 PUSH0 PUSH0 SWAP1 POP PUSH0 PUSH0 SWAP1 POP JUMPDEST DUP4 MLOAD DUP2 LT ISZERO PUSH2 0x7ED JUMPI PUSH2 0x7CC DUP5 DUP3 DUP2 MLOAD DUP2 LT PUSH2 0x7BF JUMPI PUSH2 0x7BE PUSH2 0x1054 JUMP JUMPDEST JUMPDEST PUSH1 0x20 MUL PUSH1 0x20 ADD ADD MLOAD PUSH2 0x435 JUMP JUMPDEST ISZERO PUSH2 0x7E0 JUMPI DUP2 DUP1 PUSH2 0x7DC SWAP1 PUSH2 0x10AE JUMP JUMPDEST SWAP3 POP POP JUMPDEST DUP1 DUP1 PUSH1 0x1 ADD SWAP2 POP POP PUSH2 0x7A0 JUMP JUMPDEST POP DUP1 SWAP2 POP POP SWAP2 SWAP1 POP JUMP JUMPDEST PUSH1 0xA DUP2 DUP2 SLOAD DUP2 LT PUSH2 0x806 JUMPI PUSH0 DUP1 REVERT JUMPDEST SWAP1 PUSH0 MSTORE PUSH1 0x20 PUSH0 KECCAK256 ADD PUSH0 SWAP2 POP SWAP1 POP SLOAD DUP2 JUMP JUMPDEST PUSH0 PUSH1 0x40 MLOAD SWAP1 POP SWAP1 JUMP JUMPDEST PUSH0 PUSH0 REVERT JUMPDEST PUSH0 PUSH0 REVERT JUMPDEST PUSH0 DUP2 SWAP1 POP SWAP2 SWAP1 POP JUMP JUMPDEST PUSH2 0x83A DUP2 PUSH2 0x828 JUMP JUMPDEST DUP2 EQ PUSH2 0x844 JUMPI PUSH0 PUSH0 REVERT JUMPDEST POP JUMP JUMPDEST PUSH0 DUP2 CALLDATALOAD SWAP1 POP PUSH2 0x855 DUP2 PUSH2 0x831 JUMP JUMPDEST SWAP3 SWAP2 POP POP JUMP JUMPDEST PUSH0 PUSH0 REVERT JUMPDEST PUSH0 PUSH0 REVERT JUMPDEST PUSH0 PUSH1 0x1F NOT PUSH1 0x1F DUP4 ADD AND SWAP1 POP SWAP2 SWAP1 POP JUMP JUMPDEST PUSH32 0x4E487B7100000000000000000000000000000000000000000000000000000000 PUSH0 MSTORE PUSH1 0x41 PUSH1 0x4 MSTORE PUSH1 0x24 PUSH0 REVERT JUMPDEST PUSH2 0x8A9 DUP3 PUSH2 0x863 JUMP JUMPDEST DUP2 ADD DUP2 DUP2 LT PUSH8 0xFFFFFFFFFFFFFFFF DUP3 GT OR ISZERO PUSH2 0x8C8 JUMPI PUSH2 0x8C7 PUSH2 0x873 JUMP JUMPDEST JUMPDEST DUP1 PUSH1 0x40 MSTORE POP POP POP JUMP JUMPDEST PUSH0 PUSH2 0x8DA PUSH2 0x817 JUMP JUMPDEST SWAP1 POP PUSH2 0x8E6 DUP3 DUP3 PUSH2 0x8A0 JUMP JUMPDEST SWAP2 SWAP1 POP JUMP JUMPDEST PUSH0 PUSH8 0xFFFFFFFFFFFFFFFF DUP3 GT ISZERO PUSH2 0x905 JUMPI PUSH2 0x904 PUSH2 0x873 JUMP JUMPDEST JUMPDEST PUSH2 0x90E DUP3 PUSH2 0x863 JUMP JUMPDEST SWAP1 POP PUSH1 0x20 DUP2 ADD SWAP1 POP SWAP2 SWAP1 POP JUMP JUMPDEST DUP3 DUP2 DUP4 CALLDATACOPY PUSH0 DUP4 DUP4 ADD MSTORE POP POP POP JUMP JUMPDEST PUSH0 PUSH2 0x93B PUSH2 0x936 DUP5 PUSH2 0x8EB JUMP JUMPDEST PUSH2 0x8D1 JUMP JUMPDEST SWAP1 POP DUP3 DUP2 MSTORE PUSH1 0x20 DUP2 ADD DUP5 DUP5 DUP5 ADD GT ISZERO PUSH2 0x957 JUMPI PUSH2 0x956 PUSH2 0x85F JUMP JUMPDEST JUMPDEST PUSH2 0x962 DUP5 DUP3 DUP6 PUSH2 0x91B JUMP JUMPDEST POP SWAP4 SWAP3 POP POP POP JUMP JUMPDEST PUSH0 DUP3 PUSH1 0x1F DUP4 ADD SLT PUSH2 0x97E JUMPI PUSH2 0x97D PUSH2 0x85B JUMP JUMPDEST JUMPDEST DUP2 CALLDATALOAD PUSH2 0x98E DUP5 DUP3 PUSH1 0x20 DUP7 ADD PUSH2 0x929 JUMP JUMPDEST SWAP2 POP POP SWAP3 SWAP2 POP POP JUMP JUMPDEST PUSH0 PUSH0 PUSH0 PUSH1 0x60 DUP5 DUP7 SUB SLT ISZERO PUSH2 0x9AE JUMPI PUSH2 0x9AD PUSH2 0x820 JUMP JUMPDEST JUMPDEST PUSH0 PUSH2 0x9BB DUP7 DUP3 DUP8 ADD PUSH2 0x847 JUMP JUMPDEST SWAP4 POP POP PUSH1 0x20 DUP5 ADD CALLDATALOAD PUSH8 0xFFFFFFFFFFFFFFFF DUP2 GT ISZERO PUSH2 0x9DC JUMPI PUSH2 0x9DB PUSH2 0x824 JUMP JUMPDEST JUMPDEST PUSH2 0x9E8 DUP7 DUP3 DUP8 ADD PUSH2 0x96A JUMP JUMPDEST SWAP3 POP POP PUSH1 0x40 DUP5 ADD CALLDATALOAD PUSH8 0xFFFFFFFFFFFFFFFF DUP2 GT ISZERO PUSH2 0xA09 JUMPI PUSH2 0xA08 PUSH2 0x824 JUMP JUMPDEST JUMPDEST PUSH2 0xA15 DUP7 DUP3 DUP8 ADD PUSH2 0x96A JUMP JUMPDEST SWAP2 POP POP SWAP3 POP SWAP3 POP SWAP3 JUMP JUMPDEST PUSH2 0xA28 DUP2 PUSH2 0x828 JUMP JUMPDEST DUP3 MSTORE POP POP JUMP JUMPDEST PUSH0 PUSH1 0x20 DUP3 ADD SWAP1 POP PUSH2 0xA41 PUSH0 DUP4 ADD DUP5 PUSH2 0xA1F JUMP JUMPDEST SWAP3 SWAP2 POP POP JUMP JUMPDEST PUSH0 PUSH20 0xFFFFFFFFFFFFFFFFFFFFFFFFFFFFFFFFFFFFFFFF DUP3 AND SWAP1 POP SWAP2 SWAP1 POP JUMP JUMPDEST PUSH0 PUSH2 0xA70 DUP3 PUSH2 0xA47 JUMP JUMPDEST SWAP1 POP SWAP2 SWAP1 POP JUMP JUMPDEST PUSH2 0xA80 DUP2 PUSH2 0xA66 JUMP JUMPDEST DUP2 EQ PUSH2 0xA8A JUMPI PUSH0 PUSH0 REVERT JUMPDEST POP JUMP JUMPDEST PUSH0 DUP2 CALLDATALOAD SWAP1 POP PUSH2 0xA9B DUP2 PUSH2 0xA77 JUMP JUMPDEST SWAP3 SWAP2 POP POP JUMP JUMPDEST PUSH0 PUSH0 PUSH1 0x40 DUP4 DUP6 SUB SLT ISZERO PUSH2 0xAB7 JUMPI PUSH2 0xAB6 PUSH2 0x820 JUMP JUMPDEST JUMPDEST PUSH0 PUSH2 0xAC4 DUP6 DUP3 DUP7 ADD PUSH2 0xA8D JUMP JUMPDEST SWAP3 POP POP PUSH1 0x20 PUSH2 0xAD5 DUP6 DUP3 DUP7 ADD PUSH2 0x847 JUMP JUMPDEST SWAP2 POP POP SWAP3 POP SWAP3 SWAP1 POP JUMP JUMPDEST PUSH0 DUP2 MLOAD SWAP1 POP SWAP2 SWAP1 POP JUMP JUMPDEST PUSH0 DUP3 DUP3 MSTORE PUSH1 0x20 DUP3 ADD SWAP1 POP SWAP3 SWAP2 POP POP JUMP JUMPDEST DUP3 DUP2 DUP4 MCOPY PUSH0 DUP4 DUP4 ADD MSTORE POP POP POP JUMP JUMPDEST PUSH0 PUSH2 0xB11 DUP3 PUSH2 0xADF JUMP JUMPDEST PUSH2 0xB1B DUP2 DUP6 PUSH2 0xAE9 JUMP JUMPDEST SWAP4 POP PUSH2 0xB2B DUP2 DUP6 PUSH1 0x20 DUP7 ADD PUSH2 0xAF9 JUMP JUMPDEST PUSH2 0xB34 DUP2 PUSH2 0x863 JUMP JUMPDEST DUP5 ADD SWAP2 POP POP SWAP3 SWAP2 POP POP JUMP JUMPDEST PUSH0 PUSH1 0x40 DUP3 ADD SWAP1 POP DUP2 DUP2 SUB PUSH0 DUP4 ADD MSTORE PUSH2 0xB57 DUP2 DUP6 PUSH2 0xB07 JUMP JUMPDEST SWAP1 POP DUP2 DUP2 SUB PUSH1 0x20 DUP4 ADD MSTORE PUSH2 0xB6B DUP2 DUP5 PUSH2 0xB07 JUMP JUMPDEST SWAP1 POP SWAP4 SWAP3 POP POP POP JUMP JUMPDEST PUSH0 PUSH1 0x20 DUP3 DUP5 SUB SLT ISZERO PUSH2 0xB89 JUMPI PUSH2 0xB88 PUSH2 0x820 JUMP JUMPDEST JUMPDEST PUSH0 PUSH2 0xB96 DUP5 DUP3 DUP6 ADD PUSH2 0x847 JUMP JUMPDEST SWAP2 POP POP SWAP3 SWAP2 POP POP JUMP JUMPDEST PUSH0 DUP2 ISZERO ISZERO SWAP1 POP SWAP2 SWAP1 POP JUMP JUMPDEST PUSH2 0xBB3 DUP2 PUSH2 0xB9F JUMP JUMPDEST DUP3 MSTORE POP POP JUMP JUMPDEST PUSH0 PUSH1 0x20 DUP3 ADD SWAP1 POP PUSH2 0xBCC PUSH0 DUP4 ADD DUP5 PUSH2 0xBAA JUMP JUMPDEST SWAP3 SWAP2 POP POP JUMP JUMPDEST PUSH0 PUSH1 0x20 DUP3 ADD SWAP1 POP DUP2 DUP2 SUB PUSH0 DUP4 ADD MSTORE PUSH2 0xBEA DUP2 DUP5 PUSH2 0xB07 JUMP JUMPDEST SWAP1 POP SWAP3 SWAP2 POP POP JUMP JUMPDEST PUSH0 PUSH1 0x40 DUP3 ADD SWAP1 POP PUSH2 0xC05 PUSH0 DUP4 ADD DUP6 PUSH2 0xA1F JUMP JUMPDEST DUP2 DUP2 SUB PUSH1 0x20 DUP4 ADD MSTORE PUSH2 0xC17 DUP2 DUP5 PUSH2 0xB07 JUMP JUMPDEST SWAP1 POP SWAP4 SWAP3 POP POP POP JUMP JUMPDEST PUSH0 PUSH8 0xFFFFFFFFFFFFFFFF DUP3 GT ISZERO PUSH2 0xC3A JUMPI PUSH2 0xC39 PUSH2 0x873 JUMP JUMPDEST JUMPDEST PUSH1 0x20 DUP3 MUL SWAP1 POP PUSH1 0x20 DUP2 ADD SWAP1 POP SWAP2 SWAP1 POP JUMP JUMPDEST PUSH0 PUSH0 REVERT JUMPDEST PUSH0 PUSH2 0xC61 PUSH2 0xC5C DUP5 PUSH2 0xC20 JUMP JUMPDEST PUSH2 0x8D1 JUMP JUMPDEST SWAP1 POP DUP1 DUP4 DUP3 MSTORE PUSH1 0x20 DUP3 ADD SWAP1 POP PUSH1 0x20 DUP5 MUL DUP4 ADD DUP6 DUP2 GT ISZERO PUSH2 0xC84 JUMPI PUSH2 0xC83 PUSH2 0xC4B JUMP JUMPDEST JUMPDEST DUP4 JUMPDEST DUP2 DUP2 LT ISZERO PUSH2 0xCAD JUMPI DUP1 PUSH2 0xC99 DUP9 DUP3 PUSH2 0x847 JUMP JUMPDEST DUP5 MSTORE PUSH1 0x20 DUP5 ADD SWAP4 POP POP PUSH1 0x20 DUP2 ADD SWAP1 POP PUSH2 0xC86 JUMP JUMPDEST POP POP POP SWAP4 SWAP3 POP POP POP JUMP JUMPDEST PUSH0 DUP3 PUSH1 0x1F DUP4 ADD SLT PUSH2 0xCCB JUMPI PUSH2 0xCCA PUSH2 0x85B JUMP JUMPDEST JUMPDEST DUP2 CALLDATALOAD PUSH2 0xCDB DUP5 DUP3 PUSH1 0x20 DUP7 ADD PUSH2 0xC4F JUMP JUMPDEST SWAP2 POP POP SWAP3 SWAP2 POP POP JUMP JUMPDEST PUSH0 PUSH1 0x20 DUP3 DUP5 SUB SLT ISZERO PUSH2 0xCF9 JUMPI PUSH2 0xCF8 PUSH2 0x820 JUMP JUMPDEST JUMPDEST PUSH0 DUP3 ADD CALLDATALOAD PUSH8 0xFFFFFFFFFFFFFFFF DUP2 GT ISZERO PUSH2 0xD16 JUMPI PUSH2 0xD15 PUSH2 0x824 JUMP JUMPDEST JUMPDEST PUSH2 0xD22 DUP5 DUP3 DUP6 ADD PUSH2 0xCB7 JUMP JUMPDEST SWAP2 POP POP SWAP3 SWAP2 POP POP JUMP JUMPDEST PUSH32 0x4E487B7100000000000000000000000000000000000000000000000000000000 PUSH0 MSTORE PUSH1 0x22 PUSH1 0x4 MSTORE PUSH1 0x24 PUSH0 REVERT JUMPDEST PUSH0 PUSH1 0x2 DUP3 DIV SWAP1 POP PUSH1 0x1 DUP3 AND DUP1 PUSH2 0xD6F JUMPI PUSH1 0x7F DUP3 AND SWAP2 POP JUMPDEST PUSH1 0x20 DUP3 LT DUP2 SUB PUSH2 0xD82 JUMPI PUSH2 0xD81 PUSH2 0xD2B JUMP JUMPDEST JUMPDEST POP SWAP2 SWAP1 POP JUMP JUMPDEST PUSH0 DUP2 SWAP1 POP DUP2 PUSH0 MSTORE PUSH1 0x20 PUSH0 KECCAK256 SWAP1 POP SWAP2 SWAP1 POP JUMP JUMPDEST PUSH0 PUSH1 0x20 PUSH1 0x1F DUP4 ADD DIV SWAP1 POP SWAP2 SWAP1 POP JUMP JUMPDEST PUSH0 DUP3 DUP3 SHL SWAP1 POP SWAP3 SWAP2 POP POP JUMP JUMPDEST PUSH0 PUSH1 0x8 DUP4 MUL PUSH2 0xDE4 PUSH32 0xFFFFFFFFFFFFFFFFFFFFFFFFFFFFFFFFFFFFFFFFFFFFFFFFFFFFFFFFFFFFFFFF DUP3 PUSH2 0xDA9 JUMP JUMPDEST PUSH2 0xDEE DUP7 DUP4 PUSH2 0xDA9 JUMP JUMPDEST SWAP6 POP DUP1 NOT DUP5 AND SWAP4 POP DUP1 DUP7 AND DUP5 OR SWAP3 POP POP POP SWAP4 SWAP3 POP POP POP JUMP JUMPDEST PUSH0 DUP2 SWAP1 POP SWAP2 SWAP1 POP JUMP JUMPDEST PUSH0 PUSH2 0xE29 PUSH2 0xE24 PUSH2 0xE1F DUP5 PUSH2 0x828 JUMP JUMPDEST PUSH2 0xE06 JUMP JUMPDEST PUSH2 0x828 JUMP JUMPDEST SWAP1 POP SWAP2 SWAP1 POP JUMP JUMPDEST PUSH0 DUP2 SWAP1 POP SWAP2 SWAP1 POP JUMP JUMPDEST PUSH2 0xE42 DUP4 PUSH2 0xE0F JUMP JUMPDEST PUSH2 0xE56 PUSH2 0xE4E DUP3 PUSH2 0xE30 JUMP JUMPDEST DUP5 DUP5 SLOAD PUSH2 0xDB5 JUMP JUMPDEST DUP3 SSTORE POP POP POP POP JUMP JUMPDEST PUSH0 PUSH0 SWAP1 POP SWAP1 JUMP JUMPDEST PUSH2 0xE6D PUSH2 0xE5E JUMP JUMPDEST PUSH2 0xE78 DUP2 DUP5 DUP5 PUSH2 0xE39 JUMP JUMPDEST POP POP POP JUMP JUMPDEST JUMPDEST DUP2 DUP2 LT ISZERO PUSH2 0xE9B JUMPI PUSH2 0xE90 PUSH0 DUP3 PUSH2 0xE65 JUMP JUMPDEST PUSH1 0x1 DUP2 ADD SWAP1 POP PUSH2 0xE7E JUMP JUMPDEST POP POP JUMP JUMPDEST PUSH1 0x1F DUP3 GT ISZERO PUSH2 0xEE0 JUMPI PUSH2 0xEB1 DUP2 PUSH2 0xD88 JUMP JUMPDEST PUSH2 0xEBA DUP5 PUSH2 0xD9A JUMP JUMPDEST DUP2 ADD PUSH1 0x20 DUP6 LT ISZERO PUSH2 0xEC9 JUMPI DUP2 SWAP1 POP JUMPDEST PUSH2 0xEDD PUSH2 0xED5 DUP6 PUSH2 0xD9A JUMP JUMPDEST DUP4 ADD DUP3 PUSH2 0xE7D JUMP JUMPDEST POP POP JUMPDEST POP POP POP JUMP JUMPDEST PUSH0 DUP3 DUP3 SHR SWAP1 POP SWAP3 SWAP2 POP POP JUMP JUMPDEST PUSH0 PUSH2 0xF00 PUSH0 NOT DUP5 PUSH1 0x8 MUL PUSH2 0xEE5 JUMP JUMPDEST NOT DUP1 DUP4 AND SWAP2 POP POP SWAP3 SWAP2 POP POP JUMP JUMPDEST PUSH0 PUSH2 0xF18 DUP4 DUP4 PUSH2 0xEF1 JUMP JUMPDEST SWAP2 POP DUP3 PUSH1 0x2 MUL DUP3 OR SWAP1 POP SWAP3 SWAP2 POP POP JUMP JUMPDEST PUSH2 0xF31 DUP3 PUSH2 0xADF JUMP JUMPDEST PUSH8 0xFFFFFFFFFFFFFFFF DUP2 GT ISZERO PUSH2 0xF4A JUMPI PUSH2 0xF49 PUSH2 0x873 JUMP JUMPDEST JUMPDEST PUSH2 0xF54 DUP3 SLOAD PUSH2 0xD58 JUMP JUMPDEST PUSH2 0xF5F DUP3 DUP3 DUP6 PUSH2 0xE9F JUMP JUMPDEST PUSH0 PUSH1 0x20 SWAP1 POP PUSH1 0x1F DUP4 GT PUSH1 0x1 DUP2 EQ PUSH2 0xF90 JUMPI PUSH0 DUP5 ISZERO PUSH2 0xF7E JUMPI DUP3 DUP8 ADD MLOAD SWAP1 POP JUMPDEST PUSH2 0xF88 DUP6 DUP3 PUSH2 0xF0D JUMP JUMPDEST DUP7 SSTORE POP PUSH2 0xFEF JUMP JUMPDEST PUSH1 0x1F NOT DUP5 AND PUSH2 0xF9E DUP7 PUSH2 0xD88 JUMP JUMPDEST PUSH0 JUMPDEST DUP3 DUP2 LT ISZERO PUSH2 0xFC5 JUMPI DUP5 DUP10 ADD MLOAD DUP3 SSTORE PUSH1 0x1 DUP3 ADD SWAP2 POP PUSH1 0x20 DUP6 ADD SWAP5 POP PUSH1 0x20 DUP2 ADD SWAP1 POP PUSH2 0xFA0 JUMP JUMPDEST DUP7 DUP4 LT ISZERO PUSH2 0xFE2 JUMPI DUP5 DUP10 ADD MLOAD PUSH2 0xFDE PUSH1 0x1F DUP10 AND DUP3 PUSH2 0xEF1 JUMP JUMPDEST DUP4 SSTORE POP JUMPDEST PUSH1 0x1 PUSH1 0x2 DUP9 MUL ADD DUP9 SSTORE POP POP POP JUMPDEST POP POP POP POP POP POP JUMP JUMPDEST PUSH32 0x4E487B7100000000000000000000000000000000000000000000000000000000 PUSH0 MSTORE PUSH1 0x12 PUSH1 0x4 MSTORE PUSH1 0x24 PUSH0 REVERT JUMPDEST PUSH0 PUSH2 0x102E DUP3 PUSH2 0x828 JUMP JUMPDEST SWAP2 POP PUSH2 0x1039 DUP4 PUSH2 0x828 JUMP JUMPDEST SWAP3 POP DUP3 PUSH2 0x1049 JUMPI PUSH2 0x1048 PUSH2 0xFF7 JUMP JUMPDEST JUMPDEST DUP3 DUP3 MOD SWAP1 POP SWAP3 SWAP2 POP POP JUMP JUMPDEST PUSH32 0x4E487B7100000000000000000000000000000000000000000000000000000000 PUSH0 MSTORE PUSH1 0x32 PUSH1 0x4 MSTORE PUSH1 0x24 PUSH0 REVERT JUMPDEST PUSH32 0x4E487B7100000000000000000000000000000000000000000000000000000000 PUSH0 MSTORE PUSH1 0x11 PUSH1 0x4 MSTORE PUSH1 0x24 PUSH0 REVERT JUMPDEST PUSH0 PUSH2 0x10B8 DUP3 PUSH2 0x828 JUMP JUMPDEST SWAP2 POP PUSH32 0xFFFFFFFFFFFFFFFFFFFFFFFFFFFFFFFFFFFFFFFFFFFFFFFFFFFFFFFFFFFFFFFF DUP3 SUB PUSH2 0x10EA JUMPI PUSH2 0x10E9 PUSH2 0x1081 JUMP JUMPDEST JUMPDEST PUSH1 0x1 DUP3 ADD SWAP1 POP SWAP2 SWAP1 POP JUMP INVALID LOG2 PUSH5 0x6970667358 0x22 SLT KECCAK256 DIV 0xA9 PUSH14 0xAF6371F148F16C213117F30387F3 0xCE SELFDESTRUCT PUSH19 0x6DC191C88A9BCC043ACDBD7864736F6C634300 ADDMOD SHR STOP CALLER "
				},
				"gasEstimates": {
					"creation": {
						"codeDepositCost": "879000",
						"executionCost": "infinite",
						"totalCost": "infinite"
					},
					"external": {
						"addBook(uint256,string,string)": "infinite",
						"addMyBook(uint256,string,string)": "infinite",
						"append(uint256)": "46887",
						"arr(uint256)": "infinite",
						"books(uint256)": "infinite",
						"countEvens(uint256[])": "infinite",
						"getValue()": "367",
						"isEven(uint256)": "infinite",
						"myBooks(address,uint256)": "infinite",
						"myStruct()": "infinite",
						"names(uint256)": "infinite",
						"nums(uint256)": "infinite"
					}
				},
				"methodIdentifiers": {
					"addBook(uint256,string,string)": "028414f2",
					"addMyBook(uint256,string,string)": "493ec707",
					"append(uint256)": "e33b8707",
					"arr(uint256)": "71e5ee5f",
					"books(uint256)": "68744046",
					"countEvens(uint256[])": "fcee5cbd",
					"getValue()": "20965255",
					"isEven(uint256)": "2a2e1320",
					"myBooks(address,uint256)": "27d3553f",
					"myStruct()": "8bc9fe6c",
					"names(uint256)": "4622ab03",
					"nums(uint256)": "fd1ee54c"
				}
			},
			"storageLayout": {
				"storage": [
					{
						"astId": 3,
						"contract": "contracts/2. MyContract.sol:MyContract",
						"label": "value",
						"offset": 0,
						"slot": "0",
						"type": "t_int256"
					},
					{
						"astId": 6,
						"contract": "contracts/2. MyContract.sol:MyContract",
						"label": "str",
						"offset": 0,
						"slot": "1",
						"type": "t_string_storage"
					},
					{
						"astId": 9,
						"contract": "contracts/2. MyContract.sol:MyContract",
						"label": "str2",
						"offset": 0,
						"slot": "2",
						"type": "t_bytes32"
					},
					{
						"astId": 11,
						"contract": "contracts/2. MyContract.sol:MyContract",
						"label": "adr",
						"offset": 0,
						"slot": "3",
						"type": "t_address"
					},
					{
						"astId": 23,
						"contract": "contracts/2. MyContract.sol:MyContract",
						"label": "myStruct",
						"offset": 0,
						"slot": "4",
						"type": "t_struct(MyStruct)16_storage"
					},
					{
						"astId": 42,
						"contract": "contracts/2. MyContract.sol:MyContract",
						"label": "arr",
						"offset": 0,
						"slot": "6",
						"type": "t_array(t_uint256)dyn_storage"
					},
					{
						"astId": 58,
						"contract": "contracts/2. MyContract.sol:MyContract",
						"label": "names",
						"offset": 0,
						"slot": "7",
						"type": "t_mapping(t_uint256,t_string_storage)"
					},
					{
						"astId": 63,
						"contract": "contracts/2. MyContract.sol:MyContract",
						"label": "books",
						"offset": 0,
						"slot": "8",
						"type": "t_mapping(t_uint256,t_struct(Book)75_storage)"
					},
					{
						"astId": 70,
						"contract": "contracts/2. MyContract.sol:MyContract",
						"label": "myBooks",
						"offset": 0,
						"slot": "9",
						"type": "t_mapping(t_address,t_mapping(t_uint256,t_struct(Book)75_storage))"
					},
					{
						"astId": 145,
						"contract": "contracts/2. MyContract.sol:MyContract",
						"label": "nums",
						"offset": 0,
						"slot": "10",
						"type": "t_array(t_uint256)dyn_storage"
					}
				],
				"types": {
					"t_address": {
						"encoding": "inplace",
						"label": "address",
						"numberOfBytes": "20"
					},
					"t_array(t_uint256)dyn_storage": {
						"base": "t_uint256",
						"encoding": "dynamic_array",
						"label": "uint256[]",
						"numberOfBytes": "32"
					},
					"t_bytes32": {
						"encoding": "inplace",
						"label": "bytes32",
						"numberOfBytes": "32"
					},
					"t_int256": {
						"encoding": "inplace",
						"label": "int256",
						"numberOfBytes": "32"
					},
					"t_mapping(t_address,t_mapping(t_uint256,t_struct(Book)75_storage))": {
						"encoding": "mapping",
						"key": "t_address",
						"label": "mapping(address => mapping(uint256 => struct MyContract.Book))",
						"numberOfBytes": "32",
						"value": "t_mapping(t_uint256,t_struct(Book)75_storage)"
					},
					"t_mapping(t_uint256,t_string_storage)": {
						"encoding": "mapping",
						"key": "t_uint256",
						"label": "mapping(uint256 => string)",
						"numberOfBytes": "32",
						"value": "t_string_storage"
					},
					"t_mapping(t_uint256,t_struct(Book)75_storage)": {
						"encoding": "mapping",
						"key": "t_uint256",
						"label": "mapping(uint256 => struct MyContract.Book)",
						"numberOfBytes": "32",
						"value": "t_struct(Book)75_storage"
					},
					"t_string_storage": {
						"encoding": "bytes",
						"label": "string",
						"numberOfBytes": "32"
					},
					"t_struct(Book)75_storage": {
						"encoding": "inplace",
						"label": "struct MyContract.Book",
						"members": [
							{
								"astId": 72,
								"contract": "contracts/2. MyContract.sol:MyContract",
								"label": "title",
								"offset": 0,
								"slot": "0",
								"type": "t_string_storage"
							},
							{
								"astId": 74,
								"contract": "contracts/2. MyContract.sol:MyContract",
								"label": "author",
								"offset": 0,
								"slot": "1",
								"type": "t_string_storage"
							}
						],
						"numberOfBytes": "64"
					},
					"t_struct(MyStruct)16_storage": {
						"encoding": "inplace",
						"label": "struct MyContract.MyStruct",
						"members": [
							{
								"astId": 13,
								"contract": "contracts/2. MyContract.sol:MyContract",
								"label": "val1",
								"offset": 0,
								"slot": "0",
								"type": "t_uint256"
							},
							{
								"astId": 15,
								"contract": "contracts/2. MyContract.sol:MyContract",
								"label": "val2",
								"offset": 0,
								"slot": "1",
								"type": "t_string_storage"
							}
						],
						"numberOfBytes": "64"
					},
					"t_uint256": {
						"encoding": "inplace",
						"label": "uint256",
						"numberOfBytes": "32"
					}
				}
			},
			"userdoc": {
				"kind": "user",
				"methods": {},
				"version": 1
			}
		}
	}
}